{
  "_format": "hh-sol-artifact-1",
  "contractName": "ReputationSystem",
  "sourceName": "contracts/ReputationSystem.sol",
  "abi": [
    {
      "inputs": [
        {
          "internalType": "address",
          "name": "initialOwner",
          "type": "address"
        }
      ],
      "stateMutability": "nonpayable",
      "type": "constructor"
    },
    {
      "inputs": [
        {
          "internalType": "address",
          "name": "owner",
          "type": "address"
        }
      ],
      "name": "OwnableInvalidOwner",
      "type": "error"
    },
    {
      "inputs": [
        {
          "internalType": "address",
          "name": "account",
          "type": "address"
        }
      ],
      "name": "OwnableUnauthorizedAccount",
      "type": "error"
    },
    {
      "inputs": [],
      "name": "ReentrancyGuardReentrantCall",
      "type": "error"
    },
    {
      "anonymous": false,
      "inputs": [
        {
          "indexed": true,
          "internalType": "address",
          "name": "user",
          "type": "address"
        },
        {
          "indexed": false,
          "internalType": "uint256",
          "name": "confidenceScore",
          "type": "uint256"
        },
        {
          "indexed": false,
          "internalType": "bytes32",
          "name": "evidenceHash",
          "type": "bytes32"
        }
      ],
      "name": "AIValidationReceived",
      "type": "event"
    },
    {
      "anonymous": false,
      "inputs": [
        {
          "indexed": true,
          "internalType": "address",
          "name": "endorser",
          "type": "address"
        },
        {
          "indexed": true,
          "internalType": "address",
          "name": "endorsed",
          "type": "address"
        }
      ],
      "name": "EndorsementGiven",
      "type": "event"
    },
    {
      "anonymous": false,
      "inputs": [
        {
          "indexed": true,
          "internalType": "address",
          "name": "user",
          "type": "address"
        },
        {
          "indexed": false,
          "internalType": "string",
          "name": "area",
          "type": "string"
        },
        {
          "indexed": false,
          "internalType": "uint256",
          "name": "score",
          "type": "uint256"
        }
      ],
      "name": "ExpertiseAreaUpdated",
      "type": "event"
    },
    {
      "anonymous": false,
      "inputs": [
        {
          "indexed": true,
          "internalType": "address",
          "name": "user",
          "type": "address"
        },
        {
          "indexed": false,
          "internalType": "bool",
          "name": "isInfluencer",
          "type": "bool"
        }
      ],
      "name": "InfluencerStatusChanged",
      "type": "event"
    },
    {
      "anonymous": false,
      "inputs": [
        {
          "indexed": true,
          "internalType": "address",
          "name": "previousOwner",
          "type": "address"
        },
        {
          "indexed": true,
          "internalType": "address",
          "name": "newOwner",
          "type": "address"
        }
      ],
      "name": "OwnershipTransferred",
      "type": "event"
    },
    {
      "anonymous": false,
      "inputs": [
        {
          "indexed": true,
          "internalType": "address",
          "name": "user",
          "type": "address"
        },
        {
          "indexed": false,
          "internalType": "string",
          "name": "actionType",
          "type": "string"
        },
        {
          "indexed": false,
          "internalType": "int256",
          "name": "scoreChange",
          "type": "int256"
        },
        {
          "indexed": false,
          "internalType": "uint256",
          "name": "newTotalScore",
          "type": "uint256"
        }
      ],
      "name": "ReputationUpdated",
      "type": "event"
    },
    {
      "inputs": [],
      "name": "AI_VALIDATION_WEIGHT",
      "outputs": [
        {
          "internalType": "uint256",
          "name": "",
          "type": "uint256"
        }
      ],
      "stateMutability": "view",
      "type": "function"
    },
    {
      "inputs": [],
      "name": "DECAY_RATE",
      "outputs": [
        {
          "internalType": "uint256",
          "name": "",
          "type": "uint256"
        }
      ],
      "stateMutability": "view",
      "type": "function"
    },
    {
      "inputs": [],
      "name": "INFLUENCER_THRESHOLD",
      "outputs": [
        {
          "internalType": "uint256",
          "name": "",
          "type": "uint256"
        }
      ],
      "stateMutability": "view",
      "type": "function"
    },
    {
      "inputs": [],
      "name": "MAX_REPUTATION",
      "outputs": [
        {
          "internalType": "uint256",
          "name": "",
          "type": "uint256"
        }
      ],
      "stateMutability": "view",
      "type": "function"
    },
    {
      "inputs": [
        {
          "internalType": "string",
          "name": "",
          "type": "string"
        }
      ],
      "name": "actionTypeWeights",
      "outputs": [
        {
          "internalType": "uint256",
          "name": "",
          "type": "uint256"
        }
      ],
      "stateMutability": "view",
      "type": "function"
    },
    {
      "inputs": [
        {
          "internalType": "uint256",
          "name": "",
          "type": "uint256"
        }
      ],
      "name": "allTransactions",
      "outputs": [
        {
          "internalType": "bytes32",
          "name": "",
          "type": "bytes32"
        }
      ],
      "stateMutability": "view",
      "type": "function"
    },
    {
      "inputs": [
        {
          "internalType": "address",
          "name": "_oracle",
          "type": "address"
        }
      ],
      "name": "authorizeOracle",
      "outputs": [],
      "stateMutability": "nonpayable",
      "type": "function"
    },
    {
      "inputs": [
        {
          "internalType": "address",
          "name": "",
          "type": "address"
        }
      ],
      "name": "authorizedValidators",
      "outputs": [
        {
          "internalType": "bool",
          "name": "",
          "type": "bool"
        }
      ],
      "stateMutability": "view",
      "type": "function"
    },
    {
      "inputs": [
        {
          "internalType": "address",
          "name": "_user",
          "type": "address"
        }
      ],
      "name": "emergencyResetUser",
      "outputs": [],
      "stateMutability": "nonpayable",
      "type": "function"
    },
    {
      "inputs": [
        {
          "internalType": "address",
          "name": "_user",
          "type": "address"
        }
      ],
      "name": "endorseUser",
      "outputs": [],
      "stateMutability": "nonpayable",
      "type": "function"
    },
    {
      "inputs": [
        {
          "internalType": "address",
          "name": "",
          "type": "address"
        },
        {
          "internalType": "uint256",
          "name": "",
          "type": "uint256"
        }
      ],
      "name": "endorsedBy",
      "outputs": [
        {
          "internalType": "address",
          "name": "",
          "type": "address"
        }
      ],
      "stateMutability": "view",
      "type": "function"
    },
    {
      "inputs": [
        {
          "internalType": "address",
          "name": "",
          "type": "address"
        },
        {
          "internalType": "address",
          "name": "",
          "type": "address"
        }
      ],
      "name": "endorsements",
      "outputs": [
        {
          "internalType": "uint256",
          "name": "",
          "type": "uint256"
        }
      ],
      "stateMutability": "view",
      "type": "function"
    },
    {
      "inputs": [
        {
          "internalType": "string",
          "name": "",
          "type": "string"
        },
        {
          "internalType": "uint256",
          "name": "",
          "type": "uint256"
        }
      ],
      "name": "expertsByArea",
      "outputs": [
        {
          "internalType": "address",
          "name": "",
          "type": "address"
        }
      ],
      "stateMutability": "view",
      "type": "function"
    },
    {
      "inputs": [
        {
          "internalType": "address",
          "name": "_user",
          "type": "address"
        }
      ],
      "name": "getEndorsements",
      "outputs": [
        {
          "internalType": "address[]",
          "name": "",
          "type": "address[]"
        }
      ],
      "stateMutability": "view",
      "type": "function"
    },
    {
      "inputs": [
        {
          "internalType": "string",
          "name": "_area",
          "type": "string"
        }
      ],
      "name": "getExpertsByArea",
      "outputs": [
        {
          "internalType": "address[]",
          "name": "",
          "type": "address[]"
        }
      ],
      "stateMutability": "view",
      "type": "function"
    },
    {
      "inputs": [
        {
          "internalType": "uint256",
          "name": "_limit",
          "type": "uint256"
        }
      ],
      "name": "getRecentTransactions",
      "outputs": [
        {
          "internalType": "bytes32[]",
          "name": "",
          "type": "bytes32[]"
        }
      ],
      "stateMutability": "view",
      "type": "function"
    },
    {
      "inputs": [],
      "name": "getTotalTransactions",
      "outputs": [
        {
          "internalType": "uint256",
          "name": "",
          "type": "uint256"
        }
      ],
      "stateMutability": "view",
      "type": "function"
    },
    {
      "inputs": [
        {
          "internalType": "address",
          "name": "_user",
          "type": "address"
        },
        {
          "internalType": "string",
          "name": "_area",
          "type": "string"
        }
      ],
      "name": "getUserExpertise",
      "outputs": [
        {
          "internalType": "uint256",
          "name": "",
          "type": "uint256"
        }
      ],
      "stateMutability": "view",
      "type": "function"
    },
    {
      "inputs": [
        {
          "internalType": "address",
          "name": "_user",
          "type": "address"
        }
      ],
      "name": "getUserReputation",
      "outputs": [
        {
          "internalType": "uint256",
          "name": "totalScore",
          "type": "uint256"
        },
        {
          "internalType": "uint256",
          "name": "votingAccuracy",
          "type": "uint256"
        },
        {
          "internalType": "uint256",
          "name": "stakingHistory",
          "type": "uint256"
        },
        {
          "internalType": "uint256",
          "name": "communityContribution",
          "type": "uint256"
        },
        {
          "internalType": "uint256",
          "name": "aiValidationScore",
          "type": "uint256"
        },
        {
          "internalType": "bool",
          "name": "isInfluencer",
          "type": "bool"
        },
        {
          "internalType": "uint256",
          "name": "followerCount",
          "type": "uint256"
        }
      ],
      "stateMutability": "view",
      "type": "function"
    },
    {
      "inputs": [],
      "name": "owner",
      "outputs": [
        {
          "internalType": "address",
          "name": "",
          "type": "address"
        }
      ],
      "stateMutability": "view",
      "type": "function"
    },
    {
      "inputs": [],
      "name": "renounceOwnership",
      "outputs": [],
      "stateMutability": "nonpayable",
      "type": "function"
    },
    {
      "inputs": [
        {
          "internalType": "bytes32",
          "name": "",
          "type": "bytes32"
        }
      ],
      "name": "reputationHistory",
      "outputs": [
        {
          "internalType": "address",
          "name": "user",
          "type": "address"
        },
        {
          "internalType": "string",
          "name": "actionType",
          "type": "string"
        },
        {
          "internalType": "int256",
          "name": "scoreChange",
          "type": "int256"
        },
        {
          "internalType": "uint256",
          "name": "timestamp",
          "type": "uint256"
        },
        {
          "internalType": "bytes32",
          "name": "evidenceHash",
          "type": "bytes32"
        },
        {
          "internalType": "bool",
          "name": "aiValidated",
          "type": "bool"
        },
        {
          "internalType": "uint256",
          "name": "confidenceScore",
          "type": "uint256"
        }
      ],
      "stateMutability": "view",
      "type": "function"
    },
    {
      "inputs": [
        {
          "internalType": "bytes32",
          "name": "_transactionHash",
          "type": "bytes32"
        },
        {
          "internalType": "uint256",
          "name": "_confidenceScore",
          "type": "uint256"
        },
        {
          "internalType": "bool",
          "name": "_validationResult",
          "type": "bool"
        }
      ],
      "name": "submitAIValidation",
      "outputs": [],
      "stateMutability": "nonpayable",
      "type": "function"
    },
    {
      "inputs": [],
      "name": "totalUsers",
      "outputs": [
        {
          "internalType": "uint256",
          "name": "",
          "type": "uint256"
        }
      ],
      "stateMutability": "view",
      "type": "function"
    },
    {
      "inputs": [
        {
          "internalType": "address",
          "name": "newOwner",
          "type": "address"
        }
      ],
      "name": "transferOwnership",
      "outputs": [],
      "stateMutability": "nonpayable",
      "type": "function"
    },
    {
      "inputs": [
        {
          "internalType": "string",
          "name": "_actionType",
          "type": "string"
        },
        {
          "internalType": "uint256",
          "name": "_weight",
          "type": "uint256"
        }
      ],
      "name": "updateActionTypeWeight",
      "outputs": [],
      "stateMutability": "nonpayable",
      "type": "function"
    },
    {
      "inputs": [
        {
          "internalType": "address",
          "name": "_user",
          "type": "address"
        },
        {
          "internalType": "string",
          "name": "_area",
          "type": "string"
        },
        {
          "internalType": "uint256",
          "name": "_score",
          "type": "uint256"
        }
      ],
      "name": "updateExpertiseArea",
      "outputs": [],
      "stateMutability": "nonpayable",
      "type": "function"
    },
    {
      "inputs": [
        {
          "internalType": "address",
          "name": "_user",
          "type": "address"
        },
        {
          "internalType": "string",
          "name": "_actionType",
          "type": "string"
        },
        {
          "internalType": "int256",
          "name": "_scoreModifier",
          "type": "int256"
        },
        {
          "internalType": "bytes32",
          "name": "_evidenceHash",
          "type": "bytes32"
        },
        {
          "internalType": "bool",
          "name": "_isPositive",
          "type": "bool"
        }
      ],
      "name": "updateReputation",
      "outputs": [],
      "stateMutability": "nonpayable",
      "type": "function"
    },
    {
      "inputs": [
        {
          "internalType": "address",
          "name": "",
          "type": "address"
        }
      ],
      "name": "userReputations",
      "outputs": [
        {
          "internalType": "uint256",
          "name": "totalScore",
          "type": "uint256"
        },
        {
          "internalType": "uint256",
          "name": "contentScore",
          "type": "uint256"
        },
        {
          "internalType": "uint256",
          "name": "communityScore",
          "type": "uint256"
        },
        {
          "internalType": "uint256",
          "name": "aiValidationScore",
          "type": "uint256"
        },
        {
          "internalType": "uint256",
          "name": "lastUpdateTime",
          "type": "uint256"
        },
        {
          "internalType": "bool",
          "name": "isActive",
          "type": "bool"
        },
        {
          "internalType": "uint256",
          "name": "votingAccuracy",
          "type": "uint256"
        },
        {
          "internalType": "uint256",
          "name": "stakingHistory",
          "type": "uint256"
        },
        {
          "internalType": "uint256",
          "name": "communityContribution",
          "type": "uint256"
        },
        {
          "internalType": "bool",
          "name": "isInfluencer",
          "type": "bool"
        },
        {
          "internalType": "uint256",
          "name": "followerCount",
          "type": "uint256"
        },
        {
          "internalType": "uint256",
          "name": "timeBasedDecay",
          "type": "uint256"
        },
        {
          "internalType": "uint256",
          "name": "lastUpdateTimestamp",
          "type": "uint256"
        }
      ],
      "stateMutability": "view",
      "type": "function"
    }
  ],
  "bytecode": "0x60803461025857601f611f7a38819003918201601f191683019291906001600160401b0384118385101761025d57816020928492604096875283398101031261025857516001600160a01b03908181169081900361025857801561024057600080546001600160a01b031981168317825584516050946038949193919216907f8be0079c531659141344cd1fd0a4f28419497f9722a3daafe3b4186f6b6457e09080a3600180556c61636375726174655f766f746560981b81526064602d60049283600d82015220556032602f85516e696e61636375726174655f766f746560881b815283600f82015220556096603085516f31b7b73a32b73a2fb1b932b0ba34b7b760811b81528360108201522055604b602e85516d32b0b9363cafb0b237b83a34b7b760911b815283600e8201522055607d603385517f6c69717569646974795f70726f766973696f6e000000000000000000000000008152836013820152205560c8603485517f636f6d6d756e6974795f6d6f6465726174696f6e0000000000000000000000008152836014820152205561012c602f85516e6578706572745f616e616c7973697360881b815283600f820152205560fa603585517f61695f6d6f64656c5f636f6e747269627574696f6e0000000000000000000000815283601582015220556064602a855169189d59d7dc995c1bdc9d60b21b815283600a82015220558351907f676f7665726e616e63655f70617274696369706174696f6e000000000000000082526018820152205551611d0690816102748239f35b8251631e4fbdf760e01b815260006004820152602490fd5b600080fd5b634e487b7160e01b600052604160045260246000fdfe6080604052600436101561001257600080fd5b60003560e01c80630a75bbb8146118745780630f13b7631461182f5780631de40e49146118135780632b6033a4146117ba5780632d1f523a1461175157806339a811ee146115825780634f893f541461151c57806358714163146114dd578063607bb11a146114c0578063676a4bd514610df75780636f44180d14610b35578063715018a614610adc57806379cecf46146109c65780638788f9b71461097c5780638da5cb5b146109535780639abd6eb41461082b578063b0ac4226146107eb578063b4032c12146107cf578063b5c604ff146107b1578063b666ca9d14610726578063baccbfdb146106a6578063bc1a2fdf14610646578063bff1f9e114610628578063d213c0f21461060b578063d7ff0714146105d4578063e1c5c2e414610308578063e3bf0aff146102b3578063f2fde38b1461022a5763f8b116911461015b57600080fd5b34610225576020366003190112610225576001600160a01b0361017c6119df565b1660005260026020526101a0604060002080549060018101549060028101546003820154600483015460ff600585015416600685015460078601549160088701549360ff60098901541695600a89015497600c600b8b01549a01549a6040519c8d5260208d015260408c015260608b015260808a0152151560a089015260c088015260e08701526101008601521515610120850152610140840152610160830152610180820152f35b600080fd5b34610225576020366003190112610225576102436119df565b61024b611b1e565b6001600160a01b0390811690811561029a57600054826001600160601b0360a01b821617600055167f8be0079c531659141344cd1fd0a4f28419497f9722a3daafe3b4186f6b6457e0600080a3005b604051631e4fbdf760e01b815260006004820152602490fd5b34610225576040366003190112610225576102cc6119df565b6001600160a01b036024358181169290839003610225571660005260066020526040600020906000526020526020604060002054604051908152f35b34610225576060366003190112610225576024803560443580158015820361022557336000526020916005835261034660ff60406000205416611b4a565b60648411610590576004356000526003835260406000209460018060a01b03928387541680156105545760058801805460ff811661051c5760019060ff19161790558660068901556000526002855260406000209280610511575b1561043f57508460c8029060c88204860361042b57507fb848797da14d66c91c81e865e91c375d96f9375b75e0eccbbc18f969496bb2a19492604094926103ff606460049404600383016103f6828254611bbf565b90558254611bbf565b90818155612710809211610423575b50505b865416950154908351928352820152a2005b55878061040e565b634e487b7160e01b60009081526011600452fd5b80610506575b610479575b50509160409160047fb848797da14d66c91c81e865e91c375d96f9375b75e0eccbbc18f969496bb2a194610411565b60c8858102049081860361042b57507fb848797da14d66c91c81e865e91c375d96f9375b75e0eccbbc18f969496bb2a194928260049260036040979501818154116000146104fd576104cc828254611bb2565b90555b808254116000146104f3576104e5908254611bb2565b90555b92945081935061044a565b50600090556104e8565b600090556104cf565b506050851015610445565b5060508610156103a1565b60405162461bcd60e51b81526004810189905260118187015270105b1c9958591e481d985b1a59185d1959607a1b6044820152606490fd5b60405162461bcd60e51b81526004810187905260158185015274151c985b9cd858dd1a5bdb881b9bdd08199bdd5b99605a1b6044820152606490fd5b60405162461bcd60e51b8152600481018490526018818701527f496e76616c696420636f6e666964656e63652073636f726500000000000000006044820152606490fd5b3461022557602036600319011261022557600435600954811015610225576105fd6020916119f5565b90546040519160031b1c8152f35b346102255760003660031901126102255760206040516127108152f35b34610225576000366003190112610225576020600a54604051908152f35b3461022557602061066e61065936611aec565b92908160405193828580945193849201611a44565b8101600881520301902080548210156102255760209161068d91611a2c565b905460405160039290921b1c6001600160a01b03168152f35b34610225576020366003190112610225576001600160a01b036106c76119df565b16600052600260205260e0604060002080549060068101549060078101546008820154600383015491600a60ff600986015416940154946040519687526020870152604086015260608501526080840152151560a083015260c0820152f35b3461022557602080600319360112610225576001600160a01b03806107496119df565b1660005260078252604060002091604051809282855492838152019460005282600020926000915b8383106107985761079486610788818a0382611922565b6040519182918261199b565b0390f35b8454811687529581019560019485019490920191610771565b34610225576000366003190112610225576020600954604051908152f35b3461022557600036600319011261022557602060405160c88152f35b3461022557602061081b6107fe36611aec565b9290610808611b1e565b8160405193828580945193849201611a44565b8101600481520301902055600080f35b34610225576020806003193601126102255760043560005260038152604060002060018060a01b038154169060018381830160405192839160009181549161087283611a8d565b8086529282811690811561093057506001146108f1575b50505061089892500382611922565b60028201549160038101546004820154906108d1600660ff6005860154169401549460e0604051998a998a5289015260e0880190611ac7565b94604087015260608601526080850152151560a084015260c08301520390f35b600090815285812095935091905b8183106109185750889450508201016108988880610889565b855487840185015294850194869450918301916108ff565b9250505061089894925060ff191682840152151560051b82010186928880610889565b34610225576000366003190112610225576000546040516001600160a01b039091168152602090f35b346102255760203660031901126102255760043567ffffffffffffffff8111610225576109b3602061080881933690600401611944565b8101600481520301902054604051908152f35b34610225576020806003193601126102255760095460043581811115610ad75750805b6109f281611c98565b90610a006040519283611922565b808252610a0c81611c98565b8285019390601f1901368537600019810190811160005b838110610a6d57868587604051928392818401908285525180915260408401929160005b828110610a5657505050500390f35b835185528695509381019392810192600101610a47565b81610ac157610a84610a7f8285611bb2565b6119f5565b9190548651821015610aab57610aa69260031b1c888260051b88010152611c89565b610a23565b634e487b7160e01b600052603260045260246000fd5b634e487b7160e01b600052601160045260246000fd5b6109e9565b3461022557600036600319011261022557610af5611b1e565b600080546001600160a01b0319811682556001600160a01b03167f8be0079c531659141344cd1fd0a4f28419497f9722a3daafe3b4186f6b6457e08280a3005b3461022557606036600319011261022557610b4e6119df565b602490813567ffffffffffffffff811161022557610b70903690600401611944565b6044353360005260209060058252610b8f60ff60406000205416611b4a565b60648111610db35760018060a01b03948585169586600052600284526046600d60406000200184610bcb610bc3838a611a67565b549289611a67565b55108080610da8575b15610c355750505090610c2c9291610c18600080516020611cb18339815191529560405184818751610c098183858c01611a44565b81016008815203019020611bcc565b604051938493604085526040850190611ac7565b918301520390a2005b909195501580610d9e575b610c62575b50600080516020611cb1833981519152935090610c2c9291610c18565b60405183818651610c768183858b01611a44565b8101600881520301902060005b815480821015610d7e57839089610c9a8486611a2c565b939054600394851b1c1614610cb9575050610cb490611c89565b610c83565b9160009891959697989493941992838101908111610d695790610cf185610ce3610d109489611a2c565b9054908a1b1c169187611a2c565b90919082549060031b9160018060a01b03809116831b921b1916179055565b8354908115610d55575091600080516020611cb183398151915297959391610c2c9795930192610d408484611a2c565b81939154921b1b19169055555b909192610c45565b634e487b7160e01b60009081526031600452fd5b82634e487b7160e01b60005260116004526000fd5b50505050600080516020611cb1833981519152935090610c2c9291610d4d565b5060468210610c40565b506046841015610bd4565b60405162461bcd60e51b8152600481018390526017818701527f496e76616c6964206578706572746973652073636f72650000000000000000006044820152606490fd5b346102255760a036600319011261022557610e106119df565b60243567ffffffffffffffff811161022557610e30903690600401611944565b9060843515156084350361022557336000526005602052610e5860ff60406000205416611b4a565b6002600154146114ae5760026001556001600160a01b03811615611472576001600160a01b0381166000908152600260205260409020610e9782611bf1565b6040516020818551610eac8183858a01611a44565b81016004815203019020548015611437576084351561141957610ed460649160443590611b8e565b04925b60008413156113e957610eeb848354611bbf565b8083556127108091116113e1575b505b60018060a01b038316600052600260205260406000206040516020810190610f3b6020828651610f2e8187858b01611a44565b8101038084520182611922565b51902060405160208101906c61636375726174655f766f746560981b8252600d8152610f6681611906565b5190208114806113d8575b156112f45750600601610f876044358254611bbf565b90555b60018060a01b038316600052600260205260406000206009810161138860ff8254169254101580921515036112a7575b505060405160208101906001600160601b03198560601b16825261100b6074828551610fed816034840160208a01611a44565b81014260348201526064356054820152036054810184520182611922565b519020926040518060e081011067ffffffffffffffff60e0830111176111ca5760e0810160405260018060a01b038216815260208101908382528660408201524260608201526064356080820152600060a0820152600060c082015285600052600360205260406000209160018060a01b038251166001600160601b0360a01b8454161783555180519067ffffffffffffffff82116111ca576110b16001850154611a8d565b601f8111611260575b50602090601f83116001146111eb5791806006949260c0946000926111e0575b50508160011b916000199060031b1c19161760018501555b60408101516002850155606081015160038501556080810151600485015561112f60a08201511515600586019060ff801983541691151516179055565b015191015560095492600160401b8410156111ca577fcb23ce6aba98960f823de6a75e35c3ea92c2b9a8d545d3f1e0555efa752639dc946111798560016111aa97016009556119f5565b819291549060031b91821b91600019901b191617905542600c82015554604051938493606085526060850190611ac7565b602084019690965260408301526001600160a01b0316930390a260018055005b634e487b7160e01b600052604160045260246000fd5b015190508b806110da565b906001850160005260206000209160005b601f19851681106112485750926006949260019260c09583601f1981161061122f575b505050811b0160018501556110f2565b015160001960f88460031b161c191690558b808061121f565b919260206001819286850151815501940192016111fc565b600185016000526020600020601f840160051c8101602085106112a0575b601f830160051c820181106112945750506110ba565b6000815560010161127e565b508061127e565b805460ff191660ff831515161790556040519081526001600160a01b038416907f68f766b57006c62f30f0e35e805e1dc399f813d1c65625051267961513b978c290602090a28480610fba565b60405160208101906e696e61636375726174655f766f746560881b8252600f815261131e81611906565b5190208114806113ce575b1561136d575060060180546044359061134182611ba1565b10156113635761135c90611356835491611ba1565b90611bb2565b9055610f8a565b5060009055610f8a565b60405160208101906f31b7b73a32b73a2fb1b932b0ba34b7b760811b82526010815261139881611906565b51902014806113c5575b6113ad575b50610f8a565b6008016113bd6044358254611bbf565b9055846113a7565b506084356113a2565b5060843515611329565b50608435610f71565b825584610ef9565b6113f284611ba1565b8083541160001461140f57611408908354611bb2565b8255610efb565b5060008255610efb565b606461142b6114319260443590611b8e565b04611ba1565b92610ed7565b60405162461bcd60e51b8152602060048201526013602482015272496e76616c696420616374696f6e207479706560681b6044820152606490fd5b60405162461bcd60e51b8152602060048201526014602482015273496e76616c69642075736572206164647265737360601b6044820152606490fd5b604051633ee5aeb560e01b8152600490fd5b346102255760003660031901126102255760206040516113888152f35b34610225576020366003190112610225576001600160a01b036114fe6119df565b166000526005602052602060ff604060002054166040519015158152f35b34610225576020366003190112610225576115356119df565b61153d611b1e565b60018060a01b031660005260026020526009604060002060008155600060068201556000600782015560006008820155600060038201550160ff198154169055600080f35b3461022557602080600319360112610225576001600160a01b036115a46119df565b169033821461170d5733600052600281526103e8604060002054106116be5733600052600681526040600020826000528152604060002054611687573360005260028152600260646040600020540491600681526040600020846000528152826040600020556007815261161c336040600020611bcc565b836000525261164760406000209160088301611639828254611bbf565b905582549060011c90611bbf565b9081815561271080921161167f575b82337f98e9d32fe2d0d678817f18b4f079d2699a01440f871fee0da664fffbb0fa3be6600080a3005b558180611656565b6064906040519062461bcd60e51b82526004820152601060248201526f105b1c9958591e48195b991bdc9cd95960821b6044820152fd5b6084906040519062461bcd60e51b82526004820152602260248201527f496e73756666696369656e742072657075746174696f6e20746f20656e646f72604482015261736560f01b6064820152fd5b6064906040519062461bcd60e51b82526004820152601760248201527f43616e6e6f7420656e646f72736520796f757273656c660000000000000000006044820152fd5b346102255760403660031901126102255761176a6119df565b60243567ffffffffffffffff8111610225576020916117906117b1923690600401611944565b6001600160a01b0390911660009081526002845260409020600d0190611a67565b54604051908152f35b34610225576040366003190112610225576117d36119df565b6024359060018060a01b038091166000526007602052604060002080548310156102255760209261180391611a2c565b9190546040519260031b1c168152f35b3461022557600036600319011261022557602060405160058152f35b34610225576020366003190112610225576118486119df565b611850611b1e565b6001600160a01b03166000908152600560205260409020805460ff19166001179055005b34610225576020806003193601126102255760043567ffffffffffffffff811161022557816108086118aa923690600401611944565b8101600881520301902090604051908181845491828152019360005281600020916000905b8282106118e6576107948561078881890382611922565b83546001600160a01b0316865294850194600193840193909101906118cf565b6040810190811067ffffffffffffffff8211176111ca57604052565b90601f8019910116810190811067ffffffffffffffff8211176111ca57604052565b81601f820112156102255780359067ffffffffffffffff82116111ca5760405192611979601f8401601f191660200185611922565b8284526020838301011161022557816000926020809301838601378301015290565b6020908160408183019282815285518094520193019160005b8281106119c2575050505090565b83516001600160a01b0316855293810193928101926001016119b4565b600435906001600160a01b038216820361022557565b600954811015610aab5760096000527f6e1540171b6c0c960b71a7020d9f60077f6af931a8bbf590da0223dacf75c7af0190600090565b8054821015610aab5760005260206000200190600090565b60005b838110611a575750506000910152565b8181015183820152602001611a47565b602090611a81928260405194838680955193849201611a44565b82019081520301902090565b90600182811c92168015611abd575b6020831014611aa757565b634e487b7160e01b600052602260045260246000fd5b91607f1691611a9c565b90602091611ae081518092818552858086019101611a44565b601f01601f1916010190565b6040600319820112610225576004359067ffffffffffffffff821161022557611b1791600401611944565b9060243590565b6000546001600160a01b03163303611b3257565b60405163118cdaa760e01b8152336004820152602490fd5b15611b5157565b60405162461bcd60e51b81526020600482015260156024820152744e6f7420617574686f72697a6564206f7261636c6560581b6044820152606490fd5b81810292918115918404141715610ac157565b600160ff1b8114610ac15760000390565b91908203918211610ac157565b91908201809211610ac157565b90815491600160401b8310156111ca5782610cf1916001611bef95018155611a2c565b565b6001600160a01b03166000908152600260205260409020600c8101805415611c8357611c2262278d00915442611bb2565b0480611c2c575050565b815491600583029083820460051484151715610ac1576103e8611c54611c7694600b94611b8e565b04809411600014611c7a57611c6a848254611bb2565b81555b01918254611bbf565b9055565b60008155611c6d565b42905550565b6000198114610ac15760010190565b67ffffffffffffffff81116111ca5760051b6020019056fe1939d2dfb05d9af88af0d79217ccfdc4e3a468fb1ba8510dbca433e66c62f704a2646970667358221220b98c91c9893a6357b5b7075a707bc754ac29e080b38469d5a2be8a766ccfbfe464736f6c63430008140033",
  "linkReferences": {},
  "deployedLinkReferences": {}
}