{
  "_format": "hh-sol-artifact-1",
  "contractName": "KnowledgeDAO",
  "sourceName": "contracts/KnowledgeDAO.sol",
  "abi": [
    {
      "inputs": [
        {
          "internalType": "address",
          "name": "initialOwner",
          "type": "address"
        },
        {
          "internalType": "address",
          "name": "_sToken",
          "type": "address"
        }
      ],
      "stateMutability": "nonpayable",
      "type": "constructor"
    },
    {
      "inputs": [],
      "name": "EnforcedPause",
      "type": "error"
    },
    {
      "inputs": [],
      "name": "ExpectedPause",
      "type": "error"
    },
    {
      "inputs": [
        {
          "internalType": "address",
          "name": "owner",
          "type": "address"
        }
      ],
      "name": "OwnableInvalidOwner",
      "type": "error"
    },
    {
      "inputs": [
        {
          "internalType": "address",
          "name": "account",
          "type": "address"
        }
      ],
      "name": "OwnableUnauthorizedAccount",
      "type": "error"
    },
    {
      "inputs": [],
      "name": "ReentrancyGuardReentrantCall",
      "type": "error"
    },
    {
      "anonymous": false,
      "inputs": [
        {
          "indexed": true,
          "internalType": "uint256",
          "name": "contentId",
          "type": "uint256"
        },
        {
          "indexed": false,
          "internalType": "bool",
          "name": "approved",
          "type": "bool"
        }
      ],
      "name": "ContentFinalized",
      "type": "event"
    },
    {
      "anonymous": false,
      "inputs": [
        {
          "indexed": true,
          "internalType": "uint256",
          "name": "contentId",
          "type": "uint256"
        },
        {
          "indexed": true,
          "internalType": "address",
          "name": "aiAgent",
          "type": "address"
        },
        {
          "indexed": false,
          "internalType": "string",
          "name": "contentHash",
          "type": "string"
        }
      ],
      "name": "ContentSubmitted",
      "type": "event"
    },
    {
      "anonymous": false,
      "inputs": [
        {
          "indexed": true,
          "internalType": "address",
          "name": "previousOwner",
          "type": "address"
        },
        {
          "indexed": true,
          "internalType": "address",
          "name": "newOwner",
          "type": "address"
        }
      ],
      "name": "OwnershipTransferred",
      "type": "event"
    },
    {
      "anonymous": false,
      "inputs": [
        {
          "indexed": false,
          "internalType": "address",
          "name": "account",
          "type": "address"
        }
      ],
      "name": "Paused",
      "type": "event"
    },
    {
      "anonymous": false,
      "inputs": [
        {
          "indexed": true,
          "internalType": "address",
          "name": "user",
          "type": "address"
        },
        {
          "indexed": false,
          "internalType": "uint256",
          "name": "amount",
          "type": "uint256"
        }
      ],
      "name": "RewardsClaimed",
      "type": "event"
    },
    {
      "anonymous": false,
      "inputs": [
        {
          "indexed": false,
          "internalType": "address",
          "name": "account",
          "type": "address"
        }
      ],
      "name": "Unpaused",
      "type": "event"
    },
    {
      "anonymous": false,
      "inputs": [
        {
          "indexed": true,
          "internalType": "uint256",
          "name": "contentId",
          "type": "uint256"
        },
        {
          "indexed": true,
          "internalType": "address",
          "name": "voter",
          "type": "address"
        },
        {
          "indexed": false,
          "internalType": "uint256",
          "name": "amount",
          "type": "uint256"
        },
        {
          "indexed": false,
          "internalType": "bool",
          "name": "positive",
          "type": "bool"
        }
      ],
      "name": "VoteCast",
      "type": "event"
    },
    {
      "inputs": [
        {
          "internalType": "uint256",
          "name": "",
          "type": "uint256"
        }
      ],
      "name": "aiContents",
      "outputs": [
        {
          "internalType": "uint256",
          "name": "id",
          "type": "uint256"
        },
        {
          "internalType": "string",
          "name": "contentHash",
          "type": "string"
        },
        {
          "internalType": "address",
          "name": "aiAgent",
          "type": "address"
        },
        {
          "internalType": "uint256",
          "name": "timestamp",
          "type": "uint256"
        },
        {
          "internalType": "uint256",
          "name": "totalStaked",
          "type": "uint256"
        },
        {
          "internalType": "uint256",
          "name": "positiveVotes",
          "type": "uint256"
        },
        {
          "internalType": "uint256",
          "name": "negativeVotes",
          "type": "uint256"
        },
        {
          "internalType": "bool",
          "name": "finalized",
          "type": "bool"
        },
        {
          "internalType": "uint256",
          "name": "rewardPool",
          "type": "uint256"
        }
      ],
      "stateMutability": "view",
      "type": "function"
    },
    {
      "inputs": [
        {
          "internalType": "address",
          "name": "_aiAgent",
          "type": "address"
        }
      ],
      "name": "authorizeAI",
      "outputs": [],
      "stateMutability": "nonpayable",
      "type": "function"
    },
    {
      "inputs": [
        {
          "internalType": "address",
          "name": "",
          "type": "address"
        }
      ],
      "name": "authorizedAI",
      "outputs": [
        {
          "internalType": "bool",
          "name": "",
          "type": "bool"
        }
      ],
      "stateMutability": "view",
      "type": "function"
    },
    {
      "inputs": [
        {
          "internalType": "uint256",
          "name": "_contentId",
          "type": "uint256"
        }
      ],
      "name": "claimRewards",
      "outputs": [],
      "stateMutability": "nonpayable",
      "type": "function"
    },
    {
      "inputs": [],
      "name": "contentCounter",
      "outputs": [
        {
          "internalType": "uint256",
          "name": "",
          "type": "uint256"
        }
      ],
      "stateMutability": "view",
      "type": "function"
    },
    {
      "inputs": [
        {
          "internalType": "uint256",
          "name": "_contentId",
          "type": "uint256"
        }
      ],
      "name": "finalizeContent",
      "outputs": [],
      "stateMutability": "nonpayable",
      "type": "function"
    },
    {
      "inputs": [
        {
          "internalType": "uint256",
          "name": "_contentId",
          "type": "uint256"
        }
      ],
      "name": "getContentDetails",
      "outputs": [
        {
          "components": [
            {
              "internalType": "uint256",
              "name": "id",
              "type": "uint256"
            },
            {
              "internalType": "string",
              "name": "contentHash",
              "type": "string"
            },
            {
              "internalType": "address",
              "name": "aiAgent",
              "type": "address"
            },
            {
              "internalType": "uint256",
              "name": "timestamp",
              "type": "uint256"
            },
            {
              "internalType": "uint256",
              "name": "totalStaked",
              "type": "uint256"
            },
            {
              "internalType": "uint256",
              "name": "positiveVotes",
              "type": "uint256"
            },
            {
              "internalType": "uint256",
              "name": "negativeVotes",
              "type": "uint256"
            },
            {
              "internalType": "bool",
              "name": "finalized",
              "type": "bool"
            },
            {
              "internalType": "uint256",
              "name": "rewardPool",
              "type": "uint256"
            }
          ],
          "internalType": "struct KnowledgeDAO.AIContent",
          "name": "",
          "type": "tuple"
        }
      ],
      "stateMutability": "view",
      "type": "function"
    },
    {
      "inputs": [
        {
          "internalType": "uint256",
          "name": "_contentId",
          "type": "uint256"
        },
        {
          "internalType": "address",
          "name": "_user",
          "type": "address"
        }
      ],
      "name": "getUserVote",
      "outputs": [
        {
          "components": [
            {
              "internalType": "uint256",
              "name": "amount",
              "type": "uint256"
            },
            {
              "internalType": "bool",
              "name": "positive",
              "type": "bool"
            },
            {
              "internalType": "uint256",
              "name": "timestamp",
              "type": "uint256"
            },
            {
              "internalType": "bool",
              "name": "claimed",
              "type": "bool"
            }
          ],
          "internalType": "struct KnowledgeDAO.Vote",
          "name": "",
          "type": "tuple"
        }
      ],
      "stateMutability": "view",
      "type": "function"
    },
    {
      "inputs": [],
      "name": "minStakeAmount",
      "outputs": [
        {
          "internalType": "uint256",
          "name": "",
          "type": "uint256"
        }
      ],
      "stateMutability": "view",
      "type": "function"
    },
    {
      "inputs": [],
      "name": "owner",
      "outputs": [
        {
          "internalType": "address",
          "name": "",
          "type": "address"
        }
      ],
      "stateMutability": "view",
      "type": "function"
    },
    {
      "inputs": [],
      "name": "pause",
      "outputs": [],
      "stateMutability": "nonpayable",
      "type": "function"
    },
    {
      "inputs": [],
      "name": "paused",
      "outputs": [
        {
          "internalType": "bool",
          "name": "",
          "type": "bool"
        }
      ],
      "stateMutability": "view",
      "type": "function"
    },
    {
      "inputs": [],
      "name": "renounceOwnership",
      "outputs": [],
      "stateMutability": "nonpayable",
      "type": "function"
    },
    {
      "inputs": [],
      "name": "rewardPercentage",
      "outputs": [
        {
          "internalType": "uint256",
          "name": "",
          "type": "uint256"
        }
      ],
      "stateMutability": "view",
      "type": "function"
    },
    {
      "inputs": [],
      "name": "sToken",
      "outputs": [
        {
          "internalType": "contract IERC20",
          "name": "",
          "type": "address"
        }
      ],
      "stateMutability": "view",
      "type": "function"
    },
    {
      "inputs": [
        {
          "internalType": "string",
          "name": "_contentHash",
          "type": "string"
        }
      ],
      "name": "submitContent",
      "outputs": [],
      "stateMutability": "nonpayable",
      "type": "function"
    },
    {
      "inputs": [
        {
          "internalType": "address",
          "name": "newOwner",
          "type": "address"
        }
      ],
      "name": "transferOwnership",
      "outputs": [],
      "stateMutability": "nonpayable",
      "type": "function"
    },
    {
      "inputs": [],
      "name": "unpause",
      "outputs": [],
      "stateMutability": "nonpayable",
      "type": "function"
    },
    {
      "inputs": [
        {
          "internalType": "uint256",
          "name": "_newAmount",
          "type": "uint256"
        }
      ],
      "name": "updateMinStakeAmount",
      "outputs": [],
      "stateMutability": "nonpayable",
      "type": "function"
    },
    {
      "inputs": [
        {
          "internalType": "uint256",
          "name": "_newPeriod",
          "type": "uint256"
        }
      ],
      "name": "updateVotingPeriod",
      "outputs": [],
      "stateMutability": "nonpayable",
      "type": "function"
    },
    {
      "inputs": [
        {
          "internalType": "address",
          "name": "",
          "type": "address"
        }
      ],
      "name": "userStats",
      "outputs": [
        {
          "internalType": "uint256",
          "name": "totalStaked",
          "type": "uint256"
        },
        {
          "internalType": "uint256",
          "name": "accuracyScore",
          "type": "uint256"
        },
        {
          "internalType": "uint256",
          "name": "totalRewards",
          "type": "uint256"
        },
        {
          "internalType": "uint256",
          "name": "votingPower",
          "type": "uint256"
        }
      ],
      "stateMutability": "view",
      "type": "function"
    },
    {
      "inputs": [
        {
          "internalType": "uint256",
          "name": "_contentId",
          "type": "uint256"
        },
        {
          "internalType": "uint256",
          "name": "_amount",
          "type": "uint256"
        },
        {
          "internalType": "bool",
          "name": "_positive",
          "type": "bool"
        }
      ],
      "name": "voteOnContent",
      "outputs": [],
      "stateMutability": "nonpayable",
      "type": "function"
    },
    {
      "inputs": [
        {
          "internalType": "uint256",
          "name": "",
          "type": "uint256"
        },
        {
          "internalType": "address",
          "name": "",
          "type": "address"
        }
      ],
      "name": "votes",
      "outputs": [
        {
          "internalType": "uint256",
          "name": "amount",
          "type": "uint256"
        },
        {
          "internalType": "bool",
          "name": "positive",
          "type": "bool"
        },
        {
          "internalType": "uint256",
          "name": "timestamp",
          "type": "uint256"
        },
        {
          "internalType": "bool",
          "name": "claimed",
          "type": "bool"
        }
      ],
      "stateMutability": "view",
      "type": "function"
    },
    {
      "inputs": [],
      "name": "votingPeriod",
      "outputs": [
        {
          "internalType": "uint256",
          "name": "",
          "type": "uint256"
        }
      ],
      "stateMutability": "view",
      "type": "function"
    }
  ],
  "bytecode": "0x6080346100f457601f61173d38819003918201601f19168301916001600160401b038311848410176100f95780849260409485528339810103126100f457610052602061004b8361010f565b920161010f565b6001600055906001600160a01b039081169081156100db57600180546001600160a01b031980821685179092556040519491939083167f8be0079c531659141344cd1fd0a4f28419497f9722a3daafe3b4186f6b6457e0600080a368056bc75e2d6310000060085562015180600955600a80551690600254161760025561161990816101248239f35b604051631e4fbdf760e01b815260006004820152602490fd5b600080fd5b634e487b7160e01b600052604160045260246000fd5b51906001600160a01b03821682036100f45756fe608080604052600436101561001357600080fd5b60003560e01c90816302a251a3146112f65750806303c7881a146112385780630962ef7914610f675780632b980ea114610bf457806330a1adeb146108985780633f4ba83a1461082657806352d472eb146108085780635c975abb146107e2578063715018a6146107855780638456cb5914610723578063878b9b44146105d25780638a65d874146105765780638da5cb5b1461054d5780639dc3960b146104025780639e32aaa3146103c35780639ebdf12c1461039a578063bf1bec6b14610355578063d23254b4146102e1578063d8060cd5146102c0578063db56861c14610217578063e6a9aba3146101f9578063ef00ef43146101d8578063f1887684146101ba5763f2fde38b1461012757600080fd5b346101b55760203660031901126101b557610140611327565b6101486114b8565b6001600160a01b0390811690811561019c57600154826bffffffffffffffffffffffff60a01b821617600155167f8be0079c531659141344cd1fd0a4f28419497f9722a3daafe3b4186f6b6457e0600080a3005b604051631e4fbdf760e01b815260006004820152602490fd5b600080fd5b346101b55760003660031901126101b5576020600854604051908152f35b346101b55760203660031901126101b5576101f16114b8565b600435600955005b346101b55760003660031901126101b5576020600754604051908152f35b346101b55760203660031901126101b55760043560005260036020526040600020805461024660018301611412565b9160018060a01b036002820154169060038101549060048101546005820154600683015491600860ff60078601541694015494610295604051998a998a526101208060208c01528a0190611398565b9660408901526060880152608087015260a086015260c0850152151560e08401526101008301520390f35b346101b55760203660031901126101b5576102d96114b8565b600435600855005b346101b55760403660031901126101b5576102fa611311565b600435600052600460205260406000209060018060a01b03166000526020526080604060002080549060ff6001820154169060ff60036002830154920154169160405193845215156020840152604083015215156060820152f35b346101b55760203660031901126101b55761036e611327565b6103766114b8565b6001600160a01b03166000908152600660205260409020805460ff19166001179055005b346101b55760003660031901126101b5576002546040516001600160a01b039091168152602090f35b346101b55760203660031901126101b5576001600160a01b036103e4611327565b166000526006602052602060ff604060002054166040519015158152f35b346101b5576020806003193601126101b55760405161042081611359565b60008152606082820152600060408201526000606082015260006080820152600060a0820152600060c0820152600060e0820152600061010080920152600435600052600382526040600020604080519261047a84611359565b8254845261048a60018401611412565b908585019182528460018060a01b039485600282015416958583019687526003820154606084019081526004830154906080850191825260058401549260a0860193845261051d600860068701549660c0890197885260e060ff60078301541699019815158952015498888d01998a528a518e819f9e829f835251910152518c6101209b8c9101526101408d0190611398565b99511660608b01525160808a01525160a08901525160c08801525160e08701525115159085015251908301520390f35b346101b55760003660031901126101b5576001546040516001600160a01b039091168152602090f35b346101b55760203660031901126101b5576001600160a01b03610597611327565b166000526005602052608060406000208054906001810154906003600282015491015491604051938452602084015260408301526060820152f35b346101b5576020806003193601126101b5576004359081600052600381526106006040600020541515611505565b816000526003815260ff600760406000200154166106eb5781600052600381526106356003604060002001546009549061154a565b4211156106a7577fc6e759e393706cc0b62e9d7ec31fabec553b537a365d2289bde3262fb0524e07908260005260038152604060002060078101600160ff19825416179055606461068d6004830154600a54906115d0565b0460088201556006600582015491015410604051908152a2005b6064906040519062461bcd60e51b82526004820152601760248201527f566f74696e6720706572696f64206e6f7420656e6465640000000000000000006044820152fd5b6064906040519062461bcd60e51b825260048201526011602482015270105b1c9958591e48199a5b985b1a5e9959607a1b6044820152fd5b346101b55760003660031901126101b55761073c6114b8565b6107446114e4565b6001805460ff60a01b1916600160a01b1790556040513381527f62e78cea01bee320cd4e420270b5ea74000d11b0c9f74754ebdbfc544b05a25890602090a1005b346101b55760003660031901126101b55761079e6114b8565b600180546001600160a01b031981169091556000906001600160a01b03167f8be0079c531659141344cd1fd0a4f28419497f9722a3daafe3b4186f6b6457e08280a3005b346101b55760003660031901126101b557602060ff60015460a01c166040519015158152f35b346101b55760003660031901126101b5576020600a54604051908152f35b346101b55760003660031901126101b55761083f6114b8565b60015460ff8160a01c16156108865760ff60a01b19166001556040513381527f5db9ee0a495bf2e6ff9c91a7834c1ba4fdd244a5e8aa4e537bd38aeae4b073aa90602090a1005b604051638dfc202b60e01b8152600490fd5b346101b55760203660031901126101b55760043567ffffffffffffffff81116101b557366023820112156101b557806004013567ffffffffffffffff8111610b8357604051916108f2601f8301601f191660200184611376565b81835236602483830101116101b55781600092602460209301838601378301015233600052600660205260ff6040600020541615610baf576109326114e4565b6007546000198114610b99576001810160075560016040519161095483611359565b818101835283602084015233604084015242606084015260006080840152600060a0840152600060c0840152600060e0840152600061010084015201600052600360205260406000209080518255602081015180519067ffffffffffffffff8211610b83576109c660018501546113d8565b601f8111610b3c575b50602090601f8311600114610ac65791806008949261010094600092610abb575b50508160011b916000199060031b1c19161760018501555b6002840160018060a01b036040830151166bffffffffffffffffffffffff60a01b825416179055606081015160038501556080810151600485015560a0810151600585015560c08101516006850155610a7660e08201511515600786019060ff801983541691151516179055565b01519101556007547f2cfd2fa56abf708d8f55efeadd4bb72c8204e046f62d90de877b743abfd6081d6040516020815280610ab633956020830190611398565b0390a3005b0151905087806109f0565b906001850160005260206000209160005b601f1985168110610b24575092600894926001926101009583601f19811610610b0b575b505050811b016001850155610a08565b015160001960f88460031b161c19169055878080610afb565b91926020600181928685015181550194019201610ad7565b600185016000526020600020601f840160051c810160208510610b7c575b601f830160051c82018110610b705750506109cf565b60008155600101610b5a565b5080610b5a565b634e487b7160e01b600052604160045260246000fd5b634e487b7160e01b600052601160045260246000fd5b60405162461bcd60e51b815260206004820152601760248201527f4e6f7420617574686f72697a6564204149206167656e740000000000000000006044820152606490fd5b346101b55760603660031901126101b557600435602490813591604490813591821515928381036101b557610c276115ad565b610c2f6114e4565b6008548610610f245784600052600391602093838552610c556040600020541515611505565b8660005283855260ff60076040600020015416610eec5786600052838552610c8784604060002001546009549061154a565b4211610eb25786600052600485526040600020336000528552604060002054610e8057879160648692600060018060a01b036002541660405196879586946323b872dd60e01b865233600487015230908601528401525af18015610e7457610cf791600091610e47575b5061156f565b610d73604051610d068161133d565b8781528385820187815260408301428152610d576060850192600084528b60005260048a526040600020336000528a52604060002095518655511515600186019060ff801983541691151516179055565b51600284015551151591019060ff801983541691151516179055565b846000528183526004604060002001610d8d87825461154a565b905515610e2657836000528082526005604060002001610dae86825461154a565b90555b33600052600582526040600020610dc986825461154a565b905533600052600582526040600020906103e8610dec60018401548454906115d0565b049101556040519384528301527fb898e75d5aac8de2f407e4a683c8d909e832d1e371e3bff0fa3ed934e88d956260403393a36001600055005b836000528082526006604060002001610e4086825461154a565b9055610db1565b610e679150853d8711610e6d575b610e5f8183611376565b810190611557565b88610cf1565b503d610e55565b6040513d6000823e3d90fd5b6c105b1c9958591e481d9bdd1959609a1b606492600d87936040519462461bcd60e51b86526004860152840152820152fd5b74159bdd1a5b99c81c195c9a5bd908195e1c1a5c9959605a1b606492601587936040519462461bcd60e51b86526004860152840152820152fd5b72159bdd1a5b99c81c195c9a5bd908195b991959606a1b606492601387936040519462461bcd60e51b86526004860152840152820152fd5b60405162461bcd60e51b8152602060048201526019818501527f496e73756666696369656e74207374616b6520616d6f756e740000000000000081840152606490fd5b346101b5576020806003193601126101b557600435610f846115ad565b806000526003825260ff60076040600020015416156111fb5780600052600482526040600020336000528252604060002054156111c6578060005260048252604060002033600052825260ff60036040600020015416611181576000526003815260406000206004825260406000203360005282526040600020906005810154906006810154808311928360ff600187015416151514916000948654958694600014611156575091600891611045949360001461114e5750935b01546115d0565b811561113857043360005260058452600160406000200191825492600a8401809411610b99576000946110a394600392555b01600160ff19825416179055338452600585526002604085200161109c83825461154a565b905561154a565b918060018060a01b036002541660446040518095819363a9059cbb60e01b83523360048401528860248401525af1918215610e74577ffc30cddea38e2bf4d6ea7d3f9ed3b6ad7f176419f4963bd81318067a4aee73fe9261110b9160009161111b575061156f565b6040519283523392a26001600055005b6111329150833d8511610e6d57610e5f8183611376565b85610cf1565b634e487b7160e01b600052601260045260246000fd5b90509361103e565b945050505050605a820291808304605a1490151715610b9957600092600360646110a3940491611077565b60405162461bcd60e51b815260048101839052601760248201527f5265776172647320616c726561647920636c61696d65640000000000000000006044820152606490fd5b60405162461bcd60e51b815260048101839052600d60248201526c139bc81d9bdd1948199bdd5b99609a1b6044820152606490fd5b60405162461bcd60e51b815260048101839052601560248201527410dbdb9d195b9d081b9bdd08199a5b985b1a5e9959605a1b6044820152606490fd5b346101b55760403660031901126101b557611251611311565b600060606040516112618161133d565b8281528260208201528260408201520152600435600052600460205260406000209060018060a01b0316600052602052608060406000206040516112a48161133d565b81549182825260ff600182015416602083019015158152606060ff6003600285015494604087019586520154169301921515835260405193845251151560208401525160408301525115156060820152f35b346101b55760003660031901126101b5576020906009548152f35b602435906001600160a01b03821682036101b557565b600435906001600160a01b03821682036101b557565b6080810190811067ffffffffffffffff821117610b8357604052565b610120810190811067ffffffffffffffff821117610b8357604052565b90601f8019910116810190811067ffffffffffffffff821117610b8357604052565b919082519283825260005b8481106113c4575050826000602080949584010152601f8019910116010190565b6020818301810151848301820152016113a3565b90600182811c92168015611408575b60208310146113f257565b634e487b7160e01b600052602260045260246000fd5b91607f16916113e7565b9060405191826000825492611426846113d8565b9081845260019485811690816000146114955750600114611452575b505061145092500383611376565b565b9093915060005260209081600020936000915b81831061147d57505061145093508201013880611442565b85548884018501529485019487945091830191611465565b91505061145094506020925060ff191682840152151560051b8201013880611442565b6001546001600160a01b031633036114cc57565b60405163118cdaa760e01b8152336004820152602490fd5b60ff60015460a01c166114f357565b60405163d93c066560e01b8152600490fd5b1561150c57565b60405162461bcd60e51b815260206004820152601660248201527510dbdb9d195b9d08191bd95cc81b9bdd08195e1a5cdd60521b6044820152606490fd5b91908201809211610b9957565b908160209103126101b5575180151581036101b55790565b1561157657565b60405162461bcd60e51b815260206004820152600f60248201526e151c985b9cd9995c8819985a5b1959608a1b6044820152606490fd5b6002600054146115be576002600055565b604051633ee5aeb560e01b8152600490fd5b81810292918115918404141715610b995756fea2646970667358221220a55d931d9cb87dbef1f035c0b36dddf9cbb20e87d1be9aa977337ceb7aa2c3f364736f6c63430008140033",
  "linkReferences": {},
  "deployedLinkReferences": {}
}