{"contracts/AIModelRegistry.sol":{"AIModelRegistry":{"abi":[{"inputs":[],"stateMutability":"nonpayable","type":"constructor"},{"inputs":[],"name":"AccessControlBadConfirmation","type":"error"},{"inputs":[{"internalType":"address","name":"account","type":"address"},{"internalType":"bytes32","name":"neededRole","type":"bytes32"}],"name":"AccessControlUnauthorizedAccount","type":"error"},{"inputs":[],"name":"ReentrancyGuardReentrantCall","type":"error"},{"anonymous":false,"inputs":[{"indexed":true,"internalType":"uint256","name":"modelId","type":"uint256"},{"indexed":false,"internalType":"string","name":"reason","type":"string"}],"name":"ModelDeactivated","type":"event"},{"anonymous":false,"inputs":[{"indexed":true,"internalType":"uint256","name":"modelId","type":"uint256"},{"indexed":true,"internalType":"address","name":"creator","type":"address"},{"indexed":false,"internalType":"string","name":"name","type":"string"}],"name":"ModelRegistered","type":"event"},{"anonymous":false,"inputs":[{"indexed":true,"internalType":"uint256","name":"modelId","type":"uint256"},{"indexed":true,"internalType":"address","name":"staker","type":"address"},{"indexed":false,"internalType":"uint256","name":"amount","type":"uint256"}],"name":"ModelStaked","type":"event"},{"anonymous":false,"inputs":[{"indexed":true,"internalType":"uint256","name":"modelId","type":"uint256"},{"indexed":true,"internalType":"address","name":"staker","type":"address"},{"indexed":false,"internalType":"uint256","name":"amount","type":"uint256"}],"name":"ModelUnstaked","type":"event"},{"anonymous":false,"inputs":[{"indexed":true,"internalType":"uint256","name":"modelId","type":"uint256"},{"indexed":false,"internalType":"string","name":"newVersion","type":"string"}],"name":"ModelUpdated","type":"event"},{"anonymous":false,"inputs":[{"indexed":true,"internalType":"uint256","name":"modelId","type":"uint256"},{"indexed":true,"internalType":"address","name":"predictor","type":"address"},{"indexed":false,"internalType":"string","name":"predictionHash","type":"string"}],"name":"PredictionSubmitted","type":"event"},{"anonymous":false,"inputs":[{"indexed":true,"internalType":"uint256","name":"modelId","type":"uint256"},{"indexed":false,"internalType":"uint256","name":"predictionIndex","type":"uint256"},{"indexed":false,"internalType":"bool","name":"accurate","type":"bool"}],"name":"PredictionValidated","type":"event"},{"anonymous":false,"inputs":[{"indexed":true,"internalType":"uint256","name":"modelId","type":"uint256"},{"indexed":false,"internalType":"uint256","name":"totalRewards","type":"uint256"}],"name":"RewardsDistributed","type":"event"},{"anonymous":false,"inputs":[{"indexed":true,"internalType":"bytes32","name":"role","type":"bytes32"},{"indexed":true,"internalType":"bytes32","name":"previousAdminRole","type":"bytes32"},{"indexed":true,"internalType":"bytes32","name":"newAdminRole","type":"bytes32"}],"name":"RoleAdminChanged","type":"event"},{"anonymous":false,"inputs":[{"indexed":true,"internalType":"bytes32","name":"role","type":"bytes32"},{"indexed":true,"internalType":"address","name":"account","type":"address"},{"indexed":true,"internalType":"address","name":"sender","type":"address"}],"name":"RoleGranted","type":"event"},{"anonymous":false,"inputs":[{"indexed":true,"internalType":"bytes32","name":"role","type":"bytes32"},{"indexed":true,"internalType":"address","name":"account","type":"address"},{"indexed":true,"internalType":"address","name":"sender","type":"address"}],"name":"RoleRevoked","type":"event"},{"inputs":[],"name":"BASE_STAKING_REQUIREMENT","outputs":[{"internalType":"uint256","name":"","type":"uint256"}],"stateMutability":"view","type":"function"},{"inputs":[],"name":"DEFAULT_ADMIN_ROLE","outputs":[{"internalType":"bytes32","name":"","type":"bytes32"}],"stateMutability":"view","type":"function"},{"inputs":[],"name":"MIN_PREDICTIONS_FOR_VALIDATION","outputs":[{"internalType":"uint256","name":"","type":"uint256"}],"stateMutability":"view","type":"function"},{"inputs":[],"name":"MIN_SUCCESS_RATE","outputs":[{"internalType":"uint256","name":"","type":"uint256"}],"stateMutability":"view","type":"function"},{"inputs":[],"name":"MODEL_VALIDATOR_ROLE","outputs":[{"internalType":"bytes32","name":"","type":"bytes32"}],"stateMutability":"view","type":"function"},{"inputs":[],"name":"ORACLE_ROLE","outputs":[{"internalType":"bytes32","name":"","type":"bytes32"}],"stateMutability":"view","type":"function"},{"inputs":[],"name":"PERFORMANCE_WINDOW","outputs":[{"internalType":"uint256","name":"","type":"uint256"}],"stateMutability":"view","type":"function"},{"inputs":[{"internalType":"uint256","name":"_modelId","type":"uint256"},{"internalType":"uint256","name":"_amount","type":"uint256"}],"name":"addRewardPool","outputs":[],"stateMutability":"nonpayable","type":"function"},{"inputs":[{"internalType":"uint256","name":"_modelId","type":"uint256"},{"internalType":"address","name":"_user","type":"address"}],"name":"authorizeUser","outputs":[],"stateMutability":"nonpayable","type":"function"},{"inputs":[{"internalType":"uint256","name":"_modelId","type":"uint256"},{"internalType":"address","name":"_user","type":"address"}],"name":"deauthorizeUser","outputs":[],"stateMutability":"nonpayable","type":"function"},{"inputs":[{"internalType":"uint256","name":"_modelId","type":"uint256"},{"internalType":"uint256","name":"_totalRewards","type":"uint256"}],"name":"distributeModelRewards","outputs":[],"stateMutability":"nonpayable","type":"function"},{"inputs":[{"internalType":"uint256","name":"_modelId","type":"uint256"},{"internalType":"string","name":"_reason","type":"string"}],"name":"emergencyDeactivateModel","outputs":[],"stateMutability":"nonpayable","type":"function"},{"inputs":[{"internalType":"uint256","name":"_modelId","type":"uint256"}],"name":"getModel","outputs":[{"internalType":"string","name":"name","type":"string"},{"internalType":"string","name":"version","type":"string"},{"internalType":"string","name":"description","type":"string"},{"internalType":"address","name":"creator","type":"address"},{"internalType":"string","name":"modelHash","type":"string"},{"internalType":"bool","name":"isActive","type":"bool"},{"internalType":"bool","name":"isPublic","type":"bool"},{"internalType":"uint256","name":"usageCount","type":"uint256"},{"internalType":"uint256","name":"successRate","type":"uint256"},{"internalType":"uint256","name":"totalStaked","type":"uint256"}],"stateMutability":"view","type":"function"},{"inputs":[{"internalType":"uint256","name":"_modelId","type":"uint256"}],"name":"getModelPerformance","outputs":[{"internalType":"uint256","name":"totalPredictions","type":"uint256"},{"internalType":"uint256","name":"correctPredictions","type":"uint256"},{"internalType":"uint256","name":"successRate","type":"uint256"},{"internalType":"uint256","name":"rewardPool","type":"uint256"}],"stateMutability":"view","type":"function"},{"inputs":[{"internalType":"uint256","name":"_modelId","type":"uint256"}],"name":"getModelVersions","outputs":[{"components":[{"internalType":"string","name":"version","type":"string"},{"internalType":"string","name":"modelHash","type":"string"},{"internalType":"uint256","name":"timestamp","type":"uint256"},{"internalType":"string","name":"changeLog","type":"string"},{"internalType":"bool","name":"deprecated","type":"bool"},{"internalType":"uint256","name":"performanceScore","type":"uint256"}],"internalType":"struct AIModelRegistry.ModelVersion[]","name":"","type":"tuple[]"}],"stateMutability":"view","type":"function"},{"inputs":[{"internalType":"string","name":"_category","type":"string"}],"name":"getModelsByCategory","outputs":[{"internalType":"uint256[]","name":"","type":"uint256[]"}],"stateMutability":"view","type":"function"},{"inputs":[{"internalType":"address","name":"_creator","type":"address"}],"name":"getModelsByCreator","outputs":[{"internalType":"uint256[]","name":"","type":"uint256[]"}],"stateMutability":"view","type":"function"},{"inputs":[{"internalType":"uint256","name":"_modelId","type":"uint256"},{"internalType":"uint256","name":"_index","type":"uint256"}],"name":"getPrediction","outputs":[{"internalType":"address","name":"predictor","type":"address"},{"internalType":"string","name":"predictionHash","type":"string"},{"internalType":"uint256","name":"timestamp","type":"uint256"},{"internalType":"bool","name":"validated","type":"bool"},{"internalType":"bool","name":"accurate","type":"bool"},{"internalType":"uint256","name":"confidenceScore","type":"uint256"},{"internalType":"uint256","name":"rewardAmount","type":"uint256"}],"stateMutability":"view","type":"function"},{"inputs":[{"internalType":"uint256","name":"_modelId","type":"uint256"}],"name":"getPredictionCount","outputs":[{"internalType":"uint256","name":"","type":"uint256"}],"stateMutability":"view","type":"function"},{"inputs":[{"internalType":"bytes32","name":"role","type":"bytes32"}],"name":"getRoleAdmin","outputs":[{"internalType":"bytes32","name":"","type":"bytes32"}],"stateMutability":"view","type":"function"},{"inputs":[{"internalType":"uint256","name":"_modelId","type":"uint256"},{"internalType":"address","name":"_user","type":"address"}],"name":"getUserStake","outputs":[{"internalType":"uint256","name":"amount","type":"uint256"},{"internalType":"uint256","name":"timestamp","type":"uint256"},{"internalType":"bool","name":"active","type":"bool"},{"internalType":"uint256","name":"rewards","type":"uint256"}],"stateMutability":"view","type":"function"},{"inputs":[],"name":"globalRewardPool","outputs":[{"internalType":"uint256","name":"","type":"uint256"}],"stateMutability":"view","type":"function"},{"inputs":[{"internalType":"bytes32","name":"role","type":"bytes32"},{"internalType":"address","name":"account","type":"address"}],"name":"grantRole","outputs":[],"stateMutability":"nonpayable","type":"function"},{"inputs":[{"internalType":"bytes32","name":"role","type":"bytes32"},{"internalType":"address","name":"account","type":"address"}],"name":"hasRole","outputs":[{"internalType":"bool","name":"","type":"bool"}],"stateMutability":"view","type":"function"},{"inputs":[],"name":"modelCounter","outputs":[{"internalType":"uint256","name":"","type":"uint256"}],"stateMutability":"view","type":"function"},{"inputs":[{"internalType":"uint256","name":"","type":"uint256"},{"internalType":"uint256","name":"","type":"uint256"}],"name":"modelPredictions","outputs":[{"internalType":"uint256","name":"modelId","type":"uint256"},{"internalType":"address","name":"predictor","type":"address"},{"internalType":"string","name":"predictionHash","type":"string"},{"internalType":"uint256","name":"timestamp","type":"uint256"},{"internalType":"bool","name":"validated","type":"bool"},{"internalType":"bool","name":"accurate","type":"bool"},{"internalType":"uint256","name":"confidenceScore","type":"uint256"},{"internalType":"uint256","name":"rewardAmount","type":"uint256"},{"internalType":"bytes32","name":"evidenceHash","type":"bytes32"}],"stateMutability":"view","type":"function"},{"inputs":[{"internalType":"uint256","name":"","type":"uint256"},{"internalType":"uint256","name":"","type":"uint256"}],"name":"modelStakers","outputs":[{"internalType":"address","name":"","type":"address"}],"stateMutability":"view","type":"function"},{"inputs":[{"internalType":"uint256","name":"","type":"uint256"},{"internalType":"address","name":"","type":"address"}],"name":"modelStakes","outputs":[{"internalType":"address","name":"staker","type":"address"},{"internalType":"uint256","name":"amount","type":"uint256"},{"internalType":"uint256","name":"timestamp","type":"uint256"},{"internalType":"bool","name":"active","type":"bool"},{"internalType":"uint256","name":"rewards","type":"uint256"}],"stateMutability":"view","type":"function"},{"inputs":[{"internalType":"uint256","name":"","type":"uint256"},{"internalType":"uint256","name":"","type":"uint256"}],"name":"modelVersions","outputs":[{"internalType":"string","name":"version","type":"string"},{"internalType":"string","name":"modelHash","type":"string"},{"internalType":"uint256","name":"timestamp","type":"uint256"},{"internalType":"string","name":"changeLog","type":"string"},{"internalType":"bool","name":"deprecated","type":"bool"},{"internalType":"uint256","name":"performanceScore","type":"uint256"}],"stateMutability":"view","type":"function"},{"inputs":[{"internalType":"uint256","name":"","type":"uint256"}],"name":"models","outputs":[{"internalType":"string","name":"name","type":"string"},{"internalType":"string","name":"version","type":"string"},{"internalType":"string","name":"description","type":"string"},{"internalType":"address","name":"creator","type":"address"},{"internalType":"string","name":"modelHash","type":"string"},{"internalType":"string","name":"metadataURI","type":"string"},{"internalType":"uint256","name":"createdAt","type":"uint256"},{"internalType":"uint256","name":"lastUpdated","type":"uint256"},{"internalType":"bool","name":"isActive","type":"bool"},{"internalType":"bool","name":"isPublic","type":"bool"},{"internalType":"uint256","name":"usageCount","type":"uint256"},{"internalType":"uint256","name":"successRate","type":"uint256"},{"internalType":"uint256","name":"totalPredictions","type":"uint256"},{"internalType":"uint256","name":"correctPredictions","type":"uint256"},{"internalType":"uint256","name":"stakingRequirement","type":"uint256"},{"internalType":"uint256","name":"rewardPool","type":"uint256"},{"internalType":"uint256","name":"totalStaked","type":"uint256"}],"stateMutability":"view","type":"function"},{"inputs":[{"internalType":"string","name":"","type":"string"},{"internalType":"uint256","name":"","type":"uint256"}],"name":"modelsByCategory","outputs":[{"internalType":"uint256","name":"","type":"uint256"}],"stateMutability":"view","type":"function"},{"inputs":[{"internalType":"address","name":"","type":"address"},{"internalType":"uint256","name":"","type":"uint256"}],"name":"modelsByCreator","outputs":[{"internalType":"uint256","name":"","type":"uint256"}],"stateMutability":"view","type":"function"},{"inputs":[{"internalType":"string","name":"_name","type":"string"},{"internalType":"string","name":"_version","type":"string"},{"internalType":"string","name":"_description","type":"string"},{"internalType":"string","name":"_modelHash","type":"string"},{"internalType":"string","name":"_metadataURI","type":"string"},{"internalType":"string[]","name":"_categories","type":"string[]"},{"internalType":"bool","name":"_isPublic","type":"bool"},{"internalType":"uint256","name":"_stakingRequirement","type":"uint256"}],"name":"registerModel","outputs":[{"internalType":"uint256","name":"","type":"uint256"}],"stateMutability":"nonpayable","type":"function"},{"inputs":[{"internalType":"bytes32","name":"role","type":"bytes32"},{"internalType":"address","name":"callerConfirmation","type":"address"}],"name":"renounceRole","outputs":[],"stateMutability":"nonpayable","type":"function"},{"inputs":[{"internalType":"bytes32","name":"role","type":"bytes32"},{"internalType":"address","name":"account","type":"address"}],"name":"revokeRole","outputs":[],"stateMutability":"nonpayable","type":"function"},{"inputs":[],"name":"sToken","outputs":[{"internalType":"contract IERC20","name":"","type":"address"}],"stateMutability":"view","type":"function"},{"inputs":[{"internalType":"uint256","name":"_modelId","type":"uint256"},{"internalType":"uint256","name":"_amount","type":"uint256"}],"name":"stakeOnModel","outputs":[],"stateMutability":"nonpayable","type":"function"},{"inputs":[{"internalType":"uint256","name":"_modelId","type":"uint256"},{"internalType":"string","name":"_predictionHash","type":"string"},{"internalType":"uint256","name":"_confidenceScore","type":"uint256"},{"internalType":"bytes32","name":"_evidenceHash","type":"bytes32"}],"name":"submitPrediction","outputs":[],"stateMutability":"nonpayable","type":"function"},{"inputs":[{"internalType":"bytes4","name":"interfaceId","type":"bytes4"}],"name":"supportsInterface","outputs":[{"internalType":"bool","name":"","type":"bool"}],"stateMutability":"view","type":"function"},{"inputs":[],"name":"totalModelsStaked","outputs":[{"internalType":"uint256","name":"","type":"uint256"}],"stateMutability":"view","type":"function"},{"inputs":[{"internalType":"uint256","name":"_modelId","type":"uint256"},{"internalType":"uint256","name":"_amount","type":"uint256"}],"name":"unstakeFromModel","outputs":[],"stateMutability":"nonpayable","type":"function"},{"inputs":[{"internalType":"uint256","name":"_modelId","type":"uint256"},{"internalType":"string","name":"_newVersion","type":"string"},{"internalType":"string","name":"_newModelHash","type":"string"},{"internalType":"string","name":"_changeLog","type":"string"}],"name":"updateModel","outputs":[],"stateMutability":"nonpayable","type":"function"},{"inputs":[{"internalType":"uint256","name":"_modelId","type":"uint256"},{"internalType":"uint256","name":"_predictionIndex","type":"uint256"},{"internalType":"bool","name":"_accurate","type":"bool"},{"internalType":"uint256","name":"_rewardAmount","type":"uint256"}],"name":"validatePrediction","outputs":[],"stateMutability":"nonpayable","type":"function"}],"evm":{"bytecode":{"linkReferences":{},"object":"6080604052346200002a576001805562000019336200002f565b506040516138cb9081620000c18239f35b600080fd5b6001600160a01b031660008181527fad3228b676f7d3cd4284a5443f17f1962b36e491b30a40b2405849e597ba5fb5602052604081205490919060ff16620000bc57818052816020526040822081835260205260408220600160ff1982541617905533917f2f8788117e7eff1d82e926ec794901d17c78024a50270940304540a733656f0d8180a4600190565b509056fe60a080604052600436101561001357600080fd5b60003560e01c90816301ffc9a714612c1e5750806307e2cea514612be3578063167519db146128045780631ab16a74146127a65780631b0a102c146126c05780631b9b507a14612643578063248a9ca31461261457806328e12ad2146125f65780632bb7245c146125bb5780632f2ff15d1461257c57806336568abe14612535578063408abc9f146124bd578063462105d91461249e5780634b770454146122e557806355282902146122c757806356d29084146122ab57806356e100291461220057806359a7ab56146121675780635d45dcf51461213b5780635fd6f0e9146114cc57806361bd84fe146114a85780636a030ca9146113215780636d361694146112225780636f5824a514610fcd5780637ba8ee4714610c585780637ea67b9414610ba457806391d1485414610b5757806395f0b6de14610b395780639626a23014610ac75780639ebdf12c14610a9e578063a217fddf14610a82578063a237df74146109bd578063a6aaed2f14610973578063a81abcb214610929578063aa53d3e5146108b0578063c4c7cfda1461072b578063cc408b8a1461070d578063d0ef265014610652578063d547741f14610611578063dc68682e1461030f578063e345faff14610295578063f0fa6eec1461021a5763fef2803a146101f857600080fd5b346102155760003660031901126102155760206040516117708152f35b600080fd5b346102155760403660031901126102155760a0610235612d61565b60043560005260056020526040600020600180841b03809216600052602052604060002090815416906001810154906002810154600460ff6003840154169201549260405194855260208501526040840152151560608301526080820152f35b34610215576040366003190112610215576004356102b1612d61565b906102bf60095482106134e7565b80600052600260205260018060a01b03906102e58260036040600020015416331461352a565b6000526002602052600f6040600020019116600052602052604060002060ff198154169055600080f35b3461021557608036600319011261021557600435604435801515602435818303610215576064359161033f612f25565b61034c60095486106134e7565b846000526020600481526040600020548310156105cd578560005260048152610379836040600020612f09565b50600481019485549560ff87166105945761ffff1990961687151560081b61ff00161760011790955560ff1994829080600684015588600052600282526040600020976104b1575b505050600c850154936127109485810295818704149015171561049b57856040956064610414600b7f969ee93de89ff75008cbc12414d73f3b46864194a6aed15dce47a4f04a3870f59a01548093613621565b9182600a8501551015908161048f575b50610437575b50508351928352820152a2005b600801908154169055857fbe40b0c85c2027080eec3c74b875d0a88c6d66a202420aaac978848c3d9d81cd606086518481526010858201526f506f6f7220706572666f726d616e636560801b88820152a2868061042a565b61177091501089610424565b634e487b7160e01b600052601160045260246000fd5b600c88016104bf81546130f2565b905580151580610586575b156103c15761052992601189016104e28382546135ac565b9055600c546001919091015460405163a9059cbb60e01b81526001600160a01b03918216600482015260248101939093529193849290911690829060009082906044820190565b03925af1801561057a576105459160009161054d575b506135dc565b8681816103c1565b61056d9150833d8511610573575b6105658183612c8c565b810190613487565b8861053f565b503d61055b565b6040513d6000823e3d90fd5b5080601189015410156104ca565b60405162461bcd60e51b8152600481018590526011602482015270105b1c9958591e481d985b1a59185d1959607a1b6044820152606490fd5b6064906040519062461bcd60e51b82526004820152601860248201527f496e76616c69642070726564696374696f6e20696e64657800000000000000006044820152fd5b3461021557604036600319011261021557610650600435610630612d61565b9080600052600060205261064b600160406000200154612fd9565b61307d565b005b346102155761066036612d03565b90600052600460205260406000209081548110156102155761068191612f09565b50805460018201546001600160a01b03169161069f60028201612e19565b600382015491600481015460ff6005830154916106de6007600686015495015495604051998a998a5260208a01526101208060408b0152890190612d3c565b9560608801528181161515608088015260081c16151560a086015260c085015260e08401526101008301520390f35b34610215576000366003190112610215576020600954604051908152f35b34610215576020806003193601126102155760043561074d60095482106134e7565b6000526003908181526040600020805461076681612dc8565b936107746040519586612c8c565b81855260009283528383208486019391845b84841061083d57604080518881528951818a01819052600092600582901b83018101918a918c9085015b8287106107bd5785850386f35b909192938280600192603f198982030185528751906108176107fa6107ea845160c0808652850190612d3c565b8585015184820387860152612d3c565b604084015160408401526060808501519084830390850152612d3c565b9160808082015115159083015260a08091015191015296019201960195929190926107b0565b60068760019260409a999a5161085281612c71565b61085b87612e19565b8152610868858801612e19565b8382015260028701546040820152610881868801612e19565b606082015260ff60048801541615156080820152600587015460a0820152815201930193019291969596610786565b34610215576040366003190112610215576004356001600160401b038111610215576108e0903690600401612cad565b6108fc6020602435928160405193828580945193849201612d19565b8101600781520301902080548210156102155760209161091b91612ef1565b90546040519160031b1c8152f35b3461021557604036600319011261021557610942612d77565b6001600160a01b03166000908152600860205260409020805460243591908210156102155760209161091b91612ef1565b346102155761098136612d03565b90600052600660205260406000208054821015610215576020916109a491612ef1565b905460405160039290921b1c6001600160a01b03168152f35b34610215576109cb36612d03565b6109d3612f9f565b6109e060095483106134e7565b600c546040516323b872dd60e01b8152336004820152306024820152604481018390529290602090849060649082906000906001600160a01b03165af192831561057a57610a5f93610a3a91600091610a64575b50613641565b60005260026020526011604060002001610a558282546134da565b9055600b546134da565b600b55005b610a7c915060203d8111610573576105658183612c8c565b85610a34565b3461021557600036600319011261021557602060405160008152f35b3461021557600036600319011261021557600c546040516001600160a01b039091168152602090f35b3461021557604036600319011261021557610ae0612d61565b600435600052600560205260406000209060018060a01b031660005260205260806040600020600181015490600281015490600460ff600383015416910154916040519384526020840152151560408301526060820152f35b34610215576000366003190112610215576020600a54604051908152f35b3461021557604036600319011261021557610b70612d61565b600435600052600060205260406000209060018060a01b0316600052602052602060ff604060002054166040519015158152f35b3461021557610bb236612d03565b9060005260036020526040600020805482101561021557610c2691610bd691612ebf565b50610be081612e19565b90610bed60018201612e19565b610c476002830154610c0160038501612e19565b610c34600560ff6004880154169601549460405198899860c08a5260c08a0190612d3c565b9088820360208a0152612d3c565b9160408701528582036060870152612d3c565b911515608084015260a08301520390f35b34610215576080366003190112610215576001600160401b0360043560243582811161021557610c8c903690600401612cad565b60443583811161021557610ca4903690600401612cad565b60643584811161021557610cbc903690600401612cad565b93610cca60095485106134e7565b8360005260209160028352604060002091600396610cf460018060a01b038986015416331461352a565b610d0460ff60088601541661356a565b8660005287855260406000209081549182610fa0575b610d52925060405191610d2c83612c71565b8883528588840152426040840152606083015260006080830152600060a0830152613118565b8451966001848101838a11610eef57610d6b8154612ddf565b99601f9a8b8111610f72575b5080888c8211600114610f1057600091610f05575b5060001982861b1c191690831b1790555b60048501938051938411610eef57610db58554612ddf565b8a8111610eb7575b5086998411600114610e33578392917f8ebc53783e23213a06b7bbdd0bd63b77e97af33906ce56ffe8101e3bb4fbae68999a8492600095610e28575b50501b92600019911b1c19161790555b600742910155610e23604051928284938452830190612d3c565b0390a2005b015193508b80610df9565b909291601f1983169985600052876000209260005b8c8110610ea25750847f8ebc53783e23213a06b7bbdd0bd63b77e97af33906ce56ffe8101e3bb4fbae689b9c10610e88575b50505050811b019055610e09565b01519060f884600019921b161c1916905588808080610e7a565b81830151855593860193918901918901610e48565b610ee09086600052886000208c80880160051c8201928b8910610ee6575b0160051c0190613101565b8a610dbd565b92508192610ed5565b634e487b7160e01b600052604160045260246000fd5b90508901518c610d8c565b60008481528a81208694509190601f198416908c8e5b838310610f5b575050508311610f43575b5050811b019055610d9d565b8b015160001983881b60f8161c191690558c80610f37565b840151855588969094019392830192018c8e610f26565b610f9a9083600052896000208d80850160051c8201928c8610610ee6570160051c0190613101565b8b610d77565b600019830192831161049b576004610fbb610d529483612ebf565b5001805460ff19166001179055610d1a565b3461021557610fdb36612d03565b90610fe46135b9565b610ff160095482106134e7565b8060005260206005815260406000203360005281526040600020600181018054918583106111dd576003019060ff825416156111a257846000526002845260018060a01b0392868460036040600020015416331461112b575b611053916135ac565b8155846000526002845260126040600020016110708782546135ac565b905561107e86600a546135ac565b600a55541561111d575b50600c5460405163a9059cbb60e01b8152336004820152602481018690529291829184916044918391600091165af191821561057a577f2dc40d85d0c8e6ad2ac2d97be80f024d3d8f14560290681495dfc6f986c6940b926110f1916000916111005750613641565b6040519384523393a360018055005b6111179150833d8511610573576105658183612c8c565b86610a34565b805460ff1916905584611088565b61113590826135ac565b8660005260028652600d6040600020015411611151578661104a565b60405162461bcd60e51b815260048101869052602360248201527f43726561746f72206d757374206d61696e7461696e206d696e696d756d207374604482015262616b6560e81b6064820152608490fd5b60405162461bcd60e51b81526004810185905260136024820152725374616b65206973206e6f742061637469766560681b6044820152606490fd5b60405162461bcd60e51b815260048101859052601a60248201527f496e73756666696369656e74207374616b656420616d6f756e740000000000006044820152606490fd5b346102155760203660031901126102155760043561124360095482106134e7565b60005260026020526112c7604060002060018060a01b036003820154166008820154906009830154600a8401549060ff6112f660128701549461128588612e19565b976112e361129560018301612e19565b916112d56112b160046112aa60028501612e19565b9301612e19565b936040519d8e9d8e610140908181520190612d3c565b8d810360208f015290612d3c565b908b820360408d0152612d3c565b9160608a015288820360808a0152612d3c565b94818116151560a088015260081c16151560c086015260e08501526101008401526101208301520390f35b34610215576020366003190112610215576004356000526002602052604060002061134b81612e19565b61135760018301612e19565b9161136460028201612e19565b60038201546001600160a01b0316939061138060048401612e19565b9461138d60058501612e19565b956006850154966007860154600887015490600988015492600a89015494600b8a015496600c8b015498600d8c01549a60118d01549c601201549d60405180608052610220809152608051016113e291612d3c565b60805180820390602001526113f691612d3c565b608051808203906040015261140a91612d3c565b9060805160600152608051808203906080015261142691612d3c565b6080518082039060a0015261143a91612d3c565b9960805160c0015260805160e0015260ff81161515608051610100015260081c60ff16151560805161012001526080516101400152608051610160015260805161018001526080516101a001526080516101c001526080516101e00152608051610200015260805180910390f35b34610215576000366003190112610215576020604051683635c9adc5dea000008152f35b3461021557610100366003190112610215576004356001600160401b038111610215576114fd903690600401612cad565b6024356001600160401b0381116102155761151c903690600401612cad565b6044356001600160401b0381116102155761153b903690600401612cad565b6064356001600160401b0381116102155761155a903690600401612cad565b6084356001600160401b03811161021557611579903690600401612cad565b926001600160401b0360a435116102155736602360a4350112156102155760a43560040135926115a884612dc8565b936115b66040519586612c8c565b8085526020850180913660248260051b60a43501011161021557602460a43501915b60248260051b60a435010183106121085750505060c435151560c43503610215578651156120cc5783511561208757683635c9adc5dea0000060e435106120435760095495611626876130f2565b60095586600052600260205260406000209288516001600160401b038111610eef576116528554612ddf565b601f8111612011575b50806020601f8211600114611fa957600091611f9e575b508160011b916000199060031b1c19161784555b84516001600160401b038111610eef576116a36001860154612ddf565b601f8111611f69575b50806020601f8211600114611efc57600091611ef1575b508160011b916000199060031b1c19161760018501555b8051906001600160401b038211610eef5781906116fa6002870154612ddf565b601f8111611ebc575b50602090601f8311600114611e4a57600092611e3f575b50508160011b916000199060031b1c19161760028401555b6003830180546001600160a01b0319163317905584516001600160401b038111610eef576117636004850154612ddf565b601f8111611e0a575b50806020601f8211600114611d9d57600091611d92575b508160011b916000199060031b1c19161760048401555b8051906001600160401b038211610eef5781906117ba6005860154612ddf565b601f8111611d5d575b50602090601f8311600114611ceb57600092611ce0575b50508160011b916000199060031b1c19161760058301555b426006830181905560078301556008808301805461ffff191660c435151590921b61ff0016919091176001179055845190600160401b8211610eef576010830154826010850155808310611c68575b5090601083016000526020600020916000905b828210611b485750505050600d60e4359101558360005260036020526040600020916040519161188383612c71565b82526020820152426040820152604051918260408101106001600160401b03604085011117610eef578260406118eb9401604052600f81526e24b734ba34b0b6103b32b939b4b7b760891b6020820152606083015260006080830152600060a0830152613118565b60005b8151811015611939578061192f846119206020806119349660051b880101518160405193828580945193849201612d19565b81016007815203019020613452565b6130f2565b6118ee565b5050336000526008602052611952816040600020613452565b600c546040516323b872dd60e01b815233600482015230602482015260e43560448201526001600160a01b0393916020908290606490829060009089165af190811561057a57600091611b29575b5015611af35760405160a081018181106001600160401b03821117610eef57602094600491604052338352611a4486840160e4358152604085014281526060860191600183526080870194600086528960005260058b526040600020336000528b5260406000209751166bffffffffffffffffffffffff60a01b885416178755516001870155516002860155511515600385019060ff801983541691151516179055565b519101558160005260068352611a5e33604060002061349f565b816000526002835260e435601260406000200155611a8060e435600a546134da565b600a55817f628b93b43fc7b354fe0940347cfbbeb354e23d007ec175dc99b3628f826dcefe60405185815280611aba339588830190612d3c565b0390a360405160e4358152817f6fd15f02641c38510a113bde08c80cd63c88cdb52590e2db331c50006f111c1b843393a3604051908152f35b60405162461bcd60e51b815260206004820152600e60248201526d14dd185ada5b99c819985a5b195960921b6044820152606490fd5b611b42915060203d602011610573576105658183612c8c565b846119a0565b80518051906001600160401b038211610eef57611b658654612ddf565b601f8111611c2b575b50602090601f8311600114611bbb579282600194936020938695600092611bb0575b5050600019600383901b1c191690841b1787555b01940191019092611854565b015190508f80611b90565b908660005260206000209160005b601f1985168110611c13575083602093600196938796938794601f19811610611bfa575b505050811b018755611ba4565b015160001960f88460031b161c191690558f8080611bed565b91926020600181928685015181550194019201611bc9565b611c5890876000526020600020601f850160051c81019160208610611c5e575b601f0160051c0190613101565b8c611b6e565b9091508190611c4b565b601084016000526020600020908382015b8183018110611c89575050611841565b80611c9660019254612ddf565b80611ca3575b5001611c79565b601f81118314611cb95750600081555b8c611c9c565b600090828252611cd7601f60208420920160051c8201858301613101565b81835555611cb3565b0151905089806117da565b9250600585016000526020600020906000935b601f1984168510611d42576001945083601f19811610611d29575b505050811b0160058301556117f2565b015160001960f88460031b161c19169055898080611d19565b81810151835560209485019460019093019290910190611cfe565b611d8c90600587016000526020600020601f850160051c81019160208610611c5e57601f0160051c0190613101565b8a6117c3565b90508601518a611783565b91506004850160005260206000206000925b601f1983168410611df2576001935082601f19811610611dd9575b5050811b01600484015561179a565b88015160001960f88460031b161c191690558a80611dca565b88810151825560209384019360019092019101611daf565b611e3990600486016000526020600020601f840160051c81019160208510611c5e57601f0160051c0190613101565b8961176c565b015190508a8061171a565b9250600286016000526020600020906000935b601f1984168510611ea1576001945083601f19811610611e88575b505050811b016002840155611732565b015160001960f88460031b161c191690558a8080611e78565b81810151835560209485019460019093019290910190611e5d565b611eeb90600288016000526020600020601f850160051c81019160208610611c5e57601f0160051c0190613101565b8b611703565b90508601518b6116c3565b91506001860160005260206000206000925b601f1983168410611f51576001935082601f19811610611f38575b5050811b0160018501556116da565b88015160001960f88460031b161c191690558b80611f29565b88810151825560209384019360019092019101611f0e565b611f9890600187016000526020600020601f840160051c81019160208510611c5e57601f0160051c0190613101565b8a6116ac565b90508a01518b611672565b91508560005260206000206000925b8c601f1984168510611ffa57506001935082601f19811610611fe1575b5050811b018455611686565b8c015160001960f88460031b161c191690558b80611fd5565b810151825560209384019360019092019101611fb8565b61203d90866000526020600020601f840160051c81019160208510611c5e57601f0160051c0190613101565b8a61165b565b606460405162461bcd60e51b815260206004820152602060248201527f496e73756666696369656e74207374616b696e6720726571756972656d656e746044820152fd5b60405162461bcd60e51b815260206004820152601a60248201527f4d6f64656c20686173682063616e6e6f7420626520656d7074790000000000006044820152606490fd5b60405162461bcd60e51b81526020600482015260146024820152734e616d652063616e6e6f7420626520656d70747960601b6044820152606490fd5b6001600160401b038335116102155760208060249261212e3685883560a4350101612cad565b81520193019290506115d8565b346102155760203660031901126102155760043560005260046020526020604060002054604051908152f35b34610215576040366003190112610215576004356024356001600160401b03811161021557610e236121be7fbe40b0c85c2027080eec3c74b875d0a88c6d66a202420aaac978848c3d9d81cd923690600401612cad565b6121c6612f9f565b6121d360095485106134e7565b836000526002602052600860406000200160ff198154169055604051918291602083526020830190612d3c565b3461021557602080600319360112610215576004356001600160401b0381116102155781612235612248923690600401612cad565b8160405193828580945193849201612d19565b8101600781520301902090604051908181845491828152019360005281600020916000905b828210612294576122908561228481890382612c8c565b60405191829182612d8d565b0390f35b83548652948501946001938401939091019061226d565b3461021557600036600319011261021557602060405160648152f35b3461021557600036600319011261021557602060405162278d008152f35b34610215576122f336612d03565b906122fc6135b9565b61230960095482106134e7565b8115612464578060005260206002815260406000209061232f60ff60088401541661356a565b600c546040516323b872dd60e01b81523360048201523060248201526044810186905292908290849060649082906000906001600160a01b03165af190811561057a576123a76012927f6fd15f02641c38510a113bde08c80cd63c88cdb52590e2db331c50006f111c1b956000916124475750613641565b8460005260058352604060002033600052835260406000206001810190815415612406575b506123d88782546134da565b9055016123e68582546134da565b90556123f484600a546134da565b600a556040519384523393a360018055005b600390876000526006865261241f33604060002061349f565b80546001600160a01b0319163317815542600282015501805460ff19166001179055876123cc565b61245e9150853d8711610573576105658183612c8c565b88610a34565b60405162461bcd60e51b81526020600482015260126024820152710416d6f756e74206d757374206265203e20360741b6044820152606490fd5b34610215576106506124af36612d03565b906124b8612f25565b61367f565b3461021557602080600319360112610215576001600160a01b036124df612d77565b1660005260088152604060002090604051908181845491828152019360005281600020916000905b82821061251e576122908561228481890382612c8c565b835486529485019460019384019390910190612507565b346102155760403660031901126102155761254e612d61565b336001600160a01b0382160361256a576106509060043561307d565b60405163334bd91960e11b8152600490fd5b346102155760403660031901126102155761065060043561259b612d61565b908060005260006020526125b6600160406000200154612fd9565b612fff565b346102155760003660031901126102155760206040517f1e79cf6e4f214e0107b92a8db836a4195e9a7adc5c4217713e63be1a7696e2238152f35b34610215576000366003190112610215576020600b54604051908152f35b346102155760203660031901126102155760043560005260006020526020600160406000200154604051908152f35b346102155760403660031901126102155760043561265f612d61565b9061266d60095482106134e7565b80600052600260205260018060a01b03906126938260036040600020015416331461352a565b6000526002602052600f60406000200191166000526020526040600020600160ff19825416179055600080f35b34610215576126ce36612d03565b816000526004602052604060002054811015612771576126fa9160005260046020526040600020612f09565b5060018060a01b036001820154166003820154600483015492600581015460ff61272b600260068501549401612e19565b95612748604051978897885260e0602089015260e0880190612d3c565b9460408701528181161515606087015260081c161515608085015260a084015260c08301520390f35b60405162461bcd60e51b815260206004820152600d60248201526c092dcecc2d8d2c840d2dcc8caf609b1b6044820152606490fd5b34610215576020366003190112610215576004356127c760095482106134e7565b600052600260205260806040600020600b81015490600c810154906011600a82015491015491604051938452602084015260408301526060820152f35b34610215576080366003190112610215576024356001600160401b03811161021557612834903690600401612cad565b604435906128406135b9565b61284f600954600435106134e7565b60043560005260026020526040600020600881015461287060ff821661356a565b60648411612b9e5760081c60ff1615612b33575b600435600052600460205260406000206040519361012085018581106001600160401b03821117610eef57604052600435855233602086015283604086015242606086015260006080860152600060a086015260c0850152600060e08501526064356101008501528054600160401b811015610eef5761290991600182018155612f09565b612b1d57835181556001810160018060a01b036020860151166bffffffffffffffffffffffff60a01b82541617905560408401518051906001600160401b038211610eef5761295b6002840154612ddf565b601f8111612ae8575b50602090601f8311600114612a6f57958260079361010093600b9899600092612a64575b50508160011b916000199060031b1c19161760028501555b606081015160038501556129e8600485016129cd60808401511515829060ff801983541691151516179055565b60a0830151815461ff00191690151560081b61ff0016179055565b60c0810151600585015560e08101516006850155015191015560098101612a0f81546130f2565b905501612a1c81546130f2565b905560405190602082527fd6c8cd1f72d4ec6b6f2ea183d68c3fc2ed261fca2012dab1052fe186bfdae9fd339280612a5b600435946020830190612d3c565b0390a360018055005b015190508980612988565b906002840160005260206000209160005b601f1985168110612ad057508361010093600b989993600193600797601f19811610612ab7575b505050811b0160028501556129a0565b015160001960f88460031b161c19169055898080612aa7565b91926020600181928685015181550194019201612a80565b612b1790600285016000526020600020601f850160051c81019160208610611c5e57601f0160051c0190613101565b86612964565b634e487b7160e01b600052600060045260246000fd5b33600052600f810160205260ff604060002054168015612b88575b6128845760405162461bcd60e51b815260206004820152600e60248201526d139bdd08185d5d1a1bdc9a5e995960921b6044820152606490fd5b5060038101546001600160a01b03163314612b4e565b60405162461bcd60e51b815260206004820152601860248201527f496e76616c696420636f6e666964656e63652073636f726500000000000000006044820152606490fd5b346102155760003660031901126102155760206040517f68e79a7bf1e0bc45d0a330c573bc367f9cf464fd326078812f301165fbda4ef18152f35b34610215576020366003190112610215576004359063ffffffff60e01b821680920361021557602091637965db0b60e01b8114908115612c60575b5015158152f35b6301ffc9a760e01b14905083612c59565b60c081019081106001600160401b03821117610eef57604052565b90601f801991011681019081106001600160401b03821117610eef57604052565b81601f82011215610215578035906001600160401b038211610eef5760405192612ce1601f8401601f191660200185612c8c565b8284526020838301011161021557816000926020809301838601378301015290565b6040906003190112610215576004359060243590565b60005b838110612d2c5750506000910152565b8181015183820152602001612d1c565b90602091612d5581518092818552858086019101612d19565b601f01601f1916010190565b602435906001600160a01b038216820361021557565b600435906001600160a01b038216820361021557565b6020908160408183019282815285518094520193019160005b828110612db4575050505090565b835185529381019392810192600101612da6565b6001600160401b038111610eef5760051b60200190565b90600182811c92168015612e0f575b6020831014612df957565b634e487b7160e01b600052602260045260246000fd5b91607f1691612dee565b9060405191826000825492612e2d84612ddf565b908184526001948581169081600014612e9c5750600114612e59575b5050612e5792500383612c8c565b565b9093915060005260209081600020936000915b818310612e84575050612e5793508201013880612e49565b85548884018501529485019487945091830191612e6c565b915050612e5794506020925060ff191682840152151560051b8201013880612e49565b8054821015612edb576000526006602060002091020190600090565b634e487b7160e01b600052603260045260246000fd5b8054821015612edb5760005260206000200190600090565b8054821015612edb5760005260206000209060031b0190600090565b3360009081527fa629f6981c2f6895a67dc766e8e03ff72d04a413d0d8773a3ca56e9e474032c160205260409020547f68e79a7bf1e0bc45d0a330c573bc367f9cf464fd326078812f301165fbda4ef19060ff1615612f815750565b6044906040519063e2517d3f60e01b82523360048301526024820152fd5b3360009081527fad3228b676f7d3cd4284a5443f17f1962b36e491b30a40b2405849e597ba5fb5602052604081205460ff1615612f815750565b80600052600060205260406000203360005260205260ff6040600020541615612f815750565b9060009180835282602052604083209160018060a01b03169182845260205260ff6040842054161560001461307857808352826020526040832082845260205260408320600160ff198254161790557f2f8788117e7eff1d82e926ec794901d17c78024a50270940304540a733656f0d339380a4600190565b505090565b9060009180835282602052604083209160018060a01b03169182845260205260ff6040842054166000146130785780835282602052604083208284526020526040832060ff1981541690557ff6391f5c32d9c69d2a47ea670b442974b53935d1edc7fd64eb21e047a839171b339380a4600190565b600019811461049b5760010190565b81811061310c575050565b60008155600101613101565b908154600160401b811015610eef57613138906001938482018155612ebf565b929092612b1d578151908151906001600160401b0391828111610eef57806131608754612ddf565b94601f95868111613422575b506020908683116001146133bf576000926133b4575b5050600019600383901b1c191690821b1785555b8085016020850151805190848211610eef5781906131b48454612ddf565b878111613384575b5060209087831160011461332157600092613316575b5050600019600383901b1c191690831b1790555b60408401516002860155600385019260608501518051938411610eef5761320d8554612ddf565b8281116132e6575b50602091841160011461327957928060a0959381936005989660009461326e575b50501b916000199060031b1c19161790555b61326760808201511515600486019060ff801983541691151516179055565b0151910155565b015192503880613236565b90601f9392931983169185600052816000209260005b8181106132d05750916005979593918560a0989694106132b7575b505050811b019055613248565b015160001960f88460031b161c191690553880806132aa565b828401518555938601936020938401930161328f565b613310908660005260206000208480880160051c82019260208910610ee6570160051c0190613101565b38613215565b0151905038806131d2565b90859350601f1983169185600052816000209260005b81811061336c57508411613353575b505050811b0190556131e6565b015160001960f88460031b161c19169055388080613346565b82840151855588969094019360209384019301613337565b6133ae908560005260206000208980860160051c82019260208710610ee6570160051c0190613101565b386131bc565b015190503880613182565b90849350601f1983169189600052816000209260005b81811061340a575084116133f1575b505050811b018555613196565b015160001960f88460031b161c191690553880806133e4565b828401518555879690940193602093840193016133d5565b61344c908960005260206000208880860160051c82019260208710610ee6570160051c0190613101565b3861316c565b8054600160401b811015610eef5761346f91600182018155612ef1565b819291549060031b91821b91600019901b1916179055565b90816020910312610215575180151581036102155790565b8054600160401b811015610eef576134bc91600182018155612ef1565b819291549060031b9160018060a01b03809116831b921b1916179055565b9190820180921161049b57565b156134ee57565b60405162461bcd60e51b8152602060048201526014602482015273135bd9195b08191bd95cc81b9bdd08195e1a5cdd60621b6044820152606490fd5b1561353157565b60405162461bcd60e51b81526020600482015260116024820152702737ba1036b7b232b61031b932b0ba37b960791b6044820152606490fd5b1561357157565b60405162461bcd60e51b81526020600482015260136024820152724d6f64656c206973206e6f742061637469766560681b6044820152606490fd5b9190820391821161049b57565b6002600154146135ca576002600155565b604051633ee5aeb560e01b8152600490fd5b156135e357565b60405162461bcd60e51b815260206004820152601660248201527514995dd85c99081d1c985b9cd9995c8819985a5b195960521b6044820152606490fd5b811561362b570490565b634e487b7160e01b600052601260045260246000fd5b1561364857565b60405162461bcd60e51b815260206004820152600f60248201526e151c985b9cd9995c8819985a5b1959608a1b6044820152606490fd5b919061368e60095484106134e7565b80156138505760009280845260209060028252604092838620916006845260128588209301928354158015613847575b61383d57875b815481101561380d576136d78183612ef1565b60018060a09493941b03809354600392831b1c1690858c5260058952898c20828d52895260ff8a8d20918201541680613800575b613721575b505061371c91506130f2565b6136c4565b600181015480880290888204036137ec57906137418a93928a5490613621565b9160048092016137528482546134da565b90558d83613763575b505050613710565b600c548d5163a9059cbb60e01b81526001600160a01b0393909316938301938452602084019490945294959094859392849003604001928492165af19081156137e25761371c92916137bb918c916137c557506135dc565b863880808d61375b565b6137dc9150893d8b11610573576105658183612c8c565b3861053f565b88513d8c823e3d90fd5b634e487b7160e01b8d52601160045260248dfd5b506001810154151561370b565b505094955090507f29e98ba00d07f171959c4ddcd2f3020debc7c52cf537a034d7e664340d098c6c9251908152a2565b5050505050509050565b508054156136be565b60405162461bcd60e51b815260206004820152601860248201527f4e6f207265776172647320746f206469737472696275746500000000000000006044820152606490fdfea2646970667358221220f2bd55889ee168ea225b50a75c1a966262150e3ff56db56de4d8239b9c1b4ba564736f6c63430008140033","opcodes":"PUSH1 0x80 PUSH1 0x40 MSTORE CALLVALUE PUSH3 0x2A JUMPI PUSH1 0x1 DUP1 SSTORE PUSH3 0x19 CALLER PUSH3 0x2F JUMP JUMPDEST POP PUSH1 0x40 MLOAD PUSH2 0x38CB SWAP1 DUP2 PUSH3 0xC1 DUP3 CODECOPY RETURN JUMPDEST PUSH1 0x0 DUP1 REVERT JUMPDEST PUSH1 0x1 PUSH1 0x1 PUSH1 0xA0 SHL SUB AND PUSH1 0x0 DUP2 DUP2 MSTORE PUSH32 0xAD3228B676F7D3CD4284A5443F17F1962B36E491B30A40B2405849E597BA5FB5 PUSH1 0x20 MSTORE PUSH1 0x40 DUP2 KECCAK256 SLOAD SWAP1 SWAP2 SWAP1 PUSH1 0xFF AND PUSH3 0xBC JUMPI DUP2 DUP1 MSTORE DUP2 PUSH1 0x20 MSTORE PUSH1 0x40 DUP3 KECCAK256 DUP2 DUP4 MSTORE PUSH1 0x20 MSTORE PUSH1 0x40 DUP3 KECCAK256 PUSH1 0x1 PUSH1 0xFF NOT DUP3 SLOAD AND OR SWAP1 SSTORE CALLER SWAP2 PUSH32 0x2F8788117E7EFF1D82E926EC794901D17C78024A50270940304540A733656F0D DUP2 DUP1 LOG4 PUSH1 0x1 SWAP1 JUMP JUMPDEST POP SWAP1 JUMP INVALID PUSH1 0xA0 DUP1 PUSH1 0x40 MSTORE PUSH1 0x4 CALLDATASIZE LT ISZERO PUSH2 0x13 JUMPI PUSH1 0x0 DUP1 REVERT JUMPDEST PUSH1 0x0 CALLDATALOAD PUSH1 0xE0 SHR SWAP1 DUP2 PUSH4 0x1FFC9A7 EQ PUSH2 0x2C1E JUMPI POP DUP1 PUSH4 0x7E2CEA5 EQ PUSH2 0x2BE3 JUMPI DUP1 PUSH4 0x167519DB EQ PUSH2 0x2804 JUMPI DUP1 PUSH4 0x1AB16A74 EQ PUSH2 0x27A6 JUMPI DUP1 PUSH4 0x1B0A102C EQ PUSH2 0x26C0 JUMPI DUP1 PUSH4 0x1B9B507A EQ PUSH2 0x2643 JUMPI DUP1 PUSH4 0x248A9CA3 EQ PUSH2 0x2614 JUMPI DUP1 PUSH4 0x28E12AD2 EQ PUSH2 0x25F6 JUMPI DUP1 PUSH4 0x2BB7245C EQ PUSH2 0x25BB JUMPI DUP1 PUSH4 0x2F2FF15D EQ PUSH2 0x257C JUMPI DUP1 PUSH4 0x36568ABE EQ PUSH2 0x2535 JUMPI DUP1 PUSH4 0x408ABC9F EQ PUSH2 0x24BD JUMPI DUP1 PUSH4 0x462105D9 EQ PUSH2 0x249E JUMPI DUP1 PUSH4 0x4B770454 EQ PUSH2 0x22E5 JUMPI DUP1 PUSH4 0x55282902 EQ PUSH2 0x22C7 JUMPI DUP1 PUSH4 0x56D29084 EQ PUSH2 0x22AB JUMPI DUP1 PUSH4 0x56E10029 EQ PUSH2 0x2200 JUMPI DUP1 PUSH4 0x59A7AB56 EQ PUSH2 0x2167 JUMPI DUP1 PUSH4 0x5D45DCF5 EQ PUSH2 0x213B JUMPI DUP1 PUSH4 0x5FD6F0E9 EQ PUSH2 0x14CC JUMPI DUP1 PUSH4 0x61BD84FE EQ PUSH2 0x14A8 JUMPI DUP1 PUSH4 0x6A030CA9 EQ PUSH2 0x1321 JUMPI DUP1 PUSH4 0x6D361694 EQ PUSH2 0x1222 JUMPI DUP1 PUSH4 0x6F5824A5 EQ PUSH2 0xFCD JUMPI DUP1 PUSH4 0x7BA8EE47 EQ PUSH2 0xC58 JUMPI DUP1 PUSH4 0x7EA67B94 EQ PUSH2 0xBA4 JUMPI DUP1 PUSH4 0x91D14854 EQ PUSH2 0xB57 JUMPI DUP1 PUSH4 0x95F0B6DE EQ PUSH2 0xB39 JUMPI DUP1 PUSH4 0x9626A230 EQ PUSH2 0xAC7 JUMPI DUP1 PUSH4 0x9EBDF12C EQ PUSH2 0xA9E JUMPI DUP1 PUSH4 0xA217FDDF EQ PUSH2 0xA82 JUMPI DUP1 PUSH4 0xA237DF74 EQ PUSH2 0x9BD JUMPI DUP1 PUSH4 0xA6AAED2F EQ PUSH2 0x973 JUMPI DUP1 PUSH4 0xA81ABCB2 EQ PUSH2 0x929 JUMPI DUP1 PUSH4 0xAA53D3E5 EQ PUSH2 0x8B0 JUMPI DUP1 PUSH4 0xC4C7CFDA EQ PUSH2 0x72B JUMPI DUP1 PUSH4 0xCC408B8A EQ PUSH2 0x70D JUMPI DUP1 PUSH4 0xD0EF2650 EQ PUSH2 0x652 JUMPI DUP1 PUSH4 0xD547741F EQ PUSH2 0x611 JUMPI DUP1 PUSH4 0xDC68682E EQ PUSH2 0x30F JUMPI DUP1 PUSH4 0xE345FAFF EQ PUSH2 0x295 JUMPI DUP1 PUSH4 0xF0FA6EEC EQ PUSH2 0x21A JUMPI PUSH4 0xFEF2803A EQ PUSH2 0x1F8 JUMPI PUSH1 0x0 DUP1 REVERT JUMPDEST CALLVALUE PUSH2 0x215 JUMPI PUSH1 0x0 CALLDATASIZE PUSH1 0x3 NOT ADD SLT PUSH2 0x215 JUMPI PUSH1 0x20 PUSH1 0x40 MLOAD PUSH2 0x1770 DUP2 MSTORE RETURN JUMPDEST PUSH1 0x0 DUP1 REVERT JUMPDEST CALLVALUE PUSH2 0x215 JUMPI PUSH1 0x40 CALLDATASIZE PUSH1 0x3 NOT ADD SLT PUSH2 0x215 JUMPI PUSH1 0xA0 PUSH2 0x235 PUSH2 0x2D61 JUMP JUMPDEST PUSH1 0x4 CALLDATALOAD PUSH1 0x0 MSTORE PUSH1 0x5 PUSH1 0x20 MSTORE PUSH1 0x40 PUSH1 0x0 KECCAK256 PUSH1 0x1 DUP1 DUP5 SHL SUB DUP1 SWAP3 AND PUSH1 0x0 MSTORE PUSH1 0x20 MSTORE PUSH1 0x40 PUSH1 0x0 KECCAK256 SWAP1 DUP2 SLOAD AND SWAP1 PUSH1 0x1 DUP2 ADD SLOAD SWAP1 PUSH1 0x2 DUP2 ADD SLOAD PUSH1 0x4 PUSH1 0xFF PUSH1 0x3 DUP5 ADD SLOAD AND SWAP3 ADD SLOAD SWAP3 PUSH1 0x40 MLOAD SWAP5 DUP6 MSTORE PUSH1 0x20 DUP6 ADD MSTORE PUSH1 0x40 DUP5 ADD MSTORE ISZERO ISZERO PUSH1 0x60 DUP4 ADD MSTORE PUSH1 0x80 DUP3 ADD MSTORE RETURN JUMPDEST CALLVALUE PUSH2 0x215 JUMPI PUSH1 0x40 CALLDATASIZE PUSH1 0x3 NOT ADD SLT PUSH2 0x215 JUMPI PUSH1 0x4 CALLDATALOAD PUSH2 0x2B1 PUSH2 0x2D61 JUMP JUMPDEST SWAP1 PUSH2 0x2BF PUSH1 0x9 SLOAD DUP3 LT PUSH2 0x34E7 JUMP JUMPDEST DUP1 PUSH1 0x0 MSTORE PUSH1 0x2 PUSH1 0x20 MSTORE PUSH1 0x1 DUP1 PUSH1 0xA0 SHL SUB SWAP1 PUSH2 0x2E5 DUP3 PUSH1 0x3 PUSH1 0x40 PUSH1 0x0 KECCAK256 ADD SLOAD AND CALLER EQ PUSH2 0x352A JUMP JUMPDEST PUSH1 0x0 MSTORE PUSH1 0x2 PUSH1 0x20 MSTORE PUSH1 0xF PUSH1 0x40 PUSH1 0x0 KECCAK256 ADD SWAP2 AND PUSH1 0x0 MSTORE PUSH1 0x20 MSTORE PUSH1 0x40 PUSH1 0x0 KECCAK256 PUSH1 0xFF NOT DUP2 SLOAD AND SWAP1 SSTORE PUSH1 0x0 DUP1 RETURN JUMPDEST CALLVALUE PUSH2 0x215 JUMPI PUSH1 0x80 CALLDATASIZE PUSH1 0x3 NOT ADD SLT PUSH2 0x215 JUMPI PUSH1 0x4 CALLDATALOAD PUSH1 0x44 CALLDATALOAD DUP1 ISZERO ISZERO PUSH1 0x24 CALLDATALOAD DUP2 DUP4 SUB PUSH2 0x215 JUMPI PUSH1 0x64 CALLDATALOAD SWAP2 PUSH2 0x33F PUSH2 0x2F25 JUMP JUMPDEST PUSH2 0x34C PUSH1 0x9 SLOAD DUP7 LT PUSH2 0x34E7 JUMP JUMPDEST DUP5 PUSH1 0x0 MSTORE PUSH1 0x20 PUSH1 0x4 DUP2 MSTORE PUSH1 0x40 PUSH1 0x0 KECCAK256 SLOAD DUP4 LT ISZERO PUSH2 0x5CD JUMPI DUP6 PUSH1 0x0 MSTORE PUSH1 0x4 DUP2 MSTORE PUSH2 0x379 DUP4 PUSH1 0x40 PUSH1 0x0 KECCAK256 PUSH2 0x2F09 JUMP JUMPDEST POP PUSH1 0x4 DUP2 ADD SWAP5 DUP6 SLOAD SWAP6 PUSH1 0xFF DUP8 AND PUSH2 0x594 JUMPI PUSH2 0xFFFF NOT SWAP1 SWAP7 AND DUP8 ISZERO ISZERO PUSH1 0x8 SHL PUSH2 0xFF00 AND OR PUSH1 0x1 OR SWAP1 SWAP6 SSTORE PUSH1 0xFF NOT SWAP5 DUP3 SWAP1 DUP1 PUSH1 0x6 DUP5 ADD SSTORE DUP9 PUSH1 0x0 MSTORE PUSH1 0x2 DUP3 MSTORE PUSH1 0x40 PUSH1 0x0 KECCAK256 SWAP8 PUSH2 0x4B1 JUMPI JUMPDEST POP POP POP PUSH1 0xC DUP6 ADD SLOAD SWAP4 PUSH2 0x2710 SWAP5 DUP6 DUP2 MUL SWAP6 DUP2 DUP8 DIV EQ SWAP1 ISZERO OR ISZERO PUSH2 0x49B JUMPI DUP6 PUSH1 0x40 SWAP6 PUSH1 0x64 PUSH2 0x414 PUSH1 0xB PUSH32 0x969EE93DE89FF75008CBC12414D73F3B46864194A6AED15DCE47A4F04A3870F5 SWAP11 ADD SLOAD DUP1 SWAP4 PUSH2 0x3621 JUMP JUMPDEST SWAP2 DUP3 PUSH1 0xA DUP6 ADD SSTORE LT ISZERO SWAP1 DUP2 PUSH2 0x48F JUMPI JUMPDEST POP PUSH2 0x437 JUMPI JUMPDEST POP POP DUP4 MLOAD SWAP3 DUP4 MSTORE DUP3 ADD MSTORE LOG2 STOP JUMPDEST PUSH1 0x8 ADD SWAP1 DUP2 SLOAD AND SWAP1 SSTORE DUP6 PUSH32 0xBE40B0C85C2027080EEC3C74B875D0A88C6D66A202420AAAC978848C3D9D81CD PUSH1 0x60 DUP7 MLOAD DUP5 DUP2 MSTORE PUSH1 0x10 DUP6 DUP3 ADD MSTORE PUSH16 0x506F6F7220706572666F726D616E6365 PUSH1 0x80 SHL DUP9 DUP3 ADD MSTORE LOG2 DUP7 DUP1 PUSH2 0x42A JUMP JUMPDEST PUSH2 0x1770 SWAP2 POP LT DUP10 PUSH2 0x424 JUMP JUMPDEST PUSH4 0x4E487B71 PUSH1 0xE0 SHL PUSH1 0x0 MSTORE PUSH1 0x11 PUSH1 0x4 MSTORE PUSH1 0x24 PUSH1 0x0 REVERT JUMPDEST PUSH1 0xC DUP9 ADD PUSH2 0x4BF DUP2 SLOAD PUSH2 0x30F2 JUMP JUMPDEST SWAP1 SSTORE DUP1 ISZERO ISZERO DUP1 PUSH2 0x586 JUMPI JUMPDEST ISZERO PUSH2 0x3C1 JUMPI PUSH2 0x529 SWAP3 PUSH1 0x11 DUP10 ADD PUSH2 0x4E2 DUP4 DUP3 SLOAD PUSH2 0x35AC JUMP JUMPDEST SWAP1 SSTORE PUSH1 0xC SLOAD PUSH1 0x1 SWAP2 SWAP1 SWAP2 ADD SLOAD PUSH1 0x40 MLOAD PUSH4 0xA9059CBB PUSH1 0xE0 SHL DUP2 MSTORE PUSH1 0x1 PUSH1 0x1 PUSH1 0xA0 SHL SUB SWAP2 DUP3 AND PUSH1 0x4 DUP3 ADD MSTORE PUSH1 0x24 DUP2 ADD SWAP4 SWAP1 SWAP4 MSTORE SWAP2 SWAP4 DUP5 SWAP3 SWAP1 SWAP2 AND SWAP1 DUP3 SWAP1 PUSH1 0x0 SWAP1 DUP3 SWAP1 PUSH1 0x44 DUP3 ADD SWAP1 JUMP JUMPDEST SUB SWAP3 GAS CALL DUP1 ISZERO PUSH2 0x57A JUMPI PUSH2 0x545 SWAP2 PUSH1 0x0 SWAP2 PUSH2 0x54D JUMPI JUMPDEST POP PUSH2 0x35DC JUMP JUMPDEST DUP7 DUP2 DUP2 PUSH2 0x3C1 JUMP JUMPDEST PUSH2 0x56D SWAP2 POP DUP4 RETURNDATASIZE DUP6 GT PUSH2 0x573 JUMPI JUMPDEST PUSH2 0x565 DUP2 DUP4 PUSH2 0x2C8C JUMP JUMPDEST DUP2 ADD SWAP1 PUSH2 0x3487 JUMP JUMPDEST DUP9 PUSH2 0x53F JUMP JUMPDEST POP RETURNDATASIZE PUSH2 0x55B JUMP JUMPDEST PUSH1 0x40 MLOAD RETURNDATASIZE PUSH1 0x0 DUP3 RETURNDATACOPY RETURNDATASIZE SWAP1 REVERT JUMPDEST POP DUP1 PUSH1 0x11 DUP10 ADD SLOAD LT ISZERO PUSH2 0x4CA JUMP JUMPDEST PUSH1 0x40 MLOAD PUSH3 0x461BCD PUSH1 0xE5 SHL DUP2 MSTORE PUSH1 0x4 DUP2 ADD DUP6 SWAP1 MSTORE PUSH1 0x11 PUSH1 0x24 DUP3 ADD MSTORE PUSH17 0x105B1C9958591E481D985B1A59185D1959 PUSH1 0x7A SHL PUSH1 0x44 DUP3 ADD MSTORE PUSH1 0x64 SWAP1 REVERT JUMPDEST PUSH1 0x64 SWAP1 PUSH1 0x40 MLOAD SWAP1 PUSH3 0x461BCD PUSH1 0xE5 SHL DUP3 MSTORE PUSH1 0x4 DUP3 ADD MSTORE PUSH1 0x18 PUSH1 0x24 DUP3 ADD MSTORE PUSH32 0x496E76616C69642070726564696374696F6E20696E6465780000000000000000 PUSH1 0x44 DUP3 ADD MSTORE REVERT JUMPDEST CALLVALUE PUSH2 0x215 JUMPI PUSH1 0x40 CALLDATASIZE PUSH1 0x3 NOT ADD SLT PUSH2 0x215 JUMPI PUSH2 0x650 PUSH1 0x4 CALLDATALOAD PUSH2 0x630 PUSH2 0x2D61 JUMP JUMPDEST SWAP1 DUP1 PUSH1 0x0 MSTORE PUSH1 0x0 PUSH1 0x20 MSTORE PUSH2 0x64B PUSH1 0x1 PUSH1 0x40 PUSH1 0x0 KECCAK256 ADD SLOAD PUSH2 0x2FD9 JUMP JUMPDEST PUSH2 0x307D JUMP JUMPDEST STOP JUMPDEST CALLVALUE PUSH2 0x215 JUMPI PUSH2 0x660 CALLDATASIZE PUSH2 0x2D03 JUMP JUMPDEST SWAP1 PUSH1 0x0 MSTORE PUSH1 0x4 PUSH1 0x20 MSTORE PUSH1 0x40 PUSH1 0x0 KECCAK256 SWAP1 DUP2 SLOAD DUP2 LT ISZERO PUSH2 0x215 JUMPI PUSH2 0x681 SWAP2 PUSH2 0x2F09 JUMP JUMPDEST POP DUP1 SLOAD PUSH1 0x1 DUP3 ADD SLOAD PUSH1 0x1 PUSH1 0x1 PUSH1 0xA0 SHL SUB AND SWAP2 PUSH2 0x69F PUSH1 0x2 DUP3 ADD PUSH2 0x2E19 JUMP JUMPDEST PUSH1 0x3 DUP3 ADD SLOAD SWAP2 PUSH1 0x4 DUP2 ADD SLOAD PUSH1 0xFF PUSH1 0x5 DUP4 ADD SLOAD SWAP2 PUSH2 0x6DE PUSH1 0x7 PUSH1 0x6 DUP7 ADD SLOAD SWAP6 ADD SLOAD SWAP6 PUSH1 0x40 MLOAD SWAP10 DUP11 SWAP10 DUP11 MSTORE PUSH1 0x20 DUP11 ADD MSTORE PUSH2 0x120 DUP1 PUSH1 0x40 DUP12 ADD MSTORE DUP10 ADD SWAP1 PUSH2 0x2D3C JUMP JUMPDEST SWAP6 PUSH1 0x60 DUP9 ADD MSTORE DUP2 DUP2 AND ISZERO ISZERO PUSH1 0x80 DUP9 ADD MSTORE PUSH1 0x8 SHR AND ISZERO ISZERO PUSH1 0xA0 DUP7 ADD MSTORE PUSH1 0xC0 DUP6 ADD MSTORE PUSH1 0xE0 DUP5 ADD MSTORE PUSH2 0x100 DUP4 ADD MSTORE SUB SWAP1 RETURN JUMPDEST CALLVALUE PUSH2 0x215 JUMPI PUSH1 0x0 CALLDATASIZE PUSH1 0x3 NOT ADD SLT PUSH2 0x215 JUMPI PUSH1 0x20 PUSH1 0x9 SLOAD PUSH1 0x40 MLOAD SWAP1 DUP2 MSTORE RETURN JUMPDEST CALLVALUE PUSH2 0x215 JUMPI PUSH1 0x20 DUP1 PUSH1 0x3 NOT CALLDATASIZE ADD SLT PUSH2 0x215 JUMPI PUSH1 0x4 CALLDATALOAD PUSH2 0x74D PUSH1 0x9 SLOAD DUP3 LT PUSH2 0x34E7 JUMP JUMPDEST PUSH1 0x0 MSTORE PUSH1 0x3 SWAP1 DUP2 DUP2 MSTORE PUSH1 0x40 PUSH1 0x0 KECCAK256 DUP1 SLOAD PUSH2 0x766 DUP2 PUSH2 0x2DC8 JUMP JUMPDEST SWAP4 PUSH2 0x774 PUSH1 0x40 MLOAD SWAP6 DUP7 PUSH2 0x2C8C JUMP JUMPDEST DUP2 DUP6 MSTORE PUSH1 0x0 SWAP3 DUP4 MSTORE DUP4 DUP4 KECCAK256 DUP5 DUP7 ADD SWAP4 SWAP2 DUP5 JUMPDEST DUP5 DUP5 LT PUSH2 0x83D JUMPI PUSH1 0x40 DUP1 MLOAD DUP9 DUP2 MSTORE DUP10 MLOAD DUP2 DUP11 ADD DUP2 SWAP1 MSTORE PUSH1 0x0 SWAP3 PUSH1 0x5 DUP3 SWAP1 SHL DUP4 ADD DUP2 ADD SWAP2 DUP11 SWAP2 DUP13 SWAP1 DUP6 ADD JUMPDEST DUP3 DUP8 LT PUSH2 0x7BD JUMPI DUP6 DUP6 SUB DUP7 RETURN JUMPDEST SWAP1 SWAP2 SWAP3 SWAP4 DUP3 DUP1 PUSH1 0x1 SWAP3 PUSH1 0x3F NOT DUP10 DUP3 SUB ADD DUP6 MSTORE DUP8 MLOAD SWAP1 PUSH2 0x817 PUSH2 0x7FA PUSH2 0x7EA DUP5 MLOAD PUSH1 0xC0 DUP1 DUP7 MSTORE DUP6 ADD SWAP1 PUSH2 0x2D3C JUMP JUMPDEST DUP6 DUP6 ADD MLOAD DUP5 DUP3 SUB DUP8 DUP7 ADD MSTORE PUSH2 0x2D3C JUMP JUMPDEST PUSH1 0x40 DUP5 ADD MLOAD PUSH1 0x40 DUP5 ADD MSTORE PUSH1 0x60 DUP1 DUP6 ADD MLOAD SWAP1 DUP5 DUP4 SUB SWAP1 DUP6 ADD MSTORE PUSH2 0x2D3C JUMP JUMPDEST SWAP2 PUSH1 0x80 DUP1 DUP3 ADD MLOAD ISZERO ISZERO SWAP1 DUP4 ADD MSTORE PUSH1 0xA0 DUP1 SWAP2 ADD MLOAD SWAP2 ADD MSTORE SWAP7 ADD SWAP3 ADD SWAP7 ADD SWAP6 SWAP3 SWAP2 SWAP1 SWAP3 PUSH2 0x7B0 JUMP JUMPDEST PUSH1 0x6 DUP8 PUSH1 0x1 SWAP3 PUSH1 0x40 SWAP11 SWAP10 SWAP11 MLOAD PUSH2 0x852 DUP2 PUSH2 0x2C71 JUMP JUMPDEST PUSH2 0x85B DUP8 PUSH2 0x2E19 JUMP JUMPDEST DUP2 MSTORE PUSH2 0x868 DUP6 DUP9 ADD PUSH2 0x2E19 JUMP JUMPDEST DUP4 DUP3 ADD MSTORE PUSH1 0x2 DUP8 ADD SLOAD PUSH1 0x40 DUP3 ADD MSTORE PUSH2 0x881 DUP7 DUP9 ADD PUSH2 0x2E19 JUMP JUMPDEST PUSH1 0x60 DUP3 ADD MSTORE PUSH1 0xFF PUSH1 0x4 DUP9 ADD SLOAD AND ISZERO ISZERO PUSH1 0x80 DUP3 ADD MSTORE PUSH1 0x5 DUP8 ADD SLOAD PUSH1 0xA0 DUP3 ADD MSTORE DUP2 MSTORE ADD SWAP4 ADD SWAP4 ADD SWAP3 SWAP2 SWAP7 SWAP6 SWAP7 PUSH2 0x786 JUMP JUMPDEST CALLVALUE PUSH2 0x215 JUMPI PUSH1 0x40 CALLDATASIZE PUSH1 0x3 NOT ADD SLT PUSH2 0x215 JUMPI PUSH1 0x4 CALLDATALOAD PUSH1 0x1 PUSH1 0x1 PUSH1 0x40 SHL SUB DUP2 GT PUSH2 0x215 JUMPI PUSH2 0x8E0 SWAP1 CALLDATASIZE SWAP1 PUSH1 0x4 ADD PUSH2 0x2CAD JUMP JUMPDEST PUSH2 0x8FC PUSH1 0x20 PUSH1 0x24 CALLDATALOAD SWAP3 DUP2 PUSH1 0x40 MLOAD SWAP4 DUP3 DUP6 DUP1 SWAP5 MLOAD SWAP4 DUP5 SWAP3 ADD PUSH2 0x2D19 JUMP JUMPDEST DUP2 ADD PUSH1 0x7 DUP2 MSTORE SUB ADD SWAP1 KECCAK256 DUP1 SLOAD DUP3 LT ISZERO PUSH2 0x215 JUMPI PUSH1 0x20 SWAP2 PUSH2 0x91B SWAP2 PUSH2 0x2EF1 JUMP JUMPDEST SWAP1 SLOAD PUSH1 0x40 MLOAD SWAP2 PUSH1 0x3 SHL SHR DUP2 MSTORE RETURN JUMPDEST CALLVALUE PUSH2 0x215 JUMPI PUSH1 0x40 CALLDATASIZE PUSH1 0x3 NOT ADD SLT PUSH2 0x215 JUMPI PUSH2 0x942 PUSH2 0x2D77 JUMP JUMPDEST PUSH1 0x1 PUSH1 0x1 PUSH1 0xA0 SHL SUB AND PUSH1 0x0 SWAP1 DUP2 MSTORE PUSH1 0x8 PUSH1 0x20 MSTORE PUSH1 0x40 SWAP1 KECCAK256 DUP1 SLOAD PUSH1 0x24 CALLDATALOAD SWAP2 SWAP1 DUP3 LT ISZERO PUSH2 0x215 JUMPI PUSH1 0x20 SWAP2 PUSH2 0x91B SWAP2 PUSH2 0x2EF1 JUMP JUMPDEST CALLVALUE PUSH2 0x215 JUMPI PUSH2 0x981 CALLDATASIZE PUSH2 0x2D03 JUMP JUMPDEST SWAP1 PUSH1 0x0 MSTORE PUSH1 0x6 PUSH1 0x20 MSTORE PUSH1 0x40 PUSH1 0x0 KECCAK256 DUP1 SLOAD DUP3 LT ISZERO PUSH2 0x215 JUMPI PUSH1 0x20 SWAP2 PUSH2 0x9A4 SWAP2 PUSH2 0x2EF1 JUMP JUMPDEST SWAP1 SLOAD PUSH1 0x40 MLOAD PUSH1 0x3 SWAP3 SWAP1 SWAP3 SHL SHR PUSH1 0x1 PUSH1 0x1 PUSH1 0xA0 SHL SUB AND DUP2 MSTORE RETURN JUMPDEST CALLVALUE PUSH2 0x215 JUMPI PUSH2 0x9CB CALLDATASIZE PUSH2 0x2D03 JUMP JUMPDEST PUSH2 0x9D3 PUSH2 0x2F9F JUMP JUMPDEST PUSH2 0x9E0 PUSH1 0x9 SLOAD DUP4 LT PUSH2 0x34E7 JUMP JUMPDEST PUSH1 0xC SLOAD PUSH1 0x40 MLOAD PUSH4 0x23B872DD PUSH1 0xE0 SHL DUP2 MSTORE CALLER PUSH1 0x4 DUP3 ADD MSTORE ADDRESS PUSH1 0x24 DUP3 ADD MSTORE PUSH1 0x44 DUP2 ADD DUP4 SWAP1 MSTORE SWAP3 SWAP1 PUSH1 0x20 SWAP1 DUP5 SWAP1 PUSH1 0x64 SWAP1 DUP3 SWAP1 PUSH1 0x0 SWAP1 PUSH1 0x1 PUSH1 0x1 PUSH1 0xA0 SHL SUB AND GAS CALL SWAP3 DUP4 ISZERO PUSH2 0x57A JUMPI PUSH2 0xA5F SWAP4 PUSH2 0xA3A SWAP2 PUSH1 0x0 SWAP2 PUSH2 0xA64 JUMPI JUMPDEST POP PUSH2 0x3641 JUMP JUMPDEST PUSH1 0x0 MSTORE PUSH1 0x2 PUSH1 0x20 MSTORE PUSH1 0x11 PUSH1 0x40 PUSH1 0x0 KECCAK256 ADD PUSH2 0xA55 DUP3 DUP3 SLOAD PUSH2 0x34DA JUMP JUMPDEST SWAP1 SSTORE PUSH1 0xB SLOAD PUSH2 0x34DA JUMP JUMPDEST PUSH1 0xB SSTORE STOP JUMPDEST PUSH2 0xA7C SWAP2 POP PUSH1 0x20 RETURNDATASIZE DUP2 GT PUSH2 0x573 JUMPI PUSH2 0x565 DUP2 DUP4 PUSH2 0x2C8C JUMP JUMPDEST DUP6 PUSH2 0xA34 JUMP JUMPDEST CALLVALUE PUSH2 0x215 JUMPI PUSH1 0x0 CALLDATASIZE PUSH1 0x3 NOT ADD SLT PUSH2 0x215 JUMPI PUSH1 0x20 PUSH1 0x40 MLOAD PUSH1 0x0 DUP2 MSTORE RETURN JUMPDEST CALLVALUE PUSH2 0x215 JUMPI PUSH1 0x0 CALLDATASIZE PUSH1 0x3 NOT ADD SLT PUSH2 0x215 JUMPI PUSH1 0xC SLOAD PUSH1 0x40 MLOAD PUSH1 0x1 PUSH1 0x1 PUSH1 0xA0 SHL SUB SWAP1 SWAP2 AND DUP2 MSTORE PUSH1 0x20 SWAP1 RETURN JUMPDEST CALLVALUE PUSH2 0x215 JUMPI PUSH1 0x40 CALLDATASIZE PUSH1 0x3 NOT ADD SLT PUSH2 0x215 JUMPI PUSH2 0xAE0 PUSH2 0x2D61 JUMP JUMPDEST PUSH1 0x4 CALLDATALOAD PUSH1 0x0 MSTORE PUSH1 0x5 PUSH1 0x20 MSTORE PUSH1 0x40 PUSH1 0x0 KECCAK256 SWAP1 PUSH1 0x1 DUP1 PUSH1 0xA0 SHL SUB AND PUSH1 0x0 MSTORE PUSH1 0x20 MSTORE PUSH1 0x80 PUSH1 0x40 PUSH1 0x0 KECCAK256 PUSH1 0x1 DUP2 ADD SLOAD SWAP1 PUSH1 0x2 DUP2 ADD SLOAD SWAP1 PUSH1 0x4 PUSH1 0xFF PUSH1 0x3 DUP4 ADD SLOAD AND SWAP2 ADD SLOAD SWAP2 PUSH1 0x40 MLOAD SWAP4 DUP5 MSTORE PUSH1 0x20 DUP5 ADD MSTORE ISZERO ISZERO PUSH1 0x40 DUP4 ADD MSTORE PUSH1 0x60 DUP3 ADD MSTORE RETURN JUMPDEST CALLVALUE PUSH2 0x215 JUMPI PUSH1 0x0 CALLDATASIZE PUSH1 0x3 NOT ADD SLT PUSH2 0x215 JUMPI PUSH1 0x20 PUSH1 0xA SLOAD PUSH1 0x40 MLOAD SWAP1 DUP2 MSTORE RETURN JUMPDEST CALLVALUE PUSH2 0x215 JUMPI PUSH1 0x40 CALLDATASIZE PUSH1 0x3 NOT ADD SLT PUSH2 0x215 JUMPI PUSH2 0xB70 PUSH2 0x2D61 JUMP JUMPDEST PUSH1 0x4 CALLDATALOAD PUSH1 0x0 MSTORE PUSH1 0x0 PUSH1 0x20 MSTORE PUSH1 0x40 PUSH1 0x0 KECCAK256 SWAP1 PUSH1 0x1 DUP1 PUSH1 0xA0 SHL SUB AND PUSH1 0x0 MSTORE PUSH1 0x20 MSTORE PUSH1 0x20 PUSH1 0xFF PUSH1 0x40 PUSH1 0x0 KECCAK256 SLOAD AND PUSH1 0x40 MLOAD SWAP1 ISZERO ISZERO DUP2 MSTORE RETURN JUMPDEST CALLVALUE PUSH2 0x215 JUMPI PUSH2 0xBB2 CALLDATASIZE PUSH2 0x2D03 JUMP JUMPDEST SWAP1 PUSH1 0x0 MSTORE PUSH1 0x3 PUSH1 0x20 MSTORE PUSH1 0x40 PUSH1 0x0 KECCAK256 DUP1 SLOAD DUP3 LT ISZERO PUSH2 0x215 JUMPI PUSH2 0xC26 SWAP2 PUSH2 0xBD6 SWAP2 PUSH2 0x2EBF JUMP JUMPDEST POP PUSH2 0xBE0 DUP2 PUSH2 0x2E19 JUMP JUMPDEST SWAP1 PUSH2 0xBED PUSH1 0x1 DUP3 ADD PUSH2 0x2E19 JUMP JUMPDEST PUSH2 0xC47 PUSH1 0x2 DUP4 ADD SLOAD PUSH2 0xC01 PUSH1 0x3 DUP6 ADD PUSH2 0x2E19 JUMP JUMPDEST PUSH2 0xC34 PUSH1 0x5 PUSH1 0xFF PUSH1 0x4 DUP9 ADD SLOAD AND SWAP7 ADD SLOAD SWAP5 PUSH1 0x40 MLOAD SWAP9 DUP10 SWAP9 PUSH1 0xC0 DUP11 MSTORE PUSH1 0xC0 DUP11 ADD SWAP1 PUSH2 0x2D3C JUMP JUMPDEST SWAP1 DUP9 DUP3 SUB PUSH1 0x20 DUP11 ADD MSTORE PUSH2 0x2D3C JUMP JUMPDEST SWAP2 PUSH1 0x40 DUP8 ADD MSTORE DUP6 DUP3 SUB PUSH1 0x60 DUP8 ADD MSTORE PUSH2 0x2D3C JUMP JUMPDEST SWAP2 ISZERO ISZERO PUSH1 0x80 DUP5 ADD MSTORE PUSH1 0xA0 DUP4 ADD MSTORE SUB SWAP1 RETURN JUMPDEST CALLVALUE PUSH2 0x215 JUMPI PUSH1 0x80 CALLDATASIZE PUSH1 0x3 NOT ADD SLT PUSH2 0x215 JUMPI PUSH1 0x1 PUSH1 0x1 PUSH1 0x40 SHL SUB PUSH1 0x4 CALLDATALOAD PUSH1 0x24 CALLDATALOAD DUP3 DUP2 GT PUSH2 0x215 JUMPI PUSH2 0xC8C SWAP1 CALLDATASIZE SWAP1 PUSH1 0x4 ADD PUSH2 0x2CAD JUMP JUMPDEST PUSH1 0x44 CALLDATALOAD DUP4 DUP2 GT PUSH2 0x215 JUMPI PUSH2 0xCA4 SWAP1 CALLDATASIZE SWAP1 PUSH1 0x4 ADD PUSH2 0x2CAD JUMP JUMPDEST PUSH1 0x64 CALLDATALOAD DUP5 DUP2 GT PUSH2 0x215 JUMPI PUSH2 0xCBC SWAP1 CALLDATASIZE SWAP1 PUSH1 0x4 ADD PUSH2 0x2CAD JUMP JUMPDEST SWAP4 PUSH2 0xCCA PUSH1 0x9 SLOAD DUP6 LT PUSH2 0x34E7 JUMP JUMPDEST DUP4 PUSH1 0x0 MSTORE PUSH1 0x20 SWAP2 PUSH1 0x2 DUP4 MSTORE PUSH1 0x40 PUSH1 0x0 KECCAK256 SWAP2 PUSH1 0x3 SWAP7 PUSH2 0xCF4 PUSH1 0x1 DUP1 PUSH1 0xA0 SHL SUB DUP10 DUP7 ADD SLOAD AND CALLER EQ PUSH2 0x352A JUMP JUMPDEST PUSH2 0xD04 PUSH1 0xFF PUSH1 0x8 DUP7 ADD SLOAD AND PUSH2 0x356A JUMP JUMPDEST DUP7 PUSH1 0x0 MSTORE DUP8 DUP6 MSTORE PUSH1 0x40 PUSH1 0x0 KECCAK256 SWAP1 DUP2 SLOAD SWAP2 DUP3 PUSH2 0xFA0 JUMPI JUMPDEST PUSH2 0xD52 SWAP3 POP PUSH1 0x40 MLOAD SWAP2 PUSH2 0xD2C DUP4 PUSH2 0x2C71 JUMP JUMPDEST DUP9 DUP4 MSTORE DUP6 DUP9 DUP5 ADD MSTORE TIMESTAMP PUSH1 0x40 DUP5 ADD MSTORE PUSH1 0x60 DUP4 ADD MSTORE PUSH1 0x0 PUSH1 0x80 DUP4 ADD MSTORE PUSH1 0x0 PUSH1 0xA0 DUP4 ADD MSTORE PUSH2 0x3118 JUMP JUMPDEST DUP5 MLOAD SWAP7 PUSH1 0x1 DUP5 DUP2 ADD DUP4 DUP11 GT PUSH2 0xEEF JUMPI PUSH2 0xD6B DUP2 SLOAD PUSH2 0x2DDF JUMP JUMPDEST SWAP10 PUSH1 0x1F SWAP11 DUP12 DUP2 GT PUSH2 0xF72 JUMPI JUMPDEST POP DUP1 DUP9 DUP13 DUP3 GT PUSH1 0x1 EQ PUSH2 0xF10 JUMPI PUSH1 0x0 SWAP2 PUSH2 0xF05 JUMPI JUMPDEST POP PUSH1 0x0 NOT DUP3 DUP7 SHL SHR NOT AND SWAP1 DUP4 SHL OR SWAP1 SSTORE JUMPDEST PUSH1 0x4 DUP6 ADD SWAP4 DUP1 MLOAD SWAP4 DUP5 GT PUSH2 0xEEF JUMPI PUSH2 0xDB5 DUP6 SLOAD PUSH2 0x2DDF JUMP JUMPDEST DUP11 DUP2 GT PUSH2 0xEB7 JUMPI JUMPDEST POP DUP7 SWAP10 DUP5 GT PUSH1 0x1 EQ PUSH2 0xE33 JUMPI DUP4 SWAP3 SWAP2 PUSH32 0x8EBC53783E23213A06B7BBDD0BD63B77E97AF33906CE56FFE8101E3BB4FBAE68 SWAP10 SWAP11 DUP5 SWAP3 PUSH1 0x0 SWAP6 PUSH2 0xE28 JUMPI JUMPDEST POP POP SHL SWAP3 PUSH1 0x0 NOT SWAP2 SHL SHR NOT AND OR SWAP1 SSTORE JUMPDEST PUSH1 0x7 TIMESTAMP SWAP2 ADD SSTORE PUSH2 0xE23 PUSH1 0x40 MLOAD SWAP3 DUP3 DUP5 SWAP4 DUP5 MSTORE DUP4 ADD SWAP1 PUSH2 0x2D3C JUMP JUMPDEST SUB SWAP1 LOG2 STOP JUMPDEST ADD MLOAD SWAP4 POP DUP12 DUP1 PUSH2 0xDF9 JUMP JUMPDEST SWAP1 SWAP3 SWAP2 PUSH1 0x1F NOT DUP4 AND SWAP10 DUP6 PUSH1 0x0 MSTORE DUP8 PUSH1 0x0 KECCAK256 SWAP3 PUSH1 0x0 JUMPDEST DUP13 DUP2 LT PUSH2 0xEA2 JUMPI POP DUP5 PUSH32 0x8EBC53783E23213A06B7BBDD0BD63B77E97AF33906CE56FFE8101E3BB4FBAE68 SWAP12 SWAP13 LT PUSH2 0xE88 JUMPI JUMPDEST POP POP POP POP DUP2 SHL ADD SWAP1 SSTORE PUSH2 0xE09 JUMP JUMPDEST ADD MLOAD SWAP1 PUSH1 0xF8 DUP5 PUSH1 0x0 NOT SWAP3 SHL AND SHR NOT AND SWAP1 SSTORE DUP9 DUP1 DUP1 DUP1 PUSH2 0xE7A JUMP JUMPDEST DUP2 DUP4 ADD MLOAD DUP6 SSTORE SWAP4 DUP7 ADD SWAP4 SWAP2 DUP10 ADD SWAP2 DUP10 ADD PUSH2 0xE48 JUMP JUMPDEST PUSH2 0xEE0 SWAP1 DUP7 PUSH1 0x0 MSTORE DUP9 PUSH1 0x0 KECCAK256 DUP13 DUP1 DUP9 ADD PUSH1 0x5 SHR DUP3 ADD SWAP3 DUP12 DUP10 LT PUSH2 0xEE6 JUMPI JUMPDEST ADD PUSH1 0x5 SHR ADD SWAP1 PUSH2 0x3101 JUMP JUMPDEST DUP11 PUSH2 0xDBD JUMP JUMPDEST SWAP3 POP DUP2 SWAP3 PUSH2 0xED5 JUMP JUMPDEST PUSH4 0x4E487B71 PUSH1 0xE0 SHL PUSH1 0x0 MSTORE PUSH1 0x41 PUSH1 0x4 MSTORE PUSH1 0x24 PUSH1 0x0 REVERT JUMPDEST SWAP1 POP DUP10 ADD MLOAD DUP13 PUSH2 0xD8C JUMP JUMPDEST PUSH1 0x0 DUP5 DUP2 MSTORE DUP11 DUP2 KECCAK256 DUP7 SWAP5 POP SWAP2 SWAP1 PUSH1 0x1F NOT DUP5 AND SWAP1 DUP13 DUP15 JUMPDEST DUP4 DUP4 LT PUSH2 0xF5B JUMPI POP POP POP DUP4 GT PUSH2 0xF43 JUMPI JUMPDEST POP POP DUP2 SHL ADD SWAP1 SSTORE PUSH2 0xD9D JUMP JUMPDEST DUP12 ADD MLOAD PUSH1 0x0 NOT DUP4 DUP9 SHL PUSH1 0xF8 AND SHR NOT AND SWAP1 SSTORE DUP13 DUP1 PUSH2 0xF37 JUMP JUMPDEST DUP5 ADD MLOAD DUP6 SSTORE DUP9 SWAP7 SWAP1 SWAP5 ADD SWAP4 SWAP3 DUP4 ADD SWAP3 ADD DUP13 DUP15 PUSH2 0xF26 JUMP JUMPDEST PUSH2 0xF9A SWAP1 DUP4 PUSH1 0x0 MSTORE DUP10 PUSH1 0x0 KECCAK256 DUP14 DUP1 DUP6 ADD PUSH1 0x5 SHR DUP3 ADD SWAP3 DUP13 DUP7 LT PUSH2 0xEE6 JUMPI ADD PUSH1 0x5 SHR ADD SWAP1 PUSH2 0x3101 JUMP JUMPDEST DUP12 PUSH2 0xD77 JUMP JUMPDEST PUSH1 0x0 NOT DUP4 ADD SWAP3 DUP4 GT PUSH2 0x49B JUMPI PUSH1 0x4 PUSH2 0xFBB PUSH2 0xD52 SWAP5 DUP4 PUSH2 0x2EBF JUMP JUMPDEST POP ADD DUP1 SLOAD PUSH1 0xFF NOT AND PUSH1 0x1 OR SWAP1 SSTORE PUSH2 0xD1A JUMP JUMPDEST CALLVALUE PUSH2 0x215 JUMPI PUSH2 0xFDB CALLDATASIZE PUSH2 0x2D03 JUMP JUMPDEST SWAP1 PUSH2 0xFE4 PUSH2 0x35B9 JUMP JUMPDEST PUSH2 0xFF1 PUSH1 0x9 SLOAD DUP3 LT PUSH2 0x34E7 JUMP JUMPDEST DUP1 PUSH1 0x0 MSTORE PUSH1 0x20 PUSH1 0x5 DUP2 MSTORE PUSH1 0x40 PUSH1 0x0 KECCAK256 CALLER PUSH1 0x0 MSTORE DUP2 MSTORE PUSH1 0x40 PUSH1 0x0 KECCAK256 PUSH1 0x1 DUP2 ADD DUP1 SLOAD SWAP2 DUP6 DUP4 LT PUSH2 0x11DD JUMPI PUSH1 0x3 ADD SWAP1 PUSH1 0xFF DUP3 SLOAD AND ISZERO PUSH2 0x11A2 JUMPI DUP5 PUSH1 0x0 MSTORE PUSH1 0x2 DUP5 MSTORE PUSH1 0x1 DUP1 PUSH1 0xA0 SHL SUB SWAP3 DUP7 DUP5 PUSH1 0x3 PUSH1 0x40 PUSH1 0x0 KECCAK256 ADD SLOAD AND CALLER EQ PUSH2 0x112B JUMPI JUMPDEST PUSH2 0x1053 SWAP2 PUSH2 0x35AC JUMP JUMPDEST DUP2 SSTORE DUP5 PUSH1 0x0 MSTORE PUSH1 0x2 DUP5 MSTORE PUSH1 0x12 PUSH1 0x40 PUSH1 0x0 KECCAK256 ADD PUSH2 0x1070 DUP8 DUP3 SLOAD PUSH2 0x35AC JUMP JUMPDEST SWAP1 SSTORE PUSH2 0x107E DUP7 PUSH1 0xA SLOAD PUSH2 0x35AC JUMP JUMPDEST PUSH1 0xA SSTORE SLOAD ISZERO PUSH2 0x111D JUMPI JUMPDEST POP PUSH1 0xC SLOAD PUSH1 0x40 MLOAD PUSH4 0xA9059CBB PUSH1 0xE0 SHL DUP2 MSTORE CALLER PUSH1 0x4 DUP3 ADD MSTORE PUSH1 0x24 DUP2 ADD DUP7 SWAP1 MSTORE SWAP3 SWAP2 DUP3 SWAP2 DUP5 SWAP2 PUSH1 0x44 SWAP2 DUP4 SWAP2 PUSH1 0x0 SWAP2 AND GAS CALL SWAP2 DUP3 ISZERO PUSH2 0x57A JUMPI PUSH32 0x2DC40D85D0C8E6AD2AC2D97BE80F024D3D8F14560290681495DFC6F986C6940B SWAP3 PUSH2 0x10F1 SWAP2 PUSH1 0x0 SWAP2 PUSH2 0x1100 JUMPI POP PUSH2 0x3641 JUMP JUMPDEST PUSH1 0x40 MLOAD SWAP4 DUP5 MSTORE CALLER SWAP4 LOG3 PUSH1 0x1 DUP1 SSTORE STOP JUMPDEST PUSH2 0x1117 SWAP2 POP DUP4 RETURNDATASIZE DUP6 GT PUSH2 0x573 JUMPI PUSH2 0x565 DUP2 DUP4 PUSH2 0x2C8C JUMP JUMPDEST DUP7 PUSH2 0xA34 JUMP JUMPDEST DUP1 SLOAD PUSH1 0xFF NOT AND SWAP1 SSTORE DUP5 PUSH2 0x1088 JUMP JUMPDEST PUSH2 0x1135 SWAP1 DUP3 PUSH2 0x35AC JUMP JUMPDEST DUP7 PUSH1 0x0 MSTORE PUSH1 0x2 DUP7 MSTORE PUSH1 0xD PUSH1 0x40 PUSH1 0x0 KECCAK256 ADD SLOAD GT PUSH2 0x1151 JUMPI DUP7 PUSH2 0x104A JUMP JUMPDEST PUSH1 0x40 MLOAD PUSH3 0x461BCD PUSH1 0xE5 SHL DUP2 MSTORE PUSH1 0x4 DUP2 ADD DUP7 SWAP1 MSTORE PUSH1 0x23 PUSH1 0x24 DUP3 ADD MSTORE PUSH32 0x43726561746F72206D757374206D61696E7461696E206D696E696D756D207374 PUSH1 0x44 DUP3 ADD MSTORE PUSH3 0x616B65 PUSH1 0xE8 SHL PUSH1 0x64 DUP3 ADD MSTORE PUSH1 0x84 SWAP1 REVERT JUMPDEST PUSH1 0x40 MLOAD PUSH3 0x461BCD PUSH1 0xE5 SHL DUP2 MSTORE PUSH1 0x4 DUP2 ADD DUP6 SWAP1 MSTORE PUSH1 0x13 PUSH1 0x24 DUP3 ADD MSTORE PUSH19 0x5374616B65206973206E6F7420616374697665 PUSH1 0x68 SHL PUSH1 0x44 DUP3 ADD MSTORE PUSH1 0x64 SWAP1 REVERT JUMPDEST PUSH1 0x40 MLOAD PUSH3 0x461BCD PUSH1 0xE5 SHL DUP2 MSTORE PUSH1 0x4 DUP2 ADD DUP6 SWAP1 MSTORE PUSH1 0x1A PUSH1 0x24 DUP3 ADD MSTORE PUSH32 0x496E73756666696369656E74207374616B656420616D6F756E74000000000000 PUSH1 0x44 DUP3 ADD MSTORE PUSH1 0x64 SWAP1 REVERT JUMPDEST CALLVALUE PUSH2 0x215 JUMPI PUSH1 0x20 CALLDATASIZE PUSH1 0x3 NOT ADD SLT PUSH2 0x215 JUMPI PUSH1 0x4 CALLDATALOAD PUSH2 0x1243 PUSH1 0x9 SLOAD DUP3 LT PUSH2 0x34E7 JUMP JUMPDEST PUSH1 0x0 MSTORE PUSH1 0x2 PUSH1 0x20 MSTORE PUSH2 0x12C7 PUSH1 0x40 PUSH1 0x0 KECCAK256 PUSH1 0x1 DUP1 PUSH1 0xA0 SHL SUB PUSH1 0x3 DUP3 ADD SLOAD AND PUSH1 0x8 DUP3 ADD SLOAD SWAP1 PUSH1 0x9 DUP4 ADD SLOAD PUSH1 0xA DUP5 ADD SLOAD SWAP1 PUSH1 0xFF PUSH2 0x12F6 PUSH1 0x12 DUP8 ADD SLOAD SWAP5 PUSH2 0x1285 DUP9 PUSH2 0x2E19 JUMP JUMPDEST SWAP8 PUSH2 0x12E3 PUSH2 0x1295 PUSH1 0x1 DUP4 ADD PUSH2 0x2E19 JUMP JUMPDEST SWAP2 PUSH2 0x12D5 PUSH2 0x12B1 PUSH1 0x4 PUSH2 0x12AA PUSH1 0x2 DUP6 ADD PUSH2 0x2E19 JUMP JUMPDEST SWAP4 ADD PUSH2 0x2E19 JUMP JUMPDEST SWAP4 PUSH1 0x40 MLOAD SWAP14 DUP15 SWAP14 DUP15 PUSH2 0x140 SWAP1 DUP2 DUP2 MSTORE ADD SWAP1 PUSH2 0x2D3C JUMP JUMPDEST DUP14 DUP2 SUB PUSH1 0x20 DUP16 ADD MSTORE SWAP1 PUSH2 0x2D3C JUMP JUMPDEST SWAP1 DUP12 DUP3 SUB PUSH1 0x40 DUP14 ADD MSTORE PUSH2 0x2D3C JUMP JUMPDEST SWAP2 PUSH1 0x60 DUP11 ADD MSTORE DUP9 DUP3 SUB PUSH1 0x80 DUP11 ADD MSTORE PUSH2 0x2D3C JUMP JUMPDEST SWAP5 DUP2 DUP2 AND ISZERO ISZERO PUSH1 0xA0 DUP9 ADD MSTORE PUSH1 0x8 SHR AND ISZERO ISZERO PUSH1 0xC0 DUP7 ADD MSTORE PUSH1 0xE0 DUP6 ADD MSTORE PUSH2 0x100 DUP5 ADD MSTORE PUSH2 0x120 DUP4 ADD MSTORE SUB SWAP1 RETURN JUMPDEST CALLVALUE PUSH2 0x215 JUMPI PUSH1 0x20 CALLDATASIZE PUSH1 0x3 NOT ADD SLT PUSH2 0x215 JUMPI PUSH1 0x4 CALLDATALOAD PUSH1 0x0 MSTORE PUSH1 0x2 PUSH1 0x20 MSTORE PUSH1 0x40 PUSH1 0x0 KECCAK256 PUSH2 0x134B DUP2 PUSH2 0x2E19 JUMP JUMPDEST PUSH2 0x1357 PUSH1 0x1 DUP4 ADD PUSH2 0x2E19 JUMP JUMPDEST SWAP2 PUSH2 0x1364 PUSH1 0x2 DUP3 ADD PUSH2 0x2E19 JUMP JUMPDEST PUSH1 0x3 DUP3 ADD SLOAD PUSH1 0x1 PUSH1 0x1 PUSH1 0xA0 SHL SUB AND SWAP4 SWAP1 PUSH2 0x1380 PUSH1 0x4 DUP5 ADD PUSH2 0x2E19 JUMP JUMPDEST SWAP5 PUSH2 0x138D PUSH1 0x5 DUP6 ADD PUSH2 0x2E19 JUMP JUMPDEST SWAP6 PUSH1 0x6 DUP6 ADD SLOAD SWAP7 PUSH1 0x7 DUP7 ADD SLOAD PUSH1 0x8 DUP8 ADD SLOAD SWAP1 PUSH1 0x9 DUP9 ADD SLOAD SWAP3 PUSH1 0xA DUP10 ADD SLOAD SWAP5 PUSH1 0xB DUP11 ADD SLOAD SWAP7 PUSH1 0xC DUP12 ADD SLOAD SWAP9 PUSH1 0xD DUP13 ADD SLOAD SWAP11 PUSH1 0x11 DUP14 ADD SLOAD SWAP13 PUSH1 0x12 ADD SLOAD SWAP14 PUSH1 0x40 MLOAD DUP1 PUSH1 0x80 MSTORE PUSH2 0x220 DUP1 SWAP2 MSTORE PUSH1 0x80 MLOAD ADD PUSH2 0x13E2 SWAP2 PUSH2 0x2D3C JUMP JUMPDEST PUSH1 0x80 MLOAD DUP1 DUP3 SUB SWAP1 PUSH1 0x20 ADD MSTORE PUSH2 0x13F6 SWAP2 PUSH2 0x2D3C JUMP JUMPDEST PUSH1 0x80 MLOAD DUP1 DUP3 SUB SWAP1 PUSH1 0x40 ADD MSTORE PUSH2 0x140A SWAP2 PUSH2 0x2D3C JUMP JUMPDEST SWAP1 PUSH1 0x80 MLOAD PUSH1 0x60 ADD MSTORE PUSH1 0x80 MLOAD DUP1 DUP3 SUB SWAP1 PUSH1 0x80 ADD MSTORE PUSH2 0x1426 SWAP2 PUSH2 0x2D3C JUMP JUMPDEST PUSH1 0x80 MLOAD DUP1 DUP3 SUB SWAP1 PUSH1 0xA0 ADD MSTORE PUSH2 0x143A SWAP2 PUSH2 0x2D3C JUMP JUMPDEST SWAP10 PUSH1 0x80 MLOAD PUSH1 0xC0 ADD MSTORE PUSH1 0x80 MLOAD PUSH1 0xE0 ADD MSTORE PUSH1 0xFF DUP2 AND ISZERO ISZERO PUSH1 0x80 MLOAD PUSH2 0x100 ADD MSTORE PUSH1 0x8 SHR PUSH1 0xFF AND ISZERO ISZERO PUSH1 0x80 MLOAD PUSH2 0x120 ADD MSTORE PUSH1 0x80 MLOAD PUSH2 0x140 ADD MSTORE PUSH1 0x80 MLOAD PUSH2 0x160 ADD MSTORE PUSH1 0x80 MLOAD PUSH2 0x180 ADD MSTORE PUSH1 0x80 MLOAD PUSH2 0x1A0 ADD MSTORE PUSH1 0x80 MLOAD PUSH2 0x1C0 ADD MSTORE PUSH1 0x80 MLOAD PUSH2 0x1E0 ADD MSTORE PUSH1 0x80 MLOAD PUSH2 0x200 ADD MSTORE PUSH1 0x80 MLOAD DUP1 SWAP2 SUB SWAP1 RETURN JUMPDEST CALLVALUE PUSH2 0x215 JUMPI PUSH1 0x0 CALLDATASIZE PUSH1 0x3 NOT ADD SLT PUSH2 0x215 JUMPI PUSH1 0x20 PUSH1 0x40 MLOAD PUSH9 0x3635C9ADC5DEA00000 DUP2 MSTORE RETURN JUMPDEST CALLVALUE PUSH2 0x215 JUMPI PUSH2 0x100 CALLDATASIZE PUSH1 0x3 NOT ADD SLT PUSH2 0x215 JUMPI PUSH1 0x4 CALLDATALOAD PUSH1 0x1 PUSH1 0x1 PUSH1 0x40 SHL SUB DUP2 GT PUSH2 0x215 JUMPI PUSH2 0x14FD SWAP1 CALLDATASIZE SWAP1 PUSH1 0x4 ADD PUSH2 0x2CAD JUMP JUMPDEST PUSH1 0x24 CALLDATALOAD PUSH1 0x1 PUSH1 0x1 PUSH1 0x40 SHL SUB DUP2 GT PUSH2 0x215 JUMPI PUSH2 0x151C SWAP1 CALLDATASIZE SWAP1 PUSH1 0x4 ADD PUSH2 0x2CAD JUMP JUMPDEST PUSH1 0x44 CALLDATALOAD PUSH1 0x1 PUSH1 0x1 PUSH1 0x40 SHL SUB DUP2 GT PUSH2 0x215 JUMPI PUSH2 0x153B SWAP1 CALLDATASIZE SWAP1 PUSH1 0x4 ADD PUSH2 0x2CAD JUMP JUMPDEST PUSH1 0x64 CALLDATALOAD PUSH1 0x1 PUSH1 0x1 PUSH1 0x40 SHL SUB DUP2 GT PUSH2 0x215 JUMPI PUSH2 0x155A SWAP1 CALLDATASIZE SWAP1 PUSH1 0x4 ADD PUSH2 0x2CAD JUMP JUMPDEST PUSH1 0x84 CALLDATALOAD PUSH1 0x1 PUSH1 0x1 PUSH1 0x40 SHL SUB DUP2 GT PUSH2 0x215 JUMPI PUSH2 0x1579 SWAP1 CALLDATASIZE SWAP1 PUSH1 0x4 ADD PUSH2 0x2CAD JUMP JUMPDEST SWAP3 PUSH1 0x1 PUSH1 0x1 PUSH1 0x40 SHL SUB PUSH1 0xA4 CALLDATALOAD GT PUSH2 0x215 JUMPI CALLDATASIZE PUSH1 0x23 PUSH1 0xA4 CALLDATALOAD ADD SLT ISZERO PUSH2 0x215 JUMPI PUSH1 0xA4 CALLDATALOAD PUSH1 0x4 ADD CALLDATALOAD SWAP3 PUSH2 0x15A8 DUP5 PUSH2 0x2DC8 JUMP JUMPDEST SWAP4 PUSH2 0x15B6 PUSH1 0x40 MLOAD SWAP6 DUP7 PUSH2 0x2C8C JUMP JUMPDEST DUP1 DUP6 MSTORE PUSH1 0x20 DUP6 ADD DUP1 SWAP2 CALLDATASIZE PUSH1 0x24 DUP3 PUSH1 0x5 SHL PUSH1 0xA4 CALLDATALOAD ADD ADD GT PUSH2 0x215 JUMPI PUSH1 0x24 PUSH1 0xA4 CALLDATALOAD ADD SWAP2 JUMPDEST PUSH1 0x24 DUP3 PUSH1 0x5 SHL PUSH1 0xA4 CALLDATALOAD ADD ADD DUP4 LT PUSH2 0x2108 JUMPI POP POP POP PUSH1 0xC4 CALLDATALOAD ISZERO ISZERO PUSH1 0xC4 CALLDATALOAD SUB PUSH2 0x215 JUMPI DUP7 MLOAD ISZERO PUSH2 0x20CC JUMPI DUP4 MLOAD ISZERO PUSH2 0x2087 JUMPI PUSH9 0x3635C9ADC5DEA00000 PUSH1 0xE4 CALLDATALOAD LT PUSH2 0x2043 JUMPI PUSH1 0x9 SLOAD SWAP6 PUSH2 0x1626 DUP8 PUSH2 0x30F2 JUMP JUMPDEST PUSH1 0x9 SSTORE DUP7 PUSH1 0x0 MSTORE PUSH1 0x2 PUSH1 0x20 MSTORE PUSH1 0x40 PUSH1 0x0 KECCAK256 SWAP3 DUP9 MLOAD PUSH1 0x1 PUSH1 0x1 PUSH1 0x40 SHL SUB DUP2 GT PUSH2 0xEEF JUMPI PUSH2 0x1652 DUP6 SLOAD PUSH2 0x2DDF JUMP JUMPDEST PUSH1 0x1F DUP2 GT PUSH2 0x2011 JUMPI JUMPDEST POP DUP1 PUSH1 0x20 PUSH1 0x1F DUP3 GT PUSH1 0x1 EQ PUSH2 0x1FA9 JUMPI PUSH1 0x0 SWAP2 PUSH2 0x1F9E JUMPI JUMPDEST POP DUP2 PUSH1 0x1 SHL SWAP2 PUSH1 0x0 NOT SWAP1 PUSH1 0x3 SHL SHR NOT AND OR DUP5 SSTORE JUMPDEST DUP5 MLOAD PUSH1 0x1 PUSH1 0x1 PUSH1 0x40 SHL SUB DUP2 GT PUSH2 0xEEF JUMPI PUSH2 0x16A3 PUSH1 0x1 DUP7 ADD SLOAD PUSH2 0x2DDF JUMP JUMPDEST PUSH1 0x1F DUP2 GT PUSH2 0x1F69 JUMPI JUMPDEST POP DUP1 PUSH1 0x20 PUSH1 0x1F DUP3 GT PUSH1 0x1 EQ PUSH2 0x1EFC JUMPI PUSH1 0x0 SWAP2 PUSH2 0x1EF1 JUMPI JUMPDEST POP DUP2 PUSH1 0x1 SHL SWAP2 PUSH1 0x0 NOT SWAP1 PUSH1 0x3 SHL SHR NOT AND OR PUSH1 0x1 DUP6 ADD SSTORE JUMPDEST DUP1 MLOAD SWAP1 PUSH1 0x1 PUSH1 0x1 PUSH1 0x40 SHL SUB DUP3 GT PUSH2 0xEEF JUMPI DUP2 SWAP1 PUSH2 0x16FA PUSH1 0x2 DUP8 ADD SLOAD PUSH2 0x2DDF JUMP JUMPDEST PUSH1 0x1F DUP2 GT PUSH2 0x1EBC JUMPI JUMPDEST POP PUSH1 0x20 SWAP1 PUSH1 0x1F DUP4 GT PUSH1 0x1 EQ PUSH2 0x1E4A JUMPI PUSH1 0x0 SWAP3 PUSH2 0x1E3F JUMPI JUMPDEST POP POP DUP2 PUSH1 0x1 SHL SWAP2 PUSH1 0x0 NOT SWAP1 PUSH1 0x3 SHL SHR NOT AND OR PUSH1 0x2 DUP5 ADD SSTORE JUMPDEST PUSH1 0x3 DUP4 ADD DUP1 SLOAD PUSH1 0x1 PUSH1 0x1 PUSH1 0xA0 SHL SUB NOT AND CALLER OR SWAP1 SSTORE DUP5 MLOAD PUSH1 0x1 PUSH1 0x1 PUSH1 0x40 SHL SUB DUP2 GT PUSH2 0xEEF JUMPI PUSH2 0x1763 PUSH1 0x4 DUP6 ADD SLOAD PUSH2 0x2DDF JUMP JUMPDEST PUSH1 0x1F DUP2 GT PUSH2 0x1E0A JUMPI JUMPDEST POP DUP1 PUSH1 0x20 PUSH1 0x1F DUP3 GT PUSH1 0x1 EQ PUSH2 0x1D9D JUMPI PUSH1 0x0 SWAP2 PUSH2 0x1D92 JUMPI JUMPDEST POP DUP2 PUSH1 0x1 SHL SWAP2 PUSH1 0x0 NOT SWAP1 PUSH1 0x3 SHL SHR NOT AND OR PUSH1 0x4 DUP5 ADD SSTORE JUMPDEST DUP1 MLOAD SWAP1 PUSH1 0x1 PUSH1 0x1 PUSH1 0x40 SHL SUB DUP3 GT PUSH2 0xEEF JUMPI DUP2 SWAP1 PUSH2 0x17BA PUSH1 0x5 DUP7 ADD SLOAD PUSH2 0x2DDF JUMP JUMPDEST PUSH1 0x1F DUP2 GT PUSH2 0x1D5D JUMPI JUMPDEST POP PUSH1 0x20 SWAP1 PUSH1 0x1F DUP4 GT PUSH1 0x1 EQ PUSH2 0x1CEB JUMPI PUSH1 0x0 SWAP3 PUSH2 0x1CE0 JUMPI JUMPDEST POP POP DUP2 PUSH1 0x1 SHL SWAP2 PUSH1 0x0 NOT SWAP1 PUSH1 0x3 SHL SHR NOT AND OR PUSH1 0x5 DUP4 ADD SSTORE JUMPDEST TIMESTAMP PUSH1 0x6 DUP4 ADD DUP2 SWAP1 SSTORE PUSH1 0x7 DUP4 ADD SSTORE PUSH1 0x8 DUP1 DUP4 ADD DUP1 SLOAD PUSH2 0xFFFF NOT AND PUSH1 0xC4 CALLDATALOAD ISZERO ISZERO SWAP1 SWAP3 SHL PUSH2 0xFF00 AND SWAP2 SWAP1 SWAP2 OR PUSH1 0x1 OR SWAP1 SSTORE DUP5 MLOAD SWAP1 PUSH1 0x1 PUSH1 0x40 SHL DUP3 GT PUSH2 0xEEF JUMPI PUSH1 0x10 DUP4 ADD SLOAD DUP3 PUSH1 0x10 DUP6 ADD SSTORE DUP1 DUP4 LT PUSH2 0x1C68 JUMPI JUMPDEST POP SWAP1 PUSH1 0x10 DUP4 ADD PUSH1 0x0 MSTORE PUSH1 0x20 PUSH1 0x0 KECCAK256 SWAP2 PUSH1 0x0 SWAP1 JUMPDEST DUP3 DUP3 LT PUSH2 0x1B48 JUMPI POP POP POP POP PUSH1 0xD PUSH1 0xE4 CALLDATALOAD SWAP2 ADD SSTORE DUP4 PUSH1 0x0 MSTORE PUSH1 0x3 PUSH1 0x20 MSTORE PUSH1 0x40 PUSH1 0x0 KECCAK256 SWAP2 PUSH1 0x40 MLOAD SWAP2 PUSH2 0x1883 DUP4 PUSH2 0x2C71 JUMP JUMPDEST DUP3 MSTORE PUSH1 0x20 DUP3 ADD MSTORE TIMESTAMP PUSH1 0x40 DUP3 ADD MSTORE PUSH1 0x40 MLOAD SWAP2 DUP3 PUSH1 0x40 DUP2 ADD LT PUSH1 0x1 PUSH1 0x1 PUSH1 0x40 SHL SUB PUSH1 0x40 DUP6 ADD GT OR PUSH2 0xEEF JUMPI DUP3 PUSH1 0x40 PUSH2 0x18EB SWAP5 ADD PUSH1 0x40 MSTORE PUSH1 0xF DUP2 MSTORE PUSH15 0x24B734BA34B0B6103B32B939B4B7B7 PUSH1 0x89 SHL PUSH1 0x20 DUP3 ADD MSTORE PUSH1 0x60 DUP4 ADD MSTORE PUSH1 0x0 PUSH1 0x80 DUP4 ADD MSTORE PUSH1 0x0 PUSH1 0xA0 DUP4 ADD MSTORE PUSH2 0x3118 JUMP JUMPDEST PUSH1 0x0 JUMPDEST DUP2 MLOAD DUP2 LT ISZERO PUSH2 0x1939 JUMPI DUP1 PUSH2 0x192F DUP5 PUSH2 0x1920 PUSH1 0x20 DUP1 PUSH2 0x1934 SWAP7 PUSH1 0x5 SHL DUP9 ADD ADD MLOAD DUP2 PUSH1 0x40 MLOAD SWAP4 DUP3 DUP6 DUP1 SWAP5 MLOAD SWAP4 DUP5 SWAP3 ADD PUSH2 0x2D19 JUMP JUMPDEST DUP2 ADD PUSH1 0x7 DUP2 MSTORE SUB ADD SWAP1 KECCAK256 PUSH2 0x3452 JUMP JUMPDEST PUSH2 0x30F2 JUMP JUMPDEST PUSH2 0x18EE JUMP JUMPDEST POP POP CALLER PUSH1 0x0 MSTORE PUSH1 0x8 PUSH1 0x20 MSTORE PUSH2 0x1952 DUP2 PUSH1 0x40 PUSH1 0x0 KECCAK256 PUSH2 0x3452 JUMP JUMPDEST PUSH1 0xC SLOAD PUSH1 0x40 MLOAD PUSH4 0x23B872DD PUSH1 0xE0 SHL DUP2 MSTORE CALLER PUSH1 0x4 DUP3 ADD MSTORE ADDRESS PUSH1 0x24 DUP3 ADD MSTORE PUSH1 0xE4 CALLDATALOAD PUSH1 0x44 DUP3 ADD MSTORE PUSH1 0x1 PUSH1 0x1 PUSH1 0xA0 SHL SUB SWAP4 SWAP2 PUSH1 0x20 SWAP1 DUP3 SWAP1 PUSH1 0x64 SWAP1 DUP3 SWAP1 PUSH1 0x0 SWAP1 DUP10 AND GAS CALL SWAP1 DUP2 ISZERO PUSH2 0x57A JUMPI PUSH1 0x0 SWAP2 PUSH2 0x1B29 JUMPI JUMPDEST POP ISZERO PUSH2 0x1AF3 JUMPI PUSH1 0x40 MLOAD PUSH1 0xA0 DUP2 ADD DUP2 DUP2 LT PUSH1 0x1 PUSH1 0x1 PUSH1 0x40 SHL SUB DUP3 GT OR PUSH2 0xEEF JUMPI PUSH1 0x20 SWAP5 PUSH1 0x4 SWAP2 PUSH1 0x40 MSTORE CALLER DUP4 MSTORE PUSH2 0x1A44 DUP7 DUP5 ADD PUSH1 0xE4 CALLDATALOAD DUP2 MSTORE PUSH1 0x40 DUP6 ADD TIMESTAMP DUP2 MSTORE PUSH1 0x60 DUP7 ADD SWAP2 PUSH1 0x1 DUP4 MSTORE PUSH1 0x80 DUP8 ADD SWAP5 PUSH1 0x0 DUP7 MSTORE DUP10 PUSH1 0x0 MSTORE PUSH1 0x5 DUP12 MSTORE PUSH1 0x40 PUSH1 0x0 KECCAK256 CALLER PUSH1 0x0 MSTORE DUP12 MSTORE PUSH1 0x40 PUSH1 0x0 KECCAK256 SWAP8 MLOAD AND PUSH12 0xFFFFFFFFFFFFFFFFFFFFFFFF PUSH1 0xA0 SHL DUP9 SLOAD AND OR DUP8 SSTORE MLOAD PUSH1 0x1 DUP8 ADD SSTORE MLOAD PUSH1 0x2 DUP7 ADD SSTORE MLOAD ISZERO ISZERO PUSH1 0x3 DUP6 ADD SWAP1 PUSH1 0xFF DUP1 NOT DUP4 SLOAD AND SWAP2 ISZERO ISZERO AND OR SWAP1 SSTORE JUMP JUMPDEST MLOAD SWAP2 ADD SSTORE DUP2 PUSH1 0x0 MSTORE PUSH1 0x6 DUP4 MSTORE PUSH2 0x1A5E CALLER PUSH1 0x40 PUSH1 0x0 KECCAK256 PUSH2 0x349F JUMP JUMPDEST DUP2 PUSH1 0x0 MSTORE PUSH1 0x2 DUP4 MSTORE PUSH1 0xE4 CALLDATALOAD PUSH1 0x12 PUSH1 0x40 PUSH1 0x0 KECCAK256 ADD SSTORE PUSH2 0x1A80 PUSH1 0xE4 CALLDATALOAD PUSH1 0xA SLOAD PUSH2 0x34DA JUMP JUMPDEST PUSH1 0xA SSTORE DUP2 PUSH32 0x628B93B43FC7B354FE0940347CFBBEB354E23D007EC175DC99B3628F826DCEFE PUSH1 0x40 MLOAD DUP6 DUP2 MSTORE DUP1 PUSH2 0x1ABA CALLER SWAP6 DUP9 DUP4 ADD SWAP1 PUSH2 0x2D3C JUMP JUMPDEST SUB SWAP1 LOG3 PUSH1 0x40 MLOAD PUSH1 0xE4 CALLDATALOAD DUP2 MSTORE DUP2 PUSH32 0x6FD15F02641C38510A113BDE08C80CD63C88CDB52590E2DB331C50006F111C1B DUP5 CALLER SWAP4 LOG3 PUSH1 0x40 MLOAD SWAP1 DUP2 MSTORE RETURN JUMPDEST PUSH1 0x40 MLOAD PUSH3 0x461BCD PUSH1 0xE5 SHL DUP2 MSTORE PUSH1 0x20 PUSH1 0x4 DUP3 ADD MSTORE PUSH1 0xE PUSH1 0x24 DUP3 ADD MSTORE PUSH14 0x14DD185ADA5B99C819985A5B1959 PUSH1 0x92 SHL PUSH1 0x44 DUP3 ADD MSTORE PUSH1 0x64 SWAP1 REVERT JUMPDEST PUSH2 0x1B42 SWAP2 POP PUSH1 0x20 RETURNDATASIZE PUSH1 0x20 GT PUSH2 0x573 JUMPI PUSH2 0x565 DUP2 DUP4 PUSH2 0x2C8C JUMP JUMPDEST DUP5 PUSH2 0x19A0 JUMP JUMPDEST DUP1 MLOAD DUP1 MLOAD SWAP1 PUSH1 0x1 PUSH1 0x1 PUSH1 0x40 SHL SUB DUP3 GT PUSH2 0xEEF JUMPI PUSH2 0x1B65 DUP7 SLOAD PUSH2 0x2DDF JUMP JUMPDEST PUSH1 0x1F DUP2 GT PUSH2 0x1C2B JUMPI JUMPDEST POP PUSH1 0x20 SWAP1 PUSH1 0x1F DUP4 GT PUSH1 0x1 EQ PUSH2 0x1BBB JUMPI SWAP3 DUP3 PUSH1 0x1 SWAP5 SWAP4 PUSH1 0x20 SWAP4 DUP7 SWAP6 PUSH1 0x0 SWAP3 PUSH2 0x1BB0 JUMPI JUMPDEST POP POP PUSH1 0x0 NOT PUSH1 0x3 DUP4 SWAP1 SHL SHR NOT AND SWAP1 DUP5 SHL OR DUP8 SSTORE JUMPDEST ADD SWAP5 ADD SWAP2 ADD SWAP1 SWAP3 PUSH2 0x1854 JUMP JUMPDEST ADD MLOAD SWAP1 POP DUP16 DUP1 PUSH2 0x1B90 JUMP JUMPDEST SWAP1 DUP7 PUSH1 0x0 MSTORE PUSH1 0x20 PUSH1 0x0 KECCAK256 SWAP2 PUSH1 0x0 JUMPDEST PUSH1 0x1F NOT DUP6 AND DUP2 LT PUSH2 0x1C13 JUMPI POP DUP4 PUSH1 0x20 SWAP4 PUSH1 0x1 SWAP7 SWAP4 DUP8 SWAP7 SWAP4 DUP8 SWAP5 PUSH1 0x1F NOT DUP2 AND LT PUSH2 0x1BFA JUMPI JUMPDEST POP POP POP DUP2 SHL ADD DUP8 SSTORE PUSH2 0x1BA4 JUMP JUMPDEST ADD MLOAD PUSH1 0x0 NOT PUSH1 0xF8 DUP5 PUSH1 0x3 SHL AND SHR NOT AND SWAP1 SSTORE DUP16 DUP1 DUP1 PUSH2 0x1BED JUMP JUMPDEST SWAP2 SWAP3 PUSH1 0x20 PUSH1 0x1 DUP2 SWAP3 DUP7 DUP6 ADD MLOAD DUP2 SSTORE ADD SWAP5 ADD SWAP3 ADD PUSH2 0x1BC9 JUMP JUMPDEST PUSH2 0x1C58 SWAP1 DUP8 PUSH1 0x0 MSTORE PUSH1 0x20 PUSH1 0x0 KECCAK256 PUSH1 0x1F DUP6 ADD PUSH1 0x5 SHR DUP2 ADD SWAP2 PUSH1 0x20 DUP7 LT PUSH2 0x1C5E JUMPI JUMPDEST PUSH1 0x1F ADD PUSH1 0x5 SHR ADD SWAP1 PUSH2 0x3101 JUMP JUMPDEST DUP13 PUSH2 0x1B6E JUMP JUMPDEST SWAP1 SWAP2 POP DUP2 SWAP1 PUSH2 0x1C4B JUMP JUMPDEST PUSH1 0x10 DUP5 ADD PUSH1 0x0 MSTORE PUSH1 0x20 PUSH1 0x0 KECCAK256 SWAP1 DUP4 DUP3 ADD JUMPDEST DUP2 DUP4 ADD DUP2 LT PUSH2 0x1C89 JUMPI POP POP PUSH2 0x1841 JUMP JUMPDEST DUP1 PUSH2 0x1C96 PUSH1 0x1 SWAP3 SLOAD PUSH2 0x2DDF JUMP JUMPDEST DUP1 PUSH2 0x1CA3 JUMPI JUMPDEST POP ADD PUSH2 0x1C79 JUMP JUMPDEST PUSH1 0x1F DUP2 GT DUP4 EQ PUSH2 0x1CB9 JUMPI POP PUSH1 0x0 DUP2 SSTORE JUMPDEST DUP13 PUSH2 0x1C9C JUMP JUMPDEST PUSH1 0x0 SWAP1 DUP3 DUP3 MSTORE PUSH2 0x1CD7 PUSH1 0x1F PUSH1 0x20 DUP5 KECCAK256 SWAP3 ADD PUSH1 0x5 SHR DUP3 ADD DUP6 DUP4 ADD PUSH2 0x3101 JUMP JUMPDEST DUP2 DUP4 SSTORE SSTORE PUSH2 0x1CB3 JUMP JUMPDEST ADD MLOAD SWAP1 POP DUP10 DUP1 PUSH2 0x17DA JUMP JUMPDEST SWAP3 POP PUSH1 0x5 DUP6 ADD PUSH1 0x0 MSTORE PUSH1 0x20 PUSH1 0x0 KECCAK256 SWAP1 PUSH1 0x0 SWAP4 JUMPDEST PUSH1 0x1F NOT DUP5 AND DUP6 LT PUSH2 0x1D42 JUMPI PUSH1 0x1 SWAP5 POP DUP4 PUSH1 0x1F NOT DUP2 AND LT PUSH2 0x1D29 JUMPI JUMPDEST POP POP POP DUP2 SHL ADD PUSH1 0x5 DUP4 ADD SSTORE PUSH2 0x17F2 JUMP JUMPDEST ADD MLOAD PUSH1 0x0 NOT PUSH1 0xF8 DUP5 PUSH1 0x3 SHL AND SHR NOT AND SWAP1 SSTORE DUP10 DUP1 DUP1 PUSH2 0x1D19 JUMP JUMPDEST DUP2 DUP2 ADD MLOAD DUP4 SSTORE PUSH1 0x20 SWAP5 DUP6 ADD SWAP5 PUSH1 0x1 SWAP1 SWAP4 ADD SWAP3 SWAP1 SWAP2 ADD SWAP1 PUSH2 0x1CFE JUMP JUMPDEST PUSH2 0x1D8C SWAP1 PUSH1 0x5 DUP8 ADD PUSH1 0x0 MSTORE PUSH1 0x20 PUSH1 0x0 KECCAK256 PUSH1 0x1F DUP6 ADD PUSH1 0x5 SHR DUP2 ADD SWAP2 PUSH1 0x20 DUP7 LT PUSH2 0x1C5E JUMPI PUSH1 0x1F ADD PUSH1 0x5 SHR ADD SWAP1 PUSH2 0x3101 JUMP JUMPDEST DUP11 PUSH2 0x17C3 JUMP JUMPDEST SWAP1 POP DUP7 ADD MLOAD DUP11 PUSH2 0x1783 JUMP JUMPDEST SWAP2 POP PUSH1 0x4 DUP6 ADD PUSH1 0x0 MSTORE PUSH1 0x20 PUSH1 0x0 KECCAK256 PUSH1 0x0 SWAP3 JUMPDEST PUSH1 0x1F NOT DUP4 AND DUP5 LT PUSH2 0x1DF2 JUMPI PUSH1 0x1 SWAP4 POP DUP3 PUSH1 0x1F NOT DUP2 AND LT PUSH2 0x1DD9 JUMPI JUMPDEST POP POP DUP2 SHL ADD PUSH1 0x4 DUP5 ADD SSTORE PUSH2 0x179A JUMP JUMPDEST DUP9 ADD MLOAD PUSH1 0x0 NOT PUSH1 0xF8 DUP5 PUSH1 0x3 SHL AND SHR NOT AND SWAP1 SSTORE DUP11 DUP1 PUSH2 0x1DCA JUMP JUMPDEST DUP9 DUP2 ADD MLOAD DUP3 SSTORE PUSH1 0x20 SWAP4 DUP5 ADD SWAP4 PUSH1 0x1 SWAP1 SWAP3 ADD SWAP2 ADD PUSH2 0x1DAF JUMP JUMPDEST PUSH2 0x1E39 SWAP1 PUSH1 0x4 DUP7 ADD PUSH1 0x0 MSTORE PUSH1 0x20 PUSH1 0x0 KECCAK256 PUSH1 0x1F DUP5 ADD PUSH1 0x5 SHR DUP2 ADD SWAP2 PUSH1 0x20 DUP6 LT PUSH2 0x1C5E JUMPI PUSH1 0x1F ADD PUSH1 0x5 SHR ADD SWAP1 PUSH2 0x3101 JUMP JUMPDEST DUP10 PUSH2 0x176C JUMP JUMPDEST ADD MLOAD SWAP1 POP DUP11 DUP1 PUSH2 0x171A JUMP JUMPDEST SWAP3 POP PUSH1 0x2 DUP7 ADD PUSH1 0x0 MSTORE PUSH1 0x20 PUSH1 0x0 KECCAK256 SWAP1 PUSH1 0x0 SWAP4 JUMPDEST PUSH1 0x1F NOT DUP5 AND DUP6 LT PUSH2 0x1EA1 JUMPI PUSH1 0x1 SWAP5 POP DUP4 PUSH1 0x1F NOT DUP2 AND LT PUSH2 0x1E88 JUMPI JUMPDEST POP POP POP DUP2 SHL ADD PUSH1 0x2 DUP5 ADD SSTORE PUSH2 0x1732 JUMP JUMPDEST ADD MLOAD PUSH1 0x0 NOT PUSH1 0xF8 DUP5 PUSH1 0x3 SHL AND SHR NOT AND SWAP1 SSTORE DUP11 DUP1 DUP1 PUSH2 0x1E78 JUMP JUMPDEST DUP2 DUP2 ADD MLOAD DUP4 SSTORE PUSH1 0x20 SWAP5 DUP6 ADD SWAP5 PUSH1 0x1 SWAP1 SWAP4 ADD SWAP3 SWAP1 SWAP2 ADD SWAP1 PUSH2 0x1E5D JUMP JUMPDEST PUSH2 0x1EEB SWAP1 PUSH1 0x2 DUP9 ADD PUSH1 0x0 MSTORE PUSH1 0x20 PUSH1 0x0 KECCAK256 PUSH1 0x1F DUP6 ADD PUSH1 0x5 SHR DUP2 ADD SWAP2 PUSH1 0x20 DUP7 LT PUSH2 0x1C5E JUMPI PUSH1 0x1F ADD PUSH1 0x5 SHR ADD SWAP1 PUSH2 0x3101 JUMP JUMPDEST DUP12 PUSH2 0x1703 JUMP JUMPDEST SWAP1 POP DUP7 ADD MLOAD DUP12 PUSH2 0x16C3 JUMP JUMPDEST SWAP2 POP PUSH1 0x1 DUP7 ADD PUSH1 0x0 MSTORE PUSH1 0x20 PUSH1 0x0 KECCAK256 PUSH1 0x0 SWAP3 JUMPDEST PUSH1 0x1F NOT DUP4 AND DUP5 LT PUSH2 0x1F51 JUMPI PUSH1 0x1 SWAP4 POP DUP3 PUSH1 0x1F NOT DUP2 AND LT PUSH2 0x1F38 JUMPI JUMPDEST POP POP DUP2 SHL ADD PUSH1 0x1 DUP6 ADD SSTORE PUSH2 0x16DA JUMP JUMPDEST DUP9 ADD MLOAD PUSH1 0x0 NOT PUSH1 0xF8 DUP5 PUSH1 0x3 SHL AND SHR NOT AND SWAP1 SSTORE DUP12 DUP1 PUSH2 0x1F29 JUMP JUMPDEST DUP9 DUP2 ADD MLOAD DUP3 SSTORE PUSH1 0x20 SWAP4 DUP5 ADD SWAP4 PUSH1 0x1 SWAP1 SWAP3 ADD SWAP2 ADD PUSH2 0x1F0E JUMP JUMPDEST PUSH2 0x1F98 SWAP1 PUSH1 0x1 DUP8 ADD PUSH1 0x0 MSTORE PUSH1 0x20 PUSH1 0x0 KECCAK256 PUSH1 0x1F DUP5 ADD PUSH1 0x5 SHR DUP2 ADD SWAP2 PUSH1 0x20 DUP6 LT PUSH2 0x1C5E JUMPI PUSH1 0x1F ADD PUSH1 0x5 SHR ADD SWAP1 PUSH2 0x3101 JUMP JUMPDEST DUP11 PUSH2 0x16AC JUMP JUMPDEST SWAP1 POP DUP11 ADD MLOAD DUP12 PUSH2 0x1672 JUMP JUMPDEST SWAP2 POP DUP6 PUSH1 0x0 MSTORE PUSH1 0x20 PUSH1 0x0 KECCAK256 PUSH1 0x0 SWAP3 JUMPDEST DUP13 PUSH1 0x1F NOT DUP5 AND DUP6 LT PUSH2 0x1FFA JUMPI POP PUSH1 0x1 SWAP4 POP DUP3 PUSH1 0x1F NOT DUP2 AND LT PUSH2 0x1FE1 JUMPI JUMPDEST POP POP DUP2 SHL ADD DUP5 SSTORE PUSH2 0x1686 JUMP JUMPDEST DUP13 ADD MLOAD PUSH1 0x0 NOT PUSH1 0xF8 DUP5 PUSH1 0x3 SHL AND SHR NOT AND SWAP1 SSTORE DUP12 DUP1 PUSH2 0x1FD5 JUMP JUMPDEST DUP2 ADD MLOAD DUP3 SSTORE PUSH1 0x20 SWAP4 DUP5 ADD SWAP4 PUSH1 0x1 SWAP1 SWAP3 ADD SWAP2 ADD PUSH2 0x1FB8 JUMP JUMPDEST PUSH2 0x203D SWAP1 DUP7 PUSH1 0x0 MSTORE PUSH1 0x20 PUSH1 0x0 KECCAK256 PUSH1 0x1F DUP5 ADD PUSH1 0x5 SHR DUP2 ADD SWAP2 PUSH1 0x20 DUP6 LT PUSH2 0x1C5E JUMPI PUSH1 0x1F ADD PUSH1 0x5 SHR ADD SWAP1 PUSH2 0x3101 JUMP JUMPDEST DUP11 PUSH2 0x165B JUMP JUMPDEST PUSH1 0x64 PUSH1 0x40 MLOAD PUSH3 0x461BCD PUSH1 0xE5 SHL DUP2 MSTORE PUSH1 0x20 PUSH1 0x4 DUP3 ADD MSTORE PUSH1 0x20 PUSH1 0x24 DUP3 ADD MSTORE PUSH32 0x496E73756666696369656E74207374616B696E6720726571756972656D656E74 PUSH1 0x44 DUP3 ADD MSTORE REVERT JUMPDEST PUSH1 0x40 MLOAD PUSH3 0x461BCD PUSH1 0xE5 SHL DUP2 MSTORE PUSH1 0x20 PUSH1 0x4 DUP3 ADD MSTORE PUSH1 0x1A PUSH1 0x24 DUP3 ADD MSTORE PUSH32 0x4D6F64656C20686173682063616E6E6F7420626520656D707479000000000000 PUSH1 0x44 DUP3 ADD MSTORE PUSH1 0x64 SWAP1 REVERT JUMPDEST PUSH1 0x40 MLOAD PUSH3 0x461BCD PUSH1 0xE5 SHL DUP2 MSTORE PUSH1 0x20 PUSH1 0x4 DUP3 ADD MSTORE PUSH1 0x14 PUSH1 0x24 DUP3 ADD MSTORE PUSH20 0x4E616D652063616E6E6F7420626520656D707479 PUSH1 0x60 SHL PUSH1 0x44 DUP3 ADD MSTORE PUSH1 0x64 SWAP1 REVERT JUMPDEST PUSH1 0x1 PUSH1 0x1 PUSH1 0x40 SHL SUB DUP4 CALLDATALOAD GT PUSH2 0x215 JUMPI PUSH1 0x20 DUP1 PUSH1 0x24 SWAP3 PUSH2 0x212E CALLDATASIZE DUP6 DUP9 CALLDATALOAD PUSH1 0xA4 CALLDATALOAD ADD ADD PUSH2 0x2CAD JUMP JUMPDEST DUP2 MSTORE ADD SWAP4 ADD SWAP3 SWAP1 POP PUSH2 0x15D8 JUMP JUMPDEST CALLVALUE PUSH2 0x215 JUMPI PUSH1 0x20 CALLDATASIZE PUSH1 0x3 NOT ADD SLT PUSH2 0x215 JUMPI PUSH1 0x4 CALLDATALOAD PUSH1 0x0 MSTORE PUSH1 0x4 PUSH1 0x20 MSTORE PUSH1 0x20 PUSH1 0x40 PUSH1 0x0 KECCAK256 SLOAD PUSH1 0x40 MLOAD SWAP1 DUP2 MSTORE RETURN JUMPDEST CALLVALUE PUSH2 0x215 JUMPI PUSH1 0x40 CALLDATASIZE PUSH1 0x3 NOT ADD SLT PUSH2 0x215 JUMPI PUSH1 0x4 CALLDATALOAD PUSH1 0x24 CALLDATALOAD PUSH1 0x1 PUSH1 0x1 PUSH1 0x40 SHL SUB DUP2 GT PUSH2 0x215 JUMPI PUSH2 0xE23 PUSH2 0x21BE PUSH32 0xBE40B0C85C2027080EEC3C74B875D0A88C6D66A202420AAAC978848C3D9D81CD SWAP3 CALLDATASIZE SWAP1 PUSH1 0x4 ADD PUSH2 0x2CAD JUMP JUMPDEST PUSH2 0x21C6 PUSH2 0x2F9F JUMP JUMPDEST PUSH2 0x21D3 PUSH1 0x9 SLOAD DUP6 LT PUSH2 0x34E7 JUMP JUMPDEST DUP4 PUSH1 0x0 MSTORE PUSH1 0x2 PUSH1 0x20 MSTORE PUSH1 0x8 PUSH1 0x40 PUSH1 0x0 KECCAK256 ADD PUSH1 0xFF NOT DUP2 SLOAD AND SWAP1 SSTORE PUSH1 0x40 MLOAD SWAP2 DUP3 SWAP2 PUSH1 0x20 DUP4 MSTORE PUSH1 0x20 DUP4 ADD SWAP1 PUSH2 0x2D3C JUMP JUMPDEST CALLVALUE PUSH2 0x215 JUMPI PUSH1 0x20 DUP1 PUSH1 0x3 NOT CALLDATASIZE ADD SLT PUSH2 0x215 JUMPI PUSH1 0x4 CALLDATALOAD PUSH1 0x1 PUSH1 0x1 PUSH1 0x40 SHL SUB DUP2 GT PUSH2 0x215 JUMPI DUP2 PUSH2 0x2235 PUSH2 0x2248 SWAP3 CALLDATASIZE SWAP1 PUSH1 0x4 ADD PUSH2 0x2CAD JUMP JUMPDEST DUP2 PUSH1 0x40 MLOAD SWAP4 DUP3 DUP6 DUP1 SWAP5 MLOAD SWAP4 DUP5 SWAP3 ADD PUSH2 0x2D19 JUMP JUMPDEST DUP2 ADD PUSH1 0x7 DUP2 MSTORE SUB ADD SWAP1 KECCAK256 SWAP1 PUSH1 0x40 MLOAD SWAP1 DUP2 DUP2 DUP5 SLOAD SWAP2 DUP3 DUP2 MSTORE ADD SWAP4 PUSH1 0x0 MSTORE DUP2 PUSH1 0x0 KECCAK256 SWAP2 PUSH1 0x0 SWAP1 JUMPDEST DUP3 DUP3 LT PUSH2 0x2294 JUMPI PUSH2 0x2290 DUP6 PUSH2 0x2284 DUP2 DUP10 SUB DUP3 PUSH2 0x2C8C JUMP JUMPDEST PUSH1 0x40 MLOAD SWAP2 DUP3 SWAP2 DUP3 PUSH2 0x2D8D JUMP JUMPDEST SUB SWAP1 RETURN JUMPDEST DUP4 SLOAD DUP7 MSTORE SWAP5 DUP6 ADD SWAP5 PUSH1 0x1 SWAP4 DUP5 ADD SWAP4 SWAP1 SWAP2 ADD SWAP1 PUSH2 0x226D JUMP JUMPDEST CALLVALUE PUSH2 0x215 JUMPI PUSH1 0x0 CALLDATASIZE PUSH1 0x3 NOT ADD SLT PUSH2 0x215 JUMPI PUSH1 0x20 PUSH1 0x40 MLOAD PUSH1 0x64 DUP2 MSTORE RETURN JUMPDEST CALLVALUE PUSH2 0x215 JUMPI PUSH1 0x0 CALLDATASIZE PUSH1 0x3 NOT ADD SLT PUSH2 0x215 JUMPI PUSH1 0x20 PUSH1 0x40 MLOAD PUSH3 0x278D00 DUP2 MSTORE RETURN JUMPDEST CALLVALUE PUSH2 0x215 JUMPI PUSH2 0x22F3 CALLDATASIZE PUSH2 0x2D03 JUMP JUMPDEST SWAP1 PUSH2 0x22FC PUSH2 0x35B9 JUMP JUMPDEST PUSH2 0x2309 PUSH1 0x9 SLOAD DUP3 LT PUSH2 0x34E7 JUMP JUMPDEST DUP2 ISZERO PUSH2 0x2464 JUMPI DUP1 PUSH1 0x0 MSTORE PUSH1 0x20 PUSH1 0x2 DUP2 MSTORE PUSH1 0x40 PUSH1 0x0 KECCAK256 SWAP1 PUSH2 0x232F PUSH1 0xFF PUSH1 0x8 DUP5 ADD SLOAD AND PUSH2 0x356A JUMP JUMPDEST PUSH1 0xC SLOAD PUSH1 0x40 MLOAD PUSH4 0x23B872DD PUSH1 0xE0 SHL DUP2 MSTORE CALLER PUSH1 0x4 DUP3 ADD MSTORE ADDRESS PUSH1 0x24 DUP3 ADD MSTORE PUSH1 0x44 DUP2 ADD DUP7 SWAP1 MSTORE SWAP3 SWAP1 DUP3 SWAP1 DUP5 SWAP1 PUSH1 0x64 SWAP1 DUP3 SWAP1 PUSH1 0x0 SWAP1 PUSH1 0x1 PUSH1 0x1 PUSH1 0xA0 SHL SUB AND GAS CALL SWAP1 DUP2 ISZERO PUSH2 0x57A JUMPI PUSH2 0x23A7 PUSH1 0x12 SWAP3 PUSH32 0x6FD15F02641C38510A113BDE08C80CD63C88CDB52590E2DB331C50006F111C1B SWAP6 PUSH1 0x0 SWAP2 PUSH2 0x2447 JUMPI POP PUSH2 0x3641 JUMP JUMPDEST DUP5 PUSH1 0x0 MSTORE PUSH1 0x5 DUP4 MSTORE PUSH1 0x40 PUSH1 0x0 KECCAK256 CALLER PUSH1 0x0 MSTORE DUP4 MSTORE PUSH1 0x40 PUSH1 0x0 KECCAK256 PUSH1 0x1 DUP2 ADD SWAP1 DUP2 SLOAD ISZERO PUSH2 0x2406 JUMPI JUMPDEST POP PUSH2 0x23D8 DUP8 DUP3 SLOAD PUSH2 0x34DA JUMP JUMPDEST SWAP1 SSTORE ADD PUSH2 0x23E6 DUP6 DUP3 SLOAD PUSH2 0x34DA JUMP JUMPDEST SWAP1 SSTORE PUSH2 0x23F4 DUP5 PUSH1 0xA SLOAD PUSH2 0x34DA JUMP JUMPDEST PUSH1 0xA SSTORE PUSH1 0x40 MLOAD SWAP4 DUP5 MSTORE CALLER SWAP4 LOG3 PUSH1 0x1 DUP1 SSTORE STOP JUMPDEST PUSH1 0x3 SWAP1 DUP8 PUSH1 0x0 MSTORE PUSH1 0x6 DUP7 MSTORE PUSH2 0x241F CALLER PUSH1 0x40 PUSH1 0x0 KECCAK256 PUSH2 0x349F JUMP JUMPDEST DUP1 SLOAD PUSH1 0x1 PUSH1 0x1 PUSH1 0xA0 SHL SUB NOT AND CALLER OR DUP2 SSTORE TIMESTAMP PUSH1 0x2 DUP3 ADD SSTORE ADD DUP1 SLOAD PUSH1 0xFF NOT AND PUSH1 0x1 OR SWAP1 SSTORE DUP8 PUSH2 0x23CC JUMP JUMPDEST PUSH2 0x245E SWAP2 POP DUP6 RETURNDATASIZE DUP8 GT PUSH2 0x573 JUMPI PUSH2 0x565 DUP2 DUP4 PUSH2 0x2C8C JUMP JUMPDEST DUP9 PUSH2 0xA34 JUMP JUMPDEST PUSH1 0x40 MLOAD PUSH3 0x461BCD PUSH1 0xE5 SHL DUP2 MSTORE PUSH1 0x20 PUSH1 0x4 DUP3 ADD MSTORE PUSH1 0x12 PUSH1 0x24 DUP3 ADD MSTORE PUSH18 0x416D6F756E74206D757374206265203E203 PUSH1 0x74 SHL PUSH1 0x44 DUP3 ADD MSTORE PUSH1 0x64 SWAP1 REVERT JUMPDEST CALLVALUE PUSH2 0x215 JUMPI PUSH2 0x650 PUSH2 0x24AF CALLDATASIZE PUSH2 0x2D03 JUMP JUMPDEST SWAP1 PUSH2 0x24B8 PUSH2 0x2F25 JUMP JUMPDEST PUSH2 0x367F JUMP JUMPDEST CALLVALUE PUSH2 0x215 JUMPI PUSH1 0x20 DUP1 PUSH1 0x3 NOT CALLDATASIZE ADD SLT PUSH2 0x215 JUMPI PUSH1 0x1 PUSH1 0x1 PUSH1 0xA0 SHL SUB PUSH2 0x24DF PUSH2 0x2D77 JUMP JUMPDEST AND PUSH1 0x0 MSTORE PUSH1 0x8 DUP2 MSTORE PUSH1 0x40 PUSH1 0x0 KECCAK256 SWAP1 PUSH1 0x40 MLOAD SWAP1 DUP2 DUP2 DUP5 SLOAD SWAP2 DUP3 DUP2 MSTORE ADD SWAP4 PUSH1 0x0 MSTORE DUP2 PUSH1 0x0 KECCAK256 SWAP2 PUSH1 0x0 SWAP1 JUMPDEST DUP3 DUP3 LT PUSH2 0x251E JUMPI PUSH2 0x2290 DUP6 PUSH2 0x2284 DUP2 DUP10 SUB DUP3 PUSH2 0x2C8C JUMP JUMPDEST DUP4 SLOAD DUP7 MSTORE SWAP5 DUP6 ADD SWAP5 PUSH1 0x1 SWAP4 DUP5 ADD SWAP4 SWAP1 SWAP2 ADD SWAP1 PUSH2 0x2507 JUMP JUMPDEST CALLVALUE PUSH2 0x215 JUMPI PUSH1 0x40 CALLDATASIZE PUSH1 0x3 NOT ADD SLT PUSH2 0x215 JUMPI PUSH2 0x254E PUSH2 0x2D61 JUMP JUMPDEST CALLER PUSH1 0x1 PUSH1 0x1 PUSH1 0xA0 SHL SUB DUP3 AND SUB PUSH2 0x256A JUMPI PUSH2 0x650 SWAP1 PUSH1 0x4 CALLDATALOAD PUSH2 0x307D JUMP JUMPDEST PUSH1 0x40 MLOAD PUSH4 0x334BD919 PUSH1 0xE1 SHL DUP2 MSTORE PUSH1 0x4 SWAP1 REVERT JUMPDEST CALLVALUE PUSH2 0x215 JUMPI PUSH1 0x40 CALLDATASIZE PUSH1 0x3 NOT ADD SLT PUSH2 0x215 JUMPI PUSH2 0x650 PUSH1 0x4 CALLDATALOAD PUSH2 0x259B PUSH2 0x2D61 JUMP JUMPDEST SWAP1 DUP1 PUSH1 0x0 MSTORE PUSH1 0x0 PUSH1 0x20 MSTORE PUSH2 0x25B6 PUSH1 0x1 PUSH1 0x40 PUSH1 0x0 KECCAK256 ADD SLOAD PUSH2 0x2FD9 JUMP JUMPDEST PUSH2 0x2FFF JUMP JUMPDEST CALLVALUE PUSH2 0x215 JUMPI PUSH1 0x0 CALLDATASIZE PUSH1 0x3 NOT ADD SLT PUSH2 0x215 JUMPI PUSH1 0x20 PUSH1 0x40 MLOAD PUSH32 0x1E79CF6E4F214E0107B92A8DB836A4195E9A7ADC5C4217713E63BE1A7696E223 DUP2 MSTORE RETURN JUMPDEST CALLVALUE PUSH2 0x215 JUMPI PUSH1 0x0 CALLDATASIZE PUSH1 0x3 NOT ADD SLT PUSH2 0x215 JUMPI PUSH1 0x20 PUSH1 0xB SLOAD PUSH1 0x40 MLOAD SWAP1 DUP2 MSTORE RETURN JUMPDEST CALLVALUE PUSH2 0x215 JUMPI PUSH1 0x20 CALLDATASIZE PUSH1 0x3 NOT ADD SLT PUSH2 0x215 JUMPI PUSH1 0x4 CALLDATALOAD PUSH1 0x0 MSTORE PUSH1 0x0 PUSH1 0x20 MSTORE PUSH1 0x20 PUSH1 0x1 PUSH1 0x40 PUSH1 0x0 KECCAK256 ADD SLOAD PUSH1 0x40 MLOAD SWAP1 DUP2 MSTORE RETURN JUMPDEST CALLVALUE PUSH2 0x215 JUMPI PUSH1 0x40 CALLDATASIZE PUSH1 0x3 NOT ADD SLT PUSH2 0x215 JUMPI PUSH1 0x4 CALLDATALOAD PUSH2 0x265F PUSH2 0x2D61 JUMP JUMPDEST SWAP1 PUSH2 0x266D PUSH1 0x9 SLOAD DUP3 LT PUSH2 0x34E7 JUMP JUMPDEST DUP1 PUSH1 0x0 MSTORE PUSH1 0x2 PUSH1 0x20 MSTORE PUSH1 0x1 DUP1 PUSH1 0xA0 SHL SUB SWAP1 PUSH2 0x2693 DUP3 PUSH1 0x3 PUSH1 0x40 PUSH1 0x0 KECCAK256 ADD SLOAD AND CALLER EQ PUSH2 0x352A JUMP JUMPDEST PUSH1 0x0 MSTORE PUSH1 0x2 PUSH1 0x20 MSTORE PUSH1 0xF PUSH1 0x40 PUSH1 0x0 KECCAK256 ADD SWAP2 AND PUSH1 0x0 MSTORE PUSH1 0x20 MSTORE PUSH1 0x40 PUSH1 0x0 KECCAK256 PUSH1 0x1 PUSH1 0xFF NOT DUP3 SLOAD AND OR SWAP1 SSTORE PUSH1 0x0 DUP1 RETURN JUMPDEST CALLVALUE PUSH2 0x215 JUMPI PUSH2 0x26CE CALLDATASIZE PUSH2 0x2D03 JUMP JUMPDEST DUP2 PUSH1 0x0 MSTORE PUSH1 0x4 PUSH1 0x20 MSTORE PUSH1 0x40 PUSH1 0x0 KECCAK256 SLOAD DUP2 LT ISZERO PUSH2 0x2771 JUMPI PUSH2 0x26FA SWAP2 PUSH1 0x0 MSTORE PUSH1 0x4 PUSH1 0x20 MSTORE PUSH1 0x40 PUSH1 0x0 KECCAK256 PUSH2 0x2F09 JUMP JUMPDEST POP PUSH1 0x1 DUP1 PUSH1 0xA0 SHL SUB PUSH1 0x1 DUP3 ADD SLOAD AND PUSH1 0x3 DUP3 ADD SLOAD PUSH1 0x4 DUP4 ADD SLOAD SWAP3 PUSH1 0x5 DUP2 ADD SLOAD PUSH1 0xFF PUSH2 0x272B PUSH1 0x2 PUSH1 0x6 DUP6 ADD SLOAD SWAP5 ADD PUSH2 0x2E19 JUMP JUMPDEST SWAP6 PUSH2 0x2748 PUSH1 0x40 MLOAD SWAP8 DUP9 SWAP8 DUP9 MSTORE PUSH1 0xE0 PUSH1 0x20 DUP10 ADD MSTORE PUSH1 0xE0 DUP9 ADD SWAP1 PUSH2 0x2D3C JUMP JUMPDEST SWAP5 PUSH1 0x40 DUP8 ADD MSTORE DUP2 DUP2 AND ISZERO ISZERO PUSH1 0x60 DUP8 ADD MSTORE PUSH1 0x8 SHR AND ISZERO ISZERO PUSH1 0x80 DUP6 ADD MSTORE PUSH1 0xA0 DUP5 ADD MSTORE PUSH1 0xC0 DUP4 ADD MSTORE SUB SWAP1 RETURN JUMPDEST PUSH1 0x40 MLOAD PUSH3 0x461BCD PUSH1 0xE5 SHL DUP2 MSTORE PUSH1 0x20 PUSH1 0x4 DUP3 ADD MSTORE PUSH1 0xD PUSH1 0x24 DUP3 ADD MSTORE PUSH13 0x92DCECC2D8D2C840D2DCC8CAF PUSH1 0x9B SHL PUSH1 0x44 DUP3 ADD MSTORE PUSH1 0x64 SWAP1 REVERT JUMPDEST CALLVALUE PUSH2 0x215 JUMPI PUSH1 0x20 CALLDATASIZE PUSH1 0x3 NOT ADD SLT PUSH2 0x215 JUMPI PUSH1 0x4 CALLDATALOAD PUSH2 0x27C7 PUSH1 0x9 SLOAD DUP3 LT PUSH2 0x34E7 JUMP JUMPDEST PUSH1 0x0 MSTORE PUSH1 0x2 PUSH1 0x20 MSTORE PUSH1 0x80 PUSH1 0x40 PUSH1 0x0 KECCAK256 PUSH1 0xB DUP2 ADD SLOAD SWAP1 PUSH1 0xC DUP2 ADD SLOAD SWAP1 PUSH1 0x11 PUSH1 0xA DUP3 ADD SLOAD SWAP2 ADD SLOAD SWAP2 PUSH1 0x40 MLOAD SWAP4 DUP5 MSTORE PUSH1 0x20 DUP5 ADD MSTORE PUSH1 0x40 DUP4 ADD MSTORE PUSH1 0x60 DUP3 ADD MSTORE RETURN JUMPDEST CALLVALUE PUSH2 0x215 JUMPI PUSH1 0x80 CALLDATASIZE PUSH1 0x3 NOT ADD SLT PUSH2 0x215 JUMPI PUSH1 0x24 CALLDATALOAD PUSH1 0x1 PUSH1 0x1 PUSH1 0x40 SHL SUB DUP2 GT PUSH2 0x215 JUMPI PUSH2 0x2834 SWAP1 CALLDATASIZE SWAP1 PUSH1 0x4 ADD PUSH2 0x2CAD JUMP JUMPDEST PUSH1 0x44 CALLDATALOAD SWAP1 PUSH2 0x2840 PUSH2 0x35B9 JUMP JUMPDEST PUSH2 0x284F PUSH1 0x9 SLOAD PUSH1 0x4 CALLDATALOAD LT PUSH2 0x34E7 JUMP JUMPDEST PUSH1 0x4 CALLDATALOAD PUSH1 0x0 MSTORE PUSH1 0x2 PUSH1 0x20 MSTORE PUSH1 0x40 PUSH1 0x0 KECCAK256 PUSH1 0x8 DUP2 ADD SLOAD PUSH2 0x2870 PUSH1 0xFF DUP3 AND PUSH2 0x356A JUMP JUMPDEST PUSH1 0x64 DUP5 GT PUSH2 0x2B9E JUMPI PUSH1 0x8 SHR PUSH1 0xFF AND ISZERO PUSH2 0x2B33 JUMPI JUMPDEST PUSH1 0x4 CALLDATALOAD PUSH1 0x0 MSTORE PUSH1 0x4 PUSH1 0x20 MSTORE PUSH1 0x40 PUSH1 0x0 KECCAK256 PUSH1 0x40 MLOAD SWAP4 PUSH2 0x120 DUP6 ADD DUP6 DUP2 LT PUSH1 0x1 PUSH1 0x1 PUSH1 0x40 SHL SUB DUP3 GT OR PUSH2 0xEEF JUMPI PUSH1 0x40 MSTORE PUSH1 0x4 CALLDATALOAD DUP6 MSTORE CALLER PUSH1 0x20 DUP7 ADD MSTORE DUP4 PUSH1 0x40 DUP7 ADD MSTORE TIMESTAMP PUSH1 0x60 DUP7 ADD MSTORE PUSH1 0x0 PUSH1 0x80 DUP7 ADD MSTORE PUSH1 0x0 PUSH1 0xA0 DUP7 ADD MSTORE PUSH1 0xC0 DUP6 ADD MSTORE PUSH1 0x0 PUSH1 0xE0 DUP6 ADD MSTORE PUSH1 0x64 CALLDATALOAD PUSH2 0x100 DUP6 ADD MSTORE DUP1 SLOAD PUSH1 0x1 PUSH1 0x40 SHL DUP2 LT ISZERO PUSH2 0xEEF JUMPI PUSH2 0x2909 SWAP2 PUSH1 0x1 DUP3 ADD DUP2 SSTORE PUSH2 0x2F09 JUMP JUMPDEST PUSH2 0x2B1D JUMPI DUP4 MLOAD DUP2 SSTORE PUSH1 0x1 DUP2 ADD PUSH1 0x1 DUP1 PUSH1 0xA0 SHL SUB PUSH1 0x20 DUP7 ADD MLOAD AND PUSH12 0xFFFFFFFFFFFFFFFFFFFFFFFF PUSH1 0xA0 SHL DUP3 SLOAD AND OR SWAP1 SSTORE PUSH1 0x40 DUP5 ADD MLOAD DUP1 MLOAD SWAP1 PUSH1 0x1 PUSH1 0x1 PUSH1 0x40 SHL SUB DUP3 GT PUSH2 0xEEF JUMPI PUSH2 0x295B PUSH1 0x2 DUP5 ADD SLOAD PUSH2 0x2DDF JUMP JUMPDEST PUSH1 0x1F DUP2 GT PUSH2 0x2AE8 JUMPI JUMPDEST POP PUSH1 0x20 SWAP1 PUSH1 0x1F DUP4 GT PUSH1 0x1 EQ PUSH2 0x2A6F JUMPI SWAP6 DUP3 PUSH1 0x7 SWAP4 PUSH2 0x100 SWAP4 PUSH1 0xB SWAP9 SWAP10 PUSH1 0x0 SWAP3 PUSH2 0x2A64 JUMPI JUMPDEST POP POP DUP2 PUSH1 0x1 SHL SWAP2 PUSH1 0x0 NOT SWAP1 PUSH1 0x3 SHL SHR NOT AND OR PUSH1 0x2 DUP6 ADD SSTORE JUMPDEST PUSH1 0x60 DUP2 ADD MLOAD PUSH1 0x3 DUP6 ADD SSTORE PUSH2 0x29E8 PUSH1 0x4 DUP6 ADD PUSH2 0x29CD PUSH1 0x80 DUP5 ADD MLOAD ISZERO ISZERO DUP3 SWAP1 PUSH1 0xFF DUP1 NOT DUP4 SLOAD AND SWAP2 ISZERO ISZERO AND OR SWAP1 SSTORE JUMP JUMPDEST PUSH1 0xA0 DUP4 ADD MLOAD DUP2 SLOAD PUSH2 0xFF00 NOT AND SWAP1 ISZERO ISZERO PUSH1 0x8 SHL PUSH2 0xFF00 AND OR SWAP1 SSTORE JUMP JUMPDEST PUSH1 0xC0 DUP2 ADD MLOAD PUSH1 0x5 DUP6 ADD SSTORE PUSH1 0xE0 DUP2 ADD MLOAD PUSH1 0x6 DUP6 ADD SSTORE ADD MLOAD SWAP2 ADD SSTORE PUSH1 0x9 DUP2 ADD PUSH2 0x2A0F DUP2 SLOAD PUSH2 0x30F2 JUMP JUMPDEST SWAP1 SSTORE ADD PUSH2 0x2A1C DUP2 SLOAD PUSH2 0x30F2 JUMP JUMPDEST SWAP1 SSTORE PUSH1 0x40 MLOAD SWAP1 PUSH1 0x20 DUP3 MSTORE PUSH32 0xD6C8CD1F72D4EC6B6F2EA183D68C3FC2ED261FCA2012DAB1052FE186BFDAE9FD CALLER SWAP3 DUP1 PUSH2 0x2A5B PUSH1 0x4 CALLDATALOAD SWAP5 PUSH1 0x20 DUP4 ADD SWAP1 PUSH2 0x2D3C JUMP JUMPDEST SUB SWAP1 LOG3 PUSH1 0x1 DUP1 SSTORE STOP JUMPDEST ADD MLOAD SWAP1 POP DUP10 DUP1 PUSH2 0x2988 JUMP JUMPDEST SWAP1 PUSH1 0x2 DUP5 ADD PUSH1 0x0 MSTORE PUSH1 0x20 PUSH1 0x0 KECCAK256 SWAP2 PUSH1 0x0 JUMPDEST PUSH1 0x1F NOT DUP6 AND DUP2 LT PUSH2 0x2AD0 JUMPI POP DUP4 PUSH2 0x100 SWAP4 PUSH1 0xB SWAP9 SWAP10 SWAP4 PUSH1 0x1 SWAP4 PUSH1 0x7 SWAP8 PUSH1 0x1F NOT DUP2 AND LT PUSH2 0x2AB7 JUMPI JUMPDEST POP POP POP DUP2 SHL ADD PUSH1 0x2 DUP6 ADD SSTORE PUSH2 0x29A0 JUMP JUMPDEST ADD MLOAD PUSH1 0x0 NOT PUSH1 0xF8 DUP5 PUSH1 0x3 SHL AND SHR NOT AND SWAP1 SSTORE DUP10 DUP1 DUP1 PUSH2 0x2AA7 JUMP JUMPDEST SWAP2 SWAP3 PUSH1 0x20 PUSH1 0x1 DUP2 SWAP3 DUP7 DUP6 ADD MLOAD DUP2 SSTORE ADD SWAP5 ADD SWAP3 ADD PUSH2 0x2A80 JUMP JUMPDEST PUSH2 0x2B17 SWAP1 PUSH1 0x2 DUP6 ADD PUSH1 0x0 MSTORE PUSH1 0x20 PUSH1 0x0 KECCAK256 PUSH1 0x1F DUP6 ADD PUSH1 0x5 SHR DUP2 ADD SWAP2 PUSH1 0x20 DUP7 LT PUSH2 0x1C5E JUMPI PUSH1 0x1F ADD PUSH1 0x5 SHR ADD SWAP1 PUSH2 0x3101 JUMP JUMPDEST DUP7 PUSH2 0x2964 JUMP JUMPDEST PUSH4 0x4E487B71 PUSH1 0xE0 SHL PUSH1 0x0 MSTORE PUSH1 0x0 PUSH1 0x4 MSTORE PUSH1 0x24 PUSH1 0x0 REVERT JUMPDEST CALLER PUSH1 0x0 MSTORE PUSH1 0xF DUP2 ADD PUSH1 0x20 MSTORE PUSH1 0xFF PUSH1 0x40 PUSH1 0x0 KECCAK256 SLOAD AND DUP1 ISZERO PUSH2 0x2B88 JUMPI JUMPDEST PUSH2 0x2884 JUMPI PUSH1 0x40 MLOAD PUSH3 0x461BCD PUSH1 0xE5 SHL DUP2 MSTORE PUSH1 0x20 PUSH1 0x4 DUP3 ADD MSTORE PUSH1 0xE PUSH1 0x24 DUP3 ADD MSTORE PUSH14 0x139BDD08185D5D1A1BDC9A5E9959 PUSH1 0x92 SHL PUSH1 0x44 DUP3 ADD MSTORE PUSH1 0x64 SWAP1 REVERT JUMPDEST POP PUSH1 0x3 DUP2 ADD SLOAD PUSH1 0x1 PUSH1 0x1 PUSH1 0xA0 SHL SUB AND CALLER EQ PUSH2 0x2B4E JUMP JUMPDEST PUSH1 0x40 MLOAD PUSH3 0x461BCD PUSH1 0xE5 SHL DUP2 MSTORE PUSH1 0x20 PUSH1 0x4 DUP3 ADD MSTORE PUSH1 0x18 PUSH1 0x24 DUP3 ADD MSTORE PUSH32 0x496E76616C696420636F6E666964656E63652073636F72650000000000000000 PUSH1 0x44 DUP3 ADD MSTORE PUSH1 0x64 SWAP1 REVERT JUMPDEST CALLVALUE PUSH2 0x215 JUMPI PUSH1 0x0 CALLDATASIZE PUSH1 0x3 NOT ADD SLT PUSH2 0x215 JUMPI PUSH1 0x20 PUSH1 0x40 MLOAD PUSH32 0x68E79A7BF1E0BC45D0A330C573BC367F9CF464FD326078812F301165FBDA4EF1 DUP2 MSTORE RETURN JUMPDEST CALLVALUE PUSH2 0x215 JUMPI PUSH1 0x20 CALLDATASIZE PUSH1 0x3 NOT ADD SLT PUSH2 0x215 JUMPI PUSH1 0x4 CALLDATALOAD SWAP1 PUSH4 0xFFFFFFFF PUSH1 0xE0 SHL DUP3 AND DUP1 SWAP3 SUB PUSH2 0x215 JUMPI PUSH1 0x20 SWAP2 PUSH4 0x7965DB0B PUSH1 0xE0 SHL DUP2 EQ SWAP1 DUP2 ISZERO PUSH2 0x2C60 JUMPI JUMPDEST POP ISZERO ISZERO DUP2 MSTORE RETURN JUMPDEST PUSH4 0x1FFC9A7 PUSH1 0xE0 SHL EQ SWAP1 POP DUP4 PUSH2 0x2C59 JUMP JUMPDEST PUSH1 0xC0 DUP2 ADD SWAP1 DUP2 LT PUSH1 0x1 PUSH1 0x1 PUSH1 0x40 SHL SUB DUP3 GT OR PUSH2 0xEEF JUMPI PUSH1 0x40 MSTORE JUMP JUMPDEST SWAP1 PUSH1 0x1F DUP1 NOT SWAP2 ADD AND DUP2 ADD SWAP1 DUP2 LT PUSH1 0x1 PUSH1 0x1 PUSH1 0x40 SHL SUB DUP3 GT OR PUSH2 0xEEF JUMPI PUSH1 0x40 MSTORE JUMP JUMPDEST DUP2 PUSH1 0x1F DUP3 ADD SLT ISZERO PUSH2 0x215 JUMPI DUP1 CALLDATALOAD SWAP1 PUSH1 0x1 PUSH1 0x1 PUSH1 0x40 SHL SUB DUP3 GT PUSH2 0xEEF JUMPI PUSH1 0x40 MLOAD SWAP3 PUSH2 0x2CE1 PUSH1 0x1F DUP5 ADD PUSH1 0x1F NOT AND PUSH1 0x20 ADD DUP6 PUSH2 0x2C8C JUMP JUMPDEST DUP3 DUP5 MSTORE PUSH1 0x20 DUP4 DUP4 ADD ADD GT PUSH2 0x215 JUMPI DUP2 PUSH1 0x0 SWAP3 PUSH1 0x20 DUP1 SWAP4 ADD DUP4 DUP7 ADD CALLDATACOPY DUP4 ADD ADD MSTORE SWAP1 JUMP JUMPDEST PUSH1 0x40 SWAP1 PUSH1 0x3 NOT ADD SLT PUSH2 0x215 JUMPI PUSH1 0x4 CALLDATALOAD SWAP1 PUSH1 0x24 CALLDATALOAD SWAP1 JUMP JUMPDEST PUSH1 0x0 JUMPDEST DUP4 DUP2 LT PUSH2 0x2D2C JUMPI POP POP PUSH1 0x0 SWAP2 ADD MSTORE JUMP JUMPDEST DUP2 DUP2 ADD MLOAD DUP4 DUP3 ADD MSTORE PUSH1 0x20 ADD PUSH2 0x2D1C JUMP JUMPDEST SWAP1 PUSH1 0x20 SWAP2 PUSH2 0x2D55 DUP2 MLOAD DUP1 SWAP3 DUP2 DUP6 MSTORE DUP6 DUP1 DUP7 ADD SWAP2 ADD PUSH2 0x2D19 JUMP JUMPDEST PUSH1 0x1F ADD PUSH1 0x1F NOT AND ADD ADD SWAP1 JUMP JUMPDEST PUSH1 0x24 CALLDATALOAD SWAP1 PUSH1 0x1 PUSH1 0x1 PUSH1 0xA0 SHL SUB DUP3 AND DUP3 SUB PUSH2 0x215 JUMPI JUMP JUMPDEST PUSH1 0x4 CALLDATALOAD SWAP1 PUSH1 0x1 PUSH1 0x1 PUSH1 0xA0 SHL SUB DUP3 AND DUP3 SUB PUSH2 0x215 JUMPI JUMP JUMPDEST PUSH1 0x20 SWAP1 DUP2 PUSH1 0x40 DUP2 DUP4 ADD SWAP3 DUP3 DUP2 MSTORE DUP6 MLOAD DUP1 SWAP5 MSTORE ADD SWAP4 ADD SWAP2 PUSH1 0x0 JUMPDEST DUP3 DUP2 LT PUSH2 0x2DB4 JUMPI POP POP POP POP SWAP1 JUMP JUMPDEST DUP4 MLOAD DUP6 MSTORE SWAP4 DUP2 ADD SWAP4 SWAP3 DUP2 ADD SWAP3 PUSH1 0x1 ADD PUSH2 0x2DA6 JUMP JUMPDEST PUSH1 0x1 PUSH1 0x1 PUSH1 0x40 SHL SUB DUP2 GT PUSH2 0xEEF JUMPI PUSH1 0x5 SHL PUSH1 0x20 ADD SWAP1 JUMP JUMPDEST SWAP1 PUSH1 0x1 DUP3 DUP2 SHR SWAP3 AND DUP1 ISZERO PUSH2 0x2E0F JUMPI JUMPDEST PUSH1 0x20 DUP4 LT EQ PUSH2 0x2DF9 JUMPI JUMP JUMPDEST PUSH4 0x4E487B71 PUSH1 0xE0 SHL PUSH1 0x0 MSTORE PUSH1 0x22 PUSH1 0x4 MSTORE PUSH1 0x24 PUSH1 0x0 REVERT JUMPDEST SWAP2 PUSH1 0x7F AND SWAP2 PUSH2 0x2DEE JUMP JUMPDEST SWAP1 PUSH1 0x40 MLOAD SWAP2 DUP3 PUSH1 0x0 DUP3 SLOAD SWAP3 PUSH2 0x2E2D DUP5 PUSH2 0x2DDF JUMP JUMPDEST SWAP1 DUP2 DUP5 MSTORE PUSH1 0x1 SWAP5 DUP6 DUP2 AND SWAP1 DUP2 PUSH1 0x0 EQ PUSH2 0x2E9C JUMPI POP PUSH1 0x1 EQ PUSH2 0x2E59 JUMPI JUMPDEST POP POP PUSH2 0x2E57 SWAP3 POP SUB DUP4 PUSH2 0x2C8C JUMP JUMPDEST JUMP JUMPDEST SWAP1 SWAP4 SWAP2 POP PUSH1 0x0 MSTORE PUSH1 0x20 SWAP1 DUP2 PUSH1 0x0 KECCAK256 SWAP4 PUSH1 0x0 SWAP2 JUMPDEST DUP2 DUP4 LT PUSH2 0x2E84 JUMPI POP POP PUSH2 0x2E57 SWAP4 POP DUP3 ADD ADD CODESIZE DUP1 PUSH2 0x2E49 JUMP JUMPDEST DUP6 SLOAD DUP9 DUP5 ADD DUP6 ADD MSTORE SWAP5 DUP6 ADD SWAP5 DUP8 SWAP5 POP SWAP2 DUP4 ADD SWAP2 PUSH2 0x2E6C JUMP JUMPDEST SWAP2 POP POP PUSH2 0x2E57 SWAP5 POP PUSH1 0x20 SWAP3 POP PUSH1 0xFF NOT AND DUP3 DUP5 ADD MSTORE ISZERO ISZERO PUSH1 0x5 SHL DUP3 ADD ADD CODESIZE DUP1 PUSH2 0x2E49 JUMP JUMPDEST DUP1 SLOAD DUP3 LT ISZERO PUSH2 0x2EDB JUMPI PUSH1 0x0 MSTORE PUSH1 0x6 PUSH1 0x20 PUSH1 0x0 KECCAK256 SWAP2 MUL ADD SWAP1 PUSH1 0x0 SWAP1 JUMP JUMPDEST PUSH4 0x4E487B71 PUSH1 0xE0 SHL PUSH1 0x0 MSTORE PUSH1 0x32 PUSH1 0x4 MSTORE PUSH1 0x24 PUSH1 0x0 REVERT JUMPDEST DUP1 SLOAD DUP3 LT ISZERO PUSH2 0x2EDB JUMPI PUSH1 0x0 MSTORE PUSH1 0x20 PUSH1 0x0 KECCAK256 ADD SWAP1 PUSH1 0x0 SWAP1 JUMP JUMPDEST DUP1 SLOAD DUP3 LT ISZERO PUSH2 0x2EDB JUMPI PUSH1 0x0 MSTORE PUSH1 0x20 PUSH1 0x0 KECCAK256 SWAP1 PUSH1 0x3 SHL ADD SWAP1 PUSH1 0x0 SWAP1 JUMP JUMPDEST CALLER PUSH1 0x0 SWAP1 DUP2 MSTORE PUSH32 0xA629F6981C2F6895A67DC766E8E03FF72D04A413D0D8773A3CA56E9E474032C1 PUSH1 0x20 MSTORE PUSH1 0x40 SWAP1 KECCAK256 SLOAD PUSH32 0x68E79A7BF1E0BC45D0A330C573BC367F9CF464FD326078812F301165FBDA4EF1 SWAP1 PUSH1 0xFF AND ISZERO PUSH2 0x2F81 JUMPI POP JUMP JUMPDEST PUSH1 0x44 SWAP1 PUSH1 0x40 MLOAD SWAP1 PUSH4 0xE2517D3F PUSH1 0xE0 SHL DUP3 MSTORE CALLER PUSH1 0x4 DUP4 ADD MSTORE PUSH1 0x24 DUP3 ADD MSTORE REVERT JUMPDEST CALLER PUSH1 0x0 SWAP1 DUP2 MSTORE PUSH32 0xAD3228B676F7D3CD4284A5443F17F1962B36E491B30A40B2405849E597BA5FB5 PUSH1 0x20 MSTORE PUSH1 0x40 DUP2 KECCAK256 SLOAD PUSH1 0xFF AND ISZERO PUSH2 0x2F81 JUMPI POP JUMP JUMPDEST DUP1 PUSH1 0x0 MSTORE PUSH1 0x0 PUSH1 0x20 MSTORE PUSH1 0x40 PUSH1 0x0 KECCAK256 CALLER PUSH1 0x0 MSTORE PUSH1 0x20 MSTORE PUSH1 0xFF PUSH1 0x40 PUSH1 0x0 KECCAK256 SLOAD AND ISZERO PUSH2 0x2F81 JUMPI POP JUMP JUMPDEST SWAP1 PUSH1 0x0 SWAP2 DUP1 DUP4 MSTORE DUP3 PUSH1 0x20 MSTORE PUSH1 0x40 DUP4 KECCAK256 SWAP2 PUSH1 0x1 DUP1 PUSH1 0xA0 SHL SUB AND SWAP2 DUP3 DUP5 MSTORE PUSH1 0x20 MSTORE PUSH1 0xFF PUSH1 0x40 DUP5 KECCAK256 SLOAD AND ISZERO PUSH1 0x0 EQ PUSH2 0x3078 JUMPI DUP1 DUP4 MSTORE DUP3 PUSH1 0x20 MSTORE PUSH1 0x40 DUP4 KECCAK256 DUP3 DUP5 MSTORE PUSH1 0x20 MSTORE PUSH1 0x40 DUP4 KECCAK256 PUSH1 0x1 PUSH1 0xFF NOT DUP3 SLOAD AND OR SWAP1 SSTORE PUSH32 0x2F8788117E7EFF1D82E926EC794901D17C78024A50270940304540A733656F0D CALLER SWAP4 DUP1 LOG4 PUSH1 0x1 SWAP1 JUMP JUMPDEST POP POP SWAP1 JUMP JUMPDEST SWAP1 PUSH1 0x0 SWAP2 DUP1 DUP4 MSTORE DUP3 PUSH1 0x20 MSTORE PUSH1 0x40 DUP4 KECCAK256 SWAP2 PUSH1 0x1 DUP1 PUSH1 0xA0 SHL SUB AND SWAP2 DUP3 DUP5 MSTORE PUSH1 0x20 MSTORE PUSH1 0xFF PUSH1 0x40 DUP5 KECCAK256 SLOAD AND PUSH1 0x0 EQ PUSH2 0x3078 JUMPI DUP1 DUP4 MSTORE DUP3 PUSH1 0x20 MSTORE PUSH1 0x40 DUP4 KECCAK256 DUP3 DUP5 MSTORE PUSH1 0x20 MSTORE PUSH1 0x40 DUP4 KECCAK256 PUSH1 0xFF NOT DUP2 SLOAD AND SWAP1 SSTORE PUSH32 0xF6391F5C32D9C69D2A47EA670B442974B53935D1EDC7FD64EB21E047A839171B CALLER SWAP4 DUP1 LOG4 PUSH1 0x1 SWAP1 JUMP JUMPDEST PUSH1 0x0 NOT DUP2 EQ PUSH2 0x49B JUMPI PUSH1 0x1 ADD SWAP1 JUMP JUMPDEST DUP2 DUP2 LT PUSH2 0x310C JUMPI POP POP JUMP JUMPDEST PUSH1 0x0 DUP2 SSTORE PUSH1 0x1 ADD PUSH2 0x3101 JUMP JUMPDEST SWAP1 DUP2 SLOAD PUSH1 0x1 PUSH1 0x40 SHL DUP2 LT ISZERO PUSH2 0xEEF JUMPI PUSH2 0x3138 SWAP1 PUSH1 0x1 SWAP4 DUP5 DUP3 ADD DUP2 SSTORE PUSH2 0x2EBF JUMP JUMPDEST SWAP3 SWAP1 SWAP3 PUSH2 0x2B1D JUMPI DUP2 MLOAD SWAP1 DUP2 MLOAD SWAP1 PUSH1 0x1 PUSH1 0x1 PUSH1 0x40 SHL SUB SWAP2 DUP3 DUP2 GT PUSH2 0xEEF JUMPI DUP1 PUSH2 0x3160 DUP8 SLOAD PUSH2 0x2DDF JUMP JUMPDEST SWAP5 PUSH1 0x1F SWAP6 DUP7 DUP2 GT PUSH2 0x3422 JUMPI JUMPDEST POP PUSH1 0x20 SWAP1 DUP7 DUP4 GT PUSH1 0x1 EQ PUSH2 0x33BF JUMPI PUSH1 0x0 SWAP3 PUSH2 0x33B4 JUMPI JUMPDEST POP POP PUSH1 0x0 NOT PUSH1 0x3 DUP4 SWAP1 SHL SHR NOT AND SWAP1 DUP3 SHL OR DUP6 SSTORE JUMPDEST DUP1 DUP6 ADD PUSH1 0x20 DUP6 ADD MLOAD DUP1 MLOAD SWAP1 DUP5 DUP3 GT PUSH2 0xEEF JUMPI DUP2 SWAP1 PUSH2 0x31B4 DUP5 SLOAD PUSH2 0x2DDF JUMP JUMPDEST DUP8 DUP2 GT PUSH2 0x3384 JUMPI JUMPDEST POP PUSH1 0x20 SWAP1 DUP8 DUP4 GT PUSH1 0x1 EQ PUSH2 0x3321 JUMPI PUSH1 0x0 SWAP3 PUSH2 0x3316 JUMPI JUMPDEST POP POP PUSH1 0x0 NOT PUSH1 0x3 DUP4 SWAP1 SHL SHR NOT AND SWAP1 DUP4 SHL OR SWAP1 SSTORE JUMPDEST PUSH1 0x40 DUP5 ADD MLOAD PUSH1 0x2 DUP7 ADD SSTORE PUSH1 0x3 DUP6 ADD SWAP3 PUSH1 0x60 DUP6 ADD MLOAD DUP1 MLOAD SWAP4 DUP5 GT PUSH2 0xEEF JUMPI PUSH2 0x320D DUP6 SLOAD PUSH2 0x2DDF JUMP JUMPDEST DUP3 DUP2 GT PUSH2 0x32E6 JUMPI JUMPDEST POP PUSH1 0x20 SWAP2 DUP5 GT PUSH1 0x1 EQ PUSH2 0x3279 JUMPI SWAP3 DUP1 PUSH1 0xA0 SWAP6 SWAP4 DUP2 SWAP4 PUSH1 0x5 SWAP9 SWAP7 PUSH1 0x0 SWAP5 PUSH2 0x326E JUMPI JUMPDEST POP POP SHL SWAP2 PUSH1 0x0 NOT SWAP1 PUSH1 0x3 SHL SHR NOT AND OR SWAP1 SSTORE JUMPDEST PUSH2 0x3267 PUSH1 0x80 DUP3 ADD MLOAD ISZERO ISZERO PUSH1 0x4 DUP7 ADD SWAP1 PUSH1 0xFF DUP1 NOT DUP4 SLOAD AND SWAP2 ISZERO ISZERO AND OR SWAP1 SSTORE JUMP JUMPDEST ADD MLOAD SWAP2 ADD SSTORE JUMP JUMPDEST ADD MLOAD SWAP3 POP CODESIZE DUP1 PUSH2 0x3236 JUMP JUMPDEST SWAP1 PUSH1 0x1F SWAP4 SWAP3 SWAP4 NOT DUP4 AND SWAP2 DUP6 PUSH1 0x0 MSTORE DUP2 PUSH1 0x0 KECCAK256 SWAP3 PUSH1 0x0 JUMPDEST DUP2 DUP2 LT PUSH2 0x32D0 JUMPI POP SWAP2 PUSH1 0x5 SWAP8 SWAP6 SWAP4 SWAP2 DUP6 PUSH1 0xA0 SWAP9 SWAP7 SWAP5 LT PUSH2 0x32B7 JUMPI JUMPDEST POP POP POP DUP2 SHL ADD SWAP1 SSTORE PUSH2 0x3248 JUMP JUMPDEST ADD MLOAD PUSH1 0x0 NOT PUSH1 0xF8 DUP5 PUSH1 0x3 SHL AND SHR NOT AND SWAP1 SSTORE CODESIZE DUP1 DUP1 PUSH2 0x32AA JUMP JUMPDEST DUP3 DUP5 ADD MLOAD DUP6 SSTORE SWAP4 DUP7 ADD SWAP4 PUSH1 0x20 SWAP4 DUP5 ADD SWAP4 ADD PUSH2 0x328F JUMP JUMPDEST PUSH2 0x3310 SWAP1 DUP7 PUSH1 0x0 MSTORE PUSH1 0x20 PUSH1 0x0 KECCAK256 DUP5 DUP1 DUP9 ADD PUSH1 0x5 SHR DUP3 ADD SWAP3 PUSH1 0x20 DUP10 LT PUSH2 0xEE6 JUMPI ADD PUSH1 0x5 SHR ADD SWAP1 PUSH2 0x3101 JUMP JUMPDEST CODESIZE PUSH2 0x3215 JUMP JUMPDEST ADD MLOAD SWAP1 POP CODESIZE DUP1 PUSH2 0x31D2 JUMP JUMPDEST SWAP1 DUP6 SWAP4 POP PUSH1 0x1F NOT DUP4 AND SWAP2 DUP6 PUSH1 0x0 MSTORE DUP2 PUSH1 0x0 KECCAK256 SWAP3 PUSH1 0x0 JUMPDEST DUP2 DUP2 LT PUSH2 0x336C JUMPI POP DUP5 GT PUSH2 0x3353 JUMPI JUMPDEST POP POP POP DUP2 SHL ADD SWAP1 SSTORE PUSH2 0x31E6 JUMP JUMPDEST ADD MLOAD PUSH1 0x0 NOT PUSH1 0xF8 DUP5 PUSH1 0x3 SHL AND SHR NOT AND SWAP1 SSTORE CODESIZE DUP1 DUP1 PUSH2 0x3346 JUMP JUMPDEST DUP3 DUP5 ADD MLOAD DUP6 SSTORE DUP9 SWAP7 SWAP1 SWAP5 ADD SWAP4 PUSH1 0x20 SWAP4 DUP5 ADD SWAP4 ADD PUSH2 0x3337 JUMP JUMPDEST PUSH2 0x33AE SWAP1 DUP6 PUSH1 0x0 MSTORE PUSH1 0x20 PUSH1 0x0 KECCAK256 DUP10 DUP1 DUP7 ADD PUSH1 0x5 SHR DUP3 ADD SWAP3 PUSH1 0x20 DUP8 LT PUSH2 0xEE6 JUMPI ADD PUSH1 0x5 SHR ADD SWAP1 PUSH2 0x3101 JUMP JUMPDEST CODESIZE PUSH2 0x31BC JUMP JUMPDEST ADD MLOAD SWAP1 POP CODESIZE DUP1 PUSH2 0x3182 JUMP JUMPDEST SWAP1 DUP5 SWAP4 POP PUSH1 0x1F NOT DUP4 AND SWAP2 DUP10 PUSH1 0x0 MSTORE DUP2 PUSH1 0x0 KECCAK256 SWAP3 PUSH1 0x0 JUMPDEST DUP2 DUP2 LT PUSH2 0x340A JUMPI POP DUP5 GT PUSH2 0x33F1 JUMPI JUMPDEST POP POP POP DUP2 SHL ADD DUP6 SSTORE PUSH2 0x3196 JUMP JUMPDEST ADD MLOAD PUSH1 0x0 NOT PUSH1 0xF8 DUP5 PUSH1 0x3 SHL AND SHR NOT AND SWAP1 SSTORE CODESIZE DUP1 DUP1 PUSH2 0x33E4 JUMP JUMPDEST DUP3 DUP5 ADD MLOAD DUP6 SSTORE DUP8 SWAP7 SWAP1 SWAP5 ADD SWAP4 PUSH1 0x20 SWAP4 DUP5 ADD SWAP4 ADD PUSH2 0x33D5 JUMP JUMPDEST PUSH2 0x344C SWAP1 DUP10 PUSH1 0x0 MSTORE PUSH1 0x20 PUSH1 0x0 KECCAK256 DUP9 DUP1 DUP7 ADD PUSH1 0x5 SHR DUP3 ADD SWAP3 PUSH1 0x20 DUP8 LT PUSH2 0xEE6 JUMPI ADD PUSH1 0x5 SHR ADD SWAP1 PUSH2 0x3101 JUMP JUMPDEST CODESIZE PUSH2 0x316C JUMP JUMPDEST DUP1 SLOAD PUSH1 0x1 PUSH1 0x40 SHL DUP2 LT ISZERO PUSH2 0xEEF JUMPI PUSH2 0x346F SWAP2 PUSH1 0x1 DUP3 ADD DUP2 SSTORE PUSH2 0x2EF1 JUMP JUMPDEST DUP2 SWAP3 SWAP2 SLOAD SWAP1 PUSH1 0x3 SHL SWAP2 DUP3 SHL SWAP2 PUSH1 0x0 NOT SWAP1 SHL NOT AND OR SWAP1 SSTORE JUMP JUMPDEST SWAP1 DUP2 PUSH1 0x20 SWAP2 SUB SLT PUSH2 0x215 JUMPI MLOAD DUP1 ISZERO ISZERO DUP2 SUB PUSH2 0x215 JUMPI SWAP1 JUMP JUMPDEST DUP1 SLOAD PUSH1 0x1 PUSH1 0x40 SHL DUP2 LT ISZERO PUSH2 0xEEF JUMPI PUSH2 0x34BC SWAP2 PUSH1 0x1 DUP3 ADD DUP2 SSTORE PUSH2 0x2EF1 JUMP JUMPDEST DUP2 SWAP3 SWAP2 SLOAD SWAP1 PUSH1 0x3 SHL SWAP2 PUSH1 0x1 DUP1 PUSH1 0xA0 SHL SUB DUP1 SWAP2 AND DUP4 SHL SWAP3 SHL NOT AND OR SWAP1 SSTORE JUMP JUMPDEST SWAP2 SWAP1 DUP3 ADD DUP1 SWAP3 GT PUSH2 0x49B JUMPI JUMP JUMPDEST ISZERO PUSH2 0x34EE JUMPI JUMP JUMPDEST PUSH1 0x40 MLOAD PUSH3 0x461BCD PUSH1 0xE5 SHL DUP2 MSTORE PUSH1 0x20 PUSH1 0x4 DUP3 ADD MSTORE PUSH1 0x14 PUSH1 0x24 DUP3 ADD MSTORE PUSH20 0x135BD9195B08191BD95CC81B9BDD08195E1A5CDD PUSH1 0x62 SHL PUSH1 0x44 DUP3 ADD MSTORE PUSH1 0x64 SWAP1 REVERT JUMPDEST ISZERO PUSH2 0x3531 JUMPI JUMP JUMPDEST PUSH1 0x40 MLOAD PUSH3 0x461BCD PUSH1 0xE5 SHL DUP2 MSTORE PUSH1 0x20 PUSH1 0x4 DUP3 ADD MSTORE PUSH1 0x11 PUSH1 0x24 DUP3 ADD MSTORE PUSH17 0x2737BA1036B7B232B61031B932B0BA37B9 PUSH1 0x79 SHL PUSH1 0x44 DUP3 ADD MSTORE PUSH1 0x64 SWAP1 REVERT JUMPDEST ISZERO PUSH2 0x3571 JUMPI JUMP JUMPDEST PUSH1 0x40 MLOAD PUSH3 0x461BCD PUSH1 0xE5 SHL DUP2 MSTORE PUSH1 0x20 PUSH1 0x4 DUP3 ADD MSTORE PUSH1 0x13 PUSH1 0x24 DUP3 ADD MSTORE PUSH19 0x4D6F64656C206973206E6F7420616374697665 PUSH1 0x68 SHL PUSH1 0x44 DUP3 ADD MSTORE PUSH1 0x64 SWAP1 REVERT JUMPDEST SWAP2 SWAP1 DUP3 SUB SWAP2 DUP3 GT PUSH2 0x49B JUMPI JUMP JUMPDEST PUSH1 0x2 PUSH1 0x1 SLOAD EQ PUSH2 0x35CA JUMPI PUSH1 0x2 PUSH1 0x1 SSTORE JUMP JUMPDEST PUSH1 0x40 MLOAD PUSH4 0x3EE5AEB5 PUSH1 0xE0 SHL DUP2 MSTORE PUSH1 0x4 SWAP1 REVERT JUMPDEST ISZERO PUSH2 0x35E3 JUMPI JUMP JUMPDEST PUSH1 0x40 MLOAD PUSH3 0x461BCD PUSH1 0xE5 SHL DUP2 MSTORE PUSH1 0x20 PUSH1 0x4 DUP3 ADD MSTORE PUSH1 0x16 PUSH1 0x24 DUP3 ADD MSTORE PUSH22 0x14995DD85C99081D1C985B9CD9995C8819985A5B1959 PUSH1 0x52 SHL PUSH1 0x44 DUP3 ADD MSTORE PUSH1 0x64 SWAP1 REVERT JUMPDEST DUP2 ISZERO PUSH2 0x362B JUMPI DIV SWAP1 JUMP JUMPDEST PUSH4 0x4E487B71 PUSH1 0xE0 SHL PUSH1 0x0 MSTORE PUSH1 0x12 PUSH1 0x4 MSTORE PUSH1 0x24 PUSH1 0x0 REVERT JUMPDEST ISZERO PUSH2 0x3648 JUMPI JUMP JUMPDEST PUSH1 0x40 MLOAD PUSH3 0x461BCD PUSH1 0xE5 SHL DUP2 MSTORE PUSH1 0x20 PUSH1 0x4 DUP3 ADD MSTORE PUSH1 0xF PUSH1 0x24 DUP3 ADD MSTORE PUSH15 0x151C985B9CD9995C8819985A5B1959 PUSH1 0x8A SHL PUSH1 0x44 DUP3 ADD MSTORE PUSH1 0x64 SWAP1 REVERT JUMPDEST SWAP2 SWAP1 PUSH2 0x368E PUSH1 0x9 SLOAD DUP5 LT PUSH2 0x34E7 JUMP JUMPDEST DUP1 ISZERO PUSH2 0x3850 JUMPI PUSH1 0x0 SWAP3 DUP1 DUP5 MSTORE PUSH1 0x20 SWAP1 PUSH1 0x2 DUP3 MSTORE PUSH1 0x40 SWAP3 DUP4 DUP7 KECCAK256 SWAP2 PUSH1 0x6 DUP5 MSTORE PUSH1 0x12 DUP6 DUP9 KECCAK256 SWAP4 ADD SWAP3 DUP4 SLOAD ISZERO DUP1 ISZERO PUSH2 0x3847 JUMPI JUMPDEST PUSH2 0x383D JUMPI DUP8 JUMPDEST DUP2 SLOAD DUP2 LT ISZERO PUSH2 0x380D JUMPI PUSH2 0x36D7 DUP2 DUP4 PUSH2 0x2EF1 JUMP JUMPDEST PUSH1 0x1 DUP1 PUSH1 0xA0 SWAP5 SWAP4 SWAP5 SHL SUB DUP1 SWAP4 SLOAD PUSH1 0x3 SWAP3 DUP4 SHL SHR AND SWAP1 DUP6 DUP13 MSTORE PUSH1 0x5 DUP10 MSTORE DUP10 DUP13 KECCAK256 DUP3 DUP14 MSTORE DUP10 MSTORE PUSH1 0xFF DUP11 DUP14 KECCAK256 SWAP2 DUP3 ADD SLOAD AND DUP1 PUSH2 0x3800 JUMPI JUMPDEST PUSH2 0x3721 JUMPI JUMPDEST POP POP PUSH2 0x371C SWAP2 POP PUSH2 0x30F2 JUMP JUMPDEST PUSH2 0x36C4 JUMP JUMPDEST PUSH1 0x1 DUP2 ADD SLOAD DUP1 DUP9 MUL SWAP1 DUP9 DUP3 DIV SUB PUSH2 0x37EC JUMPI SWAP1 PUSH2 0x3741 DUP11 SWAP4 SWAP3 DUP11 SLOAD SWAP1 PUSH2 0x3621 JUMP JUMPDEST SWAP2 PUSH1 0x4 DUP1 SWAP3 ADD PUSH2 0x3752 DUP5 DUP3 SLOAD PUSH2 0x34DA JUMP JUMPDEST SWAP1 SSTORE DUP14 DUP4 PUSH2 0x3763 JUMPI JUMPDEST POP POP POP PUSH2 0x3710 JUMP JUMPDEST PUSH1 0xC SLOAD DUP14 MLOAD PUSH4 0xA9059CBB PUSH1 0xE0 SHL DUP2 MSTORE PUSH1 0x1 PUSH1 0x1 PUSH1 0xA0 SHL SUB SWAP4 SWAP1 SWAP4 AND SWAP4 DUP4 ADD SWAP4 DUP5 MSTORE PUSH1 0x20 DUP5 ADD SWAP5 SWAP1 SWAP5 MSTORE SWAP5 SWAP6 SWAP1 SWAP5 DUP6 SWAP4 SWAP3 DUP5 SWAP1 SUB PUSH1 0x40 ADD SWAP3 DUP5 SWAP3 AND GAS CALL SWAP1 DUP2 ISZERO PUSH2 0x37E2 JUMPI PUSH2 0x371C SWAP3 SWAP2 PUSH2 0x37BB SWAP2 DUP13 SWAP2 PUSH2 0x37C5 JUMPI POP PUSH2 0x35DC JUMP JUMPDEST DUP7 CODESIZE DUP1 DUP1 DUP14 PUSH2 0x375B JUMP JUMPDEST PUSH2 0x37DC SWAP2 POP DUP10 RETURNDATASIZE DUP12 GT PUSH2 0x573 JUMPI PUSH2 0x565 DUP2 DUP4 PUSH2 0x2C8C JUMP JUMPDEST CODESIZE PUSH2 0x53F JUMP JUMPDEST DUP9 MLOAD RETURNDATASIZE DUP13 DUP3 RETURNDATACOPY RETURNDATASIZE SWAP1 REVERT JUMPDEST PUSH4 0x4E487B71 PUSH1 0xE0 SHL DUP14 MSTORE PUSH1 0x11 PUSH1 0x4 MSTORE PUSH1 0x24 DUP14 REVERT JUMPDEST POP PUSH1 0x1 DUP2 ADD SLOAD ISZERO ISZERO PUSH2 0x370B JUMP JUMPDEST POP POP SWAP5 SWAP6 POP SWAP1 POP PUSH32 0x29E98BA00D07F171959C4DDCD2F3020DEBC7C52CF537A034D7E664340D098C6C SWAP3 MLOAD SWAP1 DUP2 MSTORE LOG2 JUMP JUMPDEST POP POP POP POP POP POP SWAP1 POP JUMP JUMPDEST POP DUP1 SLOAD ISZERO PUSH2 0x36BE JUMP JUMPDEST PUSH1 0x40 MLOAD PUSH3 0x461BCD PUSH1 0xE5 SHL DUP2 MSTORE PUSH1 0x20 PUSH1 0x4 DUP3 ADD MSTORE PUSH1 0x18 PUSH1 0x24 DUP3 ADD MSTORE PUSH32 0x4E6F207265776172647320746F20646973747269627574650000000000000000 PUSH1 0x44 DUP3 ADD MSTORE PUSH1 0x64 SWAP1 REVERT INVALID LOG2 PUSH5 0x6970667358 0x22 SLT KECCAK256 CALLCODE 0xBD SSTORE DUP9 SWAP15 0xE1 PUSH9 0xEA225B50A75C1A9662 PUSH3 0x150E3F CREATE2 PUSH14 0xB56DE4D8239B9C1B4BA564736F6C PUSH4 0x43000814 STOP CALLER "},"methodIdentifiers":{"BASE_STAKING_REQUIREMENT()":"61bd84fe","DEFAULT_ADMIN_ROLE()":"a217fddf","MIN_PREDICTIONS_FOR_VALIDATION()":"56d29084","MIN_SUCCESS_RATE()":"fef2803a","MODEL_VALIDATOR_ROLE()":"2bb7245c","ORACLE_ROLE()":"07e2cea5","PERFORMANCE_WINDOW()":"55282902","addRewardPool(uint256,uint256)":"a237df74","authorizeUser(uint256,address)":"1b9b507a","deauthorizeUser(uint256,address)":"e345faff","distributeModelRewards(uint256,uint256)":"462105d9","emergencyDeactivateModel(uint256,string)":"59a7ab56","getModel(uint256)":"6d361694","getModelPerformance(uint256)":"1ab16a74","getModelVersions(uint256)":"c4c7cfda","getModelsByCategory(string)":"56e10029","getModelsByCreator(address)":"408abc9f","getPrediction(uint256,uint256)":"1b0a102c","getPredictionCount(uint256)":"5d45dcf5","getRoleAdmin(bytes32)":"248a9ca3","getUserStake(uint256,address)":"9626a230","globalRewardPool()":"28e12ad2","grantRole(bytes32,address)":"2f2ff15d","hasRole(bytes32,address)":"91d14854","modelCounter()":"cc408b8a","modelPredictions(uint256,uint256)":"d0ef2650","modelStakers(uint256,uint256)":"a6aaed2f","modelStakes(uint256,address)":"f0fa6eec","modelVersions(uint256,uint256)":"7ea67b94","models(uint256)":"6a030ca9","modelsByCategory(string,uint256)":"aa53d3e5","modelsByCreator(address,uint256)":"a81abcb2","registerModel(string,string,string,string,string,string[],bool,uint256)":"5fd6f0e9","renounceRole(bytes32,address)":"36568abe","revokeRole(bytes32,address)":"d547741f","sToken()":"9ebdf12c","stakeOnModel(uint256,uint256)":"4b770454","submitPrediction(uint256,string,uint256,bytes32)":"167519db","supportsInterface(bytes4)":"01ffc9a7","totalModelsStaked()":"95f0b6de","unstakeFromModel(uint256,uint256)":"6f5824a5","updateModel(uint256,string,string,string)":"7ba8ee47","validatePrediction(uint256,uint256,bool,uint256)":"dc68682e"}},"storageLayout":{"storage":[{"astId":27,"contract":"contracts/AIModelRegistry.sol:AIModelRegistry","label":"_roles","offset":0,"slot":"0","type":"t_mapping(t_bytes32,t_struct(RoleData)22_storage)"},{"astId":1512,"contract":"contracts/AIModelRegistry.sol:AIModelRegistry","label":"_status","offset":0,"slot":"1","type":"t_uint256"},{"astId":1719,"contract":"contracts/AIModelRegistry.sol:AIModelRegistry","label":"models","offset":0,"slot":"2","type":"t_mapping(t_uint256,t_struct(AIModel)1671_storage)"},{"astId":1725,"contract":"contracts/AIModelRegistry.sol:AIModelRegistry","label":"modelVersions","offset":0,"slot":"3","type":"t_mapping(t_uint256,t_array(t_struct(ModelVersion)1684_storage)dyn_storage)"},{"astId":1731,"contract":"contracts/AIModelRegistry.sol:AIModelRegistry","label":"modelPredictions","offset":0,"slot":"4","type":"t_mapping(t_uint256,t_array(t_struct(PredictionRecord)1703_storage)dyn_storage)"},{"astId":1738,"contract":"contracts/AIModelRegistry.sol:AIModelRegistry","label":"modelStakes","offset":0,"slot":"5","type":"t_mapping(t_uint256,t_mapping(t_address,t_struct(ModelStake)1714_storage))"},{"astId":1743,"contract":"contracts/AIModelRegistry.sol:AIModelRegistry","label":"modelStakers","offset":0,"slot":"6","type":"t_mapping(t_uint256,t_array(t_address)dyn_storage)"},{"astId":1748,"contract":"contracts/AIModelRegistry.sol:AIModelRegistry","label":"modelsByCategory","offset":0,"slot":"7","type":"t_mapping(t_string_memory_ptr,t_array(t_uint256)dyn_storage)"},{"astId":1753,"contract":"contracts/AIModelRegistry.sol:AIModelRegistry","label":"modelsByCreator","offset":0,"slot":"8","type":"t_mapping(t_address,t_array(t_uint256)dyn_storage)"},{"astId":1755,"contract":"contracts/AIModelRegistry.sol:AIModelRegistry","label":"modelCounter","offset":0,"slot":"9","type":"t_uint256"},{"astId":1757,"contract":"contracts/AIModelRegistry.sol:AIModelRegistry","label":"totalModelsStaked","offset":0,"slot":"10","type":"t_uint256"},{"astId":1759,"contract":"contracts/AIModelRegistry.sol:AIModelRegistry","label":"globalRewardPool","offset":0,"slot":"11","type":"t_uint256"},{"astId":1762,"contract":"contracts/AIModelRegistry.sol:AIModelRegistry","label":"sToken","offset":0,"slot":"12","type":"t_contract(IERC20)1257"}],"types":{"t_address":{"encoding":"inplace","label":"address","numberOfBytes":"20"},"t_array(t_address)dyn_storage":{"base":"t_address","encoding":"dynamic_array","label":"address[]","numberOfBytes":"32"},"t_array(t_string_storage)dyn_storage":{"base":"t_string_storage","encoding":"dynamic_array","label":"string[]","numberOfBytes":"32"},"t_array(t_struct(ModelVersion)1684_storage)dyn_storage":{"base":"t_struct(ModelVersion)1684_storage","encoding":"dynamic_array","label":"struct AIModelRegistry.ModelVersion[]","numberOfBytes":"32"},"t_array(t_struct(PredictionRecord)1703_storage)dyn_storage":{"base":"t_struct(PredictionRecord)1703_storage","encoding":"dynamic_array","label":"struct AIModelRegistry.PredictionRecord[]","numberOfBytes":"32"},"t_array(t_uint256)dyn_storage":{"base":"t_uint256","encoding":"dynamic_array","label":"uint256[]","numberOfBytes":"32"},"t_bool":{"encoding":"inplace","label":"bool","numberOfBytes":"1"},"t_bytes32":{"encoding":"inplace","label":"bytes32","numberOfBytes":"32"},"t_contract(IERC20)1257":{"encoding":"inplace","label":"contract IERC20","numberOfBytes":"20"},"t_mapping(t_address,t_array(t_uint256)dyn_storage)":{"encoding":"mapping","key":"t_address","label":"mapping(address => uint256[])","numberOfBytes":"32","value":"t_array(t_uint256)dyn_storage"},"t_mapping(t_address,t_bool)":{"encoding":"mapping","key":"t_address","label":"mapping(address => bool)","numberOfBytes":"32","value":"t_bool"},"t_mapping(t_address,t_struct(ModelStake)1714_storage)":{"encoding":"mapping","key":"t_address","label":"mapping(address => struct AIModelRegistry.ModelStake)","numberOfBytes":"32","value":"t_struct(ModelStake)1714_storage"},"t_mapping(t_bytes32,t_struct(RoleData)22_storage)":{"encoding":"mapping","key":"t_bytes32","label":"mapping(bytes32 => struct AccessControl.RoleData)","numberOfBytes":"32","value":"t_struct(RoleData)22_storage"},"t_mapping(t_string_memory_ptr,t_array(t_uint256)dyn_storage)":{"encoding":"mapping","key":"t_string_memory_ptr","label":"mapping(string => uint256[])","numberOfBytes":"32","value":"t_array(t_uint256)dyn_storage"},"t_mapping(t_string_memory_ptr,t_uint256)":{"encoding":"mapping","key":"t_string_memory_ptr","label":"mapping(string => uint256)","numberOfBytes":"32","value":"t_uint256"},"t_mapping(t_uint256,t_array(t_address)dyn_storage)":{"encoding":"mapping","key":"t_uint256","label":"mapping(uint256 => address[])","numberOfBytes":"32","value":"t_array(t_address)dyn_storage"},"t_mapping(t_uint256,t_array(t_struct(ModelVersion)1684_storage)dyn_storage)":{"encoding":"mapping","key":"t_uint256","label":"mapping(uint256 => struct AIModelRegistry.ModelVersion[])","numberOfBytes":"32","value":"t_array(t_struct(ModelVersion)1684_storage)dyn_storage"},"t_mapping(t_uint256,t_array(t_struct(PredictionRecord)1703_storage)dyn_storage)":{"encoding":"mapping","key":"t_uint256","label":"mapping(uint256 => struct AIModelRegistry.PredictionRecord[])","numberOfBytes":"32","value":"t_array(t_struct(PredictionRecord)1703_storage)dyn_storage"},"t_mapping(t_uint256,t_mapping(t_address,t_struct(ModelStake)1714_storage))":{"encoding":"mapping","key":"t_uint256","label":"mapping(uint256 => mapping(address => struct AIModelRegistry.ModelStake))","numberOfBytes":"32","value":"t_mapping(t_address,t_struct(ModelStake)1714_storage)"},"t_mapping(t_uint256,t_struct(AIModel)1671_storage)":{"encoding":"mapping","key":"t_uint256","label":"mapping(uint256 => struct AIModelRegistry.AIModel)","numberOfBytes":"32","value":"t_struct(AIModel)1671_storage"},"t_string_memory_ptr":{"encoding":"bytes","label":"string","numberOfBytes":"32"},"t_string_storage":{"encoding":"bytes","label":"string","numberOfBytes":"32"},"t_struct(AIModel)1671_storage":{"encoding":"inplace","label":"struct AIModelRegistry.AIModel","members":[{"astId":1627,"contract":"contracts/AIModelRegistry.sol:AIModelRegistry","label":"name","offset":0,"slot":"0","type":"t_string_storage"},{"astId":1629,"contract":"contracts/AIModelRegistry.sol:AIModelRegistry","label":"version","offset":0,"slot":"1","type":"t_string_storage"},{"astId":1631,"contract":"contracts/AIModelRegistry.sol:AIModelRegistry","label":"description","offset":0,"slot":"2","type":"t_string_storage"},{"astId":1633,"contract":"contracts/AIModelRegistry.sol:AIModelRegistry","label":"creator","offset":0,"slot":"3","type":"t_address"},{"astId":1635,"contract":"contracts/AIModelRegistry.sol:AIModelRegistry","label":"modelHash","offset":0,"slot":"4","type":"t_string_storage"},{"astId":1637,"contract":"contracts/AIModelRegistry.sol:AIModelRegistry","label":"metadataURI","offset":0,"slot":"5","type":"t_string_storage"},{"astId":1639,"contract":"contracts/AIModelRegistry.sol:AIModelRegistry","label":"createdAt","offset":0,"slot":"6","type":"t_uint256"},{"astId":1641,"contract":"contracts/AIModelRegistry.sol:AIModelRegistry","label":"lastUpdated","offset":0,"slot":"7","type":"t_uint256"},{"astId":1643,"contract":"contracts/AIModelRegistry.sol:AIModelRegistry","label":"isActive","offset":0,"slot":"8","type":"t_bool"},{"astId":1645,"contract":"contracts/AIModelRegistry.sol:AIModelRegistry","label":"isPublic","offset":1,"slot":"8","type":"t_bool"},{"astId":1647,"contract":"contracts/AIModelRegistry.sol:AIModelRegistry","label":"usageCount","offset":0,"slot":"9","type":"t_uint256"},{"astId":1649,"contract":"contracts/AIModelRegistry.sol:AIModelRegistry","label":"successRate","offset":0,"slot":"10","type":"t_uint256"},{"astId":1651,"contract":"contracts/AIModelRegistry.sol:AIModelRegistry","label":"totalPredictions","offset":0,"slot":"11","type":"t_uint256"},{"astId":1653,"contract":"contracts/AIModelRegistry.sol:AIModelRegistry","label":"correctPredictions","offset":0,"slot":"12","type":"t_uint256"},{"astId":1655,"contract":"contracts/AIModelRegistry.sol:AIModelRegistry","label":"stakingRequirement","offset":0,"slot":"13","type":"t_uint256"},{"astId":1659,"contract":"contracts/AIModelRegistry.sol:AIModelRegistry","label":"performanceMetrics","offset":0,"slot":"14","type":"t_mapping(t_string_memory_ptr,t_uint256)"},{"astId":1663,"contract":"contracts/AIModelRegistry.sol:AIModelRegistry","label":"authorizedUsers","offset":0,"slot":"15","type":"t_mapping(t_address,t_bool)"},{"astId":1666,"contract":"contracts/AIModelRegistry.sol:AIModelRegistry","label":"categories","offset":0,"slot":"16","type":"t_array(t_string_storage)dyn_storage"},{"astId":1668,"contract":"contracts/AIModelRegistry.sol:AIModelRegistry","label":"rewardPool","offset":0,"slot":"17","type":"t_uint256"},{"astId":1670,"contract":"contracts/AIModelRegistry.sol:AIModelRegistry","label":"totalStaked","offset":0,"slot":"18","type":"t_uint256"}],"numberOfBytes":"608"},"t_struct(ModelStake)1714_storage":{"encoding":"inplace","label":"struct AIModelRegistry.ModelStake","members":[{"astId":1705,"contract":"contracts/AIModelRegistry.sol:AIModelRegistry","label":"staker","offset":0,"slot":"0","type":"t_address"},{"astId":1707,"contract":"contracts/AIModelRegistry.sol:AIModelRegistry","label":"amount","offset":0,"slot":"1","type":"t_uint256"},{"astId":1709,"contract":"contracts/AIModelRegistry.sol:AIModelRegistry","label":"timestamp","offset":0,"slot":"2","type":"t_uint256"},{"astId":1711,"contract":"contracts/AIModelRegistry.sol:AIModelRegistry","label":"active","offset":0,"slot":"3","type":"t_bool"},{"astId":1713,"contract":"contracts/AIModelRegistry.sol:AIModelRegistry","label":"rewards","offset":0,"slot":"4","type":"t_uint256"}],"numberOfBytes":"160"},"t_struct(ModelVersion)1684_storage":{"encoding":"inplace","label":"struct AIModelRegistry.ModelVersion","members":[{"astId":1673,"contract":"contracts/AIModelRegistry.sol:AIModelRegistry","label":"version","offset":0,"slot":"0","type":"t_string_storage"},{"astId":1675,"contract":"contracts/AIModelRegistry.sol:AIModelRegistry","label":"modelHash","offset":0,"slot":"1","type":"t_string_storage"},{"astId":1677,"contract":"contracts/AIModelRegistry.sol:AIModelRegistry","label":"timestamp","offset":0,"slot":"2","type":"t_uint256"},{"astId":1679,"contract":"contracts/AIModelRegistry.sol:AIModelRegistry","label":"changeLog","offset":0,"slot":"3","type":"t_string_storage"},{"astId":1681,"contract":"contracts/AIModelRegistry.sol:AIModelRegistry","label":"deprecated","offset":0,"slot":"4","type":"t_bool"},{"astId":1683,"contract":"contracts/AIModelRegistry.sol:AIModelRegistry","label":"performanceScore","offset":0,"slot":"5","type":"t_uint256"}],"numberOfBytes":"192"},"t_struct(PredictionRecord)1703_storage":{"encoding":"inplace","label":"struct AIModelRegistry.PredictionRecord","members":[{"astId":1686,"contract":"contracts/AIModelRegistry.sol:AIModelRegistry","label":"modelId","offset":0,"slot":"0","type":"t_uint256"},{"astId":1688,"contract":"contracts/AIModelRegistry.sol:AIModelRegistry","label":"predictor","offset":0,"slot":"1","type":"t_address"},{"astId":1690,"contract":"contracts/AIModelRegistry.sol:AIModelRegistry","label":"predictionHash","offset":0,"slot":"2","type":"t_string_storage"},{"astId":1692,"contract":"contracts/AIModelRegistry.sol:AIModelRegistry","label":"timestamp","offset":0,"slot":"3","type":"t_uint256"},{"astId":1694,"contract":"contracts/AIModelRegistry.sol:AIModelRegistry","label":"validated","offset":0,"slot":"4","type":"t_bool"},{"astId":1696,"contract":"contracts/AIModelRegistry.sol:AIModelRegistry","label":"accurate","offset":1,"slot":"4","type":"t_bool"},{"astId":1698,"contract":"contracts/AIModelRegistry.sol:AIModelRegistry","label":"confidenceScore","offset":0,"slot":"5","type":"t_uint256"},{"astId":1700,"contract":"contracts/AIModelRegistry.sol:AIModelRegistry","label":"rewardAmount","offset":0,"slot":"6","type":"t_uint256"},{"astId":1702,"contract":"contracts/AIModelRegistry.sol:AIModelRegistry","label":"evidenceHash","offset":0,"slot":"7","type":"t_bytes32"}],"numberOfBytes":"256"},"t_struct(RoleData)22_storage":{"encoding":"inplace","label":"struct AccessControl.RoleData","members":[{"astId":19,"contract":"contracts/AIModelRegistry.sol:AIModelRegistry","label":"hasRole","offset":0,"slot":"0","type":"t_mapping(t_address,t_bool)"},{"astId":21,"contract":"contracts/AIModelRegistry.sol:AIModelRegistry","label":"adminRole","offset":0,"slot":"1","type":"t_bytes32"}],"numberOfBytes":"64"},"t_uint256":{"encoding":"inplace","label":"uint256","numberOfBytes":"32"}}}}}}