{"contracts/STokenERC20.sol":{"STokenERC20":{"abi":[{"inputs":[{"internalType":"string","name":"name","type":"string"},{"internalType":"string","name":"symbol","type":"string"},{"internalType":"uint256","name":"initialSupply","type":"uint256"},{"internalType":"address","name":"initialOwner","type":"address"}],"stateMutability":"nonpayable","type":"constructor"},{"inputs":[{"internalType":"address","name":"spender","type":"address"},{"internalType":"uint256","name":"allowance","type":"uint256"},{"internalType":"uint256","name":"needed","type":"uint256"}],"name":"ERC20InsufficientAllowance","type":"error"},{"inputs":[{"internalType":"address","name":"sender","type":"address"},{"internalType":"uint256","name":"balance","type":"uint256"},{"internalType":"uint256","name":"needed","type":"uint256"}],"name":"ERC20InsufficientBalance","type":"error"},{"inputs":[{"internalType":"address","name":"approver","type":"address"}],"name":"ERC20InvalidApprover","type":"error"},{"inputs":[{"internalType":"address","name":"receiver","type":"address"}],"name":"ERC20InvalidReceiver","type":"error"},{"inputs":[{"internalType":"address","name":"sender","type":"address"}],"name":"ERC20InvalidSender","type":"error"},{"inputs":[{"internalType":"address","name":"spender","type":"address"}],"name":"ERC20InvalidSpender","type":"error"},{"inputs":[],"name":"EnforcedPause","type":"error"},{"inputs":[],"name":"ExpectedPause","type":"error"},{"inputs":[{"internalType":"address","name":"owner","type":"address"}],"name":"OwnableInvalidOwner","type":"error"},{"inputs":[{"internalType":"address","name":"account","type":"address"}],"name":"OwnableUnauthorizedAccount","type":"error"},{"inputs":[],"name":"ReentrancyGuardReentrantCall","type":"error"},{"anonymous":false,"inputs":[{"indexed":true,"internalType":"address","name":"owner","type":"address"},{"indexed":true,"internalType":"address","name":"spender","type":"address"},{"indexed":false,"internalType":"uint256","name":"value","type":"uint256"}],"name":"Approval","type":"event"},{"anonymous":false,"inputs":[{"indexed":true,"internalType":"address","name":"previousOwner","type":"address"},{"indexed":true,"internalType":"address","name":"newOwner","type":"address"}],"name":"OwnershipTransferred","type":"event"},{"anonymous":false,"inputs":[{"indexed":false,"internalType":"address","name":"account","type":"address"}],"name":"Paused","type":"event"},{"anonymous":false,"inputs":[{"indexed":true,"internalType":"address","name":"user","type":"address"},{"indexed":false,"internalType":"uint256","name":"amount","type":"uint256"},{"indexed":false,"internalType":"string","name":"rewardType","type":"string"}],"name":"RewardsDistributed","type":"event"},{"anonymous":false,"inputs":[{"indexed":true,"internalType":"uint256","name":"tier","type":"uint256"},{"indexed":false,"internalType":"uint256","name":"minAmount","type":"uint256"},{"indexed":false,"internalType":"uint256","name":"multiplier","type":"uint256"}],"name":"StakingTierUpdated","type":"event"},{"anonymous":false,"inputs":[{"indexed":true,"internalType":"address","name":"beneficiary","type":"address"},{"indexed":false,"internalType":"uint256","name":"amount","type":"uint256"}],"name":"TokensReleased","type":"event"},{"anonymous":false,"inputs":[{"indexed":true,"internalType":"address","name":"from","type":"address"},{"indexed":true,"internalType":"address","name":"to","type":"address"},{"indexed":false,"internalType":"uint256","name":"value","type":"uint256"}],"name":"Transfer","type":"event"},{"anonymous":false,"inputs":[{"indexed":false,"internalType":"address","name":"account","type":"address"}],"name":"Unpaused","type":"event"},{"anonymous":false,"inputs":[{"indexed":true,"internalType":"address","name":"user","type":"address"},{"indexed":false,"internalType":"uint256","name":"amount","type":"uint256"},{"indexed":false,"internalType":"uint256","name":"tier","type":"uint256"}],"name":"UserStaked","type":"event"},{"anonymous":false,"inputs":[{"indexed":true,"internalType":"address","name":"user","type":"address"},{"indexed":false,"internalType":"uint256","name":"amount","type":"uint256"}],"name":"UserUnstaked","type":"event"},{"anonymous":false,"inputs":[{"indexed":true,"internalType":"address","name":"beneficiary","type":"address"}],"name":"VestingRevoked","type":"event"},{"anonymous":false,"inputs":[{"indexed":true,"internalType":"address","name":"beneficiary","type":"address"},{"indexed":false,"internalType":"uint256","name":"totalAmount","type":"uint256"},{"indexed":false,"internalType":"uint256","name":"startTime","type":"uint256"}],"name":"VestingScheduleCreated","type":"event"},{"inputs":[],"name":"INITIAL_MINT","outputs":[{"internalType":"uint256","name":"","type":"uint256"}],"stateMutability":"view","type":"function"},{"inputs":[],"name":"MAX_SUPPLY","outputs":[{"internalType":"uint256","name":"","type":"uint256"}],"stateMutability":"view","type":"function"},{"inputs":[{"internalType":"address","name":"_minter","type":"address"}],"name":"addMinter","outputs":[],"stateMutability":"nonpayable","type":"function"},{"inputs":[{"internalType":"address","name":"owner","type":"address"},{"internalType":"address","name":"spender","type":"address"}],"name":"allowance","outputs":[{"internalType":"uint256","name":"","type":"uint256"}],"stateMutability":"view","type":"function"},{"inputs":[{"internalType":"address","name":"spender","type":"address"},{"internalType":"uint256","name":"value","type":"uint256"}],"name":"approve","outputs":[{"internalType":"bool","name":"","type":"bool"}],"stateMutability":"nonpayable","type":"function"},{"inputs":[{"internalType":"address","name":"account","type":"address"}],"name":"balanceOf","outputs":[{"internalType":"uint256","name":"","type":"uint256"}],"stateMutability":"view","type":"function"},{"inputs":[{"internalType":"uint256","name":"value","type":"uint256"}],"name":"burn","outputs":[],"stateMutability":"nonpayable","type":"function"},{"inputs":[{"internalType":"address","name":"account","type":"address"},{"internalType":"uint256","name":"value","type":"uint256"}],"name":"burnFrom","outputs":[],"stateMutability":"nonpayable","type":"function"},{"inputs":[],"name":"burnRate","outputs":[{"internalType":"uint256","name":"","type":"uint256"}],"stateMutability":"view","type":"function"},{"inputs":[{"internalType":"address","name":"_user","type":"address"}],"name":"calculateStakingRewards","outputs":[{"internalType":"uint256","name":"","type":"uint256"}],"stateMutability":"view","type":"function"},{"inputs":[],"name":"claimStakingRewards","outputs":[],"stateMutability":"nonpayable","type":"function"},{"inputs":[{"internalType":"address","name":"_beneficiary","type":"address"},{"internalType":"uint256","name":"_totalAmount","type":"uint256"},{"internalType":"uint256","name":"_cliffDuration","type":"uint256"},{"internalType":"uint256","name":"_vestingDuration","type":"uint256"},{"internalType":"bool","name":"_revocable","type":"bool"}],"name":"createVestingSchedule","outputs":[],"stateMutability":"nonpayable","type":"function"},{"inputs":[],"name":"decimals","outputs":[{"internalType":"uint8","name":"","type":"uint8"}],"stateMutability":"view","type":"function"},{"inputs":[{"internalType":"address","name":"_user","type":"address"},{"internalType":"uint256","name":"_baseAmount","type":"uint256"},{"internalType":"string","name":"_activityType","type":"string"}],"name":"distributeActivityReward","outputs":[],"stateMutability":"nonpayable","type":"function"},{"inputs":[{"internalType":"uint256","name":"_tier","type":"uint256"}],"name":"getStakingTier","outputs":[{"components":[{"internalType":"uint256","name":"minAmount","type":"uint256"},{"internalType":"uint256","name":"multiplier","type":"uint256"},{"internalType":"uint256","name":"lockPeriod","type":"uint256"},{"internalType":"bool","name":"active","type":"bool"}],"internalType":"struct STokenERC20.StakingTier","name":"","type":"tuple"}],"stateMutability":"view","type":"function"},{"inputs":[{"internalType":"address","name":"_user","type":"address"}],"name":"getUserStakeInfo","outputs":[{"components":[{"internalType":"uint256","name":"amount","type":"uint256"},{"internalType":"uint256","name":"tier","type":"uint256"},{"internalType":"uint256","name":"startTime","type":"uint256"},{"internalType":"uint256","name":"lastRewardClaim","type":"uint256"},{"internalType":"uint256","name":"rewardDebt","type":"uint256"},{"internalType":"bool","name":"isLocked","type":"bool"}],"internalType":"struct STokenERC20.UserStakeInfo","name":"","type":"tuple"}],"stateMutability":"view","type":"function"},{"inputs":[{"internalType":"address","name":"_beneficiary","type":"address"}],"name":"getVestedAmount","outputs":[{"internalType":"uint256","name":"","type":"uint256"}],"stateMutability":"view","type":"function"},{"inputs":[{"internalType":"address","name":"_beneficiary","type":"address"}],"name":"getVestingSchedule","outputs":[{"components":[{"internalType":"uint256","name":"totalAmount","type":"uint256"},{"internalType":"uint256","name":"releasedAmount","type":"uint256"},{"internalType":"uint256","name":"startTime","type":"uint256"},{"internalType":"uint256","name":"cliffDuration","type":"uint256"},{"internalType":"uint256","name":"vestingDuration","type":"uint256"},{"internalType":"bool","name":"revocable","type":"bool"},{"internalType":"bool","name":"revoked","type":"bool"}],"internalType":"struct STokenERC20.VestingSchedule","name":"","type":"tuple"}],"stateMutability":"view","type":"function"},{"inputs":[],"name":"knowledgeDAO","outputs":[{"internalType":"address","name":"","type":"address"}],"stateMutability":"view","type":"function"},{"inputs":[{"internalType":"address","name":"to","type":"address"},{"internalType":"uint256","name":"amount","type":"uint256"}],"name":"mint","outputs":[],"stateMutability":"nonpayable","type":"function"},{"inputs":[{"internalType":"address","name":"","type":"address"}],"name":"minters","outputs":[{"internalType":"bool","name":"","type":"bool"}],"stateMutability":"view","type":"function"},{"inputs":[],"name":"name","outputs":[{"internalType":"string","name":"","type":"string"}],"stateMutability":"view","type":"function"},{"inputs":[],"name":"owner","outputs":[{"internalType":"address","name":"","type":"address"}],"stateMutability":"view","type":"function"},{"inputs":[],"name":"pause","outputs":[],"stateMutability":"nonpayable","type":"function"},{"inputs":[],"name":"paused","outputs":[{"internalType":"bool","name":"","type":"bool"}],"stateMutability":"view","type":"function"},{"inputs":[],"name":"releaseVestedTokens","outputs":[],"stateMutability":"nonpayable","type":"function"},{"inputs":[{"internalType":"address","name":"_minter","type":"address"}],"name":"removeMinter","outputs":[],"stateMutability":"nonpayable","type":"function"},{"inputs":[],"name":"renounceOwnership","outputs":[],"stateMutability":"nonpayable","type":"function"},{"inputs":[],"name":"rewardMultipliers","outputs":[{"internalType":"uint256","name":"votingAccuracy","type":"uint256"},{"internalType":"uint256","name":"earlyAdoption","type":"uint256"},{"internalType":"uint256","name":"liquidityProvider","type":"uint256"},{"internalType":"uint256","name":"contentCreation","type":"uint256"},{"internalType":"uint256","name":"communityGov","type":"uint256"}],"stateMutability":"view","type":"function"},{"inputs":[],"name":"rewardPool","outputs":[{"internalType":"address","name":"","type":"address"}],"stateMutability":"view","type":"function"},{"inputs":[],"name":"rewardPoolRate","outputs":[{"internalType":"uint256","name":"","type":"uint256"}],"stateMutability":"view","type":"function"},{"inputs":[{"internalType":"address","name":"_knowledgeDAO","type":"address"}],"name":"setKnowledgeDAO","outputs":[],"stateMutability":"nonpayable","type":"function"},{"inputs":[{"internalType":"uint256","name":"_amount","type":"uint256"},{"internalType":"uint256","name":"_tier","type":"uint256"}],"name":"stake","outputs":[],"stateMutability":"nonpayable","type":"function"},{"inputs":[{"internalType":"address","name":"","type":"address"}],"name":"stakingRewards","outputs":[{"internalType":"uint256","name":"","type":"uint256"}],"stateMutability":"view","type":"function"},{"inputs":[{"internalType":"uint256","name":"","type":"uint256"}],"name":"stakingTiers","outputs":[{"internalType":"uint256","name":"minAmount","type":"uint256"},{"internalType":"uint256","name":"multiplier","type":"uint256"},{"internalType":"uint256","name":"lockPeriod","type":"uint256"},{"internalType":"bool","name":"active","type":"bool"}],"stateMutability":"view","type":"function"},{"inputs":[],"name":"symbol","outputs":[{"internalType":"string","name":"","type":"string"}],"stateMutability":"view","type":"function"},{"inputs":[],"name":"totalFeesCollected","outputs":[{"internalType":"uint256","name":"","type":"uint256"}],"stateMutability":"view","type":"function"},{"inputs":[],"name":"totalSupply","outputs":[{"internalType":"uint256","name":"","type":"uint256"}],"stateMutability":"view","type":"function"},{"inputs":[{"internalType":"address","name":"to","type":"address"},{"internalType":"uint256","name":"value","type":"uint256"}],"name":"transfer","outputs":[{"internalType":"bool","name":"","type":"bool"}],"stateMutability":"nonpayable","type":"function"},{"inputs":[{"internalType":"address","name":"from","type":"address"},{"internalType":"address","name":"to","type":"address"},{"internalType":"uint256","name":"value","type":"uint256"}],"name":"transferFrom","outputs":[{"internalType":"bool","name":"","type":"bool"}],"stateMutability":"nonpayable","type":"function"},{"inputs":[{"internalType":"address","name":"newOwner","type":"address"}],"name":"transferOwnership","outputs":[],"stateMutability":"nonpayable","type":"function"},{"inputs":[],"name":"treasuryRate","outputs":[{"internalType":"uint256","name":"","type":"uint256"}],"stateMutability":"view","type":"function"},{"inputs":[],"name":"treasuryWallet","outputs":[{"internalType":"address","name":"","type":"address"}],"stateMutability":"view","type":"function"},{"inputs":[],"name":"unpause","outputs":[],"stateMutability":"nonpayable","type":"function"},{"inputs":[],"name":"unstake","outputs":[],"stateMutability":"nonpayable","type":"function"},{"inputs":[{"internalType":"uint256","name":"_burnRate","type":"uint256"},{"internalType":"uint256","name":"_rewardPoolRate","type":"uint256"},{"internalType":"uint256","name":"_treasuryRate","type":"uint256"}],"name":"updateFeeRates","outputs":[],"stateMutability":"nonpayable","type":"function"},{"inputs":[{"internalType":"uint256","name":"_votingAccuracy","type":"uint256"},{"internalType":"uint256","name":"_earlyAdoption","type":"uint256"},{"internalType":"uint256","name":"_liquidityProvider","type":"uint256"},{"internalType":"uint256","name":"_contentCreation","type":"uint256"},{"internalType":"uint256","name":"_communityGov","type":"uint256"}],"name":"updateRewardMultipliers","outputs":[],"stateMutability":"nonpayable","type":"function"},{"inputs":[{"internalType":"uint256","name":"_tier","type":"uint256"},{"internalType":"uint256","name":"_minAmount","type":"uint256"},{"internalType":"uint256","name":"_multiplier","type":"uint256"},{"internalType":"uint256","name":"_lockPeriod","type":"uint256"},{"internalType":"bool","name":"_active","type":"bool"}],"name":"updateStakingTier","outputs":[],"stateMutability":"nonpayable","type":"function"},{"inputs":[{"internalType":"address","name":"","type":"address"}],"name":"userStakes","outputs":[{"internalType":"uint256","name":"amount","type":"uint256"},{"internalType":"uint256","name":"tier","type":"uint256"},{"internalType":"uint256","name":"startTime","type":"uint256"},{"internalType":"uint256","name":"lastRewardClaim","type":"uint256"},{"internalType":"uint256","name":"rewardDebt","type":"uint256"},{"internalType":"bool","name":"isLocked","type":"bool"}],"stateMutability":"view","type":"function"},{"inputs":[{"internalType":"address","name":"","type":"address"}],"name":"vestingSchedules","outputs":[{"internalType":"uint256","name":"totalAmount","type":"uint256"},{"internalType":"uint256","name":"releasedAmount","type":"uint256"},{"internalType":"uint256","name":"startTime","type":"uint256"},{"internalType":"uint256","name":"cliffDuration","type":"uint256"},{"internalType":"uint256","name":"vestingDuration","type":"uint256"},{"internalType":"bool","name":"revocable","type":"bool"},{"internalType":"bool","name":"revoked","type":"bool"}],"stateMutability":"view","type":"function"}],"evm":{"bytecode":{"linkReferences":{},"object":"604060808152346200061e5762003230803803806200001e8162000643565b9283398101906080818303126200061e5780516001600160401b0391908281116200061e57836200005191830162000669565b9160209384830151908282116200061e576200006f91840162000669565b926060868401519301519260018060a01b03808516908186036200061e578351948086116200050f576003958654906001968783811c9316801562000613575b8c841014620005fd5781908c601f94858111620005a4575b50508c90848311600114620005315760009262000525575b5050600019828a1b1c191690871b1787555b88519182116200050f5760049889548781811c9116801562000504575b8c821014620004ef57908b82848695941162000494575b50508b9183116001146200042d5760009262000421575b505060001982881b1c191690851b1787555b81156200040a5760058054610100600160a81b03198116600898891b610100600160a81b0316179091559582919087901c167f8be0079c531659141344cd1fd0a4f28419497f9722a3daafe3b4186f6b6457e0600080a38260065560c860125561012c9081601355606460145560ff809616620003fa576002928354818101809111620003e557896000927fddf252ad1be2c89b69c2b068fc378daa952ba7f163c4a11628f55a4df523b3ef9287558484528382528c84208181540190558c51908152a36200021c62000623565b95683635c9adc5dea0000087528488880197606489528a810162093a8081526060820199878b5287600052600f8c528c600020925183555187830155518582015501965115159660ff1997878983541691161790556200027b62000623565b69021e19e0c9bab240000081528589820191607d83528b810162278d008152606082019388855287600052600f8d528d6000209251835551888301555186820155019051151587898354169116179055620002d562000623565b690a968163f0a57b40000081528589820191609683528b81016276a7008152606082019388855283600052600f8d528d6000209251835551888301555186820155019051151587898354169116179055846200033062000623565b6934f086f3b33b68400000815289810160c881528b82019062ed4e0082526060830194888652600052600f8c528c60002092518355518783015551858201550190511515868883541691161790556200038862000623565b9269d3c21bcecceda10000008452878401918252888401916301e133808352600f6060860199838b52600560005252896000209451855551908401555190820155019251151591835416911617905551612b549081620006dc8239f35b601189634e487b7160e01b6000525260246000fd5b885163d93c066560e01b81528790fd5b8851631e4fbdf760e01b8152600081890152602490fd5b0151905038806200013c565b60008b81528c8120899550929190601f198516908e5b8282106200047c575050841162000463575b505050811b0187556200014e565b0151600019838a1b60f8161c1916905538808062000455565b8385015186558b979095019493840193018e62000443565b90919293508b60005283826000209181870160051c8301938710620004e5575b9186958b929594930160051c01915b828110620004d557508d915062000125565b600081558695508a9101620004c3565b92508192620004b4565b60228b634e487b7160e01b6000525260246000fd5b90607f16906200010e565b634e487b7160e01b600052604160045260246000fd5b015190503880620000df565b899350908d918b60005282600020926000601f198616915b82821062000582575050841162000569575b505050811b018755620000f1565b0151600019838c1b60f8161c191690553880806200055b565b91929395968291958786015181550195019301908f918c969594939262000549565b909192508a60005284826000209181860160051c8301938610620005f3575b918b91869594930160051c01915b828110620005e357508e9150620000c7565b600081558594508b9101620005d1565b92508192620005c3565b634e487b7160e01b600052602260045260246000fd5b92607f1692620000af565b600080fd5b60405190608082016001600160401b038111838210176200050f57604052565b6040519190601f01601f191682016001600160401b038111838210176200050f57604052565b919080601f840112156200061e5782516001600160401b0381116200050f576020906200069f601f8201601f1916830162000643565b928184528282870101116200061e5760005b818110620006c757508260009394955001015290565b8581018301518482018401528201620006b156fe608060408181526004908136101561001657600080fd5b600092833560e01c908162b1dba41461184f5750806306fdde031461175a578063095ea7b3146116b05780630f19734f1461151057806318160ddd146114f157806323b872dd146114b45780632a61ff9a1461142d5780632def6620146113165780633092afd5146112d6578063313ce567146112ba57806332cb6b0c14611293578063366d5ada146112745780633f4ba83a1461120a57806340c10f191461113b57806342966c681461111d5780634626402b146110f4578063499d7f96146110bc57806354dd1da414610f1e5780635c975abb14610efa57806360c6d8ae14610edb57806366666aa914610eb25780636b69e05b14610e7157806370a0823114610e3a578063715018a614610dd957806379cc679014610da65780637b0472f014610bc25780637e3d816c14610b815780637e4ae35014610b3c5780638456cb5914610ae15780638da5cb5b14610ab45780638da7ad2314610a4357806392c1a8e21461096b57806395d89b411461084d578063983b2d561461080a5780639f8290631461071d578063a9059cbb146106ec578063b3c6cd7614610658578063bed9985014610639578063c21c6ceb146105d5578063c32d3ae214610504578063ca7df92c146104de578063d47768de146104b8578063d50267ee14610469578063d5a73fdd1461043c578063dd62ed3e146103f3578063e4b72516146103d4578063f2fde38b14610337578063f46eccc4146102f9578063fa578b6c146102cc5763fdb20ccb1461024957600080fd5b346102c85760203660031901126102c85760e09260ff919081906001600160a01b036102736119cd565b1681526007602052208054936001820154926002830154906005600385015493850154940154948151978852602088015286015260608501526080840152818116151560a084015260081c16151560c0820152f35b8280fd5b8382346102f557816003193601126102f55760175490516001600160a01b039091168152602090f35b5080fd5b8382346102f55760203660031901126102f55760209160ff9082906001600160a01b036103246119cd565b1681526008855220541690519015158152f35b5090346102c85760203660031901126102c8576103526119cd565b61035a611afd565b6001600160a01b038181169390929084156103be57505060058054610100600160a81b03198116600893841b610100600160a81b031617909155901c167f8be0079c531659141344cd1fd0a4f28419497f9722a3daafe3b4186f6b6457e08380a380f35b51631e4fbdf760e01b8152908101859052602490fd5b8382346102f557816003193601126102f5576020906014549051908152f35b8382346102f557806003193601126102f557806020926104116119cd565b6104196119e8565b6001600160a01b0391821683526001865283832091168252845220549051908152f35b8382346102f55760203660031901126102f55760209061046261045d6119cd565b611d69565b9051908152f35b5090346102c85760203660031901126102c8576080928291358152600f602052209081549160018101549160ff6003600284015493015416928151948552602085015283015215156060820152f35b8382346102f55760203660031901126102f5576020906104626104d96119cd565b612a30565b8382346102f557816003193601126102f557602090516a52b7d2dcc80cd2e40000008152f35b5090346102c85760203660031901126102c8578160c0936105236119cd565b8160a0845161053181611a4c565b8281528260208201528286820152826060820152826080820152015260018060a01b0316815260106020522082519161056983611a4c565b81549384845260018301546020850190815260028401549082860191825260a060ff600560038801549660608a019788528801549760808a01988952015416960195151586528251968752516020870152519085015251606084015251608083015251151560a0820152f35b50346102c85760a03660031901126102c8576105ef611afd565b5167ffffffffffffffff60a082019182109111176106265735600a55602435600b55604435600c55606435600d55608435600e5580f35b634e487b7160e01b825260419052602490fd5b8382346102f557816003193601126102f5576020906012549051908152f35b5090346102c85760203660031901126102c8578282916080946060845161067e81611a30565b82815282602082015282868201520152358152600f60205220908051906106a482611a30565b825492838352600181015460208401908152606060ff600360028501549486880195865201541694019315158452825194855251602085015251908301525115156060820152f35b8382346102f557806003193601126102f55760209061071661070c6119cd565b6024359033611b2c565b5160018152f35b50346102c85760203660031901126102c8578060e09361073b6119cd565b8160c08451610749816119fe565b82815282602082015282868201528260608201528260808201528260a0820152015260018060a01b03168152600760205220815190610787826119fe565b805493848352600182015493602084019485526002830154818501908152600560038501549360608701948552850154946080870195865201549560ff60c060a0880197828a1615158952019760081c16151587528251978852516020880152519086015251606085015251608084015251151560a083015251151560c0820152f35b8382346102f55760203660031901126102f5576108256119cd565b61082d611afd565b6001600160a01b0316825260086020528120805460ff1916600117905580f35b50823461096857806003193601126109685781519181845492600184811c9181861695861561095e575b602096878510811461094b579087899a92868b999a9b5291826000146109215750506001146108c6575b85886108c2896108b3848a0385611a84565b51928284938452830190611ac9565b0390f35b815286935091907f8a35acfbc15ff81a39ae7d344fd709f28e8600b4aa8c65c6b64bfe7fe36bd19b5b82841061090957505050820101816108b36108c2886108a1565b8054848a0186015288955087949093019281016108ef565b60ff19168882015294151560051b870190940194508593506108b392506108c291508990506108a1565b634e487b7160e01b835260228a52602483fd5b92607f1692610877565b80fd5b5090346102c85760a03660031901126102c8577fdf190c66a25338c14d60d9d2c0393b67bc298b811cf755f4dbf2e03f40c38342903591602435604435610a2a6109b3611aee565b6109bb611afd565b600187101580610a38575b6109cf90611e5b565b60038551916109dd83611a30565b858352602083018581528784019060643582526060850192151583528a8c52600f602052888c209451855551600185015551600284015551151591019060ff801983541691151516179055565b82519182526020820152a280f35b5060058711156109c6565b50346102c85760203660031901126102c85760c09281906001600160a01b03610a6a6119cd565b16815260106020522080549260018201549260028301549060ff600560038601549486015495015416948151968752602087015285015260608401526080830152151560a0820152f35b8382346102f557816003193601126102f557600554905160089190911c6001600160a01b03168152602090f35b8382346102f557816003193601126102f55760207f62e78cea01bee320cd4e420270b5ea74000d11b0c9f74754ebdbfc544b05a25891610b1f611afd565b610b27611e96565b600160ff19600554161760055551338152a180f35b833461096857602036600319011261096857610b566119cd565b610b5e611afd565b60018060a01b03166bffffffffffffffffffffffff60a01b601754161760175580f35b8382346102f557816003193601126102f55760a090600a5490600b5490600c54600d5491600e54938151958652602086015284015260608301526080820152f35b508290346102f557806003193601126102f557823590602435610be3611d33565b610beb611e96565b610bf6831515611ce5565b600181101580610d9b575b610c0a90611e5b565b8084526020600f815260ff600384872001541615610d6757818552600f8152828520548410610d2c573385526010815282852054610cf857610ce5849596610c747f91405db2584f6e8463494f0e18c40f87fe3146322d19c494e8a0e0a039c38869963033611b2c565b600588865192610c8384611a4c565b898452858401878152888501428152606086019042825260808701928584528b60a08901966001885233815260108c522097518855516001880155516002870155516003860155519084015551151591019060ff801983541691151516179055565b82519485528401523392a2600160065580f35b8560649184519162461bcd60e51b8352820152600f60248201526e416c7265616479207374616b696e6760881b6044820152fd5b8560649184519162461bcd60e51b835282015260166024820152752132b637bb9036b4b734b6bab6903337b9103a34b2b960511b6044820152fd5b8560649184519162461bcd60e51b8352820152600f60248201526e54696572206e6f742061637469766560881b6044820152fd5b506005811115610c01565b8382346102f55736600319011261096857610dd6610dc26119cd565b60243590610dd1823383611b82565b611c55565b80f35b8334610968578060031936011261096857610df2611afd565b60058054610100600160a81b03198116909155819060081c6001600160a01b03167f8be0079c531659141344cd1fd0a4f28419497f9722a3daafe3b4186f6b6457e08280a380f35b8382346102f55760203660031901126102f55760209181906001600160a01b03610e626119cd565b16815280845220549051908152f35b8382346102f557816003193601126102f557610ea190610e8f611d33565b33835260106020528220541515611eb4565b610eaa33611ef1565b600160065580f35b8382346102f557816003193601126102f55760165490516001600160a01b039091168152602090f35b8382346102f557816003193601126102f5576020906011549051908152f35b8382346102f557816003193601126102f55760209060ff6005541690519015158152f35b50346102c857826003193601126102c857610f37611d33565b338352602090600782528084208054156110845760ff600582015460081c1661104f57610f6d6002820154600383015490611c6e565b4210611019576001610f7e33611d69565b910190610f8d82548092611d26565b948515610fdf575090610fc3857fc7798891864187665ac6dd119286e44ec13f014527aeeb2b8eb3fd413df93179959493611c6e565b9055610fd0843330611b2c565b519283523392a2600160065580f35b835162461bcd60e51b815290810185905260146024820152734e6f20746f6b656e7320746f2072656c6561736560601b6044820152606490fd5b505162461bcd60e51b815291820152601160248201527010db1a5999881b9bdd081c995858da1959607a1b604482015260649150fd5b505162461bcd60e51b815291820152601060248201526f14d8da19591d5b19481c995d9bdad95960821b604482015260649150fd5b505162461bcd60e51b81529182015260136024820152724e6f2076657374696e67207363686564756c6560681b604482015260649150fd5b8382346102f55760203660031901126102f55760209181906001600160a01b036110e46119cd565b1681526009845220549051908152f35b8382346102f557816003193601126102f55760155490516001600160a01b039091168152602090f35b5050346102f55760203660031901126102f557610dd6903533611c55565b509190346102f557826003193601126102f5576111566119cd565b60243591338452600860205260ff8585205416156111cf576b033b2e3c9fd0803ce800000061118784600254611c6e565b11611197575090610dd691611c91565b606490602086519162461bcd60e51b8352820152601260248201527145786365656473206d617820737570706c7960701b6044820152fd5b606490602086519162461bcd60e51b835282015260156024820152742737ba1030baba3437b934bd32b21036b4b73a32b960591b6044820152fd5b5090346102c857826003193601126102c857611224611afd565b6005549060ff821615611266575060ff1916600555513381527f5db9ee0a495bf2e6ff9c91a7834c1ba4fdd244a5e8aa4e537bd38aeae4b073aa90602090a180f35b8251638dfc202b60e01b8152fd5b8382346102f557816003193601126102f5576020906013549051908152f35b8382346102f557816003193601126102f557602090516b033b2e3c9fd0803ce80000008152f35b8382346102f557816003193601126102f5576020905160128152f35b8382346102f55760203660031901126102f5576112f16119cd565b6112f9611afd565b6001600160a01b0316825260086020528120805460ff1916905580f35b50346102c857826003193601126102c85761132f611d33565b338352602090601082528084209261139684549461134e861515611eb4565b60018101548752600f8552600284882091855161136a81611a30565b83548152600184015488820152606060ff60038587015496878b86015201541615159101520154611c6e565b42106113fd57908460057f668647a3bf871c3ff8779af5157eda0c0d6de3f7af4a3468d3ecc571fc413adb94936113cc33611ef1565b3383526010855282848120918183558160018401558160028401558160038401558201550155610fd0843330611b2c565b82606492519162461bcd60e51b8352820152600c60248201526b14dd1a5b1b081b1bd8dad95960a21b6044820152fd5b5090346102c85760603660031901126102c85780356024359160443593611452611afd565b6103e8611468866114638787611c6e565b611c6e565b1161147b57505060125560135560145580f35b906020606492519162461bcd60e51b835282015260136024820152720a8dee8c2d840cccacae640e8dede40d0d2ced606b1b6044820152fd5b8382346102f55760603660031901126102f5576020906107166114d56119cd565b6114dd6119e8565b604435916114ec833383611b82565b611b2c565b8382346102f557816003193601126102f5576020906002549051908152f35b508290346102f55760a03660031901126102f55761152c6119cd565b90602435611538611aee565b92611541611afd565b6001600160a01b03169283156116775761155c821515611ce5565b838552600760205282852054611642578361161360057f402b9fa52520ce724d8e25ad1521f70484bd3c833f98ed26451d7c96668202039697988651906115a2826119fe565b8682528a60208301818152898401428152606085019160443583528b6080870194606435865260a088019b15158c5260c088019a818c5281526007602052209551865551600186015551600285015551600384015551908201550192511515839060ff801983541691151516179055565b51815461ff00191690151560081b61ff0016179055611633813033611b2c565b8151908152426020820152a280f35b825162461bcd60e51b8152602081880152600f60248201526e5363686564756c652065786973747360881b6044820152606490fd5b825162461bcd60e51b81526020818801526013602482015272496e76616c69642062656e656669636961727960681b6044820152606490fd5b5090346102c857816003193601126102c8576116ca6119cd565b602435903315611743576001600160a01b031691821561172c57508083602095338152600187528181208582528752205582519081527f8c5be1e5ebec7d5bd14f71427d1e84f3dd0314c0f7b2291e5b200ac8c7c3b925843392a35160018152f35b8351634a1406b160e11b8152908101859052602490fd5b835163e602df0560e01b8152808401869052602490fd5b5082346109685780600319360112610968578151918160035492600184811c91818616958615611845575b602096878510811461094b578899509688969785829a52918260001461181e5750506001146117c2575b5050506108c292916108b3910385611a84565b9190869350600383527fc2575a0e9e593c00f959f8c92f12db2869c3395a3b0502d05e2516446f71f85b5b82841061180657505050820101816108b36108c26117af565b8054848a0186015288955087949093019281016117ed565b60ff19168782015293151560051b860190930193508492506108b391506108c290506117af565b92607f1692611785565b91929050346119c95760603660031901126119c95761186c6119cd565b9060443567ffffffffffffffff8082116119c557366023830112156119c557818301359081116119b2578691906118ad601f8201601f191660200187611a84565b80865236602482840101116102c8578060246020930183880137850101526017546001600160a01b0391908216330361196f575060646118f76118ef85612009565b602435611d56565b04906b033b2e3c9fd0803ce800000061191283600254611c6e565b111561191c578580f35b7f4d0fbf7833f858a26f21c7955ed012c260edd1a28f1a258c1034686af726e3fe936119639161194c8486611c91565b865194859485528760208601521695830190611ac9565b0390a238808080808580f35b606490602086519162461bcd60e51b8352820152601b60248201527f4f6e6c79204b6e6f776c656467652044414f2063616e2063616c6c00000000006044820152fd5b634e487b7160e01b875260418352602487fd5b8680fd5b8380fd5b600435906001600160a01b03821682036119e357565b600080fd5b602435906001600160a01b03821682036119e357565b60e0810190811067ffffffffffffffff821117611a1a57604052565b634e487b7160e01b600052604160045260246000fd5b6080810190811067ffffffffffffffff821117611a1a57604052565b60c0810190811067ffffffffffffffff821117611a1a57604052565b6040810190811067ffffffffffffffff821117611a1a57604052565b90601f8019910116810190811067ffffffffffffffff821117611a1a57604052565b60005b838110611ab95750506000910152565b8181015183820152602001611aa9565b90602091611ae281518092818552858086019101611aa6565b601f01601f1916010190565b6084359081151582036119e357565b60055460081c6001600160a01b03163303611b1457565b60405163118cdaa760e01b8152336004820152602490fd5b91906001600160a01b0380841615611b6957811615611b5057611b4e926125b4565b565b60405163ec442f0560e01b815260006004820152602490fd5b604051634b637e8f60e11b815260006004820152602490fd5b9160018060a01b038093169160009383855260016020526040938486209183169182875260205284862054926000198410611bc1575b50505050505050565b848410611c2557508015611c0d578115611bf557855260016020528385209085526020520391205538808080808080611bb8565b8451634a1406b160e11b815260048101879052602490fd5b845163e602df0560e01b815260048101879052602490fd5b8551637dc7a0d960e11b81526001600160a01b039190911660048201526024810184905260448101859052606490fd5b906001600160a01b03821615611b6957611b4e9161215f565b91908201809211611c7b57565b634e487b7160e01b600052601160045260246000fd5b6001600160a01b0316908115611b5057600080516020612aff8339815191526020600092611cbd611e96565b611cc981600254611c6e565b60025584845283825260408420818154019055604051908152a3565b15611cec57565b60405162461bcd60e51b81526020600482015260126024820152710416d6f756e74206d757374206265203e20360741b6044820152606490fd5b91908203918211611c7b57565b600260065414611d44576002600655565b604051633ee5aeb560e01b8152600490fd5b81810292918115918404141715611c7b57565b60018060a01b03166000526007602052604060002060405190611d8b826119fe565b805482526001810154602083015260028101549060408301828152611de36003830154606086019481865260ff600560048701549660808a019788520154818116151560a08a015260081c16151560c0880152611c6e565b4210611e5257611df68151835190611c6e565b421015611e4b57611e2b92611e1a611e12611e24935142611d26565b825190611d26565b9251905190611d26565b9251611d56565b8115611e35570490565b634e487b7160e01b600052601260045260246000fd5b5050505190565b50505050600090565b15611e6257565b60405162461bcd60e51b815260206004820152600c60248201526b24b73b30b634b2103a34b2b960a11b6044820152606490fd5b60ff60055416611ea257565b60405163d93c066560e01b8152600490fd5b15611ebb57565b60405162461bcd60e51b815260206004820152600e60248201526d139bc81cdd185ad948199bdd5b9960921b6044820152606490fd5b60018060a01b038116908160005260106020526040806000206001810154600052600f60205264496cebb800611f79836000208451611f2f81611a30565b81548152606060ff60036001850154946020850195865260028101548a8601520154161515910152611f716003850194611f6a865442611d26565b9054611d56565b905190611d56565b049081611f88575b5050505050565b4290556b033b2e3c9fd0803ce8000000611fa482600254611c6e565b1115611fb1575b80611f81565b6007608092611fe1837f4d0fbf7833f858a26f21c7955ed012c260edd1a28f1a258c1034686af726e3fe96611c91565b8051928352806020840152820152667374616b696e6760c81b6060820152a238808080611fab565b60409081519060209161203883828161202b8183019687815193849201611aa6565b8101038084520182611a84565b519020918051828101906e766f74696e675f616363757261637960881b8252600f815261206481611a68565b519020830361207657505050600a5490565b8051828101906d32b0b9363cafb0b237b83a34b7b760911b8252600e815261209d81611a68565b51902083036120af57505050600b5490565b805182810190713634b8bab4b234ba3cafb83937bb34b232b960711b8252601281526120da81611a68565b51902083036120ec57505050600c5490565b8051828101906f31b7b73a32b73a2fb1b932b0ba34b7b760811b82526010815261211581611a68565b519020830361212757505050600d5490565b51908101906c31b7b6b6bab734ba3cafb3b7bb60991b8252600d815261214c81611a68565b5190201461215957606490565b600e5490565b9091906001600160a01b0380821691908215908115806125ac575b612236575b50612188611e96565b156121c45750600080516020612aff8339815191526020846121af60009596600254611c6e565b6002555b8060025403600255604051908152a3565b92600082815280602052604081205494828610612205575081816040600080516020612aff83398151915294600097988760209652838652039120556121b3565b60405163391434e360e21b81526001600160a01b039190911660048201526024810186905260448101839052606490fd5b30841415806125a3575b80612595575b80612588575b1561217f5794919392612710948561226660125486611d56565b04908661227560135487611d56565b049661228360145487611d56565b049161229d612296846114638b85611c6e565b8097611d26565b916122a6611e96565b85156125285760209495969798996122c084600254611c6e565b6002555b60029284845403845587604095865190815260009d8e938484600080516020612aff833981519152809d8196a3806124c4575b50801515806124b7575b612402575b50505050841515806123f5575b612333575b505050505050505061232e919250601154611c6e565b601155565b6015541696612340611e96565b15612393575090818161232e999a61235c866020979654611c6e565b83555b886123805750508281540390555b51908152a3829138808080808080612318565b888152808652208054840190555061236d565b98858152806020528281205499848b106123c557509082828561232e9b9c89602098979652828852038282205561235f565b835163391434e360e21b81526001600160a01b03919091166004820152602481018b905260448101859052606490fd5b5080601554161515612313565b87856016541694612411611e96565b8d15612459579082916124276020948b54611c6e565b8a555b866124475750508088540388555b8851908152a38a878738612306565b86815280845220818154019055612438565b9193925050528c602052858d2054818110612488576020828f808d958d95878d9452828652038282205561242a565b865163391434e360e21b81526001600160a01b0386166004820152602481019190915260448101829052606490fd5b5084601654161515612301565b6124cc611e96565b8c156124f85783836020836124e389958d54611c6e565b8c555b808c54038c558c51908152a3386122f7565b92915092528c602052858d2054818110612488578d92838b8b60208683978397858752868452038d8620556124e6565b600099858b528a60205260408b20549a848c106125595760408588999a9b9c9d6020998452838a52039120556122c4565b60405163391434e360e21b81526001600160a01b0384166004820152602481018d905260448101869052606490fd5b508060175416151561224c565b508060175416841415612246565b50301515612240565b50600061217a565b6001600160a01b038082169290918315801580612a25575b6126a4575b6125d9611e96565b156126335750600080516020612aff833981519152916020916125fe86600254611c6e565b6002555b16938461261b5780600254036002555b604051908152a3565b84600052600082526040600020818154019055612612565b600090848252816020526040822054908682106126725750918160408760209588600080516020612aff83398151915298965283875203912055612602565b60405163391434e360e21b81526001600160a01b03919091166004820152602481019190915260448101869052606490fd5b3085141580612a19575b80612a0b575b806129fb575b156125d15792909594939161271091826126d660125488611d56565b04836126e460135489611d56565b04936126f260145489611d56565b04918061270d612706856114638987611c6e565b809a611d26565b94612716611e96565b881561299d5761272886600254611c6e565b6002555b1694856129845784600254036002555b6040928351958652600080516020612aff83398151915296888860208099a38061291d575b5080151580612910575b61285b575b508215158061284e575b612794575b5050505050505061232e919250601154611c6e565b60155416956127a1611e96565b156127f35761232e9798506127b882600254611c6e565b6002555b856127dc5781600254036002555b51908152a3829138808080808061277f565b8560005260008352806000208281540190556127ca565b60008581528084528181205499838b1061281e5750818361232e9a9b888452838752039120556127bc565b825163391434e360e21b81526001600160a01b03919091166004820152602481018b905260448101849052606490fd5b508060155416151561277a565b86868684601654169361286c611e96565b8b156128b35761287e81600254611c6e565b6002555b8461289c5780600254036002555b8651908152a338612770565b846000526000825286600020818154019055612890565b925050506000888152808752848120548281106128e1578282878c958b94878e975283865203912055612882565b855163391434e360e21b81526001600160a01b038f166004820152602481019190915260448101839052606490fd5b508160165416151561276b565b612925611e96565b8787878b15612955578361293d600095600254611c6e565b6002555b80600254036002558751908152a338612761565b5050506000888152808752848120548281106128e157878383886000968d958f80985283865203912055612941565b856000526000602052604060002085815401905561273c565b905060008781528060205260408120548681106129cb57906040878594938b8452836020520391205561272c565b60405163391434e360e21b81526001600160a01b038e166004820152602481019190915260448101879052606490fd5b50836017541684841614156126ba565b5083601754168514156126b4565b503084841614156126ae565b5083831615156125cc565b6001600160a01b031660009081526010602052604090819020815191612a5583611a4c565b81549182845260018101549283602086015260028201548386015260ff60056003840154936060880194855260048101546080890152015416151560a086015215611e525764496cebb80093612af3611f7192612afa95600052600f60205284600020606060ff6003885193612aca85611a30565b80548552600181015499602086019a8b5260028201549086015201541615159101525142611d26565b9051611d56565b049056feddf252ad1be2c89b69c2b068fc378daa952ba7f163c4a11628f55a4df523b3efa2646970667358221220a5e13353509991aaa1872e088749a67ece3964de6420acfb858f05ee71da894764736f6c63430008140033","opcodes":"PUSH1 0x40 PUSH1 0x80 DUP2 MSTORE CALLVALUE PUSH3 0x61E JUMPI PUSH3 0x3230 DUP1 CODESIZE SUB DUP1 PUSH3 0x1E DUP2 PUSH3 0x643 JUMP JUMPDEST SWAP3 DUP4 CODECOPY DUP2 ADD SWAP1 PUSH1 0x80 DUP2 DUP4 SUB SLT PUSH3 0x61E JUMPI DUP1 MLOAD PUSH1 0x1 PUSH1 0x1 PUSH1 0x40 SHL SUB SWAP2 SWAP1 DUP3 DUP2 GT PUSH3 0x61E JUMPI DUP4 PUSH3 0x51 SWAP2 DUP4 ADD PUSH3 0x669 JUMP JUMPDEST SWAP2 PUSH1 0x20 SWAP4 DUP5 DUP4 ADD MLOAD SWAP1 DUP3 DUP3 GT PUSH3 0x61E JUMPI PUSH3 0x6F SWAP2 DUP5 ADD PUSH3 0x669 JUMP JUMPDEST SWAP3 PUSH1 0x60 DUP7 DUP5 ADD MLOAD SWAP4 ADD MLOAD SWAP3 PUSH1 0x1 DUP1 PUSH1 0xA0 SHL SUB DUP1 DUP6 AND SWAP1 DUP2 DUP7 SUB PUSH3 0x61E JUMPI DUP4 MLOAD SWAP5 DUP1 DUP7 GT PUSH3 0x50F JUMPI PUSH1 0x3 SWAP6 DUP7 SLOAD SWAP1 PUSH1 0x1 SWAP7 DUP8 DUP4 DUP2 SHR SWAP4 AND DUP1 ISZERO PUSH3 0x613 JUMPI JUMPDEST DUP13 DUP5 LT EQ PUSH3 0x5FD JUMPI DUP2 SWAP1 DUP13 PUSH1 0x1F SWAP5 DUP6 DUP2 GT PUSH3 0x5A4 JUMPI JUMPDEST POP POP DUP13 SWAP1 DUP5 DUP4 GT PUSH1 0x1 EQ PUSH3 0x531 JUMPI PUSH1 0x0 SWAP3 PUSH3 0x525 JUMPI JUMPDEST POP POP PUSH1 0x0 NOT DUP3 DUP11 SHL SHR NOT AND SWAP1 DUP8 SHL OR DUP8 SSTORE JUMPDEST DUP9 MLOAD SWAP2 DUP3 GT PUSH3 0x50F JUMPI PUSH1 0x4 SWAP9 DUP10 SLOAD DUP8 DUP2 DUP2 SHR SWAP2 AND DUP1 ISZERO PUSH3 0x504 JUMPI JUMPDEST DUP13 DUP3 LT EQ PUSH3 0x4EF JUMPI SWAP1 DUP12 DUP3 DUP5 DUP7 SWAP6 SWAP5 GT PUSH3 0x494 JUMPI JUMPDEST POP POP DUP12 SWAP2 DUP4 GT PUSH1 0x1 EQ PUSH3 0x42D JUMPI PUSH1 0x0 SWAP3 PUSH3 0x421 JUMPI JUMPDEST POP POP PUSH1 0x0 NOT DUP3 DUP9 SHL SHR NOT AND SWAP1 DUP6 SHL OR DUP8 SSTORE JUMPDEST DUP2 ISZERO PUSH3 0x40A JUMPI PUSH1 0x5 DUP1 SLOAD PUSH2 0x100 PUSH1 0x1 PUSH1 0xA8 SHL SUB NOT DUP2 AND PUSH1 0x8 SWAP9 DUP10 SHL PUSH2 0x100 PUSH1 0x1 PUSH1 0xA8 SHL SUB AND OR SWAP1 SWAP2 SSTORE SWAP6 DUP3 SWAP2 SWAP1 DUP8 SWAP1 SHR AND PUSH32 0x8BE0079C531659141344CD1FD0A4F28419497F9722A3DAAFE3B4186F6B6457E0 PUSH1 0x0 DUP1 LOG3 DUP3 PUSH1 0x6 SSTORE PUSH1 0xC8 PUSH1 0x12 SSTORE PUSH2 0x12C SWAP1 DUP2 PUSH1 0x13 SSTORE PUSH1 0x64 PUSH1 0x14 SSTORE PUSH1 0xFF DUP1 SWAP7 AND PUSH3 0x3FA JUMPI PUSH1 0x2 SWAP3 DUP4 SLOAD DUP2 DUP2 ADD DUP1 SWAP2 GT PUSH3 0x3E5 JUMPI DUP10 PUSH1 0x0 SWAP3 PUSH32 0xDDF252AD1BE2C89B69C2B068FC378DAA952BA7F163C4A11628F55A4DF523B3EF SWAP3 DUP8 SSTORE DUP5 DUP5 MSTORE DUP4 DUP3 MSTORE DUP13 DUP5 KECCAK256 DUP2 DUP2 SLOAD ADD SWAP1 SSTORE DUP13 MLOAD SWAP1 DUP2 MSTORE LOG3 PUSH3 0x21C PUSH3 0x623 JUMP JUMPDEST SWAP6 PUSH9 0x3635C9ADC5DEA00000 DUP8 MSTORE DUP5 DUP9 DUP9 ADD SWAP8 PUSH1 0x64 DUP10 MSTORE DUP11 DUP2 ADD PUSH3 0x93A80 DUP2 MSTORE PUSH1 0x60 DUP3 ADD SWAP10 DUP8 DUP12 MSTORE DUP8 PUSH1 0x0 MSTORE PUSH1 0xF DUP13 MSTORE DUP13 PUSH1 0x0 KECCAK256 SWAP3 MLOAD DUP4 SSTORE MLOAD DUP8 DUP4 ADD SSTORE MLOAD DUP6 DUP3 ADD SSTORE ADD SWAP7 MLOAD ISZERO ISZERO SWAP7 PUSH1 0xFF NOT SWAP8 DUP8 DUP10 DUP4 SLOAD AND SWAP2 AND OR SWAP1 SSTORE PUSH3 0x27B PUSH3 0x623 JUMP JUMPDEST PUSH10 0x21E19E0C9BAB2400000 DUP2 MSTORE DUP6 DUP10 DUP3 ADD SWAP2 PUSH1 0x7D DUP4 MSTORE DUP12 DUP2 ADD PUSH3 0x278D00 DUP2 MSTORE PUSH1 0x60 DUP3 ADD SWAP4 DUP9 DUP6 MSTORE DUP8 PUSH1 0x0 MSTORE PUSH1 0xF DUP14 MSTORE DUP14 PUSH1 0x0 KECCAK256 SWAP3 MLOAD DUP4 SSTORE MLOAD DUP9 DUP4 ADD SSTORE MLOAD DUP7 DUP3 ADD SSTORE ADD SWAP1 MLOAD ISZERO ISZERO DUP8 DUP10 DUP4 SLOAD AND SWAP2 AND OR SWAP1 SSTORE PUSH3 0x2D5 PUSH3 0x623 JUMP JUMPDEST PUSH10 0xA968163F0A57B400000 DUP2 MSTORE DUP6 DUP10 DUP3 ADD SWAP2 PUSH1 0x96 DUP4 MSTORE DUP12 DUP2 ADD PUSH3 0x76A700 DUP2 MSTORE PUSH1 0x60 DUP3 ADD SWAP4 DUP9 DUP6 MSTORE DUP4 PUSH1 0x0 MSTORE PUSH1 0xF DUP14 MSTORE DUP14 PUSH1 0x0 KECCAK256 SWAP3 MLOAD DUP4 SSTORE MLOAD DUP9 DUP4 ADD SSTORE MLOAD DUP7 DUP3 ADD SSTORE ADD SWAP1 MLOAD ISZERO ISZERO DUP8 DUP10 DUP4 SLOAD AND SWAP2 AND OR SWAP1 SSTORE DUP5 PUSH3 0x330 PUSH3 0x623 JUMP JUMPDEST PUSH10 0x34F086F3B33B68400000 DUP2 MSTORE DUP10 DUP2 ADD PUSH1 0xC8 DUP2 MSTORE DUP12 DUP3 ADD SWAP1 PUSH3 0xED4E00 DUP3 MSTORE PUSH1 0x60 DUP4 ADD SWAP5 DUP9 DUP7 MSTORE PUSH1 0x0 MSTORE PUSH1 0xF DUP13 MSTORE DUP13 PUSH1 0x0 KECCAK256 SWAP3 MLOAD DUP4 SSTORE MLOAD DUP8 DUP4 ADD SSTORE MLOAD DUP6 DUP3 ADD SSTORE ADD SWAP1 MLOAD ISZERO ISZERO DUP7 DUP9 DUP4 SLOAD AND SWAP2 AND OR SWAP1 SSTORE PUSH3 0x388 PUSH3 0x623 JUMP JUMPDEST SWAP3 PUSH10 0xD3C21BCECCEDA1000000 DUP5 MSTORE DUP8 DUP5 ADD SWAP2 DUP3 MSTORE DUP9 DUP5 ADD SWAP2 PUSH4 0x1E13380 DUP4 MSTORE PUSH1 0xF PUSH1 0x60 DUP7 ADD SWAP10 DUP4 DUP12 MSTORE PUSH1 0x5 PUSH1 0x0 MSTORE MSTORE DUP10 PUSH1 0x0 KECCAK256 SWAP5 MLOAD DUP6 SSTORE MLOAD SWAP1 DUP5 ADD SSTORE MLOAD SWAP1 DUP3 ADD SSTORE ADD SWAP3 MLOAD ISZERO ISZERO SWAP2 DUP4 SLOAD AND SWAP2 AND OR SWAP1 SSTORE MLOAD PUSH2 0x2B54 SWAP1 DUP2 PUSH3 0x6DC DUP3 CODECOPY RETURN JUMPDEST PUSH1 0x11 DUP10 PUSH4 0x4E487B71 PUSH1 0xE0 SHL PUSH1 0x0 MSTORE MSTORE PUSH1 0x24 PUSH1 0x0 REVERT JUMPDEST DUP9 MLOAD PUSH4 0xD93C0665 PUSH1 0xE0 SHL DUP2 MSTORE DUP8 SWAP1 REVERT JUMPDEST DUP9 MLOAD PUSH4 0x1E4FBDF7 PUSH1 0xE0 SHL DUP2 MSTORE PUSH1 0x0 DUP2 DUP10 ADD MSTORE PUSH1 0x24 SWAP1 REVERT JUMPDEST ADD MLOAD SWAP1 POP CODESIZE DUP1 PUSH3 0x13C JUMP JUMPDEST PUSH1 0x0 DUP12 DUP2 MSTORE DUP13 DUP2 KECCAK256 DUP10 SWAP6 POP SWAP3 SWAP2 SWAP1 PUSH1 0x1F NOT DUP6 AND SWAP1 DUP15 JUMPDEST DUP3 DUP3 LT PUSH3 0x47C JUMPI POP POP DUP5 GT PUSH3 0x463 JUMPI JUMPDEST POP POP POP DUP2 SHL ADD DUP8 SSTORE PUSH3 0x14E JUMP JUMPDEST ADD MLOAD PUSH1 0x0 NOT DUP4 DUP11 SHL PUSH1 0xF8 AND SHR NOT AND SWAP1 SSTORE CODESIZE DUP1 DUP1 PUSH3 0x455 JUMP JUMPDEST DUP4 DUP6 ADD MLOAD DUP7 SSTORE DUP12 SWAP8 SWAP1 SWAP6 ADD SWAP5 SWAP4 DUP5 ADD SWAP4 ADD DUP15 PUSH3 0x443 JUMP JUMPDEST SWAP1 SWAP2 SWAP3 SWAP4 POP DUP12 PUSH1 0x0 MSTORE DUP4 DUP3 PUSH1 0x0 KECCAK256 SWAP2 DUP2 DUP8 ADD PUSH1 0x5 SHR DUP4 ADD SWAP4 DUP8 LT PUSH3 0x4E5 JUMPI JUMPDEST SWAP2 DUP7 SWAP6 DUP12 SWAP3 SWAP6 SWAP5 SWAP4 ADD PUSH1 0x5 SHR ADD SWAP2 JUMPDEST DUP3 DUP2 LT PUSH3 0x4D5 JUMPI POP DUP14 SWAP2 POP PUSH3 0x125 JUMP JUMPDEST PUSH1 0x0 DUP2 SSTORE DUP7 SWAP6 POP DUP11 SWAP2 ADD PUSH3 0x4C3 JUMP JUMPDEST SWAP3 POP DUP2 SWAP3 PUSH3 0x4B4 JUMP JUMPDEST PUSH1 0x22 DUP12 PUSH4 0x4E487B71 PUSH1 0xE0 SHL PUSH1 0x0 MSTORE MSTORE PUSH1 0x24 PUSH1 0x0 REVERT JUMPDEST SWAP1 PUSH1 0x7F AND SWAP1 PUSH3 0x10E JUMP JUMPDEST PUSH4 0x4E487B71 PUSH1 0xE0 SHL PUSH1 0x0 MSTORE PUSH1 0x41 PUSH1 0x4 MSTORE PUSH1 0x24 PUSH1 0x0 REVERT JUMPDEST ADD MLOAD SWAP1 POP CODESIZE DUP1 PUSH3 0xDF JUMP JUMPDEST DUP10 SWAP4 POP SWAP1 DUP14 SWAP2 DUP12 PUSH1 0x0 MSTORE DUP3 PUSH1 0x0 KECCAK256 SWAP3 PUSH1 0x0 PUSH1 0x1F NOT DUP7 AND SWAP2 JUMPDEST DUP3 DUP3 LT PUSH3 0x582 JUMPI POP POP DUP5 GT PUSH3 0x569 JUMPI JUMPDEST POP POP POP DUP2 SHL ADD DUP8 SSTORE PUSH3 0xF1 JUMP JUMPDEST ADD MLOAD PUSH1 0x0 NOT DUP4 DUP13 SHL PUSH1 0xF8 AND SHR NOT AND SWAP1 SSTORE CODESIZE DUP1 DUP1 PUSH3 0x55B JUMP JUMPDEST SWAP2 SWAP3 SWAP4 SWAP6 SWAP7 DUP3 SWAP2 SWAP6 DUP8 DUP7 ADD MLOAD DUP2 SSTORE ADD SWAP6 ADD SWAP4 ADD SWAP1 DUP16 SWAP2 DUP13 SWAP7 SWAP6 SWAP5 SWAP4 SWAP3 PUSH3 0x549 JUMP JUMPDEST SWAP1 SWAP2 SWAP3 POP DUP11 PUSH1 0x0 MSTORE DUP5 DUP3 PUSH1 0x0 KECCAK256 SWAP2 DUP2 DUP7 ADD PUSH1 0x5 SHR DUP4 ADD SWAP4 DUP7 LT PUSH3 0x5F3 JUMPI JUMPDEST SWAP2 DUP12 SWAP2 DUP7 SWAP6 SWAP5 SWAP4 ADD PUSH1 0x5 SHR ADD SWAP2 JUMPDEST DUP3 DUP2 LT PUSH3 0x5E3 JUMPI POP DUP15 SWAP2 POP PUSH3 0xC7 JUMP JUMPDEST PUSH1 0x0 DUP2 SSTORE DUP6 SWAP5 POP DUP12 SWAP2 ADD PUSH3 0x5D1 JUMP JUMPDEST SWAP3 POP DUP2 SWAP3 PUSH3 0x5C3 JUMP JUMPDEST PUSH4 0x4E487B71 PUSH1 0xE0 SHL PUSH1 0x0 MSTORE PUSH1 0x22 PUSH1 0x4 MSTORE PUSH1 0x24 PUSH1 0x0 REVERT JUMPDEST SWAP3 PUSH1 0x7F AND SWAP3 PUSH3 0xAF JUMP JUMPDEST PUSH1 0x0 DUP1 REVERT JUMPDEST PUSH1 0x40 MLOAD SWAP1 PUSH1 0x80 DUP3 ADD PUSH1 0x1 PUSH1 0x1 PUSH1 0x40 SHL SUB DUP2 GT DUP4 DUP3 LT OR PUSH3 0x50F JUMPI PUSH1 0x40 MSTORE JUMP JUMPDEST PUSH1 0x40 MLOAD SWAP2 SWAP1 PUSH1 0x1F ADD PUSH1 0x1F NOT AND DUP3 ADD PUSH1 0x1 PUSH1 0x1 PUSH1 0x40 SHL SUB DUP2 GT DUP4 DUP3 LT OR PUSH3 0x50F JUMPI PUSH1 0x40 MSTORE JUMP JUMPDEST SWAP2 SWAP1 DUP1 PUSH1 0x1F DUP5 ADD SLT ISZERO PUSH3 0x61E JUMPI DUP3 MLOAD PUSH1 0x1 PUSH1 0x1 PUSH1 0x40 SHL SUB DUP2 GT PUSH3 0x50F JUMPI PUSH1 0x20 SWAP1 PUSH3 0x69F PUSH1 0x1F DUP3 ADD PUSH1 0x1F NOT AND DUP4 ADD PUSH3 0x643 JUMP JUMPDEST SWAP3 DUP2 DUP5 MSTORE DUP3 DUP3 DUP8 ADD ADD GT PUSH3 0x61E JUMPI PUSH1 0x0 JUMPDEST DUP2 DUP2 LT PUSH3 0x6C7 JUMPI POP DUP3 PUSH1 0x0 SWAP4 SWAP5 SWAP6 POP ADD ADD MSTORE SWAP1 JUMP JUMPDEST DUP6 DUP2 ADD DUP4 ADD MLOAD DUP5 DUP3 ADD DUP5 ADD MSTORE DUP3 ADD PUSH3 0x6B1 JUMP INVALID PUSH1 0x80 PUSH1 0x40 DUP2 DUP2 MSTORE PUSH1 0x4 SWAP1 DUP2 CALLDATASIZE LT ISZERO PUSH2 0x16 JUMPI PUSH1 0x0 DUP1 REVERT JUMPDEST PUSH1 0x0 SWAP3 DUP4 CALLDATALOAD PUSH1 0xE0 SHR SWAP1 DUP2 PUSH3 0xB1DBA4 EQ PUSH2 0x184F JUMPI POP DUP1 PUSH4 0x6FDDE03 EQ PUSH2 0x175A JUMPI DUP1 PUSH4 0x95EA7B3 EQ PUSH2 0x16B0 JUMPI DUP1 PUSH4 0xF19734F EQ PUSH2 0x1510 JUMPI DUP1 PUSH4 0x18160DDD EQ PUSH2 0x14F1 JUMPI DUP1 PUSH4 0x23B872DD EQ PUSH2 0x14B4 JUMPI DUP1 PUSH4 0x2A61FF9A EQ PUSH2 0x142D JUMPI DUP1 PUSH4 0x2DEF6620 EQ PUSH2 0x1316 JUMPI DUP1 PUSH4 0x3092AFD5 EQ PUSH2 0x12D6 JUMPI DUP1 PUSH4 0x313CE567 EQ PUSH2 0x12BA JUMPI DUP1 PUSH4 0x32CB6B0C EQ PUSH2 0x1293 JUMPI DUP1 PUSH4 0x366D5ADA EQ PUSH2 0x1274 JUMPI DUP1 PUSH4 0x3F4BA83A EQ PUSH2 0x120A JUMPI DUP1 PUSH4 0x40C10F19 EQ PUSH2 0x113B JUMPI DUP1 PUSH4 0x42966C68 EQ PUSH2 0x111D JUMPI DUP1 PUSH4 0x4626402B EQ PUSH2 0x10F4 JUMPI DUP1 PUSH4 0x499D7F96 EQ PUSH2 0x10BC JUMPI DUP1 PUSH4 0x54DD1DA4 EQ PUSH2 0xF1E JUMPI DUP1 PUSH4 0x5C975ABB EQ PUSH2 0xEFA JUMPI DUP1 PUSH4 0x60C6D8AE EQ PUSH2 0xEDB JUMPI DUP1 PUSH4 0x66666AA9 EQ PUSH2 0xEB2 JUMPI DUP1 PUSH4 0x6B69E05B EQ PUSH2 0xE71 JUMPI DUP1 PUSH4 0x70A08231 EQ PUSH2 0xE3A JUMPI DUP1 PUSH4 0x715018A6 EQ PUSH2 0xDD9 JUMPI DUP1 PUSH4 0x79CC6790 EQ PUSH2 0xDA6 JUMPI DUP1 PUSH4 0x7B0472F0 EQ PUSH2 0xBC2 JUMPI DUP1 PUSH4 0x7E3D816C EQ PUSH2 0xB81 JUMPI DUP1 PUSH4 0x7E4AE350 EQ PUSH2 0xB3C JUMPI DUP1 PUSH4 0x8456CB59 EQ PUSH2 0xAE1 JUMPI DUP1 PUSH4 0x8DA5CB5B EQ PUSH2 0xAB4 JUMPI DUP1 PUSH4 0x8DA7AD23 EQ PUSH2 0xA43 JUMPI DUP1 PUSH4 0x92C1A8E2 EQ PUSH2 0x96B JUMPI DUP1 PUSH4 0x95D89B41 EQ PUSH2 0x84D JUMPI DUP1 PUSH4 0x983B2D56 EQ PUSH2 0x80A JUMPI DUP1 PUSH4 0x9F829063 EQ PUSH2 0x71D JUMPI DUP1 PUSH4 0xA9059CBB EQ PUSH2 0x6EC JUMPI DUP1 PUSH4 0xB3C6CD76 EQ PUSH2 0x658 JUMPI DUP1 PUSH4 0xBED99850 EQ PUSH2 0x639 JUMPI DUP1 PUSH4 0xC21C6CEB EQ PUSH2 0x5D5 JUMPI DUP1 PUSH4 0xC32D3AE2 EQ PUSH2 0x504 JUMPI DUP1 PUSH4 0xCA7DF92C EQ PUSH2 0x4DE JUMPI DUP1 PUSH4 0xD47768DE EQ PUSH2 0x4B8 JUMPI DUP1 PUSH4 0xD50267EE EQ PUSH2 0x469 JUMPI DUP1 PUSH4 0xD5A73FDD EQ PUSH2 0x43C JUMPI DUP1 PUSH4 0xDD62ED3E EQ PUSH2 0x3F3 JUMPI DUP1 PUSH4 0xE4B72516 EQ PUSH2 0x3D4 JUMPI DUP1 PUSH4 0xF2FDE38B EQ PUSH2 0x337 JUMPI DUP1 PUSH4 0xF46ECCC4 EQ PUSH2 0x2F9 JUMPI DUP1 PUSH4 0xFA578B6C EQ PUSH2 0x2CC JUMPI PUSH4 0xFDB20CCB EQ PUSH2 0x249 JUMPI PUSH1 0x0 DUP1 REVERT JUMPDEST CALLVALUE PUSH2 0x2C8 JUMPI PUSH1 0x20 CALLDATASIZE PUSH1 0x3 NOT ADD SLT PUSH2 0x2C8 JUMPI PUSH1 0xE0 SWAP3 PUSH1 0xFF SWAP2 SWAP1 DUP2 SWAP1 PUSH1 0x1 PUSH1 0x1 PUSH1 0xA0 SHL SUB PUSH2 0x273 PUSH2 0x19CD JUMP JUMPDEST AND DUP2 MSTORE PUSH1 0x7 PUSH1 0x20 MSTORE KECCAK256 DUP1 SLOAD SWAP4 PUSH1 0x1 DUP3 ADD SLOAD SWAP3 PUSH1 0x2 DUP4 ADD SLOAD SWAP1 PUSH1 0x5 PUSH1 0x3 DUP6 ADD SLOAD SWAP4 DUP6 ADD SLOAD SWAP5 ADD SLOAD SWAP5 DUP2 MLOAD SWAP8 DUP9 MSTORE PUSH1 0x20 DUP9 ADD MSTORE DUP7 ADD MSTORE PUSH1 0x60 DUP6 ADD MSTORE PUSH1 0x80 DUP5 ADD MSTORE DUP2 DUP2 AND ISZERO ISZERO PUSH1 0xA0 DUP5 ADD MSTORE PUSH1 0x8 SHR AND ISZERO ISZERO PUSH1 0xC0 DUP3 ADD MSTORE RETURN JUMPDEST DUP3 DUP1 REVERT JUMPDEST DUP4 DUP3 CALLVALUE PUSH2 0x2F5 JUMPI DUP2 PUSH1 0x3 NOT CALLDATASIZE ADD SLT PUSH2 0x2F5 JUMPI PUSH1 0x17 SLOAD SWAP1 MLOAD PUSH1 0x1 PUSH1 0x1 PUSH1 0xA0 SHL SUB SWAP1 SWAP2 AND DUP2 MSTORE PUSH1 0x20 SWAP1 RETURN JUMPDEST POP DUP1 REVERT JUMPDEST DUP4 DUP3 CALLVALUE PUSH2 0x2F5 JUMPI PUSH1 0x20 CALLDATASIZE PUSH1 0x3 NOT ADD SLT PUSH2 0x2F5 JUMPI PUSH1 0x20 SWAP2 PUSH1 0xFF SWAP1 DUP3 SWAP1 PUSH1 0x1 PUSH1 0x1 PUSH1 0xA0 SHL SUB PUSH2 0x324 PUSH2 0x19CD JUMP JUMPDEST AND DUP2 MSTORE PUSH1 0x8 DUP6 MSTORE KECCAK256 SLOAD AND SWAP1 MLOAD SWAP1 ISZERO ISZERO DUP2 MSTORE RETURN JUMPDEST POP SWAP1 CALLVALUE PUSH2 0x2C8 JUMPI PUSH1 0x20 CALLDATASIZE PUSH1 0x3 NOT ADD SLT PUSH2 0x2C8 JUMPI PUSH2 0x352 PUSH2 0x19CD JUMP JUMPDEST PUSH2 0x35A PUSH2 0x1AFD JUMP JUMPDEST PUSH1 0x1 PUSH1 0x1 PUSH1 0xA0 SHL SUB DUP2 DUP2 AND SWAP4 SWAP1 SWAP3 SWAP1 DUP5 ISZERO PUSH2 0x3BE JUMPI POP POP PUSH1 0x5 DUP1 SLOAD PUSH2 0x100 PUSH1 0x1 PUSH1 0xA8 SHL SUB NOT DUP2 AND PUSH1 0x8 SWAP4 DUP5 SHL PUSH2 0x100 PUSH1 0x1 PUSH1 0xA8 SHL SUB AND OR SWAP1 SWAP2 SSTORE SWAP1 SHR AND PUSH32 0x8BE0079C531659141344CD1FD0A4F28419497F9722A3DAAFE3B4186F6B6457E0 DUP4 DUP1 LOG3 DUP1 RETURN JUMPDEST MLOAD PUSH4 0x1E4FBDF7 PUSH1 0xE0 SHL DUP2 MSTORE SWAP1 DUP2 ADD DUP6 SWAP1 MSTORE PUSH1 0x24 SWAP1 REVERT JUMPDEST DUP4 DUP3 CALLVALUE PUSH2 0x2F5 JUMPI DUP2 PUSH1 0x3 NOT CALLDATASIZE ADD SLT PUSH2 0x2F5 JUMPI PUSH1 0x20 SWAP1 PUSH1 0x14 SLOAD SWAP1 MLOAD SWAP1 DUP2 MSTORE RETURN JUMPDEST DUP4 DUP3 CALLVALUE PUSH2 0x2F5 JUMPI DUP1 PUSH1 0x3 NOT CALLDATASIZE ADD SLT PUSH2 0x2F5 JUMPI DUP1 PUSH1 0x20 SWAP3 PUSH2 0x411 PUSH2 0x19CD JUMP JUMPDEST PUSH2 0x419 PUSH2 0x19E8 JUMP JUMPDEST PUSH1 0x1 PUSH1 0x1 PUSH1 0xA0 SHL SUB SWAP2 DUP3 AND DUP4 MSTORE PUSH1 0x1 DUP7 MSTORE DUP4 DUP4 KECCAK256 SWAP2 AND DUP3 MSTORE DUP5 MSTORE KECCAK256 SLOAD SWAP1 MLOAD SWAP1 DUP2 MSTORE RETURN JUMPDEST DUP4 DUP3 CALLVALUE PUSH2 0x2F5 JUMPI PUSH1 0x20 CALLDATASIZE PUSH1 0x3 NOT ADD SLT PUSH2 0x2F5 JUMPI PUSH1 0x20 SWAP1 PUSH2 0x462 PUSH2 0x45D PUSH2 0x19CD JUMP JUMPDEST PUSH2 0x1D69 JUMP JUMPDEST SWAP1 MLOAD SWAP1 DUP2 MSTORE RETURN JUMPDEST POP SWAP1 CALLVALUE PUSH2 0x2C8 JUMPI PUSH1 0x20 CALLDATASIZE PUSH1 0x3 NOT ADD SLT PUSH2 0x2C8 JUMPI PUSH1 0x80 SWAP3 DUP3 SWAP2 CALLDATALOAD DUP2 MSTORE PUSH1 0xF PUSH1 0x20 MSTORE KECCAK256 SWAP1 DUP2 SLOAD SWAP2 PUSH1 0x1 DUP2 ADD SLOAD SWAP2 PUSH1 0xFF PUSH1 0x3 PUSH1 0x2 DUP5 ADD SLOAD SWAP4 ADD SLOAD AND SWAP3 DUP2 MLOAD SWAP5 DUP6 MSTORE PUSH1 0x20 DUP6 ADD MSTORE DUP4 ADD MSTORE ISZERO ISZERO PUSH1 0x60 DUP3 ADD MSTORE RETURN JUMPDEST DUP4 DUP3 CALLVALUE PUSH2 0x2F5 JUMPI PUSH1 0x20 CALLDATASIZE PUSH1 0x3 NOT ADD SLT PUSH2 0x2F5 JUMPI PUSH1 0x20 SWAP1 PUSH2 0x462 PUSH2 0x4D9 PUSH2 0x19CD JUMP JUMPDEST PUSH2 0x2A30 JUMP JUMPDEST DUP4 DUP3 CALLVALUE PUSH2 0x2F5 JUMPI DUP2 PUSH1 0x3 NOT CALLDATASIZE ADD SLT PUSH2 0x2F5 JUMPI PUSH1 0x20 SWAP1 MLOAD PUSH11 0x52B7D2DCC80CD2E4000000 DUP2 MSTORE RETURN JUMPDEST POP SWAP1 CALLVALUE PUSH2 0x2C8 JUMPI PUSH1 0x20 CALLDATASIZE PUSH1 0x3 NOT ADD SLT PUSH2 0x2C8 JUMPI DUP2 PUSH1 0xC0 SWAP4 PUSH2 0x523 PUSH2 0x19CD JUMP JUMPDEST DUP2 PUSH1 0xA0 DUP5 MLOAD PUSH2 0x531 DUP2 PUSH2 0x1A4C JUMP JUMPDEST DUP3 DUP2 MSTORE DUP3 PUSH1 0x20 DUP3 ADD MSTORE DUP3 DUP7 DUP3 ADD MSTORE DUP3 PUSH1 0x60 DUP3 ADD MSTORE DUP3 PUSH1 0x80 DUP3 ADD MSTORE ADD MSTORE PUSH1 0x1 DUP1 PUSH1 0xA0 SHL SUB AND DUP2 MSTORE PUSH1 0x10 PUSH1 0x20 MSTORE KECCAK256 DUP3 MLOAD SWAP2 PUSH2 0x569 DUP4 PUSH2 0x1A4C JUMP JUMPDEST DUP2 SLOAD SWAP4 DUP5 DUP5 MSTORE PUSH1 0x1 DUP4 ADD SLOAD PUSH1 0x20 DUP6 ADD SWAP1 DUP2 MSTORE PUSH1 0x2 DUP5 ADD SLOAD SWAP1 DUP3 DUP7 ADD SWAP2 DUP3 MSTORE PUSH1 0xA0 PUSH1 0xFF PUSH1 0x5 PUSH1 0x3 DUP9 ADD SLOAD SWAP7 PUSH1 0x60 DUP11 ADD SWAP8 DUP9 MSTORE DUP9 ADD SLOAD SWAP8 PUSH1 0x80 DUP11 ADD SWAP9 DUP10 MSTORE ADD SLOAD AND SWAP7 ADD SWAP6 ISZERO ISZERO DUP7 MSTORE DUP3 MLOAD SWAP7 DUP8 MSTORE MLOAD PUSH1 0x20 DUP8 ADD MSTORE MLOAD SWAP1 DUP6 ADD MSTORE MLOAD PUSH1 0x60 DUP5 ADD MSTORE MLOAD PUSH1 0x80 DUP4 ADD MSTORE MLOAD ISZERO ISZERO PUSH1 0xA0 DUP3 ADD MSTORE RETURN JUMPDEST POP CALLVALUE PUSH2 0x2C8 JUMPI PUSH1 0xA0 CALLDATASIZE PUSH1 0x3 NOT ADD SLT PUSH2 0x2C8 JUMPI PUSH2 0x5EF PUSH2 0x1AFD JUMP JUMPDEST MLOAD PUSH8 0xFFFFFFFFFFFFFFFF PUSH1 0xA0 DUP3 ADD SWAP2 DUP3 LT SWAP2 GT OR PUSH2 0x626 JUMPI CALLDATALOAD PUSH1 0xA SSTORE PUSH1 0x24 CALLDATALOAD PUSH1 0xB SSTORE PUSH1 0x44 CALLDATALOAD PUSH1 0xC SSTORE PUSH1 0x64 CALLDATALOAD PUSH1 0xD SSTORE PUSH1 0x84 CALLDATALOAD PUSH1 0xE SSTORE DUP1 RETURN JUMPDEST PUSH4 0x4E487B71 PUSH1 0xE0 SHL DUP3 MSTORE PUSH1 0x41 SWAP1 MSTORE PUSH1 0x24 SWAP1 REVERT JUMPDEST DUP4 DUP3 CALLVALUE PUSH2 0x2F5 JUMPI DUP2 PUSH1 0x3 NOT CALLDATASIZE ADD SLT PUSH2 0x2F5 JUMPI PUSH1 0x20 SWAP1 PUSH1 0x12 SLOAD SWAP1 MLOAD SWAP1 DUP2 MSTORE RETURN JUMPDEST POP SWAP1 CALLVALUE PUSH2 0x2C8 JUMPI PUSH1 0x20 CALLDATASIZE PUSH1 0x3 NOT ADD SLT PUSH2 0x2C8 JUMPI DUP3 DUP3 SWAP2 PUSH1 0x80 SWAP5 PUSH1 0x60 DUP5 MLOAD PUSH2 0x67E DUP2 PUSH2 0x1A30 JUMP JUMPDEST DUP3 DUP2 MSTORE DUP3 PUSH1 0x20 DUP3 ADD MSTORE DUP3 DUP7 DUP3 ADD MSTORE ADD MSTORE CALLDATALOAD DUP2 MSTORE PUSH1 0xF PUSH1 0x20 MSTORE KECCAK256 SWAP1 DUP1 MLOAD SWAP1 PUSH2 0x6A4 DUP3 PUSH2 0x1A30 JUMP JUMPDEST DUP3 SLOAD SWAP3 DUP4 DUP4 MSTORE PUSH1 0x1 DUP2 ADD SLOAD PUSH1 0x20 DUP5 ADD SWAP1 DUP2 MSTORE PUSH1 0x60 PUSH1 0xFF PUSH1 0x3 PUSH1 0x2 DUP6 ADD SLOAD SWAP5 DUP7 DUP9 ADD SWAP6 DUP7 MSTORE ADD SLOAD AND SWAP5 ADD SWAP4 ISZERO ISZERO DUP5 MSTORE DUP3 MLOAD SWAP5 DUP6 MSTORE MLOAD PUSH1 0x20 DUP6 ADD MSTORE MLOAD SWAP1 DUP4 ADD MSTORE MLOAD ISZERO ISZERO PUSH1 0x60 DUP3 ADD MSTORE RETURN JUMPDEST DUP4 DUP3 CALLVALUE PUSH2 0x2F5 JUMPI DUP1 PUSH1 0x3 NOT CALLDATASIZE ADD SLT PUSH2 0x2F5 JUMPI PUSH1 0x20 SWAP1 PUSH2 0x716 PUSH2 0x70C PUSH2 0x19CD JUMP JUMPDEST PUSH1 0x24 CALLDATALOAD SWAP1 CALLER PUSH2 0x1B2C JUMP JUMPDEST MLOAD PUSH1 0x1 DUP2 MSTORE RETURN JUMPDEST POP CALLVALUE PUSH2 0x2C8 JUMPI PUSH1 0x20 CALLDATASIZE PUSH1 0x3 NOT ADD SLT PUSH2 0x2C8 JUMPI DUP1 PUSH1 0xE0 SWAP4 PUSH2 0x73B PUSH2 0x19CD JUMP JUMPDEST DUP2 PUSH1 0xC0 DUP5 MLOAD PUSH2 0x749 DUP2 PUSH2 0x19FE JUMP JUMPDEST DUP3 DUP2 MSTORE DUP3 PUSH1 0x20 DUP3 ADD MSTORE DUP3 DUP7 DUP3 ADD MSTORE DUP3 PUSH1 0x60 DUP3 ADD MSTORE DUP3 PUSH1 0x80 DUP3 ADD MSTORE DUP3 PUSH1 0xA0 DUP3 ADD MSTORE ADD MSTORE PUSH1 0x1 DUP1 PUSH1 0xA0 SHL SUB AND DUP2 MSTORE PUSH1 0x7 PUSH1 0x20 MSTORE KECCAK256 DUP2 MLOAD SWAP1 PUSH2 0x787 DUP3 PUSH2 0x19FE JUMP JUMPDEST DUP1 SLOAD SWAP4 DUP5 DUP4 MSTORE PUSH1 0x1 DUP3 ADD SLOAD SWAP4 PUSH1 0x20 DUP5 ADD SWAP5 DUP6 MSTORE PUSH1 0x2 DUP4 ADD SLOAD DUP2 DUP6 ADD SWAP1 DUP2 MSTORE PUSH1 0x5 PUSH1 0x3 DUP6 ADD SLOAD SWAP4 PUSH1 0x60 DUP8 ADD SWAP5 DUP6 MSTORE DUP6 ADD SLOAD SWAP5 PUSH1 0x80 DUP8 ADD SWAP6 DUP7 MSTORE ADD SLOAD SWAP6 PUSH1 0xFF PUSH1 0xC0 PUSH1 0xA0 DUP9 ADD SWAP8 DUP3 DUP11 AND ISZERO ISZERO DUP10 MSTORE ADD SWAP8 PUSH1 0x8 SHR AND ISZERO ISZERO DUP8 MSTORE DUP3 MLOAD SWAP8 DUP9 MSTORE MLOAD PUSH1 0x20 DUP9 ADD MSTORE MLOAD SWAP1 DUP7 ADD MSTORE MLOAD PUSH1 0x60 DUP6 ADD MSTORE MLOAD PUSH1 0x80 DUP5 ADD MSTORE MLOAD ISZERO ISZERO PUSH1 0xA0 DUP4 ADD MSTORE MLOAD ISZERO ISZERO PUSH1 0xC0 DUP3 ADD MSTORE RETURN JUMPDEST DUP4 DUP3 CALLVALUE PUSH2 0x2F5 JUMPI PUSH1 0x20 CALLDATASIZE PUSH1 0x3 NOT ADD SLT PUSH2 0x2F5 JUMPI PUSH2 0x825 PUSH2 0x19CD JUMP JUMPDEST PUSH2 0x82D PUSH2 0x1AFD JUMP JUMPDEST PUSH1 0x1 PUSH1 0x1 PUSH1 0xA0 SHL SUB AND DUP3 MSTORE PUSH1 0x8 PUSH1 0x20 MSTORE DUP2 KECCAK256 DUP1 SLOAD PUSH1 0xFF NOT AND PUSH1 0x1 OR SWAP1 SSTORE DUP1 RETURN JUMPDEST POP DUP3 CALLVALUE PUSH2 0x968 JUMPI DUP1 PUSH1 0x3 NOT CALLDATASIZE ADD SLT PUSH2 0x968 JUMPI DUP2 MLOAD SWAP2 DUP2 DUP5 SLOAD SWAP3 PUSH1 0x1 DUP5 DUP2 SHR SWAP2 DUP2 DUP7 AND SWAP6 DUP7 ISZERO PUSH2 0x95E JUMPI JUMPDEST PUSH1 0x20 SWAP7 DUP8 DUP6 LT DUP2 EQ PUSH2 0x94B JUMPI SWAP1 DUP8 DUP10 SWAP11 SWAP3 DUP7 DUP12 SWAP10 SWAP11 SWAP12 MSTORE SWAP2 DUP3 PUSH1 0x0 EQ PUSH2 0x921 JUMPI POP POP PUSH1 0x1 EQ PUSH2 0x8C6 JUMPI JUMPDEST DUP6 DUP9 PUSH2 0x8C2 DUP10 PUSH2 0x8B3 DUP5 DUP11 SUB DUP6 PUSH2 0x1A84 JUMP JUMPDEST MLOAD SWAP3 DUP3 DUP5 SWAP4 DUP5 MSTORE DUP4 ADD SWAP1 PUSH2 0x1AC9 JUMP JUMPDEST SUB SWAP1 RETURN JUMPDEST DUP2 MSTORE DUP7 SWAP4 POP SWAP2 SWAP1 PUSH32 0x8A35ACFBC15FF81A39AE7D344FD709F28E8600B4AA8C65C6B64BFE7FE36BD19B JUMPDEST DUP3 DUP5 LT PUSH2 0x909 JUMPI POP POP POP DUP3 ADD ADD DUP2 PUSH2 0x8B3 PUSH2 0x8C2 DUP9 PUSH2 0x8A1 JUMP JUMPDEST DUP1 SLOAD DUP5 DUP11 ADD DUP7 ADD MSTORE DUP9 SWAP6 POP DUP8 SWAP5 SWAP1 SWAP4 ADD SWAP3 DUP2 ADD PUSH2 0x8EF JUMP JUMPDEST PUSH1 0xFF NOT AND DUP9 DUP3 ADD MSTORE SWAP5 ISZERO ISZERO PUSH1 0x5 SHL DUP8 ADD SWAP1 SWAP5 ADD SWAP5 POP DUP6 SWAP4 POP PUSH2 0x8B3 SWAP3 POP PUSH2 0x8C2 SWAP2 POP DUP10 SWAP1 POP PUSH2 0x8A1 JUMP JUMPDEST PUSH4 0x4E487B71 PUSH1 0xE0 SHL DUP4 MSTORE PUSH1 0x22 DUP11 MSTORE PUSH1 0x24 DUP4 REVERT JUMPDEST SWAP3 PUSH1 0x7F AND SWAP3 PUSH2 0x877 JUMP JUMPDEST DUP1 REVERT JUMPDEST POP SWAP1 CALLVALUE PUSH2 0x2C8 JUMPI PUSH1 0xA0 CALLDATASIZE PUSH1 0x3 NOT ADD SLT PUSH2 0x2C8 JUMPI PUSH32 0xDF190C66A25338C14D60D9D2C0393B67BC298B811CF755F4DBF2E03F40C38342 SWAP1 CALLDATALOAD SWAP2 PUSH1 0x24 CALLDATALOAD PUSH1 0x44 CALLDATALOAD PUSH2 0xA2A PUSH2 0x9B3 PUSH2 0x1AEE JUMP JUMPDEST PUSH2 0x9BB PUSH2 0x1AFD JUMP JUMPDEST PUSH1 0x1 DUP8 LT ISZERO DUP1 PUSH2 0xA38 JUMPI JUMPDEST PUSH2 0x9CF SWAP1 PUSH2 0x1E5B JUMP JUMPDEST PUSH1 0x3 DUP6 MLOAD SWAP2 PUSH2 0x9DD DUP4 PUSH2 0x1A30 JUMP JUMPDEST DUP6 DUP4 MSTORE PUSH1 0x20 DUP4 ADD DUP6 DUP2 MSTORE DUP8 DUP5 ADD SWAP1 PUSH1 0x64 CALLDATALOAD DUP3 MSTORE PUSH1 0x60 DUP6 ADD SWAP3 ISZERO ISZERO DUP4 MSTORE DUP11 DUP13 MSTORE PUSH1 0xF PUSH1 0x20 MSTORE DUP9 DUP13 KECCAK256 SWAP5 MLOAD DUP6 SSTORE MLOAD PUSH1 0x1 DUP6 ADD SSTORE MLOAD PUSH1 0x2 DUP5 ADD SSTORE MLOAD ISZERO ISZERO SWAP2 ADD SWAP1 PUSH1 0xFF DUP1 NOT DUP4 SLOAD AND SWAP2 ISZERO ISZERO AND OR SWAP1 SSTORE JUMP JUMPDEST DUP3 MLOAD SWAP2 DUP3 MSTORE PUSH1 0x20 DUP3 ADD MSTORE LOG2 DUP1 RETURN JUMPDEST POP PUSH1 0x5 DUP8 GT ISZERO PUSH2 0x9C6 JUMP JUMPDEST POP CALLVALUE PUSH2 0x2C8 JUMPI PUSH1 0x20 CALLDATASIZE PUSH1 0x3 NOT ADD SLT PUSH2 0x2C8 JUMPI PUSH1 0xC0 SWAP3 DUP2 SWAP1 PUSH1 0x1 PUSH1 0x1 PUSH1 0xA0 SHL SUB PUSH2 0xA6A PUSH2 0x19CD JUMP JUMPDEST AND DUP2 MSTORE PUSH1 0x10 PUSH1 0x20 MSTORE KECCAK256 DUP1 SLOAD SWAP3 PUSH1 0x1 DUP3 ADD SLOAD SWAP3 PUSH1 0x2 DUP4 ADD SLOAD SWAP1 PUSH1 0xFF PUSH1 0x5 PUSH1 0x3 DUP7 ADD SLOAD SWAP5 DUP7 ADD SLOAD SWAP6 ADD SLOAD AND SWAP5 DUP2 MLOAD SWAP7 DUP8 MSTORE PUSH1 0x20 DUP8 ADD MSTORE DUP6 ADD MSTORE PUSH1 0x60 DUP5 ADD MSTORE PUSH1 0x80 DUP4 ADD MSTORE ISZERO ISZERO PUSH1 0xA0 DUP3 ADD MSTORE RETURN JUMPDEST DUP4 DUP3 CALLVALUE PUSH2 0x2F5 JUMPI DUP2 PUSH1 0x3 NOT CALLDATASIZE ADD SLT PUSH2 0x2F5 JUMPI PUSH1 0x5 SLOAD SWAP1 MLOAD PUSH1 0x8 SWAP2 SWAP1 SWAP2 SHR PUSH1 0x1 PUSH1 0x1 PUSH1 0xA0 SHL SUB AND DUP2 MSTORE PUSH1 0x20 SWAP1 RETURN JUMPDEST DUP4 DUP3 CALLVALUE PUSH2 0x2F5 JUMPI DUP2 PUSH1 0x3 NOT CALLDATASIZE ADD SLT PUSH2 0x2F5 JUMPI PUSH1 0x20 PUSH32 0x62E78CEA01BEE320CD4E420270B5EA74000D11B0C9F74754EBDBFC544B05A258 SWAP2 PUSH2 0xB1F PUSH2 0x1AFD JUMP JUMPDEST PUSH2 0xB27 PUSH2 0x1E96 JUMP JUMPDEST PUSH1 0x1 PUSH1 0xFF NOT PUSH1 0x5 SLOAD AND OR PUSH1 0x5 SSTORE MLOAD CALLER DUP2 MSTORE LOG1 DUP1 RETURN JUMPDEST DUP4 CALLVALUE PUSH2 0x968 JUMPI PUSH1 0x20 CALLDATASIZE PUSH1 0x3 NOT ADD SLT PUSH2 0x968 JUMPI PUSH2 0xB56 PUSH2 0x19CD JUMP JUMPDEST PUSH2 0xB5E PUSH2 0x1AFD JUMP JUMPDEST PUSH1 0x1 DUP1 PUSH1 0xA0 SHL SUB AND PUSH12 0xFFFFFFFFFFFFFFFFFFFFFFFF PUSH1 0xA0 SHL PUSH1 0x17 SLOAD AND OR PUSH1 0x17 SSTORE DUP1 RETURN JUMPDEST DUP4 DUP3 CALLVALUE PUSH2 0x2F5 JUMPI DUP2 PUSH1 0x3 NOT CALLDATASIZE ADD SLT PUSH2 0x2F5 JUMPI PUSH1 0xA0 SWAP1 PUSH1 0xA SLOAD SWAP1 PUSH1 0xB SLOAD SWAP1 PUSH1 0xC SLOAD PUSH1 0xD SLOAD SWAP2 PUSH1 0xE SLOAD SWAP4 DUP2 MLOAD SWAP6 DUP7 MSTORE PUSH1 0x20 DUP7 ADD MSTORE DUP5 ADD MSTORE PUSH1 0x60 DUP4 ADD MSTORE PUSH1 0x80 DUP3 ADD MSTORE RETURN JUMPDEST POP DUP3 SWAP1 CALLVALUE PUSH2 0x2F5 JUMPI DUP1 PUSH1 0x3 NOT CALLDATASIZE ADD SLT PUSH2 0x2F5 JUMPI DUP3 CALLDATALOAD SWAP1 PUSH1 0x24 CALLDATALOAD PUSH2 0xBE3 PUSH2 0x1D33 JUMP JUMPDEST PUSH2 0xBEB PUSH2 0x1E96 JUMP JUMPDEST PUSH2 0xBF6 DUP4 ISZERO ISZERO PUSH2 0x1CE5 JUMP JUMPDEST PUSH1 0x1 DUP2 LT ISZERO DUP1 PUSH2 0xD9B JUMPI JUMPDEST PUSH2 0xC0A SWAP1 PUSH2 0x1E5B JUMP JUMPDEST DUP1 DUP5 MSTORE PUSH1 0x20 PUSH1 0xF DUP2 MSTORE PUSH1 0xFF PUSH1 0x3 DUP5 DUP8 KECCAK256 ADD SLOAD AND ISZERO PUSH2 0xD67 JUMPI DUP2 DUP6 MSTORE PUSH1 0xF DUP2 MSTORE DUP3 DUP6 KECCAK256 SLOAD DUP5 LT PUSH2 0xD2C JUMPI CALLER DUP6 MSTORE PUSH1 0x10 DUP2 MSTORE DUP3 DUP6 KECCAK256 SLOAD PUSH2 0xCF8 JUMPI PUSH2 0xCE5 DUP5 SWAP6 SWAP7 PUSH2 0xC74 PUSH32 0x91405DB2584F6E8463494F0E18C40F87FE3146322D19C494E8A0E0A039C38869 SWAP7 ADDRESS CALLER PUSH2 0x1B2C JUMP JUMPDEST PUSH1 0x5 DUP9 DUP7 MLOAD SWAP3 PUSH2 0xC83 DUP5 PUSH2 0x1A4C JUMP JUMPDEST DUP10 DUP5 MSTORE DUP6 DUP5 ADD DUP8 DUP2 MSTORE DUP9 DUP6 ADD TIMESTAMP DUP2 MSTORE PUSH1 0x60 DUP7 ADD SWAP1 TIMESTAMP DUP3 MSTORE PUSH1 0x80 DUP8 ADD SWAP3 DUP6 DUP5 MSTORE DUP12 PUSH1 0xA0 DUP10 ADD SWAP7 PUSH1 0x1 DUP9 MSTORE CALLER DUP2 MSTORE PUSH1 0x10 DUP13 MSTORE KECCAK256 SWAP8 MLOAD DUP9 SSTORE MLOAD PUSH1 0x1 DUP9 ADD SSTORE MLOAD PUSH1 0x2 DUP8 ADD SSTORE MLOAD PUSH1 0x3 DUP7 ADD SSTORE MLOAD SWAP1 DUP5 ADD SSTORE MLOAD ISZERO ISZERO SWAP2 ADD SWAP1 PUSH1 0xFF DUP1 NOT DUP4 SLOAD AND SWAP2 ISZERO ISZERO AND OR SWAP1 SSTORE JUMP JUMPDEST DUP3 MLOAD SWAP5 DUP6 MSTORE DUP5 ADD MSTORE CALLER SWAP3 LOG2 PUSH1 0x1 PUSH1 0x6 SSTORE DUP1 RETURN JUMPDEST DUP6 PUSH1 0x64 SWAP2 DUP5 MLOAD SWAP2 PUSH3 0x461BCD PUSH1 0xE5 SHL DUP4 MSTORE DUP3 ADD MSTORE PUSH1 0xF PUSH1 0x24 DUP3 ADD MSTORE PUSH15 0x416C7265616479207374616B696E67 PUSH1 0x88 SHL PUSH1 0x44 DUP3 ADD MSTORE REVERT JUMPDEST DUP6 PUSH1 0x64 SWAP2 DUP5 MLOAD SWAP2 PUSH3 0x461BCD PUSH1 0xE5 SHL DUP4 MSTORE DUP3 ADD MSTORE PUSH1 0x16 PUSH1 0x24 DUP3 ADD MSTORE PUSH22 0x2132B637BB9036B4B734B6BAB6903337B9103A34B2B9 PUSH1 0x51 SHL PUSH1 0x44 DUP3 ADD MSTORE REVERT JUMPDEST DUP6 PUSH1 0x64 SWAP2 DUP5 MLOAD SWAP2 PUSH3 0x461BCD PUSH1 0xE5 SHL DUP4 MSTORE DUP3 ADD MSTORE PUSH1 0xF PUSH1 0x24 DUP3 ADD MSTORE PUSH15 0x54696572206E6F7420616374697665 PUSH1 0x88 SHL PUSH1 0x44 DUP3 ADD MSTORE REVERT JUMPDEST POP PUSH1 0x5 DUP2 GT ISZERO PUSH2 0xC01 JUMP JUMPDEST DUP4 DUP3 CALLVALUE PUSH2 0x2F5 JUMPI CALLDATASIZE PUSH1 0x3 NOT ADD SLT PUSH2 0x968 JUMPI PUSH2 0xDD6 PUSH2 0xDC2 PUSH2 0x19CD JUMP JUMPDEST PUSH1 0x24 CALLDATALOAD SWAP1 PUSH2 0xDD1 DUP3 CALLER DUP4 PUSH2 0x1B82 JUMP JUMPDEST PUSH2 0x1C55 JUMP JUMPDEST DUP1 RETURN JUMPDEST DUP4 CALLVALUE PUSH2 0x968 JUMPI DUP1 PUSH1 0x3 NOT CALLDATASIZE ADD SLT PUSH2 0x968 JUMPI PUSH2 0xDF2 PUSH2 0x1AFD JUMP JUMPDEST PUSH1 0x5 DUP1 SLOAD PUSH2 0x100 PUSH1 0x1 PUSH1 0xA8 SHL SUB NOT DUP2 AND SWAP1 SWAP2 SSTORE DUP2 SWAP1 PUSH1 0x8 SHR PUSH1 0x1 PUSH1 0x1 PUSH1 0xA0 SHL SUB AND PUSH32 0x8BE0079C531659141344CD1FD0A4F28419497F9722A3DAAFE3B4186F6B6457E0 DUP3 DUP1 LOG3 DUP1 RETURN JUMPDEST DUP4 DUP3 CALLVALUE PUSH2 0x2F5 JUMPI PUSH1 0x20 CALLDATASIZE PUSH1 0x3 NOT ADD SLT PUSH2 0x2F5 JUMPI PUSH1 0x20 SWAP2 DUP2 SWAP1 PUSH1 0x1 PUSH1 0x1 PUSH1 0xA0 SHL SUB PUSH2 0xE62 PUSH2 0x19CD JUMP JUMPDEST AND DUP2 MSTORE DUP1 DUP5 MSTORE KECCAK256 SLOAD SWAP1 MLOAD SWAP1 DUP2 MSTORE RETURN JUMPDEST DUP4 DUP3 CALLVALUE PUSH2 0x2F5 JUMPI DUP2 PUSH1 0x3 NOT CALLDATASIZE ADD SLT PUSH2 0x2F5 JUMPI PUSH2 0xEA1 SWAP1 PUSH2 0xE8F PUSH2 0x1D33 JUMP JUMPDEST CALLER DUP4 MSTORE PUSH1 0x10 PUSH1 0x20 MSTORE DUP3 KECCAK256 SLOAD ISZERO ISZERO PUSH2 0x1EB4 JUMP JUMPDEST PUSH2 0xEAA CALLER PUSH2 0x1EF1 JUMP JUMPDEST PUSH1 0x1 PUSH1 0x6 SSTORE DUP1 RETURN JUMPDEST DUP4 DUP3 CALLVALUE PUSH2 0x2F5 JUMPI DUP2 PUSH1 0x3 NOT CALLDATASIZE ADD SLT PUSH2 0x2F5 JUMPI PUSH1 0x16 SLOAD SWAP1 MLOAD PUSH1 0x1 PUSH1 0x1 PUSH1 0xA0 SHL SUB SWAP1 SWAP2 AND DUP2 MSTORE PUSH1 0x20 SWAP1 RETURN JUMPDEST DUP4 DUP3 CALLVALUE PUSH2 0x2F5 JUMPI DUP2 PUSH1 0x3 NOT CALLDATASIZE ADD SLT PUSH2 0x2F5 JUMPI PUSH1 0x20 SWAP1 PUSH1 0x11 SLOAD SWAP1 MLOAD SWAP1 DUP2 MSTORE RETURN JUMPDEST DUP4 DUP3 CALLVALUE PUSH2 0x2F5 JUMPI DUP2 PUSH1 0x3 NOT CALLDATASIZE ADD SLT PUSH2 0x2F5 JUMPI PUSH1 0x20 SWAP1 PUSH1 0xFF PUSH1 0x5 SLOAD AND SWAP1 MLOAD SWAP1 ISZERO ISZERO DUP2 MSTORE RETURN JUMPDEST POP CALLVALUE PUSH2 0x2C8 JUMPI DUP3 PUSH1 0x3 NOT CALLDATASIZE ADD SLT PUSH2 0x2C8 JUMPI PUSH2 0xF37 PUSH2 0x1D33 JUMP JUMPDEST CALLER DUP4 MSTORE PUSH1 0x20 SWAP1 PUSH1 0x7 DUP3 MSTORE DUP1 DUP5 KECCAK256 DUP1 SLOAD ISZERO PUSH2 0x1084 JUMPI PUSH1 0xFF PUSH1 0x5 DUP3 ADD SLOAD PUSH1 0x8 SHR AND PUSH2 0x104F JUMPI PUSH2 0xF6D PUSH1 0x2 DUP3 ADD SLOAD PUSH1 0x3 DUP4 ADD SLOAD SWAP1 PUSH2 0x1C6E JUMP JUMPDEST TIMESTAMP LT PUSH2 0x1019 JUMPI PUSH1 0x1 PUSH2 0xF7E CALLER PUSH2 0x1D69 JUMP JUMPDEST SWAP2 ADD SWAP1 PUSH2 0xF8D DUP3 SLOAD DUP1 SWAP3 PUSH2 0x1D26 JUMP JUMPDEST SWAP5 DUP6 ISZERO PUSH2 0xFDF JUMPI POP SWAP1 PUSH2 0xFC3 DUP6 PUSH32 0xC7798891864187665AC6DD119286E44EC13F014527AEEB2B8EB3FD413DF93179 SWAP6 SWAP5 SWAP4 PUSH2 0x1C6E JUMP JUMPDEST SWAP1 SSTORE PUSH2 0xFD0 DUP5 CALLER ADDRESS PUSH2 0x1B2C JUMP JUMPDEST MLOAD SWAP3 DUP4 MSTORE CALLER SWAP3 LOG2 PUSH1 0x1 PUSH1 0x6 SSTORE DUP1 RETURN JUMPDEST DUP4 MLOAD PUSH3 0x461BCD PUSH1 0xE5 SHL DUP2 MSTORE SWAP1 DUP2 ADD DUP6 SWAP1 MSTORE PUSH1 0x14 PUSH1 0x24 DUP3 ADD MSTORE PUSH20 0x4E6F20746F6B656E7320746F2072656C65617365 PUSH1 0x60 SHL PUSH1 0x44 DUP3 ADD MSTORE PUSH1 0x64 SWAP1 REVERT JUMPDEST POP MLOAD PUSH3 0x461BCD PUSH1 0xE5 SHL DUP2 MSTORE SWAP2 DUP3 ADD MSTORE PUSH1 0x11 PUSH1 0x24 DUP3 ADD MSTORE PUSH17 0x10DB1A5999881B9BDD081C995858DA1959 PUSH1 0x7A SHL PUSH1 0x44 DUP3 ADD MSTORE PUSH1 0x64 SWAP2 POP REVERT JUMPDEST POP MLOAD PUSH3 0x461BCD PUSH1 0xE5 SHL DUP2 MSTORE SWAP2 DUP3 ADD MSTORE PUSH1 0x10 PUSH1 0x24 DUP3 ADD MSTORE PUSH16 0x14D8DA19591D5B19481C995D9BDAD959 PUSH1 0x82 SHL PUSH1 0x44 DUP3 ADD MSTORE PUSH1 0x64 SWAP2 POP REVERT JUMPDEST POP MLOAD PUSH3 0x461BCD PUSH1 0xE5 SHL DUP2 MSTORE SWAP2 DUP3 ADD MSTORE PUSH1 0x13 PUSH1 0x24 DUP3 ADD MSTORE PUSH19 0x4E6F2076657374696E67207363686564756C65 PUSH1 0x68 SHL PUSH1 0x44 DUP3 ADD MSTORE PUSH1 0x64 SWAP2 POP REVERT JUMPDEST DUP4 DUP3 CALLVALUE PUSH2 0x2F5 JUMPI PUSH1 0x20 CALLDATASIZE PUSH1 0x3 NOT ADD SLT PUSH2 0x2F5 JUMPI PUSH1 0x20 SWAP2 DUP2 SWAP1 PUSH1 0x1 PUSH1 0x1 PUSH1 0xA0 SHL SUB PUSH2 0x10E4 PUSH2 0x19CD JUMP JUMPDEST AND DUP2 MSTORE PUSH1 0x9 DUP5 MSTORE KECCAK256 SLOAD SWAP1 MLOAD SWAP1 DUP2 MSTORE RETURN JUMPDEST DUP4 DUP3 CALLVALUE PUSH2 0x2F5 JUMPI DUP2 PUSH1 0x3 NOT CALLDATASIZE ADD SLT PUSH2 0x2F5 JUMPI PUSH1 0x15 SLOAD SWAP1 MLOAD PUSH1 0x1 PUSH1 0x1 PUSH1 0xA0 SHL SUB SWAP1 SWAP2 AND DUP2 MSTORE PUSH1 0x20 SWAP1 RETURN JUMPDEST POP POP CALLVALUE PUSH2 0x2F5 JUMPI PUSH1 0x20 CALLDATASIZE PUSH1 0x3 NOT ADD SLT PUSH2 0x2F5 JUMPI PUSH2 0xDD6 SWAP1 CALLDATALOAD CALLER PUSH2 0x1C55 JUMP JUMPDEST POP SWAP2 SWAP1 CALLVALUE PUSH2 0x2F5 JUMPI DUP3 PUSH1 0x3 NOT CALLDATASIZE ADD SLT PUSH2 0x2F5 JUMPI PUSH2 0x1156 PUSH2 0x19CD JUMP JUMPDEST PUSH1 0x24 CALLDATALOAD SWAP2 CALLER DUP5 MSTORE PUSH1 0x8 PUSH1 0x20 MSTORE PUSH1 0xFF DUP6 DUP6 KECCAK256 SLOAD AND ISZERO PUSH2 0x11CF JUMPI PUSH12 0x33B2E3C9FD0803CE8000000 PUSH2 0x1187 DUP5 PUSH1 0x2 SLOAD PUSH2 0x1C6E JUMP JUMPDEST GT PUSH2 0x1197 JUMPI POP SWAP1 PUSH2 0xDD6 SWAP2 PUSH2 0x1C91 JUMP JUMPDEST PUSH1 0x64 SWAP1 PUSH1 0x20 DUP7 MLOAD SWAP2 PUSH3 0x461BCD PUSH1 0xE5 SHL DUP4 MSTORE DUP3 ADD MSTORE PUSH1 0x12 PUSH1 0x24 DUP3 ADD MSTORE PUSH18 0x45786365656473206D617820737570706C79 PUSH1 0x70 SHL PUSH1 0x44 DUP3 ADD MSTORE REVERT JUMPDEST PUSH1 0x64 SWAP1 PUSH1 0x20 DUP7 MLOAD SWAP2 PUSH3 0x461BCD PUSH1 0xE5 SHL DUP4 MSTORE DUP3 ADD MSTORE PUSH1 0x15 PUSH1 0x24 DUP3 ADD MSTORE PUSH21 0x2737BA1030BABA3437B934BD32B21036B4B73A32B9 PUSH1 0x59 SHL PUSH1 0x44 DUP3 ADD MSTORE REVERT JUMPDEST POP SWAP1 CALLVALUE PUSH2 0x2C8 JUMPI DUP3 PUSH1 0x3 NOT CALLDATASIZE ADD SLT PUSH2 0x2C8 JUMPI PUSH2 0x1224 PUSH2 0x1AFD JUMP JUMPDEST PUSH1 0x5 SLOAD SWAP1 PUSH1 0xFF DUP3 AND ISZERO PUSH2 0x1266 JUMPI POP PUSH1 0xFF NOT AND PUSH1 0x5 SSTORE MLOAD CALLER DUP2 MSTORE PUSH32 0x5DB9EE0A495BF2E6FF9C91A7834C1BA4FDD244A5E8AA4E537BD38AEAE4B073AA SWAP1 PUSH1 0x20 SWAP1 LOG1 DUP1 RETURN JUMPDEST DUP3 MLOAD PUSH4 0x8DFC202B PUSH1 0xE0 SHL DUP2 MSTORE REVERT JUMPDEST DUP4 DUP3 CALLVALUE PUSH2 0x2F5 JUMPI DUP2 PUSH1 0x3 NOT CALLDATASIZE ADD SLT PUSH2 0x2F5 JUMPI PUSH1 0x20 SWAP1 PUSH1 0x13 SLOAD SWAP1 MLOAD SWAP1 DUP2 MSTORE RETURN JUMPDEST DUP4 DUP3 CALLVALUE PUSH2 0x2F5 JUMPI DUP2 PUSH1 0x3 NOT CALLDATASIZE ADD SLT PUSH2 0x2F5 JUMPI PUSH1 0x20 SWAP1 MLOAD PUSH12 0x33B2E3C9FD0803CE8000000 DUP2 MSTORE RETURN JUMPDEST DUP4 DUP3 CALLVALUE PUSH2 0x2F5 JUMPI DUP2 PUSH1 0x3 NOT CALLDATASIZE ADD SLT PUSH2 0x2F5 JUMPI PUSH1 0x20 SWAP1 MLOAD PUSH1 0x12 DUP2 MSTORE RETURN JUMPDEST DUP4 DUP3 CALLVALUE PUSH2 0x2F5 JUMPI PUSH1 0x20 CALLDATASIZE PUSH1 0x3 NOT ADD SLT PUSH2 0x2F5 JUMPI PUSH2 0x12F1 PUSH2 0x19CD JUMP JUMPDEST PUSH2 0x12F9 PUSH2 0x1AFD JUMP JUMPDEST PUSH1 0x1 PUSH1 0x1 PUSH1 0xA0 SHL SUB AND DUP3 MSTORE PUSH1 0x8 PUSH1 0x20 MSTORE DUP2 KECCAK256 DUP1 SLOAD PUSH1 0xFF NOT AND SWAP1 SSTORE DUP1 RETURN JUMPDEST POP CALLVALUE PUSH2 0x2C8 JUMPI DUP3 PUSH1 0x3 NOT CALLDATASIZE ADD SLT PUSH2 0x2C8 JUMPI PUSH2 0x132F PUSH2 0x1D33 JUMP JUMPDEST CALLER DUP4 MSTORE PUSH1 0x20 SWAP1 PUSH1 0x10 DUP3 MSTORE DUP1 DUP5 KECCAK256 SWAP3 PUSH2 0x1396 DUP5 SLOAD SWAP5 PUSH2 0x134E DUP7 ISZERO ISZERO PUSH2 0x1EB4 JUMP JUMPDEST PUSH1 0x1 DUP2 ADD SLOAD DUP8 MSTORE PUSH1 0xF DUP6 MSTORE PUSH1 0x2 DUP5 DUP9 KECCAK256 SWAP2 DUP6 MLOAD PUSH2 0x136A DUP2 PUSH2 0x1A30 JUMP JUMPDEST DUP4 SLOAD DUP2 MSTORE PUSH1 0x1 DUP5 ADD SLOAD DUP9 DUP3 ADD MSTORE PUSH1 0x60 PUSH1 0xFF PUSH1 0x3 DUP6 DUP8 ADD SLOAD SWAP7 DUP8 DUP12 DUP7 ADD MSTORE ADD SLOAD AND ISZERO ISZERO SWAP2 ADD MSTORE ADD SLOAD PUSH2 0x1C6E JUMP JUMPDEST TIMESTAMP LT PUSH2 0x13FD JUMPI SWAP1 DUP5 PUSH1 0x5 PUSH32 0x668647A3BF871C3FF8779AF5157EDA0C0D6DE3F7AF4A3468D3ECC571FC413ADB SWAP5 SWAP4 PUSH2 0x13CC CALLER PUSH2 0x1EF1 JUMP JUMPDEST CALLER DUP4 MSTORE PUSH1 0x10 DUP6 MSTORE DUP3 DUP5 DUP2 KECCAK256 SWAP2 DUP2 DUP4 SSTORE DUP2 PUSH1 0x1 DUP5 ADD SSTORE DUP2 PUSH1 0x2 DUP5 ADD SSTORE DUP2 PUSH1 0x3 DUP5 ADD SSTORE DUP3 ADD SSTORE ADD SSTORE PUSH2 0xFD0 DUP5 CALLER ADDRESS PUSH2 0x1B2C JUMP JUMPDEST DUP3 PUSH1 0x64 SWAP3 MLOAD SWAP2 PUSH3 0x461BCD PUSH1 0xE5 SHL DUP4 MSTORE DUP3 ADD MSTORE PUSH1 0xC PUSH1 0x24 DUP3 ADD MSTORE PUSH12 0x14DD1A5B1B081B1BD8DAD959 PUSH1 0xA2 SHL PUSH1 0x44 DUP3 ADD MSTORE REVERT JUMPDEST POP SWAP1 CALLVALUE PUSH2 0x2C8 JUMPI PUSH1 0x60 CALLDATASIZE PUSH1 0x3 NOT ADD SLT PUSH2 0x2C8 JUMPI DUP1 CALLDATALOAD PUSH1 0x24 CALLDATALOAD SWAP2 PUSH1 0x44 CALLDATALOAD SWAP4 PUSH2 0x1452 PUSH2 0x1AFD JUMP JUMPDEST PUSH2 0x3E8 PUSH2 0x1468 DUP7 PUSH2 0x1463 DUP8 DUP8 PUSH2 0x1C6E JUMP JUMPDEST PUSH2 0x1C6E JUMP JUMPDEST GT PUSH2 0x147B JUMPI POP POP PUSH1 0x12 SSTORE PUSH1 0x13 SSTORE PUSH1 0x14 SSTORE DUP1 RETURN JUMPDEST SWAP1 PUSH1 0x20 PUSH1 0x64 SWAP3 MLOAD SWAP2 PUSH3 0x461BCD PUSH1 0xE5 SHL DUP4 MSTORE DUP3 ADD MSTORE PUSH1 0x13 PUSH1 0x24 DUP3 ADD MSTORE PUSH19 0xA8DEE8C2D840CCCACAE640E8DEDE40D0D2CED PUSH1 0x6B SHL PUSH1 0x44 DUP3 ADD MSTORE REVERT JUMPDEST DUP4 DUP3 CALLVALUE PUSH2 0x2F5 JUMPI PUSH1 0x60 CALLDATASIZE PUSH1 0x3 NOT ADD SLT PUSH2 0x2F5 JUMPI PUSH1 0x20 SWAP1 PUSH2 0x716 PUSH2 0x14D5 PUSH2 0x19CD JUMP JUMPDEST PUSH2 0x14DD PUSH2 0x19E8 JUMP JUMPDEST PUSH1 0x44 CALLDATALOAD SWAP2 PUSH2 0x14EC DUP4 CALLER DUP4 PUSH2 0x1B82 JUMP JUMPDEST PUSH2 0x1B2C JUMP JUMPDEST DUP4 DUP3 CALLVALUE PUSH2 0x2F5 JUMPI DUP2 PUSH1 0x3 NOT CALLDATASIZE ADD SLT PUSH2 0x2F5 JUMPI PUSH1 0x20 SWAP1 PUSH1 0x2 SLOAD SWAP1 MLOAD SWAP1 DUP2 MSTORE RETURN JUMPDEST POP DUP3 SWAP1 CALLVALUE PUSH2 0x2F5 JUMPI PUSH1 0xA0 CALLDATASIZE PUSH1 0x3 NOT ADD SLT PUSH2 0x2F5 JUMPI PUSH2 0x152C PUSH2 0x19CD JUMP JUMPDEST SWAP1 PUSH1 0x24 CALLDATALOAD PUSH2 0x1538 PUSH2 0x1AEE JUMP JUMPDEST SWAP3 PUSH2 0x1541 PUSH2 0x1AFD JUMP JUMPDEST PUSH1 0x1 PUSH1 0x1 PUSH1 0xA0 SHL SUB AND SWAP3 DUP4 ISZERO PUSH2 0x1677 JUMPI PUSH2 0x155C DUP3 ISZERO ISZERO PUSH2 0x1CE5 JUMP JUMPDEST DUP4 DUP6 MSTORE PUSH1 0x7 PUSH1 0x20 MSTORE DUP3 DUP6 KECCAK256 SLOAD PUSH2 0x1642 JUMPI DUP4 PUSH2 0x1613 PUSH1 0x5 PUSH32 0x402B9FA52520CE724D8E25AD1521F70484BD3C833F98ED26451D7C9666820203 SWAP7 SWAP8 SWAP9 DUP7 MLOAD SWAP1 PUSH2 0x15A2 DUP3 PUSH2 0x19FE JUMP JUMPDEST DUP7 DUP3 MSTORE DUP11 PUSH1 0x20 DUP4 ADD DUP2 DUP2 MSTORE DUP10 DUP5 ADD TIMESTAMP DUP2 MSTORE PUSH1 0x60 DUP6 ADD SWAP2 PUSH1 0x44 CALLDATALOAD DUP4 MSTORE DUP12 PUSH1 0x80 DUP8 ADD SWAP5 PUSH1 0x64 CALLDATALOAD DUP7 MSTORE PUSH1 0xA0 DUP9 ADD SWAP12 ISZERO ISZERO DUP13 MSTORE PUSH1 0xC0 DUP9 ADD SWAP11 DUP2 DUP13 MSTORE DUP2 MSTORE PUSH1 0x7 PUSH1 0x20 MSTORE KECCAK256 SWAP6 MLOAD DUP7 SSTORE MLOAD PUSH1 0x1 DUP7 ADD SSTORE MLOAD PUSH1 0x2 DUP6 ADD SSTORE MLOAD PUSH1 0x3 DUP5 ADD SSTORE MLOAD SWAP1 DUP3 ADD SSTORE ADD SWAP3 MLOAD ISZERO ISZERO DUP4 SWAP1 PUSH1 0xFF DUP1 NOT DUP4 SLOAD AND SWAP2 ISZERO ISZERO AND OR SWAP1 SSTORE JUMP JUMPDEST MLOAD DUP2 SLOAD PUSH2 0xFF00 NOT AND SWAP1 ISZERO ISZERO PUSH1 0x8 SHL PUSH2 0xFF00 AND OR SWAP1 SSTORE PUSH2 0x1633 DUP2 ADDRESS CALLER PUSH2 0x1B2C JUMP JUMPDEST DUP2 MLOAD SWAP1 DUP2 MSTORE TIMESTAMP PUSH1 0x20 DUP3 ADD MSTORE LOG2 DUP1 RETURN JUMPDEST DUP3 MLOAD PUSH3 0x461BCD PUSH1 0xE5 SHL DUP2 MSTORE PUSH1 0x20 DUP2 DUP9 ADD MSTORE PUSH1 0xF PUSH1 0x24 DUP3 ADD MSTORE PUSH15 0x5363686564756C6520657869737473 PUSH1 0x88 SHL PUSH1 0x44 DUP3 ADD MSTORE PUSH1 0x64 SWAP1 REVERT JUMPDEST DUP3 MLOAD PUSH3 0x461BCD PUSH1 0xE5 SHL DUP2 MSTORE PUSH1 0x20 DUP2 DUP9 ADD MSTORE PUSH1 0x13 PUSH1 0x24 DUP3 ADD MSTORE PUSH19 0x496E76616C69642062656E6566696369617279 PUSH1 0x68 SHL PUSH1 0x44 DUP3 ADD MSTORE PUSH1 0x64 SWAP1 REVERT JUMPDEST POP SWAP1 CALLVALUE PUSH2 0x2C8 JUMPI DUP2 PUSH1 0x3 NOT CALLDATASIZE ADD SLT PUSH2 0x2C8 JUMPI PUSH2 0x16CA PUSH2 0x19CD JUMP JUMPDEST PUSH1 0x24 CALLDATALOAD SWAP1 CALLER ISZERO PUSH2 0x1743 JUMPI PUSH1 0x1 PUSH1 0x1 PUSH1 0xA0 SHL SUB AND SWAP2 DUP3 ISZERO PUSH2 0x172C JUMPI POP DUP1 DUP4 PUSH1 0x20 SWAP6 CALLER DUP2 MSTORE PUSH1 0x1 DUP8 MSTORE DUP2 DUP2 KECCAK256 DUP6 DUP3 MSTORE DUP8 MSTORE KECCAK256 SSTORE DUP3 MLOAD SWAP1 DUP2 MSTORE PUSH32 0x8C5BE1E5EBEC7D5BD14F71427D1E84F3DD0314C0F7B2291E5B200AC8C7C3B925 DUP5 CALLER SWAP3 LOG3 MLOAD PUSH1 0x1 DUP2 MSTORE RETURN JUMPDEST DUP4 MLOAD PUSH4 0x4A1406B1 PUSH1 0xE1 SHL DUP2 MSTORE SWAP1 DUP2 ADD DUP6 SWAP1 MSTORE PUSH1 0x24 SWAP1 REVERT JUMPDEST DUP4 MLOAD PUSH4 0xE602DF05 PUSH1 0xE0 SHL DUP2 MSTORE DUP1 DUP5 ADD DUP7 SWAP1 MSTORE PUSH1 0x24 SWAP1 REVERT JUMPDEST POP DUP3 CALLVALUE PUSH2 0x968 JUMPI DUP1 PUSH1 0x3 NOT CALLDATASIZE ADD SLT PUSH2 0x968 JUMPI DUP2 MLOAD SWAP2 DUP2 PUSH1 0x3 SLOAD SWAP3 PUSH1 0x1 DUP5 DUP2 SHR SWAP2 DUP2 DUP7 AND SWAP6 DUP7 ISZERO PUSH2 0x1845 JUMPI JUMPDEST PUSH1 0x20 SWAP7 DUP8 DUP6 LT DUP2 EQ PUSH2 0x94B JUMPI DUP9 SWAP10 POP SWAP7 DUP9 SWAP7 SWAP8 DUP6 DUP3 SWAP11 MSTORE SWAP2 DUP3 PUSH1 0x0 EQ PUSH2 0x181E JUMPI POP POP PUSH1 0x1 EQ PUSH2 0x17C2 JUMPI JUMPDEST POP POP POP PUSH2 0x8C2 SWAP3 SWAP2 PUSH2 0x8B3 SWAP2 SUB DUP6 PUSH2 0x1A84 JUMP JUMPDEST SWAP2 SWAP1 DUP7 SWAP4 POP PUSH1 0x3 DUP4 MSTORE PUSH32 0xC2575A0E9E593C00F959F8C92F12DB2869C3395A3B0502D05E2516446F71F85B JUMPDEST DUP3 DUP5 LT PUSH2 0x1806 JUMPI POP POP POP DUP3 ADD ADD DUP2 PUSH2 0x8B3 PUSH2 0x8C2 PUSH2 0x17AF JUMP JUMPDEST DUP1 SLOAD DUP5 DUP11 ADD DUP7 ADD MSTORE DUP9 SWAP6 POP DUP8 SWAP5 SWAP1 SWAP4 ADD SWAP3 DUP2 ADD PUSH2 0x17ED JUMP JUMPDEST PUSH1 0xFF NOT AND DUP8 DUP3 ADD MSTORE SWAP4 ISZERO ISZERO PUSH1 0x5 SHL DUP7 ADD SWAP1 SWAP4 ADD SWAP4 POP DUP5 SWAP3 POP PUSH2 0x8B3 SWAP2 POP PUSH2 0x8C2 SWAP1 POP PUSH2 0x17AF JUMP JUMPDEST SWAP3 PUSH1 0x7F AND SWAP3 PUSH2 0x1785 JUMP JUMPDEST SWAP2 SWAP3 SWAP1 POP CALLVALUE PUSH2 0x19C9 JUMPI PUSH1 0x60 CALLDATASIZE PUSH1 0x3 NOT ADD SLT PUSH2 0x19C9 JUMPI PUSH2 0x186C PUSH2 0x19CD JUMP JUMPDEST SWAP1 PUSH1 0x44 CALLDATALOAD PUSH8 0xFFFFFFFFFFFFFFFF DUP1 DUP3 GT PUSH2 0x19C5 JUMPI CALLDATASIZE PUSH1 0x23 DUP4 ADD SLT ISZERO PUSH2 0x19C5 JUMPI DUP2 DUP4 ADD CALLDATALOAD SWAP1 DUP2 GT PUSH2 0x19B2 JUMPI DUP7 SWAP2 SWAP1 PUSH2 0x18AD PUSH1 0x1F DUP3 ADD PUSH1 0x1F NOT AND PUSH1 0x20 ADD DUP8 PUSH2 0x1A84 JUMP JUMPDEST DUP1 DUP7 MSTORE CALLDATASIZE PUSH1 0x24 DUP3 DUP5 ADD ADD GT PUSH2 0x2C8 JUMPI DUP1 PUSH1 0x24 PUSH1 0x20 SWAP4 ADD DUP4 DUP9 ADD CALLDATACOPY DUP6 ADD ADD MSTORE PUSH1 0x17 SLOAD PUSH1 0x1 PUSH1 0x1 PUSH1 0xA0 SHL SUB SWAP2 SWAP1 DUP3 AND CALLER SUB PUSH2 0x196F JUMPI POP PUSH1 0x64 PUSH2 0x18F7 PUSH2 0x18EF DUP6 PUSH2 0x2009 JUMP JUMPDEST PUSH1 0x24 CALLDATALOAD PUSH2 0x1D56 JUMP JUMPDEST DIV SWAP1 PUSH12 0x33B2E3C9FD0803CE8000000 PUSH2 0x1912 DUP4 PUSH1 0x2 SLOAD PUSH2 0x1C6E JUMP JUMPDEST GT ISZERO PUSH2 0x191C JUMPI DUP6 DUP1 RETURN JUMPDEST PUSH32 0x4D0FBF7833F858A26F21C7955ED012C260EDD1A28F1A258C1034686AF726E3FE SWAP4 PUSH2 0x1963 SWAP2 PUSH2 0x194C DUP5 DUP7 PUSH2 0x1C91 JUMP JUMPDEST DUP7 MLOAD SWAP5 DUP6 SWAP5 DUP6 MSTORE DUP8 PUSH1 0x20 DUP7 ADD MSTORE AND SWAP6 DUP4 ADD SWAP1 PUSH2 0x1AC9 JUMP JUMPDEST SUB SWAP1 LOG2 CODESIZE DUP1 DUP1 DUP1 DUP1 DUP6 DUP1 RETURN JUMPDEST PUSH1 0x64 SWAP1 PUSH1 0x20 DUP7 MLOAD SWAP2 PUSH3 0x461BCD PUSH1 0xE5 SHL DUP4 MSTORE DUP3 ADD MSTORE PUSH1 0x1B PUSH1 0x24 DUP3 ADD MSTORE PUSH32 0x4F6E6C79204B6E6F776C656467652044414F2063616E2063616C6C0000000000 PUSH1 0x44 DUP3 ADD MSTORE REVERT JUMPDEST PUSH4 0x4E487B71 PUSH1 0xE0 SHL DUP8 MSTORE PUSH1 0x41 DUP4 MSTORE PUSH1 0x24 DUP8 REVERT JUMPDEST DUP7 DUP1 REVERT JUMPDEST DUP4 DUP1 REVERT JUMPDEST PUSH1 0x4 CALLDATALOAD SWAP1 PUSH1 0x1 PUSH1 0x1 PUSH1 0xA0 SHL SUB DUP3 AND DUP3 SUB PUSH2 0x19E3 JUMPI JUMP JUMPDEST PUSH1 0x0 DUP1 REVERT JUMPDEST PUSH1 0x24 CALLDATALOAD SWAP1 PUSH1 0x1 PUSH1 0x1 PUSH1 0xA0 SHL SUB DUP3 AND DUP3 SUB PUSH2 0x19E3 JUMPI JUMP JUMPDEST PUSH1 0xE0 DUP2 ADD SWAP1 DUP2 LT PUSH8 0xFFFFFFFFFFFFFFFF DUP3 GT OR PUSH2 0x1A1A JUMPI PUSH1 0x40 MSTORE JUMP JUMPDEST PUSH4 0x4E487B71 PUSH1 0xE0 SHL PUSH1 0x0 MSTORE PUSH1 0x41 PUSH1 0x4 MSTORE PUSH1 0x24 PUSH1 0x0 REVERT JUMPDEST PUSH1 0x80 DUP2 ADD SWAP1 DUP2 LT PUSH8 0xFFFFFFFFFFFFFFFF DUP3 GT OR PUSH2 0x1A1A JUMPI PUSH1 0x40 MSTORE JUMP JUMPDEST PUSH1 0xC0 DUP2 ADD SWAP1 DUP2 LT PUSH8 0xFFFFFFFFFFFFFFFF DUP3 GT OR PUSH2 0x1A1A JUMPI PUSH1 0x40 MSTORE JUMP JUMPDEST PUSH1 0x40 DUP2 ADD SWAP1 DUP2 LT PUSH8 0xFFFFFFFFFFFFFFFF DUP3 GT OR PUSH2 0x1A1A JUMPI PUSH1 0x40 MSTORE JUMP JUMPDEST SWAP1 PUSH1 0x1F DUP1 NOT SWAP2 ADD AND DUP2 ADD SWAP1 DUP2 LT PUSH8 0xFFFFFFFFFFFFFFFF DUP3 GT OR PUSH2 0x1A1A JUMPI PUSH1 0x40 MSTORE JUMP JUMPDEST PUSH1 0x0 JUMPDEST DUP4 DUP2 LT PUSH2 0x1AB9 JUMPI POP POP PUSH1 0x0 SWAP2 ADD MSTORE JUMP JUMPDEST DUP2 DUP2 ADD MLOAD DUP4 DUP3 ADD MSTORE PUSH1 0x20 ADD PUSH2 0x1AA9 JUMP JUMPDEST SWAP1 PUSH1 0x20 SWAP2 PUSH2 0x1AE2 DUP2 MLOAD DUP1 SWAP3 DUP2 DUP6 MSTORE DUP6 DUP1 DUP7 ADD SWAP2 ADD PUSH2 0x1AA6 JUMP JUMPDEST PUSH1 0x1F ADD PUSH1 0x1F NOT AND ADD ADD SWAP1 JUMP JUMPDEST PUSH1 0x84 CALLDATALOAD SWAP1 DUP2 ISZERO ISZERO DUP3 SUB PUSH2 0x19E3 JUMPI JUMP JUMPDEST PUSH1 0x5 SLOAD PUSH1 0x8 SHR PUSH1 0x1 PUSH1 0x1 PUSH1 0xA0 SHL SUB AND CALLER SUB PUSH2 0x1B14 JUMPI JUMP JUMPDEST PUSH1 0x40 MLOAD PUSH4 0x118CDAA7 PUSH1 0xE0 SHL DUP2 MSTORE CALLER PUSH1 0x4 DUP3 ADD MSTORE PUSH1 0x24 SWAP1 REVERT JUMPDEST SWAP2 SWAP1 PUSH1 0x1 PUSH1 0x1 PUSH1 0xA0 SHL SUB DUP1 DUP5 AND ISZERO PUSH2 0x1B69 JUMPI DUP2 AND ISZERO PUSH2 0x1B50 JUMPI PUSH2 0x1B4E SWAP3 PUSH2 0x25B4 JUMP JUMPDEST JUMP JUMPDEST PUSH1 0x40 MLOAD PUSH4 0xEC442F05 PUSH1 0xE0 SHL DUP2 MSTORE PUSH1 0x0 PUSH1 0x4 DUP3 ADD MSTORE PUSH1 0x24 SWAP1 REVERT JUMPDEST PUSH1 0x40 MLOAD PUSH4 0x4B637E8F PUSH1 0xE1 SHL DUP2 MSTORE PUSH1 0x0 PUSH1 0x4 DUP3 ADD MSTORE PUSH1 0x24 SWAP1 REVERT JUMPDEST SWAP2 PUSH1 0x1 DUP1 PUSH1 0xA0 SHL SUB DUP1 SWAP4 AND SWAP2 PUSH1 0x0 SWAP4 DUP4 DUP6 MSTORE PUSH1 0x1 PUSH1 0x20 MSTORE PUSH1 0x40 SWAP4 DUP5 DUP7 KECCAK256 SWAP2 DUP4 AND SWAP2 DUP3 DUP8 MSTORE PUSH1 0x20 MSTORE DUP5 DUP7 KECCAK256 SLOAD SWAP3 PUSH1 0x0 NOT DUP5 LT PUSH2 0x1BC1 JUMPI JUMPDEST POP POP POP POP POP POP POP JUMP JUMPDEST DUP5 DUP5 LT PUSH2 0x1C25 JUMPI POP DUP1 ISZERO PUSH2 0x1C0D JUMPI DUP2 ISZERO PUSH2 0x1BF5 JUMPI DUP6 MSTORE PUSH1 0x1 PUSH1 0x20 MSTORE DUP4 DUP6 KECCAK256 SWAP1 DUP6 MSTORE PUSH1 0x20 MSTORE SUB SWAP2 KECCAK256 SSTORE CODESIZE DUP1 DUP1 DUP1 DUP1 DUP1 DUP1 PUSH2 0x1BB8 JUMP JUMPDEST DUP5 MLOAD PUSH4 0x4A1406B1 PUSH1 0xE1 SHL DUP2 MSTORE PUSH1 0x4 DUP2 ADD DUP8 SWAP1 MSTORE PUSH1 0x24 SWAP1 REVERT JUMPDEST DUP5 MLOAD PUSH4 0xE602DF05 PUSH1 0xE0 SHL DUP2 MSTORE PUSH1 0x4 DUP2 ADD DUP8 SWAP1 MSTORE PUSH1 0x24 SWAP1 REVERT JUMPDEST DUP6 MLOAD PUSH4 0x7DC7A0D9 PUSH1 0xE1 SHL DUP2 MSTORE PUSH1 0x1 PUSH1 0x1 PUSH1 0xA0 SHL SUB SWAP2 SWAP1 SWAP2 AND PUSH1 0x4 DUP3 ADD MSTORE PUSH1 0x24 DUP2 ADD DUP5 SWAP1 MSTORE PUSH1 0x44 DUP2 ADD DUP6 SWAP1 MSTORE PUSH1 0x64 SWAP1 REVERT JUMPDEST SWAP1 PUSH1 0x1 PUSH1 0x1 PUSH1 0xA0 SHL SUB DUP3 AND ISZERO PUSH2 0x1B69 JUMPI PUSH2 0x1B4E SWAP2 PUSH2 0x215F JUMP JUMPDEST SWAP2 SWAP1 DUP3 ADD DUP1 SWAP3 GT PUSH2 0x1C7B JUMPI JUMP JUMPDEST PUSH4 0x4E487B71 PUSH1 0xE0 SHL PUSH1 0x0 MSTORE PUSH1 0x11 PUSH1 0x4 MSTORE PUSH1 0x24 PUSH1 0x0 REVERT JUMPDEST PUSH1 0x1 PUSH1 0x1 PUSH1 0xA0 SHL SUB AND SWAP1 DUP2 ISZERO PUSH2 0x1B50 JUMPI PUSH1 0x0 DUP1 MLOAD PUSH1 0x20 PUSH2 0x2AFF DUP4 CODECOPY DUP2 MLOAD SWAP2 MSTORE PUSH1 0x20 PUSH1 0x0 SWAP3 PUSH2 0x1CBD PUSH2 0x1E96 JUMP JUMPDEST PUSH2 0x1CC9 DUP2 PUSH1 0x2 SLOAD PUSH2 0x1C6E JUMP JUMPDEST PUSH1 0x2 SSTORE DUP5 DUP5 MSTORE DUP4 DUP3 MSTORE PUSH1 0x40 DUP5 KECCAK256 DUP2 DUP2 SLOAD ADD SWAP1 SSTORE PUSH1 0x40 MLOAD SWAP1 DUP2 MSTORE LOG3 JUMP JUMPDEST ISZERO PUSH2 0x1CEC JUMPI JUMP JUMPDEST PUSH1 0x40 MLOAD PUSH3 0x461BCD PUSH1 0xE5 SHL DUP2 MSTORE PUSH1 0x20 PUSH1 0x4 DUP3 ADD MSTORE PUSH1 0x12 PUSH1 0x24 DUP3 ADD MSTORE PUSH18 0x416D6F756E74206D757374206265203E203 PUSH1 0x74 SHL PUSH1 0x44 DUP3 ADD MSTORE PUSH1 0x64 SWAP1 REVERT JUMPDEST SWAP2 SWAP1 DUP3 SUB SWAP2 DUP3 GT PUSH2 0x1C7B JUMPI JUMP JUMPDEST PUSH1 0x2 PUSH1 0x6 SLOAD EQ PUSH2 0x1D44 JUMPI PUSH1 0x2 PUSH1 0x6 SSTORE JUMP JUMPDEST PUSH1 0x40 MLOAD PUSH4 0x3EE5AEB5 PUSH1 0xE0 SHL DUP2 MSTORE PUSH1 0x4 SWAP1 REVERT JUMPDEST DUP2 DUP2 MUL SWAP3 SWAP2 DUP2 ISZERO SWAP2 DUP5 DIV EQ OR ISZERO PUSH2 0x1C7B JUMPI JUMP JUMPDEST PUSH1 0x1 DUP1 PUSH1 0xA0 SHL SUB AND PUSH1 0x0 MSTORE PUSH1 0x7 PUSH1 0x20 MSTORE PUSH1 0x40 PUSH1 0x0 KECCAK256 PUSH1 0x40 MLOAD SWAP1 PUSH2 0x1D8B DUP3 PUSH2 0x19FE JUMP JUMPDEST DUP1 SLOAD DUP3 MSTORE PUSH1 0x1 DUP2 ADD SLOAD PUSH1 0x20 DUP4 ADD MSTORE PUSH1 0x2 DUP2 ADD SLOAD SWAP1 PUSH1 0x40 DUP4 ADD DUP3 DUP2 MSTORE PUSH2 0x1DE3 PUSH1 0x3 DUP4 ADD SLOAD PUSH1 0x60 DUP7 ADD SWAP5 DUP2 DUP7 MSTORE PUSH1 0xFF PUSH1 0x5 PUSH1 0x4 DUP8 ADD SLOAD SWAP7 PUSH1 0x80 DUP11 ADD SWAP8 DUP9 MSTORE ADD SLOAD DUP2 DUP2 AND ISZERO ISZERO PUSH1 0xA0 DUP11 ADD MSTORE PUSH1 0x8 SHR AND ISZERO ISZERO PUSH1 0xC0 DUP9 ADD MSTORE PUSH2 0x1C6E JUMP JUMPDEST TIMESTAMP LT PUSH2 0x1E52 JUMPI PUSH2 0x1DF6 DUP2 MLOAD DUP4 MLOAD SWAP1 PUSH2 0x1C6E JUMP JUMPDEST TIMESTAMP LT ISZERO PUSH2 0x1E4B JUMPI PUSH2 0x1E2B SWAP3 PUSH2 0x1E1A PUSH2 0x1E12 PUSH2 0x1E24 SWAP4 MLOAD TIMESTAMP PUSH2 0x1D26 JUMP JUMPDEST DUP3 MLOAD SWAP1 PUSH2 0x1D26 JUMP JUMPDEST SWAP3 MLOAD SWAP1 MLOAD SWAP1 PUSH2 0x1D26 JUMP JUMPDEST SWAP3 MLOAD PUSH2 0x1D56 JUMP JUMPDEST DUP2 ISZERO PUSH2 0x1E35 JUMPI DIV SWAP1 JUMP JUMPDEST PUSH4 0x4E487B71 PUSH1 0xE0 SHL PUSH1 0x0 MSTORE PUSH1 0x12 PUSH1 0x4 MSTORE PUSH1 0x24 PUSH1 0x0 REVERT JUMPDEST POP POP POP MLOAD SWAP1 JUMP JUMPDEST POP POP POP POP PUSH1 0x0 SWAP1 JUMP JUMPDEST ISZERO PUSH2 0x1E62 JUMPI JUMP JUMPDEST PUSH1 0x40 MLOAD PUSH3 0x461BCD PUSH1 0xE5 SHL DUP2 MSTORE PUSH1 0x20 PUSH1 0x4 DUP3 ADD MSTORE PUSH1 0xC PUSH1 0x24 DUP3 ADD MSTORE PUSH12 0x24B73B30B634B2103A34B2B9 PUSH1 0xA1 SHL PUSH1 0x44 DUP3 ADD MSTORE PUSH1 0x64 SWAP1 REVERT JUMPDEST PUSH1 0xFF PUSH1 0x5 SLOAD AND PUSH2 0x1EA2 JUMPI JUMP JUMPDEST PUSH1 0x40 MLOAD PUSH4 0xD93C0665 PUSH1 0xE0 SHL DUP2 MSTORE PUSH1 0x4 SWAP1 REVERT JUMPDEST ISZERO PUSH2 0x1EBB JUMPI JUMP JUMPDEST PUSH1 0x40 MLOAD PUSH3 0x461BCD PUSH1 0xE5 SHL DUP2 MSTORE PUSH1 0x20 PUSH1 0x4 DUP3 ADD MSTORE PUSH1 0xE PUSH1 0x24 DUP3 ADD MSTORE PUSH14 0x139BC81CDD185AD948199BDD5B99 PUSH1 0x92 SHL PUSH1 0x44 DUP3 ADD MSTORE PUSH1 0x64 SWAP1 REVERT JUMPDEST PUSH1 0x1 DUP1 PUSH1 0xA0 SHL SUB DUP2 AND SWAP1 DUP2 PUSH1 0x0 MSTORE PUSH1 0x10 PUSH1 0x20 MSTORE PUSH1 0x40 DUP1 PUSH1 0x0 KECCAK256 PUSH1 0x1 DUP2 ADD SLOAD PUSH1 0x0 MSTORE PUSH1 0xF PUSH1 0x20 MSTORE PUSH5 0x496CEBB800 PUSH2 0x1F79 DUP4 PUSH1 0x0 KECCAK256 DUP5 MLOAD PUSH2 0x1F2F DUP2 PUSH2 0x1A30 JUMP JUMPDEST DUP2 SLOAD DUP2 MSTORE PUSH1 0x60 PUSH1 0xFF PUSH1 0x3 PUSH1 0x1 DUP6 ADD SLOAD SWAP5 PUSH1 0x20 DUP6 ADD SWAP6 DUP7 MSTORE PUSH1 0x2 DUP2 ADD SLOAD DUP11 DUP7 ADD MSTORE ADD SLOAD AND ISZERO ISZERO SWAP2 ADD MSTORE PUSH2 0x1F71 PUSH1 0x3 DUP6 ADD SWAP5 PUSH2 0x1F6A DUP7 SLOAD TIMESTAMP PUSH2 0x1D26 JUMP JUMPDEST SWAP1 SLOAD PUSH2 0x1D56 JUMP JUMPDEST SWAP1 MLOAD SWAP1 PUSH2 0x1D56 JUMP JUMPDEST DIV SWAP1 DUP2 PUSH2 0x1F88 JUMPI JUMPDEST POP POP POP POP POP JUMP JUMPDEST TIMESTAMP SWAP1 SSTORE PUSH12 0x33B2E3C9FD0803CE8000000 PUSH2 0x1FA4 DUP3 PUSH1 0x2 SLOAD PUSH2 0x1C6E JUMP JUMPDEST GT ISZERO PUSH2 0x1FB1 JUMPI JUMPDEST DUP1 PUSH2 0x1F81 JUMP JUMPDEST PUSH1 0x7 PUSH1 0x80 SWAP3 PUSH2 0x1FE1 DUP4 PUSH32 0x4D0FBF7833F858A26F21C7955ED012C260EDD1A28F1A258C1034686AF726E3FE SWAP7 PUSH2 0x1C91 JUMP JUMPDEST DUP1 MLOAD SWAP3 DUP4 MSTORE DUP1 PUSH1 0x20 DUP5 ADD MSTORE DUP3 ADD MSTORE PUSH7 0x7374616B696E67 PUSH1 0xC8 SHL PUSH1 0x60 DUP3 ADD MSTORE LOG2 CODESIZE DUP1 DUP1 DUP1 PUSH2 0x1FAB JUMP JUMPDEST PUSH1 0x40 SWAP1 DUP2 MLOAD SWAP1 PUSH1 0x20 SWAP2 PUSH2 0x2038 DUP4 DUP3 DUP2 PUSH2 0x202B DUP2 DUP4 ADD SWAP7 DUP8 DUP2 MLOAD SWAP4 DUP5 SWAP3 ADD PUSH2 0x1AA6 JUMP JUMPDEST DUP2 ADD SUB DUP1 DUP5 MSTORE ADD DUP3 PUSH2 0x1A84 JUMP JUMPDEST MLOAD SWAP1 KECCAK256 SWAP2 DUP1 MLOAD DUP3 DUP2 ADD SWAP1 PUSH15 0x766F74696E675F6163637572616379 PUSH1 0x88 SHL DUP3 MSTORE PUSH1 0xF DUP2 MSTORE PUSH2 0x2064 DUP2 PUSH2 0x1A68 JUMP JUMPDEST MLOAD SWAP1 KECCAK256 DUP4 SUB PUSH2 0x2076 JUMPI POP POP POP PUSH1 0xA SLOAD SWAP1 JUMP JUMPDEST DUP1 MLOAD DUP3 DUP2 ADD SWAP1 PUSH14 0x32B0B9363CAFB0B237B83A34B7B7 PUSH1 0x91 SHL DUP3 MSTORE PUSH1 0xE DUP2 MSTORE PUSH2 0x209D DUP2 PUSH2 0x1A68 JUMP JUMPDEST MLOAD SWAP1 KECCAK256 DUP4 SUB PUSH2 0x20AF JUMPI POP POP POP PUSH1 0xB SLOAD SWAP1 JUMP JUMPDEST DUP1 MLOAD DUP3 DUP2 ADD SWAP1 PUSH18 0x3634B8BAB4B234BA3CAFB83937BB34B232B9 PUSH1 0x71 SHL DUP3 MSTORE PUSH1 0x12 DUP2 MSTORE PUSH2 0x20DA DUP2 PUSH2 0x1A68 JUMP JUMPDEST MLOAD SWAP1 KECCAK256 DUP4 SUB PUSH2 0x20EC JUMPI POP POP POP PUSH1 0xC SLOAD SWAP1 JUMP JUMPDEST DUP1 MLOAD DUP3 DUP2 ADD SWAP1 PUSH16 0x31B7B73A32B73A2FB1B932B0BA34B7B7 PUSH1 0x81 SHL DUP3 MSTORE PUSH1 0x10 DUP2 MSTORE PUSH2 0x2115 DUP2 PUSH2 0x1A68 JUMP JUMPDEST MLOAD SWAP1 KECCAK256 DUP4 SUB PUSH2 0x2127 JUMPI POP POP POP PUSH1 0xD SLOAD SWAP1 JUMP JUMPDEST MLOAD SWAP1 DUP2 ADD SWAP1 PUSH13 0x31B7B6B6BAB734BA3CAFB3B7BB PUSH1 0x99 SHL DUP3 MSTORE PUSH1 0xD DUP2 MSTORE PUSH2 0x214C DUP2 PUSH2 0x1A68 JUMP JUMPDEST MLOAD SWAP1 KECCAK256 EQ PUSH2 0x2159 JUMPI PUSH1 0x64 SWAP1 JUMP JUMPDEST PUSH1 0xE SLOAD SWAP1 JUMP JUMPDEST SWAP1 SWAP2 SWAP1 PUSH1 0x1 PUSH1 0x1 PUSH1 0xA0 SHL SUB DUP1 DUP3 AND SWAP2 SWAP1 DUP3 ISZERO SWAP1 DUP2 ISZERO DUP1 PUSH2 0x25AC JUMPI JUMPDEST PUSH2 0x2236 JUMPI JUMPDEST POP PUSH2 0x2188 PUSH2 0x1E96 JUMP JUMPDEST ISZERO PUSH2 0x21C4 JUMPI POP PUSH1 0x0 DUP1 MLOAD PUSH1 0x20 PUSH2 0x2AFF DUP4 CODECOPY DUP2 MLOAD SWAP2 MSTORE PUSH1 0x20 DUP5 PUSH2 0x21AF PUSH1 0x0 SWAP6 SWAP7 PUSH1 0x2 SLOAD PUSH2 0x1C6E JUMP JUMPDEST PUSH1 0x2 SSTORE JUMPDEST DUP1 PUSH1 0x2 SLOAD SUB PUSH1 0x2 SSTORE PUSH1 0x40 MLOAD SWAP1 DUP2 MSTORE LOG3 JUMP JUMPDEST SWAP3 PUSH1 0x0 DUP3 DUP2 MSTORE DUP1 PUSH1 0x20 MSTORE PUSH1 0x40 DUP2 KECCAK256 SLOAD SWAP5 DUP3 DUP7 LT PUSH2 0x2205 JUMPI POP DUP2 DUP2 PUSH1 0x40 PUSH1 0x0 DUP1 MLOAD PUSH1 0x20 PUSH2 0x2AFF DUP4 CODECOPY DUP2 MLOAD SWAP2 MSTORE SWAP5 PUSH1 0x0 SWAP8 SWAP9 DUP8 PUSH1 0x20 SWAP7 MSTORE DUP4 DUP7 MSTORE SUB SWAP2 KECCAK256 SSTORE PUSH2 0x21B3 JUMP JUMPDEST PUSH1 0x40 MLOAD PUSH4 0x391434E3 PUSH1 0xE2 SHL DUP2 MSTORE PUSH1 0x1 PUSH1 0x1 PUSH1 0xA0 SHL SUB SWAP2 SWAP1 SWAP2 AND PUSH1 0x4 DUP3 ADD MSTORE PUSH1 0x24 DUP2 ADD DUP7 SWAP1 MSTORE PUSH1 0x44 DUP2 ADD DUP4 SWAP1 MSTORE PUSH1 0x64 SWAP1 REVERT JUMPDEST ADDRESS DUP5 EQ ISZERO DUP1 PUSH2 0x25A3 JUMPI JUMPDEST DUP1 PUSH2 0x2595 JUMPI JUMPDEST DUP1 PUSH2 0x2588 JUMPI JUMPDEST ISZERO PUSH2 0x217F JUMPI SWAP5 SWAP2 SWAP4 SWAP3 PUSH2 0x2710 SWAP5 DUP6 PUSH2 0x2266 PUSH1 0x12 SLOAD DUP7 PUSH2 0x1D56 JUMP JUMPDEST DIV SWAP1 DUP7 PUSH2 0x2275 PUSH1 0x13 SLOAD DUP8 PUSH2 0x1D56 JUMP JUMPDEST DIV SWAP7 PUSH2 0x2283 PUSH1 0x14 SLOAD DUP8 PUSH2 0x1D56 JUMP JUMPDEST DIV SWAP2 PUSH2 0x229D PUSH2 0x2296 DUP5 PUSH2 0x1463 DUP12 DUP6 PUSH2 0x1C6E JUMP JUMPDEST DUP1 SWAP8 PUSH2 0x1D26 JUMP JUMPDEST SWAP2 PUSH2 0x22A6 PUSH2 0x1E96 JUMP JUMPDEST DUP6 ISZERO PUSH2 0x2528 JUMPI PUSH1 0x20 SWAP5 SWAP6 SWAP7 SWAP8 SWAP9 SWAP10 PUSH2 0x22C0 DUP5 PUSH1 0x2 SLOAD PUSH2 0x1C6E JUMP JUMPDEST PUSH1 0x2 SSTORE JUMPDEST PUSH1 0x2 SWAP3 DUP5 DUP5 SLOAD SUB DUP5 SSTORE DUP8 PUSH1 0x40 SWAP6 DUP7 MLOAD SWAP1 DUP2 MSTORE PUSH1 0x0 SWAP14 DUP15 SWAP4 DUP5 DUP5 PUSH1 0x0 DUP1 MLOAD PUSH1 0x20 PUSH2 0x2AFF DUP4 CODECOPY DUP2 MLOAD SWAP2 MSTORE DUP1 SWAP14 DUP2 SWAP7 LOG3 DUP1 PUSH2 0x24C4 JUMPI JUMPDEST POP DUP1 ISZERO ISZERO DUP1 PUSH2 0x24B7 JUMPI JUMPDEST PUSH2 0x2402 JUMPI JUMPDEST POP POP POP POP DUP5 ISZERO ISZERO DUP1 PUSH2 0x23F5 JUMPI JUMPDEST PUSH2 0x2333 JUMPI JUMPDEST POP POP POP POP POP POP POP POP PUSH2 0x232E SWAP2 SWAP3 POP PUSH1 0x11 SLOAD PUSH2 0x1C6E JUMP JUMPDEST PUSH1 0x11 SSTORE JUMP JUMPDEST PUSH1 0x15 SLOAD AND SWAP7 PUSH2 0x2340 PUSH2 0x1E96 JUMP JUMPDEST ISZERO PUSH2 0x2393 JUMPI POP SWAP1 DUP2 DUP2 PUSH2 0x232E SWAP10 SWAP11 PUSH2 0x235C DUP7 PUSH1 0x20 SWAP8 SWAP7 SLOAD PUSH2 0x1C6E JUMP JUMPDEST DUP4 SSTORE JUMPDEST DUP9 PUSH2 0x2380 JUMPI POP POP DUP3 DUP2 SLOAD SUB SWAP1 SSTORE JUMPDEST MLOAD SWAP1 DUP2 MSTORE LOG3 DUP3 SWAP2 CODESIZE DUP1 DUP1 DUP1 DUP1 DUP1 DUP1 PUSH2 0x2318 JUMP JUMPDEST DUP9 DUP2 MSTORE DUP1 DUP7 MSTORE KECCAK256 DUP1 SLOAD DUP5 ADD SWAP1 SSTORE POP PUSH2 0x236D JUMP JUMPDEST SWAP9 DUP6 DUP2 MSTORE DUP1 PUSH1 0x20 MSTORE DUP3 DUP2 KECCAK256 SLOAD SWAP10 DUP5 DUP12 LT PUSH2 0x23C5 JUMPI POP SWAP1 DUP3 DUP3 DUP6 PUSH2 0x232E SWAP12 SWAP13 DUP10 PUSH1 0x20 SWAP9 SWAP8 SWAP7 MSTORE DUP3 DUP9 MSTORE SUB DUP3 DUP3 KECCAK256 SSTORE PUSH2 0x235F JUMP JUMPDEST DUP4 MLOAD PUSH4 0x391434E3 PUSH1 0xE2 SHL DUP2 MSTORE PUSH1 0x1 PUSH1 0x1 PUSH1 0xA0 SHL SUB SWAP2 SWAP1 SWAP2 AND PUSH1 0x4 DUP3 ADD MSTORE PUSH1 0x24 DUP2 ADD DUP12 SWAP1 MSTORE PUSH1 0x44 DUP2 ADD DUP6 SWAP1 MSTORE PUSH1 0x64 SWAP1 REVERT JUMPDEST POP DUP1 PUSH1 0x15 SLOAD AND ISZERO ISZERO PUSH2 0x2313 JUMP JUMPDEST DUP8 DUP6 PUSH1 0x16 SLOAD AND SWAP5 PUSH2 0x2411 PUSH2 0x1E96 JUMP JUMPDEST DUP14 ISZERO PUSH2 0x2459 JUMPI SWAP1 DUP3 SWAP2 PUSH2 0x2427 PUSH1 0x20 SWAP5 DUP12 SLOAD PUSH2 0x1C6E JUMP JUMPDEST DUP11 SSTORE JUMPDEST DUP7 PUSH2 0x2447 JUMPI POP POP DUP1 DUP9 SLOAD SUB DUP9 SSTORE JUMPDEST DUP9 MLOAD SWAP1 DUP2 MSTORE LOG3 DUP11 DUP8 DUP8 CODESIZE PUSH2 0x2306 JUMP JUMPDEST DUP7 DUP2 MSTORE DUP1 DUP5 MSTORE KECCAK256 DUP2 DUP2 SLOAD ADD SWAP1 SSTORE PUSH2 0x2438 JUMP JUMPDEST SWAP2 SWAP4 SWAP3 POP POP MSTORE DUP13 PUSH1 0x20 MSTORE DUP6 DUP14 KECCAK256 SLOAD DUP2 DUP2 LT PUSH2 0x2488 JUMPI PUSH1 0x20 DUP3 DUP16 DUP1 DUP14 SWAP6 DUP14 SWAP6 DUP8 DUP14 SWAP5 MSTORE DUP3 DUP7 MSTORE SUB DUP3 DUP3 KECCAK256 SSTORE PUSH2 0x242A JUMP JUMPDEST DUP7 MLOAD PUSH4 0x391434E3 PUSH1 0xE2 SHL DUP2 MSTORE PUSH1 0x1 PUSH1 0x1 PUSH1 0xA0 SHL SUB DUP7 AND PUSH1 0x4 DUP3 ADD MSTORE PUSH1 0x24 DUP2 ADD SWAP2 SWAP1 SWAP2 MSTORE PUSH1 0x44 DUP2 ADD DUP3 SWAP1 MSTORE PUSH1 0x64 SWAP1 REVERT JUMPDEST POP DUP5 PUSH1 0x16 SLOAD AND ISZERO ISZERO PUSH2 0x2301 JUMP JUMPDEST PUSH2 0x24CC PUSH2 0x1E96 JUMP JUMPDEST DUP13 ISZERO PUSH2 0x24F8 JUMPI DUP4 DUP4 PUSH1 0x20 DUP4 PUSH2 0x24E3 DUP10 SWAP6 DUP14 SLOAD PUSH2 0x1C6E JUMP JUMPDEST DUP13 SSTORE JUMPDEST DUP1 DUP13 SLOAD SUB DUP13 SSTORE DUP13 MLOAD SWAP1 DUP2 MSTORE LOG3 CODESIZE PUSH2 0x22F7 JUMP JUMPDEST SWAP3 SWAP2 POP SWAP3 MSTORE DUP13 PUSH1 0x20 MSTORE DUP6 DUP14 KECCAK256 SLOAD DUP2 DUP2 LT PUSH2 0x2488 JUMPI DUP14 SWAP3 DUP4 DUP12 DUP12 PUSH1 0x20 DUP7 DUP4 SWAP8 DUP4 SWAP8 DUP6 DUP8 MSTORE DUP7 DUP5 MSTORE SUB DUP14 DUP7 KECCAK256 SSTORE PUSH2 0x24E6 JUMP JUMPDEST PUSH1 0x0 SWAP10 DUP6 DUP12 MSTORE DUP11 PUSH1 0x20 MSTORE PUSH1 0x40 DUP12 KECCAK256 SLOAD SWAP11 DUP5 DUP13 LT PUSH2 0x2559 JUMPI PUSH1 0x40 DUP6 DUP9 SWAP10 SWAP11 SWAP12 SWAP13 SWAP14 PUSH1 0x20 SWAP10 DUP5 MSTORE DUP4 DUP11 MSTORE SUB SWAP2 KECCAK256 SSTORE PUSH2 0x22C4 JUMP JUMPDEST PUSH1 0x40 MLOAD PUSH4 0x391434E3 PUSH1 0xE2 SHL DUP2 MSTORE PUSH1 0x1 PUSH1 0x1 PUSH1 0xA0 SHL SUB DUP5 AND PUSH1 0x4 DUP3 ADD MSTORE PUSH1 0x24 DUP2 ADD DUP14 SWAP1 MSTORE PUSH1 0x44 DUP2 ADD DUP7 SWAP1 MSTORE PUSH1 0x64 SWAP1 REVERT JUMPDEST POP DUP1 PUSH1 0x17 SLOAD AND ISZERO ISZERO PUSH2 0x224C JUMP JUMPDEST POP DUP1 PUSH1 0x17 SLOAD AND DUP5 EQ ISZERO PUSH2 0x2246 JUMP JUMPDEST POP ADDRESS ISZERO ISZERO PUSH2 0x2240 JUMP JUMPDEST POP PUSH1 0x0 PUSH2 0x217A JUMP JUMPDEST PUSH1 0x1 PUSH1 0x1 PUSH1 0xA0 SHL SUB DUP1 DUP3 AND SWAP3 SWAP1 SWAP2 DUP4 ISZERO DUP1 ISZERO DUP1 PUSH2 0x2A25 JUMPI JUMPDEST PUSH2 0x26A4 JUMPI JUMPDEST PUSH2 0x25D9 PUSH2 0x1E96 JUMP JUMPDEST ISZERO PUSH2 0x2633 JUMPI POP PUSH1 0x0 DUP1 MLOAD PUSH1 0x20 PUSH2 0x2AFF DUP4 CODECOPY DUP2 MLOAD SWAP2 MSTORE SWAP2 PUSH1 0x20 SWAP2 PUSH2 0x25FE DUP7 PUSH1 0x2 SLOAD PUSH2 0x1C6E JUMP JUMPDEST PUSH1 0x2 SSTORE JUMPDEST AND SWAP4 DUP5 PUSH2 0x261B JUMPI DUP1 PUSH1 0x2 SLOAD SUB PUSH1 0x2 SSTORE JUMPDEST PUSH1 0x40 MLOAD SWAP1 DUP2 MSTORE LOG3 JUMP JUMPDEST DUP5 PUSH1 0x0 MSTORE PUSH1 0x0 DUP3 MSTORE PUSH1 0x40 PUSH1 0x0 KECCAK256 DUP2 DUP2 SLOAD ADD SWAP1 SSTORE PUSH2 0x2612 JUMP JUMPDEST PUSH1 0x0 SWAP1 DUP5 DUP3 MSTORE DUP2 PUSH1 0x20 MSTORE PUSH1 0x40 DUP3 KECCAK256 SLOAD SWAP1 DUP7 DUP3 LT PUSH2 0x2672 JUMPI POP SWAP2 DUP2 PUSH1 0x40 DUP8 PUSH1 0x20 SWAP6 DUP9 PUSH1 0x0 DUP1 MLOAD PUSH1 0x20 PUSH2 0x2AFF DUP4 CODECOPY DUP2 MLOAD SWAP2 MSTORE SWAP9 SWAP7 MSTORE DUP4 DUP8 MSTORE SUB SWAP2 KECCAK256 SSTORE PUSH2 0x2602 JUMP JUMPDEST PUSH1 0x40 MLOAD PUSH4 0x391434E3 PUSH1 0xE2 SHL DUP2 MSTORE PUSH1 0x1 PUSH1 0x1 PUSH1 0xA0 SHL SUB SWAP2 SWAP1 SWAP2 AND PUSH1 0x4 DUP3 ADD MSTORE PUSH1 0x24 DUP2 ADD SWAP2 SWAP1 SWAP2 MSTORE PUSH1 0x44 DUP2 ADD DUP7 SWAP1 MSTORE PUSH1 0x64 SWAP1 REVERT JUMPDEST ADDRESS DUP6 EQ ISZERO DUP1 PUSH2 0x2A19 JUMPI JUMPDEST DUP1 PUSH2 0x2A0B JUMPI JUMPDEST DUP1 PUSH2 0x29FB JUMPI JUMPDEST ISZERO PUSH2 0x25D1 JUMPI SWAP3 SWAP1 SWAP6 SWAP5 SWAP4 SWAP2 PUSH2 0x2710 SWAP2 DUP3 PUSH2 0x26D6 PUSH1 0x12 SLOAD DUP9 PUSH2 0x1D56 JUMP JUMPDEST DIV DUP4 PUSH2 0x26E4 PUSH1 0x13 SLOAD DUP10 PUSH2 0x1D56 JUMP JUMPDEST DIV SWAP4 PUSH2 0x26F2 PUSH1 0x14 SLOAD DUP10 PUSH2 0x1D56 JUMP JUMPDEST DIV SWAP2 DUP1 PUSH2 0x270D PUSH2 0x2706 DUP6 PUSH2 0x1463 DUP10 DUP8 PUSH2 0x1C6E JUMP JUMPDEST DUP1 SWAP11 PUSH2 0x1D26 JUMP JUMPDEST SWAP5 PUSH2 0x2716 PUSH2 0x1E96 JUMP JUMPDEST DUP9 ISZERO PUSH2 0x299D JUMPI PUSH2 0x2728 DUP7 PUSH1 0x2 SLOAD PUSH2 0x1C6E JUMP JUMPDEST PUSH1 0x2 SSTORE JUMPDEST AND SWAP5 DUP6 PUSH2 0x2984 JUMPI DUP5 PUSH1 0x2 SLOAD SUB PUSH1 0x2 SSTORE JUMPDEST PUSH1 0x40 SWAP3 DUP4 MLOAD SWAP6 DUP7 MSTORE PUSH1 0x0 DUP1 MLOAD PUSH1 0x20 PUSH2 0x2AFF DUP4 CODECOPY DUP2 MLOAD SWAP2 MSTORE SWAP7 DUP9 DUP9 PUSH1 0x20 DUP1 SWAP10 LOG3 DUP1 PUSH2 0x291D JUMPI JUMPDEST POP DUP1 ISZERO ISZERO DUP1 PUSH2 0x2910 JUMPI JUMPDEST PUSH2 0x285B JUMPI JUMPDEST POP DUP3 ISZERO ISZERO DUP1 PUSH2 0x284E JUMPI JUMPDEST PUSH2 0x2794 JUMPI JUMPDEST POP POP POP POP POP POP POP PUSH2 0x232E SWAP2 SWAP3 POP PUSH1 0x11 SLOAD PUSH2 0x1C6E JUMP JUMPDEST PUSH1 0x15 SLOAD AND SWAP6 PUSH2 0x27A1 PUSH2 0x1E96 JUMP JUMPDEST ISZERO PUSH2 0x27F3 JUMPI PUSH2 0x232E SWAP8 SWAP9 POP PUSH2 0x27B8 DUP3 PUSH1 0x2 SLOAD PUSH2 0x1C6E JUMP JUMPDEST PUSH1 0x2 SSTORE JUMPDEST DUP6 PUSH2 0x27DC JUMPI DUP2 PUSH1 0x2 SLOAD SUB PUSH1 0x2 SSTORE JUMPDEST MLOAD SWAP1 DUP2 MSTORE LOG3 DUP3 SWAP2 CODESIZE DUP1 DUP1 DUP1 DUP1 DUP1 PUSH2 0x277F JUMP JUMPDEST DUP6 PUSH1 0x0 MSTORE PUSH1 0x0 DUP4 MSTORE DUP1 PUSH1 0x0 KECCAK256 DUP3 DUP2 SLOAD ADD SWAP1 SSTORE PUSH2 0x27CA JUMP JUMPDEST PUSH1 0x0 DUP6 DUP2 MSTORE DUP1 DUP5 MSTORE DUP2 DUP2 KECCAK256 SLOAD SWAP10 DUP4 DUP12 LT PUSH2 0x281E JUMPI POP DUP2 DUP4 PUSH2 0x232E SWAP11 SWAP12 DUP9 DUP5 MSTORE DUP4 DUP8 MSTORE SUB SWAP2 KECCAK256 SSTORE PUSH2 0x27BC JUMP JUMPDEST DUP3 MLOAD PUSH4 0x391434E3 PUSH1 0xE2 SHL DUP2 MSTORE PUSH1 0x1 PUSH1 0x1 PUSH1 0xA0 SHL SUB SWAP2 SWAP1 SWAP2 AND PUSH1 0x4 DUP3 ADD MSTORE PUSH1 0x24 DUP2 ADD DUP12 SWAP1 MSTORE PUSH1 0x44 DUP2 ADD DUP5 SWAP1 MSTORE PUSH1 0x64 SWAP1 REVERT JUMPDEST POP DUP1 PUSH1 0x15 SLOAD AND ISZERO ISZERO PUSH2 0x277A JUMP JUMPDEST DUP7 DUP7 DUP7 DUP5 PUSH1 0x16 SLOAD AND SWAP4 PUSH2 0x286C PUSH2 0x1E96 JUMP JUMPDEST DUP12 ISZERO PUSH2 0x28B3 JUMPI PUSH2 0x287E DUP2 PUSH1 0x2 SLOAD PUSH2 0x1C6E JUMP JUMPDEST PUSH1 0x2 SSTORE JUMPDEST DUP5 PUSH2 0x289C JUMPI DUP1 PUSH1 0x2 SLOAD SUB PUSH1 0x2 SSTORE JUMPDEST DUP7 MLOAD SWAP1 DUP2 MSTORE LOG3 CODESIZE PUSH2 0x2770 JUMP JUMPDEST DUP5 PUSH1 0x0 MSTORE PUSH1 0x0 DUP3 MSTORE DUP7 PUSH1 0x0 KECCAK256 DUP2 DUP2 SLOAD ADD SWAP1 SSTORE PUSH2 0x2890 JUMP JUMPDEST SWAP3 POP POP POP PUSH1 0x0 DUP9 DUP2 MSTORE DUP1 DUP8 MSTORE DUP5 DUP2 KECCAK256 SLOAD DUP3 DUP2 LT PUSH2 0x28E1 JUMPI DUP3 DUP3 DUP8 DUP13 SWAP6 DUP12 SWAP5 DUP8 DUP15 SWAP8 MSTORE DUP4 DUP7 MSTORE SUB SWAP2 KECCAK256 SSTORE PUSH2 0x2882 JUMP JUMPDEST DUP6 MLOAD PUSH4 0x391434E3 PUSH1 0xE2 SHL DUP2 MSTORE PUSH1 0x1 PUSH1 0x1 PUSH1 0xA0 SHL SUB DUP16 AND PUSH1 0x4 DUP3 ADD MSTORE PUSH1 0x24 DUP2 ADD SWAP2 SWAP1 SWAP2 MSTORE PUSH1 0x44 DUP2 ADD DUP4 SWAP1 MSTORE PUSH1 0x64 SWAP1 REVERT JUMPDEST POP DUP2 PUSH1 0x16 SLOAD AND ISZERO ISZERO PUSH2 0x276B JUMP JUMPDEST PUSH2 0x2925 PUSH2 0x1E96 JUMP JUMPDEST DUP8 DUP8 DUP8 DUP12 ISZERO PUSH2 0x2955 JUMPI DUP4 PUSH2 0x293D PUSH1 0x0 SWAP6 PUSH1 0x2 SLOAD PUSH2 0x1C6E JUMP JUMPDEST PUSH1 0x2 SSTORE JUMPDEST DUP1 PUSH1 0x2 SLOAD SUB PUSH1 0x2 SSTORE DUP8 MLOAD SWAP1 DUP2 MSTORE LOG3 CODESIZE PUSH2 0x2761 JUMP JUMPDEST POP POP POP PUSH1 0x0 DUP9 DUP2 MSTORE DUP1 DUP8 MSTORE DUP5 DUP2 KECCAK256 SLOAD DUP3 DUP2 LT PUSH2 0x28E1 JUMPI DUP8 DUP4 DUP4 DUP9 PUSH1 0x0 SWAP7 DUP14 SWAP6 DUP16 DUP1 SWAP9 MSTORE DUP4 DUP7 MSTORE SUB SWAP2 KECCAK256 SSTORE PUSH2 0x2941 JUMP JUMPDEST DUP6 PUSH1 0x0 MSTORE PUSH1 0x0 PUSH1 0x20 MSTORE PUSH1 0x40 PUSH1 0x0 KECCAK256 DUP6 DUP2 SLOAD ADD SWAP1 SSTORE PUSH2 0x273C JUMP JUMPDEST SWAP1 POP PUSH1 0x0 DUP8 DUP2 MSTORE DUP1 PUSH1 0x20 MSTORE PUSH1 0x40 DUP2 KECCAK256 SLOAD DUP7 DUP2 LT PUSH2 0x29CB JUMPI SWAP1 PUSH1 0x40 DUP8 DUP6 SWAP5 SWAP4 DUP12 DUP5 MSTORE DUP4 PUSH1 0x20 MSTORE SUB SWAP2 KECCAK256 SSTORE PUSH2 0x272C JUMP JUMPDEST PUSH1 0x40 MLOAD PUSH4 0x391434E3 PUSH1 0xE2 SHL DUP2 MSTORE PUSH1 0x1 PUSH1 0x1 PUSH1 0xA0 SHL SUB DUP15 AND PUSH1 0x4 DUP3 ADD MSTORE PUSH1 0x24 DUP2 ADD SWAP2 SWAP1 SWAP2 MSTORE PUSH1 0x44 DUP2 ADD DUP8 SWAP1 MSTORE PUSH1 0x64 SWAP1 REVERT JUMPDEST POP DUP4 PUSH1 0x17 SLOAD AND DUP5 DUP5 AND EQ ISZERO PUSH2 0x26BA JUMP JUMPDEST POP DUP4 PUSH1 0x17 SLOAD AND DUP6 EQ ISZERO PUSH2 0x26B4 JUMP JUMPDEST POP ADDRESS DUP5 DUP5 AND EQ ISZERO PUSH2 0x26AE JUMP JUMPDEST POP DUP4 DUP4 AND ISZERO ISZERO PUSH2 0x25CC JUMP JUMPDEST PUSH1 0x1 PUSH1 0x1 PUSH1 0xA0 SHL SUB AND PUSH1 0x0 SWAP1 DUP2 MSTORE PUSH1 0x10 PUSH1 0x20 MSTORE PUSH1 0x40 SWAP1 DUP2 SWAP1 KECCAK256 DUP2 MLOAD SWAP2 PUSH2 0x2A55 DUP4 PUSH2 0x1A4C JUMP JUMPDEST DUP2 SLOAD SWAP2 DUP3 DUP5 MSTORE PUSH1 0x1 DUP2 ADD SLOAD SWAP3 DUP4 PUSH1 0x20 DUP7 ADD MSTORE PUSH1 0x2 DUP3 ADD SLOAD DUP4 DUP7 ADD MSTORE PUSH1 0xFF PUSH1 0x5 PUSH1 0x3 DUP5 ADD SLOAD SWAP4 PUSH1 0x60 DUP9 ADD SWAP5 DUP6 MSTORE PUSH1 0x4 DUP2 ADD SLOAD PUSH1 0x80 DUP10 ADD MSTORE ADD SLOAD AND ISZERO ISZERO PUSH1 0xA0 DUP7 ADD MSTORE ISZERO PUSH2 0x1E52 JUMPI PUSH5 0x496CEBB800 SWAP4 PUSH2 0x2AF3 PUSH2 0x1F71 SWAP3 PUSH2 0x2AFA SWAP6 PUSH1 0x0 MSTORE PUSH1 0xF PUSH1 0x20 MSTORE DUP5 PUSH1 0x0 KECCAK256 PUSH1 0x60 PUSH1 0xFF PUSH1 0x3 DUP9 MLOAD SWAP4 PUSH2 0x2ACA DUP6 PUSH2 0x1A30 JUMP JUMPDEST DUP1 SLOAD DUP6 MSTORE PUSH1 0x1 DUP2 ADD SLOAD SWAP10 PUSH1 0x20 DUP7 ADD SWAP11 DUP12 MSTORE PUSH1 0x2 DUP3 ADD SLOAD SWAP1 DUP7 ADD MSTORE ADD SLOAD AND ISZERO ISZERO SWAP2 ADD MSTORE MLOAD TIMESTAMP PUSH2 0x1D26 JUMP JUMPDEST SWAP1 MLOAD PUSH2 0x1D56 JUMP JUMPDEST DIV SWAP1 JUMP INVALID 0xDD CALLCODE MSTORE 0xAD SHL 0xE2 0xC8 SWAP12 PUSH10 0xC2B068FC378DAA952BA7 CALL PUSH4 0xC4A11628 CREATE2 GAS 0x4D CREATE2 0x23 0xB3 0xEF LOG2 PUSH5 0x6970667358 0x22 SLT KECCAK256 0xA5 0xE1 CALLER MSTORE8 POP SWAP10 SWAP2 0xAA LOG1 DUP8 0x2E ADDMOD DUP8 0x49 0xA6 PUSH31 0xCE3964DE6420ACFB858F05EE71DA894764736F6C6343000814003300000000 "},"methodIdentifiers":{"INITIAL_MINT()":"ca7df92c","MAX_SUPPLY()":"32cb6b0c","addMinter(address)":"983b2d56","allowance(address,address)":"dd62ed3e","approve(address,uint256)":"095ea7b3","balanceOf(address)":"70a08231","burn(uint256)":"42966c68","burnFrom(address,uint256)":"79cc6790","burnRate()":"bed99850","calculateStakingRewards(address)":"d47768de","claimStakingRewards()":"6b69e05b","createVestingSchedule(address,uint256,uint256,uint256,bool)":"0f19734f","decimals()":"313ce567","distributeActivityReward(address,uint256,string)":"00b1dba4","getStakingTier(uint256)":"b3c6cd76","getUserStakeInfo(address)":"c32d3ae2","getVestedAmount(address)":"d5a73fdd","getVestingSchedule(address)":"9f829063","knowledgeDAO()":"fa578b6c","mint(address,uint256)":"40c10f19","minters(address)":"f46eccc4","name()":"06fdde03","owner()":"8da5cb5b","pause()":"8456cb59","paused()":"5c975abb","releaseVestedTokens()":"54dd1da4","removeMinter(address)":"3092afd5","renounceOwnership()":"715018a6","rewardMultipliers()":"7e3d816c","rewardPool()":"66666aa9","rewardPoolRate()":"366d5ada","setKnowledgeDAO(address)":"7e4ae350","stake(uint256,uint256)":"7b0472f0","stakingRewards(address)":"499d7f96","stakingTiers(uint256)":"d50267ee","symbol()":"95d89b41","totalFeesCollected()":"60c6d8ae","totalSupply()":"18160ddd","transfer(address,uint256)":"a9059cbb","transferFrom(address,address,uint256)":"23b872dd","transferOwnership(address)":"f2fde38b","treasuryRate()":"e4b72516","treasuryWallet()":"4626402b","unpause()":"3f4ba83a","unstake()":"2def6620","updateFeeRates(uint256,uint256,uint256)":"2a61ff9a","updateRewardMultipliers(uint256,uint256,uint256,uint256,uint256)":"c21c6ceb","updateStakingTier(uint256,uint256,uint256,uint256,bool)":"92c1a8e2","userStakes(address)":"8da7ad23","vestingSchedules(address)":"fdb20ccb"}},"storageLayout":{"storage":[{"astId":687,"contract":"contracts/STokenERC20.sol:STokenERC20","label":"_balances","offset":0,"slot":"0","type":"t_mapping(t_address,t_uint256)"},{"astId":693,"contract":"contracts/STokenERC20.sol:STokenERC20","label":"_allowances","offset":0,"slot":"1","type":"t_mapping(t_address,t_mapping(t_address,t_uint256))"},{"astId":695,"contract":"contracts/STokenERC20.sol:STokenERC20","label":"_totalSupply","offset":0,"slot":"2","type":"t_uint256"},{"astId":697,"contract":"contracts/STokenERC20.sol:STokenERC20","label":"_name","offset":0,"slot":"3","type":"t_string_storage"},{"astId":699,"contract":"contracts/STokenERC20.sol:STokenERC20","label":"_symbol","offset":0,"slot":"4","type":"t_string_storage"},{"astId":1402,"contract":"contracts/STokenERC20.sol:STokenERC20","label":"_paused","offset":0,"slot":"5","type":"t_bool"},{"astId":388,"contract":"contracts/STokenERC20.sol:STokenERC20","label":"_owner","offset":1,"slot":"5","type":"t_address"},{"astId":1512,"contract":"contracts/STokenERC20.sol:STokenERC20","label":"_status","offset":0,"slot":"6","type":"t_uint256"},{"astId":5237,"contract":"contracts/STokenERC20.sol:STokenERC20","label":"vestingSchedules","offset":0,"slot":"7","type":"t_mapping(t_address,t_struct(VestingSchedule)5260_storage)"},{"astId":5241,"contract":"contracts/STokenERC20.sol:STokenERC20","label":"minters","offset":0,"slot":"8","type":"t_mapping(t_address,t_bool)"},{"astId":5245,"contract":"contracts/STokenERC20.sol:STokenERC20","label":"stakingRewards","offset":0,"slot":"9","type":"t_mapping(t_address,t_uint256)"},{"astId":5274,"contract":"contracts/STokenERC20.sol:STokenERC20","label":"rewardMultipliers","offset":0,"slot":"10","type":"t_struct(RewardMultipliers)5271_storage"},{"astId":5288,"contract":"contracts/STokenERC20.sol:STokenERC20","label":"stakingTiers","offset":0,"slot":"15","type":"t_mapping(t_uint256,t_struct(StakingTier)5283_storage)"},{"astId":5293,"contract":"contracts/STokenERC20.sol:STokenERC20","label":"userStakes","offset":0,"slot":"16","type":"t_mapping(t_address,t_struct(UserStakeInfo)5306_storage)"},{"astId":5308,"contract":"contracts/STokenERC20.sol:STokenERC20","label":"totalFeesCollected","offset":0,"slot":"17","type":"t_uint256"},{"astId":5311,"contract":"contracts/STokenERC20.sol:STokenERC20","label":"burnRate","offset":0,"slot":"18","type":"t_uint256"},{"astId":5314,"contract":"contracts/STokenERC20.sol:STokenERC20","label":"rewardPoolRate","offset":0,"slot":"19","type":"t_uint256"},{"astId":5317,"contract":"contracts/STokenERC20.sol:STokenERC20","label":"treasuryRate","offset":0,"slot":"20","type":"t_uint256"},{"astId":5319,"contract":"contracts/STokenERC20.sol:STokenERC20","label":"treasuryWallet","offset":0,"slot":"21","type":"t_address"},{"astId":5321,"contract":"contracts/STokenERC20.sol:STokenERC20","label":"rewardPool","offset":0,"slot":"22","type":"t_address"},{"astId":5323,"contract":"contracts/STokenERC20.sol:STokenERC20","label":"knowledgeDAO","offset":0,"slot":"23","type":"t_address"}],"types":{"t_address":{"encoding":"inplace","label":"address","numberOfBytes":"20"},"t_bool":{"encoding":"inplace","label":"bool","numberOfBytes":"1"},"t_mapping(t_address,t_bool)":{"encoding":"mapping","key":"t_address","label":"mapping(address => bool)","numberOfBytes":"32","value":"t_bool"},"t_mapping(t_address,t_mapping(t_address,t_uint256))":{"encoding":"mapping","key":"t_address","label":"mapping(address => mapping(address => uint256))","numberOfBytes":"32","value":"t_mapping(t_address,t_uint256)"},"t_mapping(t_address,t_struct(UserStakeInfo)5306_storage)":{"encoding":"mapping","key":"t_address","label":"mapping(address => struct STokenERC20.UserStakeInfo)","numberOfBytes":"32","value":"t_struct(UserStakeInfo)5306_storage"},"t_mapping(t_address,t_struct(VestingSchedule)5260_storage)":{"encoding":"mapping","key":"t_address","label":"mapping(address => struct STokenERC20.VestingSchedule)","numberOfBytes":"32","value":"t_struct(VestingSchedule)5260_storage"},"t_mapping(t_address,t_uint256)":{"encoding":"mapping","key":"t_address","label":"mapping(address => uint256)","numberOfBytes":"32","value":"t_uint256"},"t_mapping(t_uint256,t_struct(StakingTier)5283_storage)":{"encoding":"mapping","key":"t_uint256","label":"mapping(uint256 => struct STokenERC20.StakingTier)","numberOfBytes":"32","value":"t_struct(StakingTier)5283_storage"},"t_string_storage":{"encoding":"bytes","label":"string","numberOfBytes":"32"},"t_struct(RewardMultipliers)5271_storage":{"encoding":"inplace","label":"struct STokenERC20.RewardMultipliers","members":[{"astId":5262,"contract":"contracts/STokenERC20.sol:STokenERC20","label":"votingAccuracy","offset":0,"slot":"0","type":"t_uint256"},{"astId":5264,"contract":"contracts/STokenERC20.sol:STokenERC20","label":"earlyAdoption","offset":0,"slot":"1","type":"t_uint256"},{"astId":5266,"contract":"contracts/STokenERC20.sol:STokenERC20","label":"liquidityProvider","offset":0,"slot":"2","type":"t_uint256"},{"astId":5268,"contract":"contracts/STokenERC20.sol:STokenERC20","label":"contentCreation","offset":0,"slot":"3","type":"t_uint256"},{"astId":5270,"contract":"contracts/STokenERC20.sol:STokenERC20","label":"communityGov","offset":0,"slot":"4","type":"t_uint256"}],"numberOfBytes":"160"},"t_struct(StakingTier)5283_storage":{"encoding":"inplace","label":"struct STokenERC20.StakingTier","members":[{"astId":5276,"contract":"contracts/STokenERC20.sol:STokenERC20","label":"minAmount","offset":0,"slot":"0","type":"t_uint256"},{"astId":5278,"contract":"contracts/STokenERC20.sol:STokenERC20","label":"multiplier","offset":0,"slot":"1","type":"t_uint256"},{"astId":5280,"contract":"contracts/STokenERC20.sol:STokenERC20","label":"lockPeriod","offset":0,"slot":"2","type":"t_uint256"},{"astId":5282,"contract":"contracts/STokenERC20.sol:STokenERC20","label":"active","offset":0,"slot":"3","type":"t_bool"}],"numberOfBytes":"128"},"t_struct(UserStakeInfo)5306_storage":{"encoding":"inplace","label":"struct STokenERC20.UserStakeInfo","members":[{"astId":5295,"contract":"contracts/STokenERC20.sol:STokenERC20","label":"amount","offset":0,"slot":"0","type":"t_uint256"},{"astId":5297,"contract":"contracts/STokenERC20.sol:STokenERC20","label":"tier","offset":0,"slot":"1","type":"t_uint256"},{"astId":5299,"contract":"contracts/STokenERC20.sol:STokenERC20","label":"startTime","offset":0,"slot":"2","type":"t_uint256"},{"astId":5301,"contract":"contracts/STokenERC20.sol:STokenERC20","label":"lastRewardClaim","offset":0,"slot":"3","type":"t_uint256"},{"astId":5303,"contract":"contracts/STokenERC20.sol:STokenERC20","label":"rewardDebt","offset":0,"slot":"4","type":"t_uint256"},{"astId":5305,"contract":"contracts/STokenERC20.sol:STokenERC20","label":"isLocked","offset":0,"slot":"5","type":"t_bool"}],"numberOfBytes":"192"},"t_struct(VestingSchedule)5260_storage":{"encoding":"inplace","label":"struct STokenERC20.VestingSchedule","members":[{"astId":5247,"contract":"contracts/STokenERC20.sol:STokenERC20","label":"totalAmount","offset":0,"slot":"0","type":"t_uint256"},{"astId":5249,"contract":"contracts/STokenERC20.sol:STokenERC20","label":"releasedAmount","offset":0,"slot":"1","type":"t_uint256"},{"astId":5251,"contract":"contracts/STokenERC20.sol:STokenERC20","label":"startTime","offset":0,"slot":"2","type":"t_uint256"},{"astId":5253,"contract":"contracts/STokenERC20.sol:STokenERC20","label":"cliffDuration","offset":0,"slot":"3","type":"t_uint256"},{"astId":5255,"contract":"contracts/STokenERC20.sol:STokenERC20","label":"vestingDuration","offset":0,"slot":"4","type":"t_uint256"},{"astId":5257,"contract":"contracts/STokenERC20.sol:STokenERC20","label":"revocable","offset":0,"slot":"5","type":"t_bool"},{"astId":5259,"contract":"contracts/STokenERC20.sol:STokenERC20","label":"revoked","offset":1,"slot":"5","type":"t_bool"}],"numberOfBytes":"192"},"t_uint256":{"encoding":"inplace","label":"uint256","numberOfBytes":"32"}}}}}}