{"contracts/KnowledgeDAO.sol":{"KnowledgeDAO":{"abi":[{"inputs":[{"internalType":"address","name":"initialOwner","type":"address"},{"internalType":"address","name":"_sToken","type":"address"}],"stateMutability":"nonpayable","type":"constructor"},{"inputs":[],"name":"EnforcedPause","type":"error"},{"inputs":[],"name":"ExpectedPause","type":"error"},{"inputs":[{"internalType":"address","name":"owner","type":"address"}],"name":"OwnableInvalidOwner","type":"error"},{"inputs":[{"internalType":"address","name":"account","type":"address"}],"name":"OwnableUnauthorizedAccount","type":"error"},{"inputs":[],"name":"ReentrancyGuardReentrantCall","type":"error"},{"anonymous":false,"inputs":[{"indexed":true,"internalType":"uint256","name":"contentId","type":"uint256"},{"indexed":false,"internalType":"bool","name":"approved","type":"bool"}],"name":"ContentFinalized","type":"event"},{"anonymous":false,"inputs":[{"indexed":true,"internalType":"uint256","name":"contentId","type":"uint256"},{"indexed":true,"internalType":"address","name":"aiAgent","type":"address"},{"indexed":false,"internalType":"string","name":"contentHash","type":"string"}],"name":"ContentSubmitted","type":"event"},{"anonymous":false,"inputs":[{"indexed":true,"internalType":"address","name":"previousOwner","type":"address"},{"indexed":true,"internalType":"address","name":"newOwner","type":"address"}],"name":"OwnershipTransferred","type":"event"},{"anonymous":false,"inputs":[{"indexed":false,"internalType":"address","name":"account","type":"address"}],"name":"Paused","type":"event"},{"anonymous":false,"inputs":[{"indexed":true,"internalType":"address","name":"user","type":"address"},{"indexed":false,"internalType":"uint256","name":"amount","type":"uint256"}],"name":"RewardsClaimed","type":"event"},{"anonymous":false,"inputs":[{"indexed":false,"internalType":"address","name":"account","type":"address"}],"name":"Unpaused","type":"event"},{"anonymous":false,"inputs":[{"indexed":true,"internalType":"uint256","name":"contentId","type":"uint256"},{"indexed":true,"internalType":"address","name":"voter","type":"address"},{"indexed":false,"internalType":"uint256","name":"amount","type":"uint256"},{"indexed":false,"internalType":"bool","name":"positive","type":"bool"}],"name":"VoteCast","type":"event"},{"inputs":[{"internalType":"uint256","name":"","type":"uint256"}],"name":"aiContents","outputs":[{"internalType":"uint256","name":"id","type":"uint256"},{"internalType":"string","name":"contentHash","type":"string"},{"internalType":"address","name":"aiAgent","type":"address"},{"internalType":"uint256","name":"timestamp","type":"uint256"},{"internalType":"uint256","name":"totalStaked","type":"uint256"},{"internalType":"uint256","name":"positiveVotes","type":"uint256"},{"internalType":"uint256","name":"negativeVotes","type":"uint256"},{"internalType":"bool","name":"finalized","type":"bool"},{"internalType":"uint256","name":"rewardPool","type":"uint256"}],"stateMutability":"view","type":"function"},{"inputs":[{"internalType":"address","name":"_aiAgent","type":"address"}],"name":"authorizeAI","outputs":[],"stateMutability":"nonpayable","type":"function"},{"inputs":[{"internalType":"address","name":"","type":"address"}],"name":"authorizedAI","outputs":[{"internalType":"bool","name":"","type":"bool"}],"stateMutability":"view","type":"function"},{"inputs":[{"internalType":"uint256","name":"_contentId","type":"uint256"}],"name":"claimRewards","outputs":[],"stateMutability":"nonpayable","type":"function"},{"inputs":[],"name":"contentCounter","outputs":[{"internalType":"uint256","name":"","type":"uint256"}],"stateMutability":"view","type":"function"},{"inputs":[{"internalType":"uint256","name":"_contentId","type":"uint256"}],"name":"finalizeContent","outputs":[],"stateMutability":"nonpayable","type":"function"},{"inputs":[{"internalType":"uint256","name":"_contentId","type":"uint256"}],"name":"getContentDetails","outputs":[{"components":[{"internalType":"uint256","name":"id","type":"uint256"},{"internalType":"string","name":"contentHash","type":"string"},{"internalType":"address","name":"aiAgent","type":"address"},{"internalType":"uint256","name":"timestamp","type":"uint256"},{"internalType":"uint256","name":"totalStaked","type":"uint256"},{"internalType":"uint256","name":"positiveVotes","type":"uint256"},{"internalType":"uint256","name":"negativeVotes","type":"uint256"},{"internalType":"bool","name":"finalized","type":"bool"},{"internalType":"uint256","name":"rewardPool","type":"uint256"}],"internalType":"struct KnowledgeDAO.AIContent","name":"","type":"tuple"}],"stateMutability":"view","type":"function"},{"inputs":[{"internalType":"uint256","name":"_contentId","type":"uint256"},{"internalType":"address","name":"_user","type":"address"}],"name":"getUserVote","outputs":[{"components":[{"internalType":"uint256","name":"amount","type":"uint256"},{"internalType":"bool","name":"positive","type":"bool"},{"internalType":"uint256","name":"timestamp","type":"uint256"},{"internalType":"bool","name":"claimed","type":"bool"}],"internalType":"struct KnowledgeDAO.Vote","name":"","type":"tuple"}],"stateMutability":"view","type":"function"},{"inputs":[],"name":"minStakeAmount","outputs":[{"internalType":"uint256","name":"","type":"uint256"}],"stateMutability":"view","type":"function"},{"inputs":[],"name":"owner","outputs":[{"internalType":"address","name":"","type":"address"}],"stateMutability":"view","type":"function"},{"inputs":[],"name":"pause","outputs":[],"stateMutability":"nonpayable","type":"function"},{"inputs":[],"name":"paused","outputs":[{"internalType":"bool","name":"","type":"bool"}],"stateMutability":"view","type":"function"},{"inputs":[],"name":"renounceOwnership","outputs":[],"stateMutability":"nonpayable","type":"function"},{"inputs":[],"name":"rewardPercentage","outputs":[{"internalType":"uint256","name":"","type":"uint256"}],"stateMutability":"view","type":"function"},{"inputs":[],"name":"sToken","outputs":[{"internalType":"contract IERC20","name":"","type":"address"}],"stateMutability":"view","type":"function"},{"inputs":[{"internalType":"string","name":"_contentHash","type":"string"}],"name":"submitContent","outputs":[],"stateMutability":"nonpayable","type":"function"},{"inputs":[{"internalType":"address","name":"newOwner","type":"address"}],"name":"transferOwnership","outputs":[],"stateMutability":"nonpayable","type":"function"},{"inputs":[],"name":"unpause","outputs":[],"stateMutability":"nonpayable","type":"function"},{"inputs":[{"internalType":"uint256","name":"_newAmount","type":"uint256"}],"name":"updateMinStakeAmount","outputs":[],"stateMutability":"nonpayable","type":"function"},{"inputs":[{"internalType":"uint256","name":"_newPeriod","type":"uint256"}],"name":"updateVotingPeriod","outputs":[],"stateMutability":"nonpayable","type":"function"},{"inputs":[{"internalType":"address","name":"","type":"address"}],"name":"userStats","outputs":[{"internalType":"uint256","name":"totalStaked","type":"uint256"},{"internalType":"uint256","name":"accuracyScore","type":"uint256"},{"internalType":"uint256","name":"totalRewards","type":"uint256"},{"internalType":"uint256","name":"votingPower","type":"uint256"}],"stateMutability":"view","type":"function"},{"inputs":[{"internalType":"uint256","name":"_contentId","type":"uint256"},{"internalType":"uint256","name":"_amount","type":"uint256"},{"internalType":"bool","name":"_positive","type":"bool"}],"name":"voteOnContent","outputs":[],"stateMutability":"nonpayable","type":"function"},{"inputs":[{"internalType":"uint256","name":"","type":"uint256"},{"internalType":"address","name":"","type":"address"}],"name":"votes","outputs":[{"internalType":"uint256","name":"amount","type":"uint256"},{"internalType":"bool","name":"positive","type":"bool"},{"internalType":"uint256","name":"timestamp","type":"uint256"},{"internalType":"bool","name":"claimed","type":"bool"}],"stateMutability":"view","type":"function"},{"inputs":[],"name":"votingPeriod","outputs":[{"internalType":"uint256","name":"","type":"uint256"}],"stateMutability":"view","type":"function"}],"evm":{"bytecode":{"linkReferences":{},"object":"6080346100f457601f61173d38819003918201601f19168301916001600160401b038311848410176100f95780849260409485528339810103126100f457610052602061004b8361010f565b920161010f565b6001600055906001600160a01b039081169081156100db57600180546001600160a01b031980821685179092556040519491939083167f8be0079c531659141344cd1fd0a4f28419497f9722a3daafe3b4186f6b6457e0600080a368056bc75e2d6310000060085562015180600955600a80551690600254161760025561161990816101248239f35b604051631e4fbdf760e01b815260006004820152602490fd5b600080fd5b634e487b7160e01b600052604160045260246000fd5b51906001600160a01b03821682036100f45756fe608080604052600436101561001357600080fd5b60003560e01c90816302a251a3146112f65750806303c7881a146112385780630962ef7914610f675780632b980ea114610bf457806330a1adeb146108985780633f4ba83a1461082657806352d472eb146108085780635c975abb146107e2578063715018a6146107855780638456cb5914610723578063878b9b44146105d25780638a65d874146105765780638da5cb5b1461054d5780639dc3960b146104025780639e32aaa3146103c35780639ebdf12c1461039a578063bf1bec6b14610355578063d23254b4146102e1578063d8060cd5146102c0578063db56861c14610217578063e6a9aba3146101f9578063ef00ef43146101d8578063f1887684146101ba5763f2fde38b1461012757600080fd5b346101b55760203660031901126101b557610140611327565b6101486114b8565b6001600160a01b0390811690811561019c57600154826bffffffffffffffffffffffff60a01b821617600155167f8be0079c531659141344cd1fd0a4f28419497f9722a3daafe3b4186f6b6457e0600080a3005b604051631e4fbdf760e01b815260006004820152602490fd5b600080fd5b346101b55760003660031901126101b5576020600854604051908152f35b346101b55760203660031901126101b5576101f16114b8565b600435600955005b346101b55760003660031901126101b5576020600754604051908152f35b346101b55760203660031901126101b55760043560005260036020526040600020805461024660018301611412565b9160018060a01b036002820154169060038101549060048101546005820154600683015491600860ff60078601541694015494610295604051998a998a526101208060208c01528a0190611398565b9660408901526060880152608087015260a086015260c0850152151560e08401526101008301520390f35b346101b55760203660031901126101b5576102d96114b8565b600435600855005b346101b55760403660031901126101b5576102fa611311565b600435600052600460205260406000209060018060a01b03166000526020526080604060002080549060ff6001820154169060ff60036002830154920154169160405193845215156020840152604083015215156060820152f35b346101b55760203660031901126101b55761036e611327565b6103766114b8565b6001600160a01b03166000908152600660205260409020805460ff19166001179055005b346101b55760003660031901126101b5576002546040516001600160a01b039091168152602090f35b346101b55760203660031901126101b5576001600160a01b036103e4611327565b166000526006602052602060ff604060002054166040519015158152f35b346101b5576020806003193601126101b55760405161042081611359565b60008152606082820152600060408201526000606082015260006080820152600060a0820152600060c0820152600060e0820152600061010080920152600435600052600382526040600020604080519261047a84611359565b8254845261048a60018401611412565b908585019182528460018060a01b039485600282015416958583019687526003820154606084019081526004830154906080850191825260058401549260a0860193845261051d600860068701549660c0890197885260e060ff60078301541699019815158952015498888d01998a528a518e819f9e829f835251910152518c6101209b8c9101526101408d0190611398565b99511660608b01525160808a01525160a08901525160c08801525160e08701525115159085015251908301520390f35b346101b55760003660031901126101b5576001546040516001600160a01b039091168152602090f35b346101b55760203660031901126101b5576001600160a01b03610597611327565b166000526005602052608060406000208054906001810154906003600282015491015491604051938452602084015260408301526060820152f35b346101b5576020806003193601126101b5576004359081600052600381526106006040600020541515611505565b816000526003815260ff600760406000200154166106eb5781600052600381526106356003604060002001546009549061154a565b4211156106a7577fc6e759e393706cc0b62e9d7ec31fabec553b537a365d2289bde3262fb0524e07908260005260038152604060002060078101600160ff19825416179055606461068d6004830154600a54906115d0565b0460088201556006600582015491015410604051908152a2005b6064906040519062461bcd60e51b82526004820152601760248201527f566f74696e6720706572696f64206e6f7420656e6465640000000000000000006044820152fd5b6064906040519062461bcd60e51b825260048201526011602482015270105b1c9958591e48199a5b985b1a5e9959607a1b6044820152fd5b346101b55760003660031901126101b55761073c6114b8565b6107446114e4565b6001805460ff60a01b1916600160a01b1790556040513381527f62e78cea01bee320cd4e420270b5ea74000d11b0c9f74754ebdbfc544b05a25890602090a1005b346101b55760003660031901126101b55761079e6114b8565b600180546001600160a01b031981169091556000906001600160a01b03167f8be0079c531659141344cd1fd0a4f28419497f9722a3daafe3b4186f6b6457e08280a3005b346101b55760003660031901126101b557602060ff60015460a01c166040519015158152f35b346101b55760003660031901126101b5576020600a54604051908152f35b346101b55760003660031901126101b55761083f6114b8565b60015460ff8160a01c16156108865760ff60a01b19166001556040513381527f5db9ee0a495bf2e6ff9c91a7834c1ba4fdd244a5e8aa4e537bd38aeae4b073aa90602090a1005b604051638dfc202b60e01b8152600490fd5b346101b55760203660031901126101b55760043567ffffffffffffffff81116101b557366023820112156101b557806004013567ffffffffffffffff8111610b8357604051916108f2601f8301601f191660200184611376565b81835236602483830101116101b55781600092602460209301838601378301015233600052600660205260ff6040600020541615610baf576109326114e4565b6007546000198114610b99576001810160075560016040519161095483611359565b818101835283602084015233604084015242606084015260006080840152600060a0840152600060c0840152600060e0840152600061010084015201600052600360205260406000209080518255602081015180519067ffffffffffffffff8211610b83576109c660018501546113d8565b601f8111610b3c575b50602090601f8311600114610ac65791806008949261010094600092610abb575b50508160011b916000199060031b1c19161760018501555b6002840160018060a01b036040830151166bffffffffffffffffffffffff60a01b825416179055606081015160038501556080810151600485015560a0810151600585015560c08101516006850155610a7660e08201511515600786019060ff801983541691151516179055565b01519101556007547f2cfd2fa56abf708d8f55efeadd4bb72c8204e046f62d90de877b743abfd6081d6040516020815280610ab633956020830190611398565b0390a3005b0151905087806109f0565b906001850160005260206000209160005b601f1985168110610b24575092600894926001926101009583601f19811610610b0b575b505050811b016001850155610a08565b015160001960f88460031b161c19169055878080610afb565b91926020600181928685015181550194019201610ad7565b600185016000526020600020601f840160051c810160208510610b7c575b601f830160051c82018110610b705750506109cf565b60008155600101610b5a565b5080610b5a565b634e487b7160e01b600052604160045260246000fd5b634e487b7160e01b600052601160045260246000fd5b60405162461bcd60e51b815260206004820152601760248201527f4e6f7420617574686f72697a6564204149206167656e740000000000000000006044820152606490fd5b346101b55760603660031901126101b557600435602490813591604490813591821515928381036101b557610c276115ad565b610c2f6114e4565b6008548610610f245784600052600391602093838552610c556040600020541515611505565b8660005283855260ff60076040600020015416610eec5786600052838552610c8784604060002001546009549061154a565b4211610eb25786600052600485526040600020336000528552604060002054610e8057879160648692600060018060a01b036002541660405196879586946323b872dd60e01b865233600487015230908601528401525af18015610e7457610cf791600091610e47575b5061156f565b610d73604051610d068161133d565b8781528385820187815260408301428152610d576060850192600084528b60005260048a526040600020336000528a52604060002095518655511515600186019060ff801983541691151516179055565b51600284015551151591019060ff801983541691151516179055565b846000528183526004604060002001610d8d87825461154a565b905515610e2657836000528082526005604060002001610dae86825461154a565b90555b33600052600582526040600020610dc986825461154a565b905533600052600582526040600020906103e8610dec60018401548454906115d0565b049101556040519384528301527fb898e75d5aac8de2f407e4a683c8d909e832d1e371e3bff0fa3ed934e88d956260403393a36001600055005b836000528082526006604060002001610e4086825461154a565b9055610db1565b610e679150853d8711610e6d575b610e5f8183611376565b810190611557565b88610cf1565b503d610e55565b6040513d6000823e3d90fd5b6c105b1c9958591e481d9bdd1959609a1b606492600d87936040519462461bcd60e51b86526004860152840152820152fd5b74159bdd1a5b99c81c195c9a5bd908195e1c1a5c9959605a1b606492601587936040519462461bcd60e51b86526004860152840152820152fd5b72159bdd1a5b99c81c195c9a5bd908195b991959606a1b606492601387936040519462461bcd60e51b86526004860152840152820152fd5b60405162461bcd60e51b8152602060048201526019818501527f496e73756666696369656e74207374616b6520616d6f756e740000000000000081840152606490fd5b346101b5576020806003193601126101b557600435610f846115ad565b806000526003825260ff60076040600020015416156111fb5780600052600482526040600020336000528252604060002054156111c6578060005260048252604060002033600052825260ff60036040600020015416611181576000526003815260406000206004825260406000203360005282526040600020906005810154906006810154808311928360ff600187015416151514916000948654958694600014611156575091600891611045949360001461114e5750935b01546115d0565b811561113857043360005260058452600160406000200191825492600a8401809411610b99576000946110a394600392555b01600160ff19825416179055338452600585526002604085200161109c83825461154a565b905561154a565b918060018060a01b036002541660446040518095819363a9059cbb60e01b83523360048401528860248401525af1918215610e74577ffc30cddea38e2bf4d6ea7d3f9ed3b6ad7f176419f4963bd81318067a4aee73fe9261110b9160009161111b575061156f565b6040519283523392a26001600055005b6111329150833d8511610e6d57610e5f8183611376565b85610cf1565b634e487b7160e01b600052601260045260246000fd5b90509361103e565b945050505050605a820291808304605a1490151715610b9957600092600360646110a3940491611077565b60405162461bcd60e51b815260048101839052601760248201527f5265776172647320616c726561647920636c61696d65640000000000000000006044820152606490fd5b60405162461bcd60e51b815260048101839052600d60248201526c139bc81d9bdd1948199bdd5b99609a1b6044820152606490fd5b60405162461bcd60e51b815260048101839052601560248201527410dbdb9d195b9d081b9bdd08199a5b985b1a5e9959605a1b6044820152606490fd5b346101b55760403660031901126101b557611251611311565b600060606040516112618161133d565b8281528260208201528260408201520152600435600052600460205260406000209060018060a01b0316600052602052608060406000206040516112a48161133d565b81549182825260ff600182015416602083019015158152606060ff6003600285015494604087019586520154169301921515835260405193845251151560208401525160408301525115156060820152f35b346101b55760003660031901126101b5576020906009548152f35b602435906001600160a01b03821682036101b557565b600435906001600160a01b03821682036101b557565b6080810190811067ffffffffffffffff821117610b8357604052565b610120810190811067ffffffffffffffff821117610b8357604052565b90601f8019910116810190811067ffffffffffffffff821117610b8357604052565b919082519283825260005b8481106113c4575050826000602080949584010152601f8019910116010190565b6020818301810151848301820152016113a3565b90600182811c92168015611408575b60208310146113f257565b634e487b7160e01b600052602260045260246000fd5b91607f16916113e7565b9060405191826000825492611426846113d8565b9081845260019485811690816000146114955750600114611452575b505061145092500383611376565b565b9093915060005260209081600020936000915b81831061147d57505061145093508201013880611442565b85548884018501529485019487945091830191611465565b91505061145094506020925060ff191682840152151560051b8201013880611442565b6001546001600160a01b031633036114cc57565b60405163118cdaa760e01b8152336004820152602490fd5b60ff60015460a01c166114f357565b60405163d93c066560e01b8152600490fd5b1561150c57565b60405162461bcd60e51b815260206004820152601660248201527510dbdb9d195b9d08191bd95cc81b9bdd08195e1a5cdd60521b6044820152606490fd5b91908201809211610b9957565b908160209103126101b5575180151581036101b55790565b1561157657565b60405162461bcd60e51b815260206004820152600f60248201526e151c985b9cd9995c8819985a5b1959608a1b6044820152606490fd5b6002600054146115be576002600055565b604051633ee5aeb560e01b8152600490fd5b81810292918115918404141715610b995756fea2646970667358221220a55d931d9cb87dbef1f035c0b36dddf9cbb20e87d1be9aa977337ceb7aa2c3f364736f6c63430008140033","opcodes":"PUSH1 0x80 CALLVALUE PUSH2 0xF4 JUMPI PUSH1 0x1F PUSH2 0x173D CODESIZE DUP2 SWAP1 SUB SWAP2 DUP3 ADD PUSH1 0x1F NOT AND DUP4 ADD SWAP2 PUSH1 0x1 PUSH1 0x1 PUSH1 0x40 SHL SUB DUP4 GT DUP5 DUP5 LT OR PUSH2 0xF9 JUMPI DUP1 DUP5 SWAP3 PUSH1 0x40 SWAP5 DUP6 MSTORE DUP4 CODECOPY DUP2 ADD SUB SLT PUSH2 0xF4 JUMPI PUSH2 0x52 PUSH1 0x20 PUSH2 0x4B DUP4 PUSH2 0x10F JUMP JUMPDEST SWAP3 ADD PUSH2 0x10F JUMP JUMPDEST PUSH1 0x1 PUSH1 0x0 SSTORE SWAP1 PUSH1 0x1 PUSH1 0x1 PUSH1 0xA0 SHL SUB SWAP1 DUP2 AND SWAP1 DUP2 ISZERO PUSH2 0xDB JUMPI PUSH1 0x1 DUP1 SLOAD PUSH1 0x1 PUSH1 0x1 PUSH1 0xA0 SHL SUB NOT DUP1 DUP3 AND DUP6 OR SWAP1 SWAP3 SSTORE PUSH1 0x40 MLOAD SWAP5 SWAP2 SWAP4 SWAP1 DUP4 AND PUSH32 0x8BE0079C531659141344CD1FD0A4F28419497F9722A3DAAFE3B4186F6B6457E0 PUSH1 0x0 DUP1 LOG3 PUSH9 0x56BC75E2D63100000 PUSH1 0x8 SSTORE PUSH3 0x15180 PUSH1 0x9 SSTORE PUSH1 0xA DUP1 SSTORE AND SWAP1 PUSH1 0x2 SLOAD AND OR PUSH1 0x2 SSTORE PUSH2 0x1619 SWAP1 DUP2 PUSH2 0x124 DUP3 CODECOPY RETURN JUMPDEST PUSH1 0x40 MLOAD PUSH4 0x1E4FBDF7 PUSH1 0xE0 SHL DUP2 MSTORE PUSH1 0x0 PUSH1 0x4 DUP3 ADD MSTORE PUSH1 0x24 SWAP1 REVERT JUMPDEST PUSH1 0x0 DUP1 REVERT JUMPDEST PUSH4 0x4E487B71 PUSH1 0xE0 SHL PUSH1 0x0 MSTORE PUSH1 0x41 PUSH1 0x4 MSTORE PUSH1 0x24 PUSH1 0x0 REVERT JUMPDEST MLOAD SWAP1 PUSH1 0x1 PUSH1 0x1 PUSH1 0xA0 SHL SUB DUP3 AND DUP3 SUB PUSH2 0xF4 JUMPI JUMP INVALID PUSH1 0x80 DUP1 PUSH1 0x40 MSTORE PUSH1 0x4 CALLDATASIZE LT ISZERO PUSH2 0x13 JUMPI PUSH1 0x0 DUP1 REVERT JUMPDEST PUSH1 0x0 CALLDATALOAD PUSH1 0xE0 SHR SWAP1 DUP2 PUSH4 0x2A251A3 EQ PUSH2 0x12F6 JUMPI POP DUP1 PUSH4 0x3C7881A EQ PUSH2 0x1238 JUMPI DUP1 PUSH4 0x962EF79 EQ PUSH2 0xF67 JUMPI DUP1 PUSH4 0x2B980EA1 EQ PUSH2 0xBF4 JUMPI DUP1 PUSH4 0x30A1ADEB EQ PUSH2 0x898 JUMPI DUP1 PUSH4 0x3F4BA83A EQ PUSH2 0x826 JUMPI DUP1 PUSH4 0x52D472EB EQ PUSH2 0x808 JUMPI DUP1 PUSH4 0x5C975ABB EQ PUSH2 0x7E2 JUMPI DUP1 PUSH4 0x715018A6 EQ PUSH2 0x785 JUMPI DUP1 PUSH4 0x8456CB59 EQ PUSH2 0x723 JUMPI DUP1 PUSH4 0x878B9B44 EQ PUSH2 0x5D2 JUMPI DUP1 PUSH4 0x8A65D874 EQ PUSH2 0x576 JUMPI DUP1 PUSH4 0x8DA5CB5B EQ PUSH2 0x54D JUMPI DUP1 PUSH4 0x9DC3960B EQ PUSH2 0x402 JUMPI DUP1 PUSH4 0x9E32AAA3 EQ PUSH2 0x3C3 JUMPI DUP1 PUSH4 0x9EBDF12C EQ PUSH2 0x39A JUMPI DUP1 PUSH4 0xBF1BEC6B EQ PUSH2 0x355 JUMPI DUP1 PUSH4 0xD23254B4 EQ PUSH2 0x2E1 JUMPI DUP1 PUSH4 0xD8060CD5 EQ PUSH2 0x2C0 JUMPI DUP1 PUSH4 0xDB56861C EQ PUSH2 0x217 JUMPI DUP1 PUSH4 0xE6A9ABA3 EQ PUSH2 0x1F9 JUMPI DUP1 PUSH4 0xEF00EF43 EQ PUSH2 0x1D8 JUMPI DUP1 PUSH4 0xF1887684 EQ PUSH2 0x1BA JUMPI PUSH4 0xF2FDE38B EQ PUSH2 0x127 JUMPI PUSH1 0x0 DUP1 REVERT JUMPDEST CALLVALUE PUSH2 0x1B5 JUMPI PUSH1 0x20 CALLDATASIZE PUSH1 0x3 NOT ADD SLT PUSH2 0x1B5 JUMPI PUSH2 0x140 PUSH2 0x1327 JUMP JUMPDEST PUSH2 0x148 PUSH2 0x14B8 JUMP JUMPDEST PUSH1 0x1 PUSH1 0x1 PUSH1 0xA0 SHL SUB SWAP1 DUP2 AND SWAP1 DUP2 ISZERO PUSH2 0x19C JUMPI PUSH1 0x1 SLOAD DUP3 PUSH12 0xFFFFFFFFFFFFFFFFFFFFFFFF PUSH1 0xA0 SHL DUP3 AND OR PUSH1 0x1 SSTORE AND PUSH32 0x8BE0079C531659141344CD1FD0A4F28419497F9722A3DAAFE3B4186F6B6457E0 PUSH1 0x0 DUP1 LOG3 STOP JUMPDEST PUSH1 0x40 MLOAD PUSH4 0x1E4FBDF7 PUSH1 0xE0 SHL DUP2 MSTORE PUSH1 0x0 PUSH1 0x4 DUP3 ADD MSTORE PUSH1 0x24 SWAP1 REVERT JUMPDEST PUSH1 0x0 DUP1 REVERT JUMPDEST CALLVALUE PUSH2 0x1B5 JUMPI PUSH1 0x0 CALLDATASIZE PUSH1 0x3 NOT ADD SLT PUSH2 0x1B5 JUMPI PUSH1 0x20 PUSH1 0x8 SLOAD PUSH1 0x40 MLOAD SWAP1 DUP2 MSTORE RETURN JUMPDEST CALLVALUE PUSH2 0x1B5 JUMPI PUSH1 0x20 CALLDATASIZE PUSH1 0x3 NOT ADD SLT PUSH2 0x1B5 JUMPI PUSH2 0x1F1 PUSH2 0x14B8 JUMP JUMPDEST PUSH1 0x4 CALLDATALOAD PUSH1 0x9 SSTORE STOP JUMPDEST CALLVALUE PUSH2 0x1B5 JUMPI PUSH1 0x0 CALLDATASIZE PUSH1 0x3 NOT ADD SLT PUSH2 0x1B5 JUMPI PUSH1 0x20 PUSH1 0x7 SLOAD PUSH1 0x40 MLOAD SWAP1 DUP2 MSTORE RETURN JUMPDEST CALLVALUE PUSH2 0x1B5 JUMPI PUSH1 0x20 CALLDATASIZE PUSH1 0x3 NOT ADD SLT PUSH2 0x1B5 JUMPI PUSH1 0x4 CALLDATALOAD PUSH1 0x0 MSTORE PUSH1 0x3 PUSH1 0x20 MSTORE PUSH1 0x40 PUSH1 0x0 KECCAK256 DUP1 SLOAD PUSH2 0x246 PUSH1 0x1 DUP4 ADD PUSH2 0x1412 JUMP JUMPDEST SWAP2 PUSH1 0x1 DUP1 PUSH1 0xA0 SHL SUB PUSH1 0x2 DUP3 ADD SLOAD AND SWAP1 PUSH1 0x3 DUP2 ADD SLOAD SWAP1 PUSH1 0x4 DUP2 ADD SLOAD PUSH1 0x5 DUP3 ADD SLOAD PUSH1 0x6 DUP4 ADD SLOAD SWAP2 PUSH1 0x8 PUSH1 0xFF PUSH1 0x7 DUP7 ADD SLOAD AND SWAP5 ADD SLOAD SWAP5 PUSH2 0x295 PUSH1 0x40 MLOAD SWAP10 DUP11 SWAP10 DUP11 MSTORE PUSH2 0x120 DUP1 PUSH1 0x20 DUP13 ADD MSTORE DUP11 ADD SWAP1 PUSH2 0x1398 JUMP JUMPDEST SWAP7 PUSH1 0x40 DUP10 ADD MSTORE PUSH1 0x60 DUP9 ADD MSTORE PUSH1 0x80 DUP8 ADD MSTORE PUSH1 0xA0 DUP7 ADD MSTORE PUSH1 0xC0 DUP6 ADD MSTORE ISZERO ISZERO PUSH1 0xE0 DUP5 ADD MSTORE PUSH2 0x100 DUP4 ADD MSTORE SUB SWAP1 RETURN JUMPDEST CALLVALUE PUSH2 0x1B5 JUMPI PUSH1 0x20 CALLDATASIZE PUSH1 0x3 NOT ADD SLT PUSH2 0x1B5 JUMPI PUSH2 0x2D9 PUSH2 0x14B8 JUMP JUMPDEST PUSH1 0x4 CALLDATALOAD PUSH1 0x8 SSTORE STOP JUMPDEST CALLVALUE PUSH2 0x1B5 JUMPI PUSH1 0x40 CALLDATASIZE PUSH1 0x3 NOT ADD SLT PUSH2 0x1B5 JUMPI PUSH2 0x2FA PUSH2 0x1311 JUMP JUMPDEST PUSH1 0x4 CALLDATALOAD PUSH1 0x0 MSTORE PUSH1 0x4 PUSH1 0x20 MSTORE PUSH1 0x40 PUSH1 0x0 KECCAK256 SWAP1 PUSH1 0x1 DUP1 PUSH1 0xA0 SHL SUB AND PUSH1 0x0 MSTORE PUSH1 0x20 MSTORE PUSH1 0x80 PUSH1 0x40 PUSH1 0x0 KECCAK256 DUP1 SLOAD SWAP1 PUSH1 0xFF PUSH1 0x1 DUP3 ADD SLOAD AND SWAP1 PUSH1 0xFF PUSH1 0x3 PUSH1 0x2 DUP4 ADD SLOAD SWAP3 ADD SLOAD AND SWAP2 PUSH1 0x40 MLOAD SWAP4 DUP5 MSTORE ISZERO ISZERO PUSH1 0x20 DUP5 ADD MSTORE PUSH1 0x40 DUP4 ADD MSTORE ISZERO ISZERO PUSH1 0x60 DUP3 ADD MSTORE RETURN JUMPDEST CALLVALUE PUSH2 0x1B5 JUMPI PUSH1 0x20 CALLDATASIZE PUSH1 0x3 NOT ADD SLT PUSH2 0x1B5 JUMPI PUSH2 0x36E PUSH2 0x1327 JUMP JUMPDEST PUSH2 0x376 PUSH2 0x14B8 JUMP JUMPDEST PUSH1 0x1 PUSH1 0x1 PUSH1 0xA0 SHL SUB AND PUSH1 0x0 SWAP1 DUP2 MSTORE PUSH1 0x6 PUSH1 0x20 MSTORE PUSH1 0x40 SWAP1 KECCAK256 DUP1 SLOAD PUSH1 0xFF NOT AND PUSH1 0x1 OR SWAP1 SSTORE STOP JUMPDEST CALLVALUE PUSH2 0x1B5 JUMPI PUSH1 0x0 CALLDATASIZE PUSH1 0x3 NOT ADD SLT PUSH2 0x1B5 JUMPI PUSH1 0x2 SLOAD PUSH1 0x40 MLOAD PUSH1 0x1 PUSH1 0x1 PUSH1 0xA0 SHL SUB SWAP1 SWAP2 AND DUP2 MSTORE PUSH1 0x20 SWAP1 RETURN JUMPDEST CALLVALUE PUSH2 0x1B5 JUMPI PUSH1 0x20 CALLDATASIZE PUSH1 0x3 NOT ADD SLT PUSH2 0x1B5 JUMPI PUSH1 0x1 PUSH1 0x1 PUSH1 0xA0 SHL SUB PUSH2 0x3E4 PUSH2 0x1327 JUMP JUMPDEST AND PUSH1 0x0 MSTORE PUSH1 0x6 PUSH1 0x20 MSTORE PUSH1 0x20 PUSH1 0xFF PUSH1 0x40 PUSH1 0x0 KECCAK256 SLOAD AND PUSH1 0x40 MLOAD SWAP1 ISZERO ISZERO DUP2 MSTORE RETURN JUMPDEST CALLVALUE PUSH2 0x1B5 JUMPI PUSH1 0x20 DUP1 PUSH1 0x3 NOT CALLDATASIZE ADD SLT PUSH2 0x1B5 JUMPI PUSH1 0x40 MLOAD PUSH2 0x420 DUP2 PUSH2 0x1359 JUMP JUMPDEST PUSH1 0x0 DUP2 MSTORE PUSH1 0x60 DUP3 DUP3 ADD MSTORE PUSH1 0x0 PUSH1 0x40 DUP3 ADD MSTORE PUSH1 0x0 PUSH1 0x60 DUP3 ADD MSTORE PUSH1 0x0 PUSH1 0x80 DUP3 ADD MSTORE PUSH1 0x0 PUSH1 0xA0 DUP3 ADD MSTORE PUSH1 0x0 PUSH1 0xC0 DUP3 ADD MSTORE PUSH1 0x0 PUSH1 0xE0 DUP3 ADD MSTORE PUSH1 0x0 PUSH2 0x100 DUP1 SWAP3 ADD MSTORE PUSH1 0x4 CALLDATALOAD PUSH1 0x0 MSTORE PUSH1 0x3 DUP3 MSTORE PUSH1 0x40 PUSH1 0x0 KECCAK256 PUSH1 0x40 DUP1 MLOAD SWAP3 PUSH2 0x47A DUP5 PUSH2 0x1359 JUMP JUMPDEST DUP3 SLOAD DUP5 MSTORE PUSH2 0x48A PUSH1 0x1 DUP5 ADD PUSH2 0x1412 JUMP JUMPDEST SWAP1 DUP6 DUP6 ADD SWAP2 DUP3 MSTORE DUP5 PUSH1 0x1 DUP1 PUSH1 0xA0 SHL SUB SWAP5 DUP6 PUSH1 0x2 DUP3 ADD SLOAD AND SWAP6 DUP6 DUP4 ADD SWAP7 DUP8 MSTORE PUSH1 0x3 DUP3 ADD SLOAD PUSH1 0x60 DUP5 ADD SWAP1 DUP2 MSTORE PUSH1 0x4 DUP4 ADD SLOAD SWAP1 PUSH1 0x80 DUP6 ADD SWAP2 DUP3 MSTORE PUSH1 0x5 DUP5 ADD SLOAD SWAP3 PUSH1 0xA0 DUP7 ADD SWAP4 DUP5 MSTORE PUSH2 0x51D PUSH1 0x8 PUSH1 0x6 DUP8 ADD SLOAD SWAP7 PUSH1 0xC0 DUP10 ADD SWAP8 DUP9 MSTORE PUSH1 0xE0 PUSH1 0xFF PUSH1 0x7 DUP4 ADD SLOAD AND SWAP10 ADD SWAP9 ISZERO ISZERO DUP10 MSTORE ADD SLOAD SWAP9 DUP9 DUP14 ADD SWAP10 DUP11 MSTORE DUP11 MLOAD DUP15 DUP2 SWAP16 SWAP15 DUP3 SWAP16 DUP4 MSTORE MLOAD SWAP2 ADD MSTORE MLOAD DUP13 PUSH2 0x120 SWAP12 DUP13 SWAP2 ADD MSTORE PUSH2 0x140 DUP14 ADD SWAP1 PUSH2 0x1398 JUMP JUMPDEST SWAP10 MLOAD AND PUSH1 0x60 DUP12 ADD MSTORE MLOAD PUSH1 0x80 DUP11 ADD MSTORE MLOAD PUSH1 0xA0 DUP10 ADD MSTORE MLOAD PUSH1 0xC0 DUP9 ADD MSTORE MLOAD PUSH1 0xE0 DUP8 ADD MSTORE MLOAD ISZERO ISZERO SWAP1 DUP6 ADD MSTORE MLOAD SWAP1 DUP4 ADD MSTORE SUB SWAP1 RETURN JUMPDEST CALLVALUE PUSH2 0x1B5 JUMPI PUSH1 0x0 CALLDATASIZE PUSH1 0x3 NOT ADD SLT PUSH2 0x1B5 JUMPI PUSH1 0x1 SLOAD PUSH1 0x40 MLOAD PUSH1 0x1 PUSH1 0x1 PUSH1 0xA0 SHL SUB SWAP1 SWAP2 AND DUP2 MSTORE PUSH1 0x20 SWAP1 RETURN JUMPDEST CALLVALUE PUSH2 0x1B5 JUMPI PUSH1 0x20 CALLDATASIZE PUSH1 0x3 NOT ADD SLT PUSH2 0x1B5 JUMPI PUSH1 0x1 PUSH1 0x1 PUSH1 0xA0 SHL SUB PUSH2 0x597 PUSH2 0x1327 JUMP JUMPDEST AND PUSH1 0x0 MSTORE PUSH1 0x5 PUSH1 0x20 MSTORE PUSH1 0x80 PUSH1 0x40 PUSH1 0x0 KECCAK256 DUP1 SLOAD SWAP1 PUSH1 0x1 DUP2 ADD SLOAD SWAP1 PUSH1 0x3 PUSH1 0x2 DUP3 ADD SLOAD SWAP2 ADD SLOAD SWAP2 PUSH1 0x40 MLOAD SWAP4 DUP5 MSTORE PUSH1 0x20 DUP5 ADD MSTORE PUSH1 0x40 DUP4 ADD MSTORE PUSH1 0x60 DUP3 ADD MSTORE RETURN JUMPDEST CALLVALUE PUSH2 0x1B5 JUMPI PUSH1 0x20 DUP1 PUSH1 0x3 NOT CALLDATASIZE ADD SLT PUSH2 0x1B5 JUMPI PUSH1 0x4 CALLDATALOAD SWAP1 DUP2 PUSH1 0x0 MSTORE PUSH1 0x3 DUP2 MSTORE PUSH2 0x600 PUSH1 0x40 PUSH1 0x0 KECCAK256 SLOAD ISZERO ISZERO PUSH2 0x1505 JUMP JUMPDEST DUP2 PUSH1 0x0 MSTORE PUSH1 0x3 DUP2 MSTORE PUSH1 0xFF PUSH1 0x7 PUSH1 0x40 PUSH1 0x0 KECCAK256 ADD SLOAD AND PUSH2 0x6EB JUMPI DUP2 PUSH1 0x0 MSTORE PUSH1 0x3 DUP2 MSTORE PUSH2 0x635 PUSH1 0x3 PUSH1 0x40 PUSH1 0x0 KECCAK256 ADD SLOAD PUSH1 0x9 SLOAD SWAP1 PUSH2 0x154A JUMP JUMPDEST TIMESTAMP GT ISZERO PUSH2 0x6A7 JUMPI PUSH32 0xC6E759E393706CC0B62E9D7EC31FABEC553B537A365D2289BDE3262FB0524E07 SWAP1 DUP3 PUSH1 0x0 MSTORE PUSH1 0x3 DUP2 MSTORE PUSH1 0x40 PUSH1 0x0 KECCAK256 PUSH1 0x7 DUP2 ADD PUSH1 0x1 PUSH1 0xFF NOT DUP3 SLOAD AND OR SWAP1 SSTORE PUSH1 0x64 PUSH2 0x68D PUSH1 0x4 DUP4 ADD SLOAD PUSH1 0xA SLOAD SWAP1 PUSH2 0x15D0 JUMP JUMPDEST DIV PUSH1 0x8 DUP3 ADD SSTORE PUSH1 0x6 PUSH1 0x5 DUP3 ADD SLOAD SWAP2 ADD SLOAD LT PUSH1 0x40 MLOAD SWAP1 DUP2 MSTORE LOG2 STOP JUMPDEST PUSH1 0x64 SWAP1 PUSH1 0x40 MLOAD SWAP1 PUSH3 0x461BCD PUSH1 0xE5 SHL DUP3 MSTORE PUSH1 0x4 DUP3 ADD MSTORE PUSH1 0x17 PUSH1 0x24 DUP3 ADD MSTORE PUSH32 0x566F74696E6720706572696F64206E6F7420656E646564000000000000000000 PUSH1 0x44 DUP3 ADD MSTORE REVERT JUMPDEST PUSH1 0x64 SWAP1 PUSH1 0x40 MLOAD SWAP1 PUSH3 0x461BCD PUSH1 0xE5 SHL DUP3 MSTORE PUSH1 0x4 DUP3 ADD MSTORE PUSH1 0x11 PUSH1 0x24 DUP3 ADD MSTORE PUSH17 0x105B1C9958591E48199A5B985B1A5E9959 PUSH1 0x7A SHL PUSH1 0x44 DUP3 ADD MSTORE REVERT JUMPDEST CALLVALUE PUSH2 0x1B5 JUMPI PUSH1 0x0 CALLDATASIZE PUSH1 0x3 NOT ADD SLT PUSH2 0x1B5 JUMPI PUSH2 0x73C PUSH2 0x14B8 JUMP JUMPDEST PUSH2 0x744 PUSH2 0x14E4 JUMP JUMPDEST PUSH1 0x1 DUP1 SLOAD PUSH1 0xFF PUSH1 0xA0 SHL NOT AND PUSH1 0x1 PUSH1 0xA0 SHL OR SWAP1 SSTORE PUSH1 0x40 MLOAD CALLER DUP2 MSTORE PUSH32 0x62E78CEA01BEE320CD4E420270B5EA74000D11B0C9F74754EBDBFC544B05A258 SWAP1 PUSH1 0x20 SWAP1 LOG1 STOP JUMPDEST CALLVALUE PUSH2 0x1B5 JUMPI PUSH1 0x0 CALLDATASIZE PUSH1 0x3 NOT ADD SLT PUSH2 0x1B5 JUMPI PUSH2 0x79E PUSH2 0x14B8 JUMP JUMPDEST PUSH1 0x1 DUP1 SLOAD PUSH1 0x1 PUSH1 0x1 PUSH1 0xA0 SHL SUB NOT DUP2 AND SWAP1 SWAP2 SSTORE PUSH1 0x0 SWAP1 PUSH1 0x1 PUSH1 0x1 PUSH1 0xA0 SHL SUB AND PUSH32 0x8BE0079C531659141344CD1FD0A4F28419497F9722A3DAAFE3B4186F6B6457E0 DUP3 DUP1 LOG3 STOP JUMPDEST CALLVALUE PUSH2 0x1B5 JUMPI PUSH1 0x0 CALLDATASIZE PUSH1 0x3 NOT ADD SLT PUSH2 0x1B5 JUMPI PUSH1 0x20 PUSH1 0xFF PUSH1 0x1 SLOAD PUSH1 0xA0 SHR AND PUSH1 0x40 MLOAD SWAP1 ISZERO ISZERO DUP2 MSTORE RETURN JUMPDEST CALLVALUE PUSH2 0x1B5 JUMPI PUSH1 0x0 CALLDATASIZE PUSH1 0x3 NOT ADD SLT PUSH2 0x1B5 JUMPI PUSH1 0x20 PUSH1 0xA SLOAD PUSH1 0x40 MLOAD SWAP1 DUP2 MSTORE RETURN JUMPDEST CALLVALUE PUSH2 0x1B5 JUMPI PUSH1 0x0 CALLDATASIZE PUSH1 0x3 NOT ADD SLT PUSH2 0x1B5 JUMPI PUSH2 0x83F PUSH2 0x14B8 JUMP JUMPDEST PUSH1 0x1 SLOAD PUSH1 0xFF DUP2 PUSH1 0xA0 SHR AND ISZERO PUSH2 0x886 JUMPI PUSH1 0xFF PUSH1 0xA0 SHL NOT AND PUSH1 0x1 SSTORE PUSH1 0x40 MLOAD CALLER DUP2 MSTORE PUSH32 0x5DB9EE0A495BF2E6FF9C91A7834C1BA4FDD244A5E8AA4E537BD38AEAE4B073AA SWAP1 PUSH1 0x20 SWAP1 LOG1 STOP JUMPDEST PUSH1 0x40 MLOAD PUSH4 0x8DFC202B PUSH1 0xE0 SHL DUP2 MSTORE PUSH1 0x4 SWAP1 REVERT JUMPDEST CALLVALUE PUSH2 0x1B5 JUMPI PUSH1 0x20 CALLDATASIZE PUSH1 0x3 NOT ADD SLT PUSH2 0x1B5 JUMPI PUSH1 0x4 CALLDATALOAD PUSH8 0xFFFFFFFFFFFFFFFF DUP2 GT PUSH2 0x1B5 JUMPI CALLDATASIZE PUSH1 0x23 DUP3 ADD SLT ISZERO PUSH2 0x1B5 JUMPI DUP1 PUSH1 0x4 ADD CALLDATALOAD PUSH8 0xFFFFFFFFFFFFFFFF DUP2 GT PUSH2 0xB83 JUMPI PUSH1 0x40 MLOAD SWAP2 PUSH2 0x8F2 PUSH1 0x1F DUP4 ADD PUSH1 0x1F NOT AND PUSH1 0x20 ADD DUP5 PUSH2 0x1376 JUMP JUMPDEST DUP2 DUP4 MSTORE CALLDATASIZE PUSH1 0x24 DUP4 DUP4 ADD ADD GT PUSH2 0x1B5 JUMPI DUP2 PUSH1 0x0 SWAP3 PUSH1 0x24 PUSH1 0x20 SWAP4 ADD DUP4 DUP7 ADD CALLDATACOPY DUP4 ADD ADD MSTORE CALLER PUSH1 0x0 MSTORE PUSH1 0x6 PUSH1 0x20 MSTORE PUSH1 0xFF PUSH1 0x40 PUSH1 0x0 KECCAK256 SLOAD AND ISZERO PUSH2 0xBAF JUMPI PUSH2 0x932 PUSH2 0x14E4 JUMP JUMPDEST PUSH1 0x7 SLOAD PUSH1 0x0 NOT DUP2 EQ PUSH2 0xB99 JUMPI PUSH1 0x1 DUP2 ADD PUSH1 0x7 SSTORE PUSH1 0x1 PUSH1 0x40 MLOAD SWAP2 PUSH2 0x954 DUP4 PUSH2 0x1359 JUMP JUMPDEST DUP2 DUP2 ADD DUP4 MSTORE DUP4 PUSH1 0x20 DUP5 ADD MSTORE CALLER PUSH1 0x40 DUP5 ADD MSTORE TIMESTAMP PUSH1 0x60 DUP5 ADD MSTORE PUSH1 0x0 PUSH1 0x80 DUP5 ADD MSTORE PUSH1 0x0 PUSH1 0xA0 DUP5 ADD MSTORE PUSH1 0x0 PUSH1 0xC0 DUP5 ADD MSTORE PUSH1 0x0 PUSH1 0xE0 DUP5 ADD MSTORE PUSH1 0x0 PUSH2 0x100 DUP5 ADD MSTORE ADD PUSH1 0x0 MSTORE PUSH1 0x3 PUSH1 0x20 MSTORE PUSH1 0x40 PUSH1 0x0 KECCAK256 SWAP1 DUP1 MLOAD DUP3 SSTORE PUSH1 0x20 DUP2 ADD MLOAD DUP1 MLOAD SWAP1 PUSH8 0xFFFFFFFFFFFFFFFF DUP3 GT PUSH2 0xB83 JUMPI PUSH2 0x9C6 PUSH1 0x1 DUP6 ADD SLOAD PUSH2 0x13D8 JUMP JUMPDEST PUSH1 0x1F DUP2 GT PUSH2 0xB3C JUMPI JUMPDEST POP PUSH1 0x20 SWAP1 PUSH1 0x1F DUP4 GT PUSH1 0x1 EQ PUSH2 0xAC6 JUMPI SWAP2 DUP1 PUSH1 0x8 SWAP5 SWAP3 PUSH2 0x100 SWAP5 PUSH1 0x0 SWAP3 PUSH2 0xABB JUMPI JUMPDEST POP POP DUP2 PUSH1 0x1 SHL SWAP2 PUSH1 0x0 NOT SWAP1 PUSH1 0x3 SHL SHR NOT AND OR PUSH1 0x1 DUP6 ADD SSTORE JUMPDEST PUSH1 0x2 DUP5 ADD PUSH1 0x1 DUP1 PUSH1 0xA0 SHL SUB PUSH1 0x40 DUP4 ADD MLOAD AND PUSH12 0xFFFFFFFFFFFFFFFFFFFFFFFF PUSH1 0xA0 SHL DUP3 SLOAD AND OR SWAP1 SSTORE PUSH1 0x60 DUP2 ADD MLOAD PUSH1 0x3 DUP6 ADD SSTORE PUSH1 0x80 DUP2 ADD MLOAD PUSH1 0x4 DUP6 ADD SSTORE PUSH1 0xA0 DUP2 ADD MLOAD PUSH1 0x5 DUP6 ADD SSTORE PUSH1 0xC0 DUP2 ADD MLOAD PUSH1 0x6 DUP6 ADD SSTORE PUSH2 0xA76 PUSH1 0xE0 DUP3 ADD MLOAD ISZERO ISZERO PUSH1 0x7 DUP7 ADD SWAP1 PUSH1 0xFF DUP1 NOT DUP4 SLOAD AND SWAP2 ISZERO ISZERO AND OR SWAP1 SSTORE JUMP JUMPDEST ADD MLOAD SWAP2 ADD SSTORE PUSH1 0x7 SLOAD PUSH32 0x2CFD2FA56ABF708D8F55EFEADD4BB72C8204E046F62D90DE877B743ABFD6081D PUSH1 0x40 MLOAD PUSH1 0x20 DUP2 MSTORE DUP1 PUSH2 0xAB6 CALLER SWAP6 PUSH1 0x20 DUP4 ADD SWAP1 PUSH2 0x1398 JUMP JUMPDEST SUB SWAP1 LOG3 STOP JUMPDEST ADD MLOAD SWAP1 POP DUP8 DUP1 PUSH2 0x9F0 JUMP JUMPDEST SWAP1 PUSH1 0x1 DUP6 ADD PUSH1 0x0 MSTORE PUSH1 0x20 PUSH1 0x0 KECCAK256 SWAP2 PUSH1 0x0 JUMPDEST PUSH1 0x1F NOT DUP6 AND DUP2 LT PUSH2 0xB24 JUMPI POP SWAP3 PUSH1 0x8 SWAP5 SWAP3 PUSH1 0x1 SWAP3 PUSH2 0x100 SWAP6 DUP4 PUSH1 0x1F NOT DUP2 AND LT PUSH2 0xB0B JUMPI JUMPDEST POP POP POP DUP2 SHL ADD PUSH1 0x1 DUP6 ADD SSTORE PUSH2 0xA08 JUMP JUMPDEST ADD MLOAD PUSH1 0x0 NOT PUSH1 0xF8 DUP5 PUSH1 0x3 SHL AND SHR NOT AND SWAP1 SSTORE DUP8 DUP1 DUP1 PUSH2 0xAFB JUMP JUMPDEST SWAP2 SWAP3 PUSH1 0x20 PUSH1 0x1 DUP2 SWAP3 DUP7 DUP6 ADD MLOAD DUP2 SSTORE ADD SWAP5 ADD SWAP3 ADD PUSH2 0xAD7 JUMP JUMPDEST PUSH1 0x1 DUP6 ADD PUSH1 0x0 MSTORE PUSH1 0x20 PUSH1 0x0 KECCAK256 PUSH1 0x1F DUP5 ADD PUSH1 0x5 SHR DUP2 ADD PUSH1 0x20 DUP6 LT PUSH2 0xB7C JUMPI JUMPDEST PUSH1 0x1F DUP4 ADD PUSH1 0x5 SHR DUP3 ADD DUP2 LT PUSH2 0xB70 JUMPI POP POP PUSH2 0x9CF JUMP JUMPDEST PUSH1 0x0 DUP2 SSTORE PUSH1 0x1 ADD PUSH2 0xB5A JUMP JUMPDEST POP DUP1 PUSH2 0xB5A JUMP JUMPDEST PUSH4 0x4E487B71 PUSH1 0xE0 SHL PUSH1 0x0 MSTORE PUSH1 0x41 PUSH1 0x4 MSTORE PUSH1 0x24 PUSH1 0x0 REVERT JUMPDEST PUSH4 0x4E487B71 PUSH1 0xE0 SHL PUSH1 0x0 MSTORE PUSH1 0x11 PUSH1 0x4 MSTORE PUSH1 0x24 PUSH1 0x0 REVERT JUMPDEST PUSH1 0x40 MLOAD PUSH3 0x461BCD PUSH1 0xE5 SHL DUP2 MSTORE PUSH1 0x20 PUSH1 0x4 DUP3 ADD MSTORE PUSH1 0x17 PUSH1 0x24 DUP3 ADD MSTORE PUSH32 0x4E6F7420617574686F72697A6564204149206167656E74000000000000000000 PUSH1 0x44 DUP3 ADD MSTORE PUSH1 0x64 SWAP1 REVERT JUMPDEST CALLVALUE PUSH2 0x1B5 JUMPI PUSH1 0x60 CALLDATASIZE PUSH1 0x3 NOT ADD SLT PUSH2 0x1B5 JUMPI PUSH1 0x4 CALLDATALOAD PUSH1 0x24 SWAP1 DUP2 CALLDATALOAD SWAP2 PUSH1 0x44 SWAP1 DUP2 CALLDATALOAD SWAP2 DUP3 ISZERO ISZERO SWAP3 DUP4 DUP2 SUB PUSH2 0x1B5 JUMPI PUSH2 0xC27 PUSH2 0x15AD JUMP JUMPDEST PUSH2 0xC2F PUSH2 0x14E4 JUMP JUMPDEST PUSH1 0x8 SLOAD DUP7 LT PUSH2 0xF24 JUMPI DUP5 PUSH1 0x0 MSTORE PUSH1 0x3 SWAP2 PUSH1 0x20 SWAP4 DUP4 DUP6 MSTORE PUSH2 0xC55 PUSH1 0x40 PUSH1 0x0 KECCAK256 SLOAD ISZERO ISZERO PUSH2 0x1505 JUMP JUMPDEST DUP7 PUSH1 0x0 MSTORE DUP4 DUP6 MSTORE PUSH1 0xFF PUSH1 0x7 PUSH1 0x40 PUSH1 0x0 KECCAK256 ADD SLOAD AND PUSH2 0xEEC JUMPI DUP7 PUSH1 0x0 MSTORE DUP4 DUP6 MSTORE PUSH2 0xC87 DUP5 PUSH1 0x40 PUSH1 0x0 KECCAK256 ADD SLOAD PUSH1 0x9 SLOAD SWAP1 PUSH2 0x154A JUMP JUMPDEST TIMESTAMP GT PUSH2 0xEB2 JUMPI DUP7 PUSH1 0x0 MSTORE PUSH1 0x4 DUP6 MSTORE PUSH1 0x40 PUSH1 0x0 KECCAK256 CALLER PUSH1 0x0 MSTORE DUP6 MSTORE PUSH1 0x40 PUSH1 0x0 KECCAK256 SLOAD PUSH2 0xE80 JUMPI DUP8 SWAP2 PUSH1 0x64 DUP7 SWAP3 PUSH1 0x0 PUSH1 0x1 DUP1 PUSH1 0xA0 SHL SUB PUSH1 0x2 SLOAD AND PUSH1 0x40 MLOAD SWAP7 DUP8 SWAP6 DUP7 SWAP5 PUSH4 0x23B872DD PUSH1 0xE0 SHL DUP7 MSTORE CALLER PUSH1 0x4 DUP8 ADD MSTORE ADDRESS SWAP1 DUP7 ADD MSTORE DUP5 ADD MSTORE GAS CALL DUP1 ISZERO PUSH2 0xE74 JUMPI PUSH2 0xCF7 SWAP2 PUSH1 0x0 SWAP2 PUSH2 0xE47 JUMPI JUMPDEST POP PUSH2 0x156F JUMP JUMPDEST PUSH2 0xD73 PUSH1 0x40 MLOAD PUSH2 0xD06 DUP2 PUSH2 0x133D JUMP JUMPDEST DUP8 DUP2 MSTORE DUP4 DUP6 DUP3 ADD DUP8 DUP2 MSTORE PUSH1 0x40 DUP4 ADD TIMESTAMP DUP2 MSTORE PUSH2 0xD57 PUSH1 0x60 DUP6 ADD SWAP3 PUSH1 0x0 DUP5 MSTORE DUP12 PUSH1 0x0 MSTORE PUSH1 0x4 DUP11 MSTORE PUSH1 0x40 PUSH1 0x0 KECCAK256 CALLER PUSH1 0x0 MSTORE DUP11 MSTORE PUSH1 0x40 PUSH1 0x0 KECCAK256 SWAP6 MLOAD DUP7 SSTORE MLOAD ISZERO ISZERO PUSH1 0x1 DUP7 ADD SWAP1 PUSH1 0xFF DUP1 NOT DUP4 SLOAD AND SWAP2 ISZERO ISZERO AND OR SWAP1 SSTORE JUMP JUMPDEST MLOAD PUSH1 0x2 DUP5 ADD SSTORE MLOAD ISZERO ISZERO SWAP2 ADD SWAP1 PUSH1 0xFF DUP1 NOT DUP4 SLOAD AND SWAP2 ISZERO ISZERO AND OR SWAP1 SSTORE JUMP JUMPDEST DUP5 PUSH1 0x0 MSTORE DUP2 DUP4 MSTORE PUSH1 0x4 PUSH1 0x40 PUSH1 0x0 KECCAK256 ADD PUSH2 0xD8D DUP8 DUP3 SLOAD PUSH2 0x154A JUMP JUMPDEST SWAP1 SSTORE ISZERO PUSH2 0xE26 JUMPI DUP4 PUSH1 0x0 MSTORE DUP1 DUP3 MSTORE PUSH1 0x5 PUSH1 0x40 PUSH1 0x0 KECCAK256 ADD PUSH2 0xDAE DUP7 DUP3 SLOAD PUSH2 0x154A JUMP JUMPDEST SWAP1 SSTORE JUMPDEST CALLER PUSH1 0x0 MSTORE PUSH1 0x5 DUP3 MSTORE PUSH1 0x40 PUSH1 0x0 KECCAK256 PUSH2 0xDC9 DUP7 DUP3 SLOAD PUSH2 0x154A JUMP JUMPDEST SWAP1 SSTORE CALLER PUSH1 0x0 MSTORE PUSH1 0x5 DUP3 MSTORE PUSH1 0x40 PUSH1 0x0 KECCAK256 SWAP1 PUSH2 0x3E8 PUSH2 0xDEC PUSH1 0x1 DUP5 ADD SLOAD DUP5 SLOAD SWAP1 PUSH2 0x15D0 JUMP JUMPDEST DIV SWAP2 ADD SSTORE PUSH1 0x40 MLOAD SWAP4 DUP5 MSTORE DUP4 ADD MSTORE PUSH32 0xB898E75D5AAC8DE2F407E4A683C8D909E832D1E371E3BFF0FA3ED934E88D9562 PUSH1 0x40 CALLER SWAP4 LOG3 PUSH1 0x1 PUSH1 0x0 SSTORE STOP JUMPDEST DUP4 PUSH1 0x0 MSTORE DUP1 DUP3 MSTORE PUSH1 0x6 PUSH1 0x40 PUSH1 0x0 KECCAK256 ADD PUSH2 0xE40 DUP7 DUP3 SLOAD PUSH2 0x154A JUMP JUMPDEST SWAP1 SSTORE PUSH2 0xDB1 JUMP JUMPDEST PUSH2 0xE67 SWAP2 POP DUP6 RETURNDATASIZE DUP8 GT PUSH2 0xE6D JUMPI JUMPDEST PUSH2 0xE5F DUP2 DUP4 PUSH2 0x1376 JUMP JUMPDEST DUP2 ADD SWAP1 PUSH2 0x1557 JUMP JUMPDEST DUP9 PUSH2 0xCF1 JUMP JUMPDEST POP RETURNDATASIZE PUSH2 0xE55 JUMP JUMPDEST PUSH1 0x40 MLOAD RETURNDATASIZE PUSH1 0x0 DUP3 RETURNDATACOPY RETURNDATASIZE SWAP1 REVERT JUMPDEST PUSH13 0x105B1C9958591E481D9BDD1959 PUSH1 0x9A SHL PUSH1 0x64 SWAP3 PUSH1 0xD DUP8 SWAP4 PUSH1 0x40 MLOAD SWAP5 PUSH3 0x461BCD PUSH1 0xE5 SHL DUP7 MSTORE PUSH1 0x4 DUP7 ADD MSTORE DUP5 ADD MSTORE DUP3 ADD MSTORE REVERT JUMPDEST PUSH21 0x159BDD1A5B99C81C195C9A5BD908195E1C1A5C9959 PUSH1 0x5A SHL PUSH1 0x64 SWAP3 PUSH1 0x15 DUP8 SWAP4 PUSH1 0x40 MLOAD SWAP5 PUSH3 0x461BCD PUSH1 0xE5 SHL DUP7 MSTORE PUSH1 0x4 DUP7 ADD MSTORE DUP5 ADD MSTORE DUP3 ADD MSTORE REVERT JUMPDEST PUSH19 0x159BDD1A5B99C81C195C9A5BD908195B991959 PUSH1 0x6A SHL PUSH1 0x64 SWAP3 PUSH1 0x13 DUP8 SWAP4 PUSH1 0x40 MLOAD SWAP5 PUSH3 0x461BCD PUSH1 0xE5 SHL DUP7 MSTORE PUSH1 0x4 DUP7 ADD MSTORE DUP5 ADD MSTORE DUP3 ADD MSTORE REVERT JUMPDEST PUSH1 0x40 MLOAD PUSH3 0x461BCD PUSH1 0xE5 SHL DUP2 MSTORE PUSH1 0x20 PUSH1 0x4 DUP3 ADD MSTORE PUSH1 0x19 DUP2 DUP6 ADD MSTORE PUSH32 0x496E73756666696369656E74207374616B6520616D6F756E7400000000000000 DUP2 DUP5 ADD MSTORE PUSH1 0x64 SWAP1 REVERT JUMPDEST CALLVALUE PUSH2 0x1B5 JUMPI PUSH1 0x20 DUP1 PUSH1 0x3 NOT CALLDATASIZE ADD SLT PUSH2 0x1B5 JUMPI PUSH1 0x4 CALLDATALOAD PUSH2 0xF84 PUSH2 0x15AD JUMP JUMPDEST DUP1 PUSH1 0x0 MSTORE PUSH1 0x3 DUP3 MSTORE PUSH1 0xFF PUSH1 0x7 PUSH1 0x40 PUSH1 0x0 KECCAK256 ADD SLOAD AND ISZERO PUSH2 0x11FB JUMPI DUP1 PUSH1 0x0 MSTORE PUSH1 0x4 DUP3 MSTORE PUSH1 0x40 PUSH1 0x0 KECCAK256 CALLER PUSH1 0x0 MSTORE DUP3 MSTORE PUSH1 0x40 PUSH1 0x0 KECCAK256 SLOAD ISZERO PUSH2 0x11C6 JUMPI DUP1 PUSH1 0x0 MSTORE PUSH1 0x4 DUP3 MSTORE PUSH1 0x40 PUSH1 0x0 KECCAK256 CALLER PUSH1 0x0 MSTORE DUP3 MSTORE PUSH1 0xFF PUSH1 0x3 PUSH1 0x40 PUSH1 0x0 KECCAK256 ADD SLOAD AND PUSH2 0x1181 JUMPI PUSH1 0x0 MSTORE PUSH1 0x3 DUP2 MSTORE PUSH1 0x40 PUSH1 0x0 KECCAK256 PUSH1 0x4 DUP3 MSTORE PUSH1 0x40 PUSH1 0x0 KECCAK256 CALLER PUSH1 0x0 MSTORE DUP3 MSTORE PUSH1 0x40 PUSH1 0x0 KECCAK256 SWAP1 PUSH1 0x5 DUP2 ADD SLOAD SWAP1 PUSH1 0x6 DUP2 ADD SLOAD DUP1 DUP4 GT SWAP3 DUP4 PUSH1 0xFF PUSH1 0x1 DUP8 ADD SLOAD AND ISZERO ISZERO EQ SWAP2 PUSH1 0x0 SWAP5 DUP7 SLOAD SWAP6 DUP7 SWAP5 PUSH1 0x0 EQ PUSH2 0x1156 JUMPI POP SWAP2 PUSH1 0x8 SWAP2 PUSH2 0x1045 SWAP5 SWAP4 PUSH1 0x0 EQ PUSH2 0x114E JUMPI POP SWAP4 JUMPDEST ADD SLOAD PUSH2 0x15D0 JUMP JUMPDEST DUP2 ISZERO PUSH2 0x1138 JUMPI DIV CALLER PUSH1 0x0 MSTORE PUSH1 0x5 DUP5 MSTORE PUSH1 0x1 PUSH1 0x40 PUSH1 0x0 KECCAK256 ADD SWAP2 DUP3 SLOAD SWAP3 PUSH1 0xA DUP5 ADD DUP1 SWAP5 GT PUSH2 0xB99 JUMPI PUSH1 0x0 SWAP5 PUSH2 0x10A3 SWAP5 PUSH1 0x3 SWAP3 SSTORE JUMPDEST ADD PUSH1 0x1 PUSH1 0xFF NOT DUP3 SLOAD AND OR SWAP1 SSTORE CALLER DUP5 MSTORE PUSH1 0x5 DUP6 MSTORE PUSH1 0x2 PUSH1 0x40 DUP6 KECCAK256 ADD PUSH2 0x109C DUP4 DUP3 SLOAD PUSH2 0x154A JUMP JUMPDEST SWAP1 SSTORE PUSH2 0x154A JUMP JUMPDEST SWAP2 DUP1 PUSH1 0x1 DUP1 PUSH1 0xA0 SHL SUB PUSH1 0x2 SLOAD AND PUSH1 0x44 PUSH1 0x40 MLOAD DUP1 SWAP6 DUP2 SWAP4 PUSH4 0xA9059CBB PUSH1 0xE0 SHL DUP4 MSTORE CALLER PUSH1 0x4 DUP5 ADD MSTORE DUP9 PUSH1 0x24 DUP5 ADD MSTORE GAS CALL SWAP2 DUP3 ISZERO PUSH2 0xE74 JUMPI PUSH32 0xFC30CDDEA38E2BF4D6EA7D3F9ED3B6AD7F176419F4963BD81318067A4AEE73FE SWAP3 PUSH2 0x110B SWAP2 PUSH1 0x0 SWAP2 PUSH2 0x111B JUMPI POP PUSH2 0x156F JUMP JUMPDEST PUSH1 0x40 MLOAD SWAP3 DUP4 MSTORE CALLER SWAP3 LOG2 PUSH1 0x1 PUSH1 0x0 SSTORE STOP JUMPDEST PUSH2 0x1132 SWAP2 POP DUP4 RETURNDATASIZE DUP6 GT PUSH2 0xE6D JUMPI PUSH2 0xE5F DUP2 DUP4 PUSH2 0x1376 JUMP JUMPDEST DUP6 PUSH2 0xCF1 JUMP JUMPDEST PUSH4 0x4E487B71 PUSH1 0xE0 SHL PUSH1 0x0 MSTORE PUSH1 0x12 PUSH1 0x4 MSTORE PUSH1 0x24 PUSH1 0x0 REVERT JUMPDEST SWAP1 POP SWAP4 PUSH2 0x103E JUMP JUMPDEST SWAP5 POP POP POP POP POP PUSH1 0x5A DUP3 MUL SWAP2 DUP1 DUP4 DIV PUSH1 0x5A EQ SWAP1 ISZERO OR ISZERO PUSH2 0xB99 JUMPI PUSH1 0x0 SWAP3 PUSH1 0x3 PUSH1 0x64 PUSH2 0x10A3 SWAP5 DIV SWAP2 PUSH2 0x1077 JUMP JUMPDEST PUSH1 0x40 MLOAD PUSH3 0x461BCD PUSH1 0xE5 SHL DUP2 MSTORE PUSH1 0x4 DUP2 ADD DUP4 SWAP1 MSTORE PUSH1 0x17 PUSH1 0x24 DUP3 ADD MSTORE PUSH32 0x5265776172647320616C726561647920636C61696D6564000000000000000000 PUSH1 0x44 DUP3 ADD MSTORE PUSH1 0x64 SWAP1 REVERT JUMPDEST PUSH1 0x40 MLOAD PUSH3 0x461BCD PUSH1 0xE5 SHL DUP2 MSTORE PUSH1 0x4 DUP2 ADD DUP4 SWAP1 MSTORE PUSH1 0xD PUSH1 0x24 DUP3 ADD MSTORE PUSH13 0x139BC81D9BDD1948199BDD5B99 PUSH1 0x9A SHL PUSH1 0x44 DUP3 ADD MSTORE PUSH1 0x64 SWAP1 REVERT JUMPDEST PUSH1 0x40 MLOAD PUSH3 0x461BCD PUSH1 0xE5 SHL DUP2 MSTORE PUSH1 0x4 DUP2 ADD DUP4 SWAP1 MSTORE PUSH1 0x15 PUSH1 0x24 DUP3 ADD MSTORE PUSH21 0x10DBDB9D195B9D081B9BDD08199A5B985B1A5E9959 PUSH1 0x5A SHL PUSH1 0x44 DUP3 ADD MSTORE PUSH1 0x64 SWAP1 REVERT JUMPDEST CALLVALUE PUSH2 0x1B5 JUMPI PUSH1 0x40 CALLDATASIZE PUSH1 0x3 NOT ADD SLT PUSH2 0x1B5 JUMPI PUSH2 0x1251 PUSH2 0x1311 JUMP JUMPDEST PUSH1 0x0 PUSH1 0x60 PUSH1 0x40 MLOAD PUSH2 0x1261 DUP2 PUSH2 0x133D JUMP JUMPDEST DUP3 DUP2 MSTORE DUP3 PUSH1 0x20 DUP3 ADD MSTORE DUP3 PUSH1 0x40 DUP3 ADD MSTORE ADD MSTORE PUSH1 0x4 CALLDATALOAD PUSH1 0x0 MSTORE PUSH1 0x4 PUSH1 0x20 MSTORE PUSH1 0x40 PUSH1 0x0 KECCAK256 SWAP1 PUSH1 0x1 DUP1 PUSH1 0xA0 SHL SUB AND PUSH1 0x0 MSTORE PUSH1 0x20 MSTORE PUSH1 0x80 PUSH1 0x40 PUSH1 0x0 KECCAK256 PUSH1 0x40 MLOAD PUSH2 0x12A4 DUP2 PUSH2 0x133D JUMP JUMPDEST DUP2 SLOAD SWAP2 DUP3 DUP3 MSTORE PUSH1 0xFF PUSH1 0x1 DUP3 ADD SLOAD AND PUSH1 0x20 DUP4 ADD SWAP1 ISZERO ISZERO DUP2 MSTORE PUSH1 0x60 PUSH1 0xFF PUSH1 0x3 PUSH1 0x2 DUP6 ADD SLOAD SWAP5 PUSH1 0x40 DUP8 ADD SWAP6 DUP7 MSTORE ADD SLOAD AND SWAP4 ADD SWAP3 ISZERO ISZERO DUP4 MSTORE PUSH1 0x40 MLOAD SWAP4 DUP5 MSTORE MLOAD ISZERO ISZERO PUSH1 0x20 DUP5 ADD MSTORE MLOAD PUSH1 0x40 DUP4 ADD MSTORE MLOAD ISZERO ISZERO PUSH1 0x60 DUP3 ADD MSTORE RETURN JUMPDEST CALLVALUE PUSH2 0x1B5 JUMPI PUSH1 0x0 CALLDATASIZE PUSH1 0x3 NOT ADD SLT PUSH2 0x1B5 JUMPI PUSH1 0x20 SWAP1 PUSH1 0x9 SLOAD DUP2 MSTORE RETURN JUMPDEST PUSH1 0x24 CALLDATALOAD SWAP1 PUSH1 0x1 PUSH1 0x1 PUSH1 0xA0 SHL SUB DUP3 AND DUP3 SUB PUSH2 0x1B5 JUMPI JUMP JUMPDEST PUSH1 0x4 CALLDATALOAD SWAP1 PUSH1 0x1 PUSH1 0x1 PUSH1 0xA0 SHL SUB DUP3 AND DUP3 SUB PUSH2 0x1B5 JUMPI JUMP JUMPDEST PUSH1 0x80 DUP2 ADD SWAP1 DUP2 LT PUSH8 0xFFFFFFFFFFFFFFFF DUP3 GT OR PUSH2 0xB83 JUMPI PUSH1 0x40 MSTORE JUMP JUMPDEST PUSH2 0x120 DUP2 ADD SWAP1 DUP2 LT PUSH8 0xFFFFFFFFFFFFFFFF DUP3 GT OR PUSH2 0xB83 JUMPI PUSH1 0x40 MSTORE JUMP JUMPDEST SWAP1 PUSH1 0x1F DUP1 NOT SWAP2 ADD AND DUP2 ADD SWAP1 DUP2 LT PUSH8 0xFFFFFFFFFFFFFFFF DUP3 GT OR PUSH2 0xB83 JUMPI PUSH1 0x40 MSTORE JUMP JUMPDEST SWAP2 SWAP1 DUP3 MLOAD SWAP3 DUP4 DUP3 MSTORE PUSH1 0x0 JUMPDEST DUP5 DUP2 LT PUSH2 0x13C4 JUMPI POP POP DUP3 PUSH1 0x0 PUSH1 0x20 DUP1 SWAP5 SWAP6 DUP5 ADD ADD MSTORE PUSH1 0x1F DUP1 NOT SWAP2 ADD AND ADD ADD SWAP1 JUMP JUMPDEST PUSH1 0x20 DUP2 DUP4 ADD DUP2 ADD MLOAD DUP5 DUP4 ADD DUP3 ADD MSTORE ADD PUSH2 0x13A3 JUMP JUMPDEST SWAP1 PUSH1 0x1 DUP3 DUP2 SHR SWAP3 AND DUP1 ISZERO PUSH2 0x1408 JUMPI JUMPDEST PUSH1 0x20 DUP4 LT EQ PUSH2 0x13F2 JUMPI JUMP JUMPDEST PUSH4 0x4E487B71 PUSH1 0xE0 SHL PUSH1 0x0 MSTORE PUSH1 0x22 PUSH1 0x4 MSTORE PUSH1 0x24 PUSH1 0x0 REVERT JUMPDEST SWAP2 PUSH1 0x7F AND SWAP2 PUSH2 0x13E7 JUMP JUMPDEST SWAP1 PUSH1 0x40 MLOAD SWAP2 DUP3 PUSH1 0x0 DUP3 SLOAD SWAP3 PUSH2 0x1426 DUP5 PUSH2 0x13D8 JUMP JUMPDEST SWAP1 DUP2 DUP5 MSTORE PUSH1 0x1 SWAP5 DUP6 DUP2 AND SWAP1 DUP2 PUSH1 0x0 EQ PUSH2 0x1495 JUMPI POP PUSH1 0x1 EQ PUSH2 0x1452 JUMPI JUMPDEST POP POP PUSH2 0x1450 SWAP3 POP SUB DUP4 PUSH2 0x1376 JUMP JUMPDEST JUMP JUMPDEST SWAP1 SWAP4 SWAP2 POP PUSH1 0x0 MSTORE PUSH1 0x20 SWAP1 DUP2 PUSH1 0x0 KECCAK256 SWAP4 PUSH1 0x0 SWAP2 JUMPDEST DUP2 DUP4 LT PUSH2 0x147D JUMPI POP POP PUSH2 0x1450 SWAP4 POP DUP3 ADD ADD CODESIZE DUP1 PUSH2 0x1442 JUMP JUMPDEST DUP6 SLOAD DUP9 DUP5 ADD DUP6 ADD MSTORE SWAP5 DUP6 ADD SWAP5 DUP8 SWAP5 POP SWAP2 DUP4 ADD SWAP2 PUSH2 0x1465 JUMP JUMPDEST SWAP2 POP POP PUSH2 0x1450 SWAP5 POP PUSH1 0x20 SWAP3 POP PUSH1 0xFF NOT AND DUP3 DUP5 ADD MSTORE ISZERO ISZERO PUSH1 0x5 SHL DUP3 ADD ADD CODESIZE DUP1 PUSH2 0x1442 JUMP JUMPDEST PUSH1 0x1 SLOAD PUSH1 0x1 PUSH1 0x1 PUSH1 0xA0 SHL SUB AND CALLER SUB PUSH2 0x14CC JUMPI JUMP JUMPDEST PUSH1 0x40 MLOAD PUSH4 0x118CDAA7 PUSH1 0xE0 SHL DUP2 MSTORE CALLER PUSH1 0x4 DUP3 ADD MSTORE PUSH1 0x24 SWAP1 REVERT JUMPDEST PUSH1 0xFF PUSH1 0x1 SLOAD PUSH1 0xA0 SHR AND PUSH2 0x14F3 JUMPI JUMP JUMPDEST PUSH1 0x40 MLOAD PUSH4 0xD93C0665 PUSH1 0xE0 SHL DUP2 MSTORE PUSH1 0x4 SWAP1 REVERT JUMPDEST ISZERO PUSH2 0x150C JUMPI JUMP JUMPDEST PUSH1 0x40 MLOAD PUSH3 0x461BCD PUSH1 0xE5 SHL DUP2 MSTORE PUSH1 0x20 PUSH1 0x4 DUP3 ADD MSTORE PUSH1 0x16 PUSH1 0x24 DUP3 ADD MSTORE PUSH22 0x10DBDB9D195B9D08191BD95CC81B9BDD08195E1A5CDD PUSH1 0x52 SHL PUSH1 0x44 DUP3 ADD MSTORE PUSH1 0x64 SWAP1 REVERT JUMPDEST SWAP2 SWAP1 DUP3 ADD DUP1 SWAP3 GT PUSH2 0xB99 JUMPI JUMP JUMPDEST SWAP1 DUP2 PUSH1 0x20 SWAP2 SUB SLT PUSH2 0x1B5 JUMPI MLOAD DUP1 ISZERO ISZERO DUP2 SUB PUSH2 0x1B5 JUMPI SWAP1 JUMP JUMPDEST ISZERO PUSH2 0x1576 JUMPI JUMP JUMPDEST PUSH1 0x40 MLOAD PUSH3 0x461BCD PUSH1 0xE5 SHL DUP2 MSTORE PUSH1 0x20 PUSH1 0x4 DUP3 ADD MSTORE PUSH1 0xF PUSH1 0x24 DUP3 ADD MSTORE PUSH15 0x151C985B9CD9995C8819985A5B1959 PUSH1 0x8A SHL PUSH1 0x44 DUP3 ADD MSTORE PUSH1 0x64 SWAP1 REVERT JUMPDEST PUSH1 0x2 PUSH1 0x0 SLOAD EQ PUSH2 0x15BE JUMPI PUSH1 0x2 PUSH1 0x0 SSTORE JUMP JUMPDEST PUSH1 0x40 MLOAD PUSH4 0x3EE5AEB5 PUSH1 0xE0 SHL DUP2 MSTORE PUSH1 0x4 SWAP1 REVERT JUMPDEST DUP2 DUP2 MUL SWAP3 SWAP2 DUP2 ISZERO SWAP2 DUP5 DIV EQ OR ISZERO PUSH2 0xB99 JUMPI JUMP INVALID LOG2 PUSH5 0x6970667358 0x22 SLT KECCAK256 0xA5 0x5D SWAP4 SAR SWAP13 0xB8 PUSH30 0xBEF1F035C0B36DDDF9CBB20E87D1BE9AA977337CEB7AA2C3F364736F6C63 NUMBER STOP ADDMOD EQ STOP CALLER "},"methodIdentifiers":{"aiContents(uint256)":"db56861c","authorizeAI(address)":"bf1bec6b","authorizedAI(address)":"9e32aaa3","claimRewards(uint256)":"0962ef79","contentCounter()":"e6a9aba3","finalizeContent(uint256)":"878b9b44","getContentDetails(uint256)":"9dc3960b","getUserVote(uint256,address)":"03c7881a","minStakeAmount()":"f1887684","owner()":"8da5cb5b","pause()":"8456cb59","paused()":"5c975abb","renounceOwnership()":"715018a6","rewardPercentage()":"52d472eb","sToken()":"9ebdf12c","submitContent(string)":"30a1adeb","transferOwnership(address)":"f2fde38b","unpause()":"3f4ba83a","updateMinStakeAmount(uint256)":"d8060cd5","updateVotingPeriod(uint256)":"ef00ef43","userStats(address)":"8a65d874","voteOnContent(uint256,uint256,bool)":"2b980ea1","votes(uint256,address)":"d23254b4","votingPeriod()":"02a251a3"}},"storageLayout":{"storage":[{"astId":1512,"contract":"contracts/KnowledgeDAO.sol:KnowledgeDAO","label":"_status","offset":0,"slot":"0","type":"t_uint256"},{"astId":388,"contract":"contracts/KnowledgeDAO.sol:KnowledgeDAO","label":"_owner","offset":0,"slot":"1","type":"t_address"},{"astId":1402,"contract":"contracts/KnowledgeDAO.sol:KnowledgeDAO","label":"_paused","offset":20,"slot":"1","type":"t_bool"},{"astId":3209,"contract":"contracts/KnowledgeDAO.sol:KnowledgeDAO","label":"sToken","offset":0,"slot":"2","type":"t_contract(IERC20)1257"},{"astId":3251,"contract":"contracts/KnowledgeDAO.sol:KnowledgeDAO","label":"aiContents","offset":0,"slot":"3","type":"t_mapping(t_uint256,t_struct(AIContent)3228_storage)"},{"astId":3258,"contract":"contracts/KnowledgeDAO.sol:KnowledgeDAO","label":"votes","offset":0,"slot":"4","type":"t_mapping(t_uint256,t_mapping(t_address,t_struct(Vote)3237_storage))"},{"astId":3263,"contract":"contracts/KnowledgeDAO.sol:KnowledgeDAO","label":"userStats","offset":0,"slot":"5","type":"t_mapping(t_address,t_struct(UserStats)3246_storage)"},{"astId":3267,"contract":"contracts/KnowledgeDAO.sol:KnowledgeDAO","label":"authorizedAI","offset":0,"slot":"6","type":"t_mapping(t_address,t_bool)"},{"astId":3269,"contract":"contracts/KnowledgeDAO.sol:KnowledgeDAO","label":"contentCounter","offset":0,"slot":"7","type":"t_uint256"},{"astId":3276,"contract":"contracts/KnowledgeDAO.sol:KnowledgeDAO","label":"minStakeAmount","offset":0,"slot":"8","type":"t_uint256"},{"astId":3279,"contract":"contracts/KnowledgeDAO.sol:KnowledgeDAO","label":"votingPeriod","offset":0,"slot":"9","type":"t_uint256"},{"astId":3282,"contract":"contracts/KnowledgeDAO.sol:KnowledgeDAO","label":"rewardPercentage","offset":0,"slot":"10","type":"t_uint256"}],"types":{"t_address":{"encoding":"inplace","label":"address","numberOfBytes":"20"},"t_bool":{"encoding":"inplace","label":"bool","numberOfBytes":"1"},"t_contract(IERC20)1257":{"encoding":"inplace","label":"contract IERC20","numberOfBytes":"20"},"t_mapping(t_address,t_bool)":{"encoding":"mapping","key":"t_address","label":"mapping(address => bool)","numberOfBytes":"32","value":"t_bool"},"t_mapping(t_address,t_struct(UserStats)3246_storage)":{"encoding":"mapping","key":"t_address","label":"mapping(address => struct KnowledgeDAO.UserStats)","numberOfBytes":"32","value":"t_struct(UserStats)3246_storage"},"t_mapping(t_address,t_struct(Vote)3237_storage)":{"encoding":"mapping","key":"t_address","label":"mapping(address => struct KnowledgeDAO.Vote)","numberOfBytes":"32","value":"t_struct(Vote)3237_storage"},"t_mapping(t_uint256,t_mapping(t_address,t_struct(Vote)3237_storage))":{"encoding":"mapping","key":"t_uint256","label":"mapping(uint256 => mapping(address => struct KnowledgeDAO.Vote))","numberOfBytes":"32","value":"t_mapping(t_address,t_struct(Vote)3237_storage)"},"t_mapping(t_uint256,t_struct(AIContent)3228_storage)":{"encoding":"mapping","key":"t_uint256","label":"mapping(uint256 => struct KnowledgeDAO.AIContent)","numberOfBytes":"32","value":"t_struct(AIContent)3228_storage"},"t_string_storage":{"encoding":"bytes","label":"string","numberOfBytes":"32"},"t_struct(AIContent)3228_storage":{"encoding":"inplace","label":"struct KnowledgeDAO.AIContent","members":[{"astId":3211,"contract":"contracts/KnowledgeDAO.sol:KnowledgeDAO","label":"id","offset":0,"slot":"0","type":"t_uint256"},{"astId":3213,"contract":"contracts/KnowledgeDAO.sol:KnowledgeDAO","label":"contentHash","offset":0,"slot":"1","type":"t_string_storage"},{"astId":3215,"contract":"contracts/KnowledgeDAO.sol:KnowledgeDAO","label":"aiAgent","offset":0,"slot":"2","type":"t_address"},{"astId":3217,"contract":"contracts/KnowledgeDAO.sol:KnowledgeDAO","label":"timestamp","offset":0,"slot":"3","type":"t_uint256"},{"astId":3219,"contract":"contracts/KnowledgeDAO.sol:KnowledgeDAO","label":"totalStaked","offset":0,"slot":"4","type":"t_uint256"},{"astId":3221,"contract":"contracts/KnowledgeDAO.sol:KnowledgeDAO","label":"positiveVotes","offset":0,"slot":"5","type":"t_uint256"},{"astId":3223,"contract":"contracts/KnowledgeDAO.sol:KnowledgeDAO","label":"negativeVotes","offset":0,"slot":"6","type":"t_uint256"},{"astId":3225,"contract":"contracts/KnowledgeDAO.sol:KnowledgeDAO","label":"finalized","offset":0,"slot":"7","type":"t_bool"},{"astId":3227,"contract":"contracts/KnowledgeDAO.sol:KnowledgeDAO","label":"rewardPool","offset":0,"slot":"8","type":"t_uint256"}],"numberOfBytes":"288"},"t_struct(UserStats)3246_storage":{"encoding":"inplace","label":"struct KnowledgeDAO.UserStats","members":[{"astId":3239,"contract":"contracts/KnowledgeDAO.sol:KnowledgeDAO","label":"totalStaked","offset":0,"slot":"0","type":"t_uint256"},{"astId":3241,"contract":"contracts/KnowledgeDAO.sol:KnowledgeDAO","label":"accuracyScore","offset":0,"slot":"1","type":"t_uint256"},{"astId":3243,"contract":"contracts/KnowledgeDAO.sol:KnowledgeDAO","label":"totalRewards","offset":0,"slot":"2","type":"t_uint256"},{"astId":3245,"contract":"contracts/KnowledgeDAO.sol:KnowledgeDAO","label":"votingPower","offset":0,"slot":"3","type":"t_uint256"}],"numberOfBytes":"128"},"t_struct(Vote)3237_storage":{"encoding":"inplace","label":"struct KnowledgeDAO.Vote","members":[{"astId":3230,"contract":"contracts/KnowledgeDAO.sol:KnowledgeDAO","label":"amount","offset":0,"slot":"0","type":"t_uint256"},{"astId":3232,"contract":"contracts/KnowledgeDAO.sol:KnowledgeDAO","label":"positive","offset":0,"slot":"1","type":"t_bool"},{"astId":3234,"contract":"contracts/KnowledgeDAO.sol:KnowledgeDAO","label":"timestamp","offset":0,"slot":"2","type":"t_uint256"},{"astId":3236,"contract":"contracts/KnowledgeDAO.sol:KnowledgeDAO","label":"claimed","offset":0,"slot":"3","type":"t_bool"}],"numberOfBytes":"128"},"t_uint256":{"encoding":"inplace","label":"uint256","numberOfBytes":"32"}}}}}}