{"contracts/ReputationSystem.sol":{"ReputationSystem":{"abi":[{"inputs":[{"internalType":"address","name":"initialOwner","type":"address"}],"stateMutability":"nonpayable","type":"constructor"},{"inputs":[{"internalType":"address","name":"owner","type":"address"}],"name":"OwnableInvalidOwner","type":"error"},{"inputs":[{"internalType":"address","name":"account","type":"address"}],"name":"OwnableUnauthorizedAccount","type":"error"},{"inputs":[],"name":"ReentrancyGuardReentrantCall","type":"error"},{"anonymous":false,"inputs":[{"indexed":true,"internalType":"address","name":"user","type":"address"},{"indexed":false,"internalType":"uint256","name":"confidenceScore","type":"uint256"},{"indexed":false,"internalType":"bytes32","name":"evidenceHash","type":"bytes32"}],"name":"AIValidationReceived","type":"event"},{"anonymous":false,"inputs":[{"indexed":true,"internalType":"address","name":"endorser","type":"address"},{"indexed":true,"internalType":"address","name":"endorsed","type":"address"}],"name":"EndorsementGiven","type":"event"},{"anonymous":false,"inputs":[{"indexed":true,"internalType":"address","name":"user","type":"address"},{"indexed":false,"internalType":"string","name":"area","type":"string"},{"indexed":false,"internalType":"uint256","name":"score","type":"uint256"}],"name":"ExpertiseAreaUpdated","type":"event"},{"anonymous":false,"inputs":[{"indexed":true,"internalType":"address","name":"user","type":"address"},{"indexed":false,"internalType":"bool","name":"isInfluencer","type":"bool"}],"name":"InfluencerStatusChanged","type":"event"},{"anonymous":false,"inputs":[{"indexed":true,"internalType":"address","name":"previousOwner","type":"address"},{"indexed":true,"internalType":"address","name":"newOwner","type":"address"}],"name":"OwnershipTransferred","type":"event"},{"anonymous":false,"inputs":[{"indexed":true,"internalType":"address","name":"user","type":"address"},{"indexed":false,"internalType":"string","name":"actionType","type":"string"},{"indexed":false,"internalType":"int256","name":"scoreChange","type":"int256"},{"indexed":false,"internalType":"uint256","name":"newTotalScore","type":"uint256"}],"name":"ReputationUpdated","type":"event"},{"inputs":[],"name":"AI_VALIDATION_WEIGHT","outputs":[{"internalType":"uint256","name":"","type":"uint256"}],"stateMutability":"view","type":"function"},{"inputs":[],"name":"DECAY_RATE","outputs":[{"internalType":"uint256","name":"","type":"uint256"}],"stateMutability":"view","type":"function"},{"inputs":[],"name":"INFLUENCER_THRESHOLD","outputs":[{"internalType":"uint256","name":"","type":"uint256"}],"stateMutability":"view","type":"function"},{"inputs":[],"name":"MAX_REPUTATION","outputs":[{"internalType":"uint256","name":"","type":"uint256"}],"stateMutability":"view","type":"function"},{"inputs":[{"internalType":"string","name":"","type":"string"}],"name":"actionTypeWeights","outputs":[{"internalType":"uint256","name":"","type":"uint256"}],"stateMutability":"view","type":"function"},{"inputs":[{"internalType":"uint256","name":"","type":"uint256"}],"name":"allTransactions","outputs":[{"internalType":"bytes32","name":"","type":"bytes32"}],"stateMutability":"view","type":"function"},{"inputs":[{"internalType":"address","name":"_oracle","type":"address"}],"name":"authorizeOracle","outputs":[],"stateMutability":"nonpayable","type":"function"},{"inputs":[{"internalType":"address","name":"","type":"address"}],"name":"authorizedValidators","outputs":[{"internalType":"bool","name":"","type":"bool"}],"stateMutability":"view","type":"function"},{"inputs":[{"internalType":"address","name":"_user","type":"address"}],"name":"emergencyResetUser","outputs":[],"stateMutability":"nonpayable","type":"function"},{"inputs":[{"internalType":"address","name":"_user","type":"address"}],"name":"endorseUser","outputs":[],"stateMutability":"nonpayable","type":"function"},{"inputs":[{"internalType":"address","name":"","type":"address"},{"internalType":"uint256","name":"","type":"uint256"}],"name":"endorsedBy","outputs":[{"internalType":"address","name":"","type":"address"}],"stateMutability":"view","type":"function"},{"inputs":[{"internalType":"address","name":"","type":"address"},{"internalType":"address","name":"","type":"address"}],"name":"endorsements","outputs":[{"internalType":"uint256","name":"","type":"uint256"}],"stateMutability":"view","type":"function"},{"inputs":[{"internalType":"string","name":"","type":"string"},{"internalType":"uint256","name":"","type":"uint256"}],"name":"expertsByArea","outputs":[{"internalType":"address","name":"","type":"address"}],"stateMutability":"view","type":"function"},{"inputs":[{"internalType":"address","name":"_user","type":"address"}],"name":"getEndorsements","outputs":[{"internalType":"address[]","name":"","type":"address[]"}],"stateMutability":"view","type":"function"},{"inputs":[{"internalType":"string","name":"_area","type":"string"}],"name":"getExpertsByArea","outputs":[{"internalType":"address[]","name":"","type":"address[]"}],"stateMutability":"view","type":"function"},{"inputs":[{"internalType":"uint256","name":"_limit","type":"uint256"}],"name":"getRecentTransactions","outputs":[{"internalType":"bytes32[]","name":"","type":"bytes32[]"}],"stateMutability":"view","type":"function"},{"inputs":[],"name":"getTotalTransactions","outputs":[{"internalType":"uint256","name":"","type":"uint256"}],"stateMutability":"view","type":"function"},{"inputs":[{"internalType":"address","name":"_user","type":"address"},{"internalType":"string","name":"_area","type":"string"}],"name":"getUserExpertise","outputs":[{"internalType":"uint256","name":"","type":"uint256"}],"stateMutability":"view","type":"function"},{"inputs":[{"internalType":"address","name":"_user","type":"address"}],"name":"getUserReputation","outputs":[{"internalType":"uint256","name":"totalScore","type":"uint256"},{"internalType":"uint256","name":"votingAccuracy","type":"uint256"},{"internalType":"uint256","name":"stakingHistory","type":"uint256"},{"internalType":"uint256","name":"communityContribution","type":"uint256"},{"internalType":"uint256","name":"aiValidationScore","type":"uint256"},{"internalType":"bool","name":"isInfluencer","type":"bool"},{"internalType":"uint256","name":"followerCount","type":"uint256"}],"stateMutability":"view","type":"function"},{"inputs":[],"name":"owner","outputs":[{"internalType":"address","name":"","type":"address"}],"stateMutability":"view","type":"function"},{"inputs":[],"name":"renounceOwnership","outputs":[],"stateMutability":"nonpayable","type":"function"},{"inputs":[{"internalType":"bytes32","name":"","type":"bytes32"}],"name":"reputationHistory","outputs":[{"internalType":"address","name":"user","type":"address"},{"internalType":"string","name":"actionType","type":"string"},{"internalType":"int256","name":"scoreChange","type":"int256"},{"internalType":"uint256","name":"timestamp","type":"uint256"},{"internalType":"bytes32","name":"evidenceHash","type":"bytes32"},{"internalType":"bool","name":"aiValidated","type":"bool"},{"internalType":"uint256","name":"confidenceScore","type":"uint256"}],"stateMutability":"view","type":"function"},{"inputs":[{"internalType":"bytes32","name":"_transactionHash","type":"bytes32"},{"internalType":"uint256","name":"_confidenceScore","type":"uint256"},{"internalType":"bool","name":"_validationResult","type":"bool"}],"name":"submitAIValidation","outputs":[],"stateMutability":"nonpayable","type":"function"},{"inputs":[],"name":"totalUsers","outputs":[{"internalType":"uint256","name":"","type":"uint256"}],"stateMutability":"view","type":"function"},{"inputs":[{"internalType":"address","name":"newOwner","type":"address"}],"name":"transferOwnership","outputs":[],"stateMutability":"nonpayable","type":"function"},{"inputs":[{"internalType":"string","name":"_actionType","type":"string"},{"internalType":"uint256","name":"_weight","type":"uint256"}],"name":"updateActionTypeWeight","outputs":[],"stateMutability":"nonpayable","type":"function"},{"inputs":[{"internalType":"address","name":"_user","type":"address"},{"internalType":"string","name":"_area","type":"string"},{"internalType":"uint256","name":"_score","type":"uint256"}],"name":"updateExpertiseArea","outputs":[],"stateMutability":"nonpayable","type":"function"},{"inputs":[{"internalType":"address","name":"_user","type":"address"},{"internalType":"string","name":"_actionType","type":"string"},{"internalType":"int256","name":"_scoreModifier","type":"int256"},{"internalType":"bytes32","name":"_evidenceHash","type":"bytes32"},{"internalType":"bool","name":"_isPositive","type":"bool"}],"name":"updateReputation","outputs":[],"stateMutability":"nonpayable","type":"function"},{"inputs":[{"internalType":"address","name":"","type":"address"}],"name":"userReputations","outputs":[{"internalType":"uint256","name":"totalScore","type":"uint256"},{"internalType":"uint256","name":"contentScore","type":"uint256"},{"internalType":"uint256","name":"communityScore","type":"uint256"},{"internalType":"uint256","name":"aiValidationScore","type":"uint256"},{"internalType":"uint256","name":"lastUpdateTime","type":"uint256"},{"internalType":"bool","name":"isActive","type":"bool"},{"internalType":"uint256","name":"votingAccuracy","type":"uint256"},{"internalType":"uint256","name":"stakingHistory","type":"uint256"},{"internalType":"uint256","name":"communityContribution","type":"uint256"},{"internalType":"bool","name":"isInfluencer","type":"bool"},{"internalType":"uint256","name":"followerCount","type":"uint256"},{"internalType":"uint256","name":"timeBasedDecay","type":"uint256"},{"internalType":"uint256","name":"lastUpdateTimestamp","type":"uint256"}],"stateMutability":"view","type":"function"}],"evm":{"bytecode":{"linkReferences":{},"object":"60803461025857601f611f7a38819003918201601f191683019291906001600160401b0384118385101761025d57816020928492604096875283398101031261025857516001600160a01b03908181169081900361025857801561024057600080546001600160a01b031981168317825584516050946038949193919216907f8be0079c531659141344cd1fd0a4f28419497f9722a3daafe3b4186f6b6457e09080a3600180556c61636375726174655f766f746560981b81526064602d60049283600d82015220556032602f85516e696e61636375726174655f766f746560881b815283600f82015220556096603085516f31b7b73a32b73a2fb1b932b0ba34b7b760811b81528360108201522055604b602e85516d32b0b9363cafb0b237b83a34b7b760911b815283600e8201522055607d603385517f6c69717569646974795f70726f766973696f6e000000000000000000000000008152836013820152205560c8603485517f636f6d6d756e6974795f6d6f6465726174696f6e0000000000000000000000008152836014820152205561012c602f85516e6578706572745f616e616c7973697360881b815283600f820152205560fa603585517f61695f6d6f64656c5f636f6e747269627574696f6e0000000000000000000000815283601582015220556064602a855169189d59d7dc995c1bdc9d60b21b815283600a82015220558351907f676f7665726e616e63655f70617274696369706174696f6e000000000000000082526018820152205551611d0690816102748239f35b8251631e4fbdf760e01b815260006004820152602490fd5b600080fd5b634e487b7160e01b600052604160045260246000fdfe6080604052600436101561001257600080fd5b60003560e01c80630a75bbb8146118745780630f13b7631461182f5780631de40e49146118135780632b6033a4146117ba5780632d1f523a1461175157806339a811ee146115825780634f893f541461151c57806358714163146114dd578063607bb11a146114c0578063676a4bd514610df75780636f44180d14610b35578063715018a614610adc57806379cecf46146109c65780638788f9b71461097c5780638da5cb5b146109535780639abd6eb41461082b578063b0ac4226146107eb578063b4032c12146107cf578063b5c604ff146107b1578063b666ca9d14610726578063baccbfdb146106a6578063bc1a2fdf14610646578063bff1f9e114610628578063d213c0f21461060b578063d7ff0714146105d4578063e1c5c2e414610308578063e3bf0aff146102b3578063f2fde38b1461022a5763f8b116911461015b57600080fd5b34610225576020366003190112610225576001600160a01b0361017c6119df565b1660005260026020526101a0604060002080549060018101549060028101546003820154600483015460ff600585015416600685015460078601549160088701549360ff60098901541695600a89015497600c600b8b01549a01549a6040519c8d5260208d015260408c015260608b015260808a0152151560a089015260c088015260e08701526101008601521515610120850152610140840152610160830152610180820152f35b600080fd5b34610225576020366003190112610225576102436119df565b61024b611b1e565b6001600160a01b0390811690811561029a57600054826001600160601b0360a01b821617600055167f8be0079c531659141344cd1fd0a4f28419497f9722a3daafe3b4186f6b6457e0600080a3005b604051631e4fbdf760e01b815260006004820152602490fd5b34610225576040366003190112610225576102cc6119df565b6001600160a01b036024358181169290839003610225571660005260066020526040600020906000526020526020604060002054604051908152f35b34610225576060366003190112610225576024803560443580158015820361022557336000526020916005835261034660ff60406000205416611b4a565b60648411610590576004356000526003835260406000209460018060a01b03928387541680156105545760058801805460ff811661051c5760019060ff19161790558660068901556000526002855260406000209280610511575b1561043f57508460c8029060c88204860361042b57507fb848797da14d66c91c81e865e91c375d96f9375b75e0eccbbc18f969496bb2a19492604094926103ff606460049404600383016103f6828254611bbf565b90558254611bbf565b90818155612710809211610423575b50505b865416950154908351928352820152a2005b55878061040e565b634e487b7160e01b60009081526011600452fd5b80610506575b610479575b50509160409160047fb848797da14d66c91c81e865e91c375d96f9375b75e0eccbbc18f969496bb2a194610411565b60c8858102049081860361042b57507fb848797da14d66c91c81e865e91c375d96f9375b75e0eccbbc18f969496bb2a194928260049260036040979501818154116000146104fd576104cc828254611bb2565b90555b808254116000146104f3576104e5908254611bb2565b90555b92945081935061044a565b50600090556104e8565b600090556104cf565b506050851015610445565b5060508610156103a1565b60405162461bcd60e51b81526004810189905260118187015270105b1c9958591e481d985b1a59185d1959607a1b6044820152606490fd5b60405162461bcd60e51b81526004810187905260158185015274151c985b9cd858dd1a5bdb881b9bdd08199bdd5b99605a1b6044820152606490fd5b60405162461bcd60e51b8152600481018490526018818701527f496e76616c696420636f6e666964656e63652073636f726500000000000000006044820152606490fd5b3461022557602036600319011261022557600435600954811015610225576105fd6020916119f5565b90546040519160031b1c8152f35b346102255760003660031901126102255760206040516127108152f35b34610225576000366003190112610225576020600a54604051908152f35b3461022557602061066e61065936611aec565b92908160405193828580945193849201611a44565b8101600881520301902080548210156102255760209161068d91611a2c565b905460405160039290921b1c6001600160a01b03168152f35b34610225576020366003190112610225576001600160a01b036106c76119df565b16600052600260205260e0604060002080549060068101549060078101546008820154600383015491600a60ff600986015416940154946040519687526020870152604086015260608501526080840152151560a083015260c0820152f35b3461022557602080600319360112610225576001600160a01b03806107496119df565b1660005260078252604060002091604051809282855492838152019460005282600020926000915b8383106107985761079486610788818a0382611922565b6040519182918261199b565b0390f35b8454811687529581019560019485019490920191610771565b34610225576000366003190112610225576020600954604051908152f35b3461022557600036600319011261022557602060405160c88152f35b3461022557602061081b6107fe36611aec565b9290610808611b1e565b8160405193828580945193849201611a44565b8101600481520301902055600080f35b34610225576020806003193601126102255760043560005260038152604060002060018060a01b038154169060018381830160405192839160009181549161087283611a8d565b8086529282811690811561093057506001146108f1575b50505061089892500382611922565b60028201549160038101546004820154906108d1600660ff6005860154169401549460e0604051998a998a5289015260e0880190611ac7565b94604087015260608601526080850152151560a084015260c08301520390f35b600090815285812095935091905b8183106109185750889450508201016108988880610889565b855487840185015294850194869450918301916108ff565b9250505061089894925060ff191682840152151560051b82010186928880610889565b34610225576000366003190112610225576000546040516001600160a01b039091168152602090f35b346102255760203660031901126102255760043567ffffffffffffffff8111610225576109b3602061080881933690600401611944565b8101600481520301902054604051908152f35b34610225576020806003193601126102255760095460043581811115610ad75750805b6109f281611c98565b90610a006040519283611922565b808252610a0c81611c98565b8285019390601f1901368537600019810190811160005b838110610a6d57868587604051928392818401908285525180915260408401929160005b828110610a5657505050500390f35b835185528695509381019392810192600101610a47565b81610ac157610a84610a7f8285611bb2565b6119f5565b9190548651821015610aab57610aa69260031b1c888260051b88010152611c89565b610a23565b634e487b7160e01b600052603260045260246000fd5b634e487b7160e01b600052601160045260246000fd5b6109e9565b3461022557600036600319011261022557610af5611b1e565b600080546001600160a01b0319811682556001600160a01b03167f8be0079c531659141344cd1fd0a4f28419497f9722a3daafe3b4186f6b6457e08280a3005b3461022557606036600319011261022557610b4e6119df565b602490813567ffffffffffffffff811161022557610b70903690600401611944565b6044353360005260209060058252610b8f60ff60406000205416611b4a565b60648111610db35760018060a01b03948585169586600052600284526046600d60406000200184610bcb610bc3838a611a67565b549289611a67565b55108080610da8575b15610c355750505090610c2c9291610c18600080516020611cb18339815191529560405184818751610c098183858c01611a44565b81016008815203019020611bcc565b604051938493604085526040850190611ac7565b918301520390a2005b909195501580610d9e575b610c62575b50600080516020611cb1833981519152935090610c2c9291610c18565b60405183818651610c768183858b01611a44565b8101600881520301902060005b815480821015610d7e57839089610c9a8486611a2c565b939054600394851b1c1614610cb9575050610cb490611c89565b610c83565b9160009891959697989493941992838101908111610d695790610cf185610ce3610d109489611a2c565b9054908a1b1c169187611a2c565b90919082549060031b9160018060a01b03809116831b921b1916179055565b8354908115610d55575091600080516020611cb183398151915297959391610c2c9795930192610d408484611a2c565b81939154921b1b19169055555b909192610c45565b634e487b7160e01b60009081526031600452fd5b82634e487b7160e01b60005260116004526000fd5b50505050600080516020611cb1833981519152935090610c2c9291610d4d565b5060468210610c40565b506046841015610bd4565b60405162461bcd60e51b8152600481018390526017818701527f496e76616c6964206578706572746973652073636f72650000000000000000006044820152606490fd5b346102255760a036600319011261022557610e106119df565b60243567ffffffffffffffff811161022557610e30903690600401611944565b9060843515156084350361022557336000526005602052610e5860ff60406000205416611b4a565b6002600154146114ae5760026001556001600160a01b03811615611472576001600160a01b0381166000908152600260205260409020610e9782611bf1565b6040516020818551610eac8183858a01611a44565b81016004815203019020548015611437576084351561141957610ed460649160443590611b8e565b04925b60008413156113e957610eeb848354611bbf565b8083556127108091116113e1575b505b60018060a01b038316600052600260205260406000206040516020810190610f3b6020828651610f2e8187858b01611a44565b8101038084520182611922565b51902060405160208101906c61636375726174655f766f746560981b8252600d8152610f6681611906565b5190208114806113d8575b156112f45750600601610f876044358254611bbf565b90555b60018060a01b038316600052600260205260406000206009810161138860ff8254169254101580921515036112a7575b505060405160208101906001600160601b03198560601b16825261100b6074828551610fed816034840160208a01611a44565b81014260348201526064356054820152036054810184520182611922565b519020926040518060e081011067ffffffffffffffff60e0830111176111ca5760e0810160405260018060a01b038216815260208101908382528660408201524260608201526064356080820152600060a0820152600060c082015285600052600360205260406000209160018060a01b038251166001600160601b0360a01b8454161783555180519067ffffffffffffffff82116111ca576110b16001850154611a8d565b601f8111611260575b50602090601f83116001146111eb5791806006949260c0946000926111e0575b50508160011b916000199060031b1c19161760018501555b60408101516002850155606081015160038501556080810151600485015561112f60a08201511515600586019060ff801983541691151516179055565b015191015560095492600160401b8410156111ca577fcb23ce6aba98960f823de6a75e35c3ea92c2b9a8d545d3f1e0555efa752639dc946111798560016111aa97016009556119f5565b819291549060031b91821b91600019901b191617905542600c82015554604051938493606085526060850190611ac7565b602084019690965260408301526001600160a01b0316930390a260018055005b634e487b7160e01b600052604160045260246000fd5b015190508b806110da565b906001850160005260206000209160005b601f19851681106112485750926006949260019260c09583601f1981161061122f575b505050811b0160018501556110f2565b015160001960f88460031b161c191690558b808061121f565b919260206001819286850151815501940192016111fc565b600185016000526020600020601f840160051c8101602085106112a0575b601f830160051c820181106112945750506110ba565b6000815560010161127e565b508061127e565b805460ff191660ff831515161790556040519081526001600160a01b038416907f68f766b57006c62f30f0e35e805e1dc399f813d1c65625051267961513b978c290602090a28480610fba565b60405160208101906e696e61636375726174655f766f746560881b8252600f815261131e81611906565b5190208114806113ce575b1561136d575060060180546044359061134182611ba1565b10156113635761135c90611356835491611ba1565b90611bb2565b9055610f8a565b5060009055610f8a565b60405160208101906f31b7b73a32b73a2fb1b932b0ba34b7b760811b82526010815261139881611906565b51902014806113c5575b6113ad575b50610f8a565b6008016113bd6044358254611bbf565b9055846113a7565b506084356113a2565b5060843515611329565b50608435610f71565b825584610ef9565b6113f284611ba1565b8083541160001461140f57611408908354611bb2565b8255610efb565b5060008255610efb565b606461142b6114319260443590611b8e565b04611ba1565b92610ed7565b60405162461bcd60e51b8152602060048201526013602482015272496e76616c696420616374696f6e207479706560681b6044820152606490fd5b60405162461bcd60e51b8152602060048201526014602482015273496e76616c69642075736572206164647265737360601b6044820152606490fd5b604051633ee5aeb560e01b8152600490fd5b346102255760003660031901126102255760206040516113888152f35b34610225576020366003190112610225576001600160a01b036114fe6119df565b166000526005602052602060ff604060002054166040519015158152f35b34610225576020366003190112610225576115356119df565b61153d611b1e565b60018060a01b031660005260026020526009604060002060008155600060068201556000600782015560006008820155600060038201550160ff198154169055600080f35b3461022557602080600319360112610225576001600160a01b036115a46119df565b169033821461170d5733600052600281526103e8604060002054106116be5733600052600681526040600020826000528152604060002054611687573360005260028152600260646040600020540491600681526040600020846000528152826040600020556007815261161c336040600020611bcc565b836000525261164760406000209160088301611639828254611bbf565b905582549060011c90611bbf565b9081815561271080921161167f575b82337f98e9d32fe2d0d678817f18b4f079d2699a01440f871fee0da664fffbb0fa3be6600080a3005b558180611656565b6064906040519062461bcd60e51b82526004820152601060248201526f105b1c9958591e48195b991bdc9cd95960821b6044820152fd5b6084906040519062461bcd60e51b82526004820152602260248201527f496e73756666696369656e742072657075746174696f6e20746f20656e646f72604482015261736560f01b6064820152fd5b6064906040519062461bcd60e51b82526004820152601760248201527f43616e6e6f7420656e646f72736520796f757273656c660000000000000000006044820152fd5b346102255760403660031901126102255761176a6119df565b60243567ffffffffffffffff8111610225576020916117906117b1923690600401611944565b6001600160a01b0390911660009081526002845260409020600d0190611a67565b54604051908152f35b34610225576040366003190112610225576117d36119df565b6024359060018060a01b038091166000526007602052604060002080548310156102255760209261180391611a2c565b9190546040519260031b1c168152f35b3461022557600036600319011261022557602060405160058152f35b34610225576020366003190112610225576118486119df565b611850611b1e565b6001600160a01b03166000908152600560205260409020805460ff19166001179055005b34610225576020806003193601126102255760043567ffffffffffffffff811161022557816108086118aa923690600401611944565b8101600881520301902090604051908181845491828152019360005281600020916000905b8282106118e6576107948561078881890382611922565b83546001600160a01b0316865294850194600193840193909101906118cf565b6040810190811067ffffffffffffffff8211176111ca57604052565b90601f8019910116810190811067ffffffffffffffff8211176111ca57604052565b81601f820112156102255780359067ffffffffffffffff82116111ca5760405192611979601f8401601f191660200185611922565b8284526020838301011161022557816000926020809301838601378301015290565b6020908160408183019282815285518094520193019160005b8281106119c2575050505090565b83516001600160a01b0316855293810193928101926001016119b4565b600435906001600160a01b038216820361022557565b600954811015610aab5760096000527f6e1540171b6c0c960b71a7020d9f60077f6af931a8bbf590da0223dacf75c7af0190600090565b8054821015610aab5760005260206000200190600090565b60005b838110611a575750506000910152565b8181015183820152602001611a47565b602090611a81928260405194838680955193849201611a44565b82019081520301902090565b90600182811c92168015611abd575b6020831014611aa757565b634e487b7160e01b600052602260045260246000fd5b91607f1691611a9c565b90602091611ae081518092818552858086019101611a44565b601f01601f1916010190565b6040600319820112610225576004359067ffffffffffffffff821161022557611b1791600401611944565b9060243590565b6000546001600160a01b03163303611b3257565b60405163118cdaa760e01b8152336004820152602490fd5b15611b5157565b60405162461bcd60e51b81526020600482015260156024820152744e6f7420617574686f72697a6564206f7261636c6560581b6044820152606490fd5b81810292918115918404141715610ac157565b600160ff1b8114610ac15760000390565b91908203918211610ac157565b91908201809211610ac157565b90815491600160401b8310156111ca5782610cf1916001611bef95018155611a2c565b565b6001600160a01b03166000908152600260205260409020600c8101805415611c8357611c2262278d00915442611bb2565b0480611c2c575050565b815491600583029083820460051484151715610ac1576103e8611c54611c7694600b94611b8e565b04809411600014611c7a57611c6a848254611bb2565b81555b01918254611bbf565b9055565b60008155611c6d565b42905550565b6000198114610ac15760010190565b67ffffffffffffffff81116111ca5760051b6020019056fe1939d2dfb05d9af88af0d79217ccfdc4e3a468fb1ba8510dbca433e66c62f704a2646970667358221220b98c91c9893a6357b5b7075a707bc754ac29e080b38469d5a2be8a766ccfbfe464736f6c63430008140033","opcodes":"PUSH1 0x80 CALLVALUE PUSH2 0x258 JUMPI PUSH1 0x1F PUSH2 0x1F7A CODESIZE DUP2 SWAP1 SUB SWAP2 DUP3 ADD PUSH1 0x1F NOT AND DUP4 ADD SWAP3 SWAP2 SWAP1 PUSH1 0x1 PUSH1 0x1 PUSH1 0x40 SHL SUB DUP5 GT DUP4 DUP6 LT OR PUSH2 0x25D JUMPI DUP2 PUSH1 0x20 SWAP3 DUP5 SWAP3 PUSH1 0x40 SWAP7 DUP8 MSTORE DUP4 CODECOPY DUP2 ADD SUB SLT PUSH2 0x258 JUMPI MLOAD PUSH1 0x1 PUSH1 0x1 PUSH1 0xA0 SHL SUB SWAP1 DUP2 DUP2 AND SWAP1 DUP2 SWAP1 SUB PUSH2 0x258 JUMPI DUP1 ISZERO PUSH2 0x240 JUMPI PUSH1 0x0 DUP1 SLOAD PUSH1 0x1 PUSH1 0x1 PUSH1 0xA0 SHL SUB NOT DUP2 AND DUP4 OR DUP3 SSTORE DUP5 MLOAD PUSH1 0x50 SWAP5 PUSH1 0x38 SWAP5 SWAP2 SWAP4 SWAP2 SWAP3 AND SWAP1 PUSH32 0x8BE0079C531659141344CD1FD0A4F28419497F9722A3DAAFE3B4186F6B6457E0 SWAP1 DUP1 LOG3 PUSH1 0x1 DUP1 SSTORE PUSH13 0x61636375726174655F766F7465 PUSH1 0x98 SHL DUP2 MSTORE PUSH1 0x64 PUSH1 0x2D PUSH1 0x4 SWAP3 DUP4 PUSH1 0xD DUP3 ADD MSTORE KECCAK256 SSTORE PUSH1 0x32 PUSH1 0x2F DUP6 MLOAD PUSH15 0x696E61636375726174655F766F7465 PUSH1 0x88 SHL DUP2 MSTORE DUP4 PUSH1 0xF DUP3 ADD MSTORE KECCAK256 SSTORE PUSH1 0x96 PUSH1 0x30 DUP6 MLOAD PUSH16 0x31B7B73A32B73A2FB1B932B0BA34B7B7 PUSH1 0x81 SHL DUP2 MSTORE DUP4 PUSH1 0x10 DUP3 ADD MSTORE KECCAK256 SSTORE PUSH1 0x4B PUSH1 0x2E DUP6 MLOAD PUSH14 0x32B0B9363CAFB0B237B83A34B7B7 PUSH1 0x91 SHL DUP2 MSTORE DUP4 PUSH1 0xE DUP3 ADD MSTORE KECCAK256 SSTORE PUSH1 0x7D PUSH1 0x33 DUP6 MLOAD PUSH32 0x6C69717569646974795F70726F766973696F6E00000000000000000000000000 DUP2 MSTORE DUP4 PUSH1 0x13 DUP3 ADD MSTORE KECCAK256 SSTORE PUSH1 0xC8 PUSH1 0x34 DUP6 MLOAD PUSH32 0x636F6D6D756E6974795F6D6F6465726174696F6E000000000000000000000000 DUP2 MSTORE DUP4 PUSH1 0x14 DUP3 ADD MSTORE KECCAK256 SSTORE PUSH2 0x12C PUSH1 0x2F DUP6 MLOAD PUSH15 0x6578706572745F616E616C79736973 PUSH1 0x88 SHL DUP2 MSTORE DUP4 PUSH1 0xF DUP3 ADD MSTORE KECCAK256 SSTORE PUSH1 0xFA PUSH1 0x35 DUP6 MLOAD PUSH32 0x61695F6D6F64656C5F636F6E747269627574696F6E0000000000000000000000 DUP2 MSTORE DUP4 PUSH1 0x15 DUP3 ADD MSTORE KECCAK256 SSTORE PUSH1 0x64 PUSH1 0x2A DUP6 MLOAD PUSH10 0x189D59D7DC995C1BDC9D PUSH1 0xB2 SHL DUP2 MSTORE DUP4 PUSH1 0xA DUP3 ADD MSTORE KECCAK256 SSTORE DUP4 MLOAD SWAP1 PUSH32 0x676F7665726E616E63655F70617274696369706174696F6E0000000000000000 DUP3 MSTORE PUSH1 0x18 DUP3 ADD MSTORE KECCAK256 SSTORE MLOAD PUSH2 0x1D06 SWAP1 DUP2 PUSH2 0x274 DUP3 CODECOPY RETURN JUMPDEST DUP3 MLOAD PUSH4 0x1E4FBDF7 PUSH1 0xE0 SHL DUP2 MSTORE PUSH1 0x0 PUSH1 0x4 DUP3 ADD MSTORE PUSH1 0x24 SWAP1 REVERT JUMPDEST PUSH1 0x0 DUP1 REVERT JUMPDEST PUSH4 0x4E487B71 PUSH1 0xE0 SHL PUSH1 0x0 MSTORE PUSH1 0x41 PUSH1 0x4 MSTORE PUSH1 0x24 PUSH1 0x0 REVERT INVALID PUSH1 0x80 PUSH1 0x40 MSTORE PUSH1 0x4 CALLDATASIZE LT ISZERO PUSH2 0x12 JUMPI PUSH1 0x0 DUP1 REVERT JUMPDEST PUSH1 0x0 CALLDATALOAD PUSH1 0xE0 SHR DUP1 PUSH4 0xA75BBB8 EQ PUSH2 0x1874 JUMPI DUP1 PUSH4 0xF13B763 EQ PUSH2 0x182F JUMPI DUP1 PUSH4 0x1DE40E49 EQ PUSH2 0x1813 JUMPI DUP1 PUSH4 0x2B6033A4 EQ PUSH2 0x17BA JUMPI DUP1 PUSH4 0x2D1F523A EQ PUSH2 0x1751 JUMPI DUP1 PUSH4 0x39A811EE EQ PUSH2 0x1582 JUMPI DUP1 PUSH4 0x4F893F54 EQ PUSH2 0x151C JUMPI DUP1 PUSH4 0x58714163 EQ PUSH2 0x14DD JUMPI DUP1 PUSH4 0x607BB11A EQ PUSH2 0x14C0 JUMPI DUP1 PUSH4 0x676A4BD5 EQ PUSH2 0xDF7 JUMPI DUP1 PUSH4 0x6F44180D EQ PUSH2 0xB35 JUMPI DUP1 PUSH4 0x715018A6 EQ PUSH2 0xADC JUMPI DUP1 PUSH4 0x79CECF46 EQ PUSH2 0x9C6 JUMPI DUP1 PUSH4 0x8788F9B7 EQ PUSH2 0x97C JUMPI DUP1 PUSH4 0x8DA5CB5B EQ PUSH2 0x953 JUMPI DUP1 PUSH4 0x9ABD6EB4 EQ PUSH2 0x82B JUMPI DUP1 PUSH4 0xB0AC4226 EQ PUSH2 0x7EB JUMPI DUP1 PUSH4 0xB4032C12 EQ PUSH2 0x7CF JUMPI DUP1 PUSH4 0xB5C604FF EQ PUSH2 0x7B1 JUMPI DUP1 PUSH4 0xB666CA9D EQ PUSH2 0x726 JUMPI DUP1 PUSH4 0xBACCBFDB EQ PUSH2 0x6A6 JUMPI DUP1 PUSH4 0xBC1A2FDF EQ PUSH2 0x646 JUMPI DUP1 PUSH4 0xBFF1F9E1 EQ PUSH2 0x628 JUMPI DUP1 PUSH4 0xD213C0F2 EQ PUSH2 0x60B JUMPI DUP1 PUSH4 0xD7FF0714 EQ PUSH2 0x5D4 JUMPI DUP1 PUSH4 0xE1C5C2E4 EQ PUSH2 0x308 JUMPI DUP1 PUSH4 0xE3BF0AFF EQ PUSH2 0x2B3 JUMPI DUP1 PUSH4 0xF2FDE38B EQ PUSH2 0x22A JUMPI PUSH4 0xF8B11691 EQ PUSH2 0x15B JUMPI PUSH1 0x0 DUP1 REVERT JUMPDEST CALLVALUE PUSH2 0x225 JUMPI PUSH1 0x20 CALLDATASIZE PUSH1 0x3 NOT ADD SLT PUSH2 0x225 JUMPI PUSH1 0x1 PUSH1 0x1 PUSH1 0xA0 SHL SUB PUSH2 0x17C PUSH2 0x19DF JUMP JUMPDEST AND PUSH1 0x0 MSTORE PUSH1 0x2 PUSH1 0x20 MSTORE PUSH2 0x1A0 PUSH1 0x40 PUSH1 0x0 KECCAK256 DUP1 SLOAD SWAP1 PUSH1 0x1 DUP2 ADD SLOAD SWAP1 PUSH1 0x2 DUP2 ADD SLOAD PUSH1 0x3 DUP3 ADD SLOAD PUSH1 0x4 DUP4 ADD SLOAD PUSH1 0xFF PUSH1 0x5 DUP6 ADD SLOAD AND PUSH1 0x6 DUP6 ADD SLOAD PUSH1 0x7 DUP7 ADD SLOAD SWAP2 PUSH1 0x8 DUP8 ADD SLOAD SWAP4 PUSH1 0xFF PUSH1 0x9 DUP10 ADD SLOAD AND SWAP6 PUSH1 0xA DUP10 ADD SLOAD SWAP8 PUSH1 0xC PUSH1 0xB DUP12 ADD SLOAD SWAP11 ADD SLOAD SWAP11 PUSH1 0x40 MLOAD SWAP13 DUP14 MSTORE PUSH1 0x20 DUP14 ADD MSTORE PUSH1 0x40 DUP13 ADD MSTORE PUSH1 0x60 DUP12 ADD MSTORE PUSH1 0x80 DUP11 ADD MSTORE ISZERO ISZERO PUSH1 0xA0 DUP10 ADD MSTORE PUSH1 0xC0 DUP9 ADD MSTORE PUSH1 0xE0 DUP8 ADD MSTORE PUSH2 0x100 DUP7 ADD MSTORE ISZERO ISZERO PUSH2 0x120 DUP6 ADD MSTORE PUSH2 0x140 DUP5 ADD MSTORE PUSH2 0x160 DUP4 ADD MSTORE PUSH2 0x180 DUP3 ADD MSTORE RETURN JUMPDEST PUSH1 0x0 DUP1 REVERT JUMPDEST CALLVALUE PUSH2 0x225 JUMPI PUSH1 0x20 CALLDATASIZE PUSH1 0x3 NOT ADD SLT PUSH2 0x225 JUMPI PUSH2 0x243 PUSH2 0x19DF JUMP JUMPDEST PUSH2 0x24B PUSH2 0x1B1E JUMP JUMPDEST PUSH1 0x1 PUSH1 0x1 PUSH1 0xA0 SHL SUB SWAP1 DUP2 AND SWAP1 DUP2 ISZERO PUSH2 0x29A JUMPI PUSH1 0x0 SLOAD DUP3 PUSH1 0x1 PUSH1 0x1 PUSH1 0x60 SHL SUB PUSH1 0xA0 SHL DUP3 AND OR PUSH1 0x0 SSTORE AND PUSH32 0x8BE0079C531659141344CD1FD0A4F28419497F9722A3DAAFE3B4186F6B6457E0 PUSH1 0x0 DUP1 LOG3 STOP JUMPDEST PUSH1 0x40 MLOAD PUSH4 0x1E4FBDF7 PUSH1 0xE0 SHL DUP2 MSTORE PUSH1 0x0 PUSH1 0x4 DUP3 ADD MSTORE PUSH1 0x24 SWAP1 REVERT JUMPDEST CALLVALUE PUSH2 0x225 JUMPI PUSH1 0x40 CALLDATASIZE PUSH1 0x3 NOT ADD SLT PUSH2 0x225 JUMPI PUSH2 0x2CC PUSH2 0x19DF JUMP JUMPDEST PUSH1 0x1 PUSH1 0x1 PUSH1 0xA0 SHL SUB PUSH1 0x24 CALLDATALOAD DUP2 DUP2 AND SWAP3 SWAP1 DUP4 SWAP1 SUB PUSH2 0x225 JUMPI AND PUSH1 0x0 MSTORE PUSH1 0x6 PUSH1 0x20 MSTORE PUSH1 0x40 PUSH1 0x0 KECCAK256 SWAP1 PUSH1 0x0 MSTORE PUSH1 0x20 MSTORE PUSH1 0x20 PUSH1 0x40 PUSH1 0x0 KECCAK256 SLOAD PUSH1 0x40 MLOAD SWAP1 DUP2 MSTORE RETURN JUMPDEST CALLVALUE PUSH2 0x225 JUMPI PUSH1 0x60 CALLDATASIZE PUSH1 0x3 NOT ADD SLT PUSH2 0x225 JUMPI PUSH1 0x24 DUP1 CALLDATALOAD PUSH1 0x44 CALLDATALOAD DUP1 ISZERO DUP1 ISZERO DUP3 SUB PUSH2 0x225 JUMPI CALLER PUSH1 0x0 MSTORE PUSH1 0x20 SWAP2 PUSH1 0x5 DUP4 MSTORE PUSH2 0x346 PUSH1 0xFF PUSH1 0x40 PUSH1 0x0 KECCAK256 SLOAD AND PUSH2 0x1B4A JUMP JUMPDEST PUSH1 0x64 DUP5 GT PUSH2 0x590 JUMPI PUSH1 0x4 CALLDATALOAD PUSH1 0x0 MSTORE PUSH1 0x3 DUP4 MSTORE PUSH1 0x40 PUSH1 0x0 KECCAK256 SWAP5 PUSH1 0x1 DUP1 PUSH1 0xA0 SHL SUB SWAP3 DUP4 DUP8 SLOAD AND DUP1 ISZERO PUSH2 0x554 JUMPI PUSH1 0x5 DUP9 ADD DUP1 SLOAD PUSH1 0xFF DUP2 AND PUSH2 0x51C JUMPI PUSH1 0x1 SWAP1 PUSH1 0xFF NOT AND OR SWAP1 SSTORE DUP7 PUSH1 0x6 DUP10 ADD SSTORE PUSH1 0x0 MSTORE PUSH1 0x2 DUP6 MSTORE PUSH1 0x40 PUSH1 0x0 KECCAK256 SWAP3 DUP1 PUSH2 0x511 JUMPI JUMPDEST ISZERO PUSH2 0x43F JUMPI POP DUP5 PUSH1 0xC8 MUL SWAP1 PUSH1 0xC8 DUP3 DIV DUP7 SUB PUSH2 0x42B JUMPI POP PUSH32 0xB848797DA14D66C91C81E865E91C375D96F9375B75E0ECCBBC18F969496BB2A1 SWAP5 SWAP3 PUSH1 0x40 SWAP5 SWAP3 PUSH2 0x3FF PUSH1 0x64 PUSH1 0x4 SWAP5 DIV PUSH1 0x3 DUP4 ADD PUSH2 0x3F6 DUP3 DUP3 SLOAD PUSH2 0x1BBF JUMP JUMPDEST SWAP1 SSTORE DUP3 SLOAD PUSH2 0x1BBF JUMP JUMPDEST SWAP1 DUP2 DUP2 SSTORE PUSH2 0x2710 DUP1 SWAP3 GT PUSH2 0x423 JUMPI JUMPDEST POP POP JUMPDEST DUP7 SLOAD AND SWAP6 ADD SLOAD SWAP1 DUP4 MLOAD SWAP3 DUP4 MSTORE DUP3 ADD MSTORE LOG2 STOP JUMPDEST SSTORE DUP8 DUP1 PUSH2 0x40E JUMP JUMPDEST PUSH4 0x4E487B71 PUSH1 0xE0 SHL PUSH1 0x0 SWAP1 DUP2 MSTORE PUSH1 0x11 PUSH1 0x4 MSTORE REVERT JUMPDEST DUP1 PUSH2 0x506 JUMPI JUMPDEST PUSH2 0x479 JUMPI JUMPDEST POP POP SWAP2 PUSH1 0x40 SWAP2 PUSH1 0x4 PUSH32 0xB848797DA14D66C91C81E865E91C375D96F9375B75E0ECCBBC18F969496BB2A1 SWAP5 PUSH2 0x411 JUMP JUMPDEST PUSH1 0xC8 DUP6 DUP2 MUL DIV SWAP1 DUP2 DUP7 SUB PUSH2 0x42B JUMPI POP PUSH32 0xB848797DA14D66C91C81E865E91C375D96F9375B75E0ECCBBC18F969496BB2A1 SWAP5 SWAP3 DUP3 PUSH1 0x4 SWAP3 PUSH1 0x3 PUSH1 0x40 SWAP8 SWAP6 ADD DUP2 DUP2 SLOAD GT PUSH1 0x0 EQ PUSH2 0x4FD JUMPI PUSH2 0x4CC DUP3 DUP3 SLOAD PUSH2 0x1BB2 JUMP JUMPDEST SWAP1 SSTORE JUMPDEST DUP1 DUP3 SLOAD GT PUSH1 0x0 EQ PUSH2 0x4F3 JUMPI PUSH2 0x4E5 SWAP1 DUP3 SLOAD PUSH2 0x1BB2 JUMP JUMPDEST SWAP1 SSTORE JUMPDEST SWAP3 SWAP5 POP DUP2 SWAP4 POP PUSH2 0x44A JUMP JUMPDEST POP PUSH1 0x0 SWAP1 SSTORE PUSH2 0x4E8 JUMP JUMPDEST PUSH1 0x0 SWAP1 SSTORE PUSH2 0x4CF JUMP JUMPDEST POP PUSH1 0x50 DUP6 LT ISZERO PUSH2 0x445 JUMP JUMPDEST POP PUSH1 0x50 DUP7 LT ISZERO PUSH2 0x3A1 JUMP JUMPDEST PUSH1 0x40 MLOAD PUSH3 0x461BCD PUSH1 0xE5 SHL DUP2 MSTORE PUSH1 0x4 DUP2 ADD DUP10 SWAP1 MSTORE PUSH1 0x11 DUP2 DUP8 ADD MSTORE PUSH17 0x105B1C9958591E481D985B1A59185D1959 PUSH1 0x7A SHL PUSH1 0x44 DUP3 ADD MSTORE PUSH1 0x64 SWAP1 REVERT JUMPDEST PUSH1 0x40 MLOAD PUSH3 0x461BCD PUSH1 0xE5 SHL DUP2 MSTORE PUSH1 0x4 DUP2 ADD DUP8 SWAP1 MSTORE PUSH1 0x15 DUP2 DUP6 ADD MSTORE PUSH21 0x151C985B9CD858DD1A5BDB881B9BDD08199BDD5B99 PUSH1 0x5A SHL PUSH1 0x44 DUP3 ADD MSTORE PUSH1 0x64 SWAP1 REVERT JUMPDEST PUSH1 0x40 MLOAD PUSH3 0x461BCD PUSH1 0xE5 SHL DUP2 MSTORE PUSH1 0x4 DUP2 ADD DUP5 SWAP1 MSTORE PUSH1 0x18 DUP2 DUP8 ADD MSTORE PUSH32 0x496E76616C696420636F6E666964656E63652073636F72650000000000000000 PUSH1 0x44 DUP3 ADD MSTORE PUSH1 0x64 SWAP1 REVERT JUMPDEST CALLVALUE PUSH2 0x225 JUMPI PUSH1 0x20 CALLDATASIZE PUSH1 0x3 NOT ADD SLT PUSH2 0x225 JUMPI PUSH1 0x4 CALLDATALOAD PUSH1 0x9 SLOAD DUP2 LT ISZERO PUSH2 0x225 JUMPI PUSH2 0x5FD PUSH1 0x20 SWAP2 PUSH2 0x19F5 JUMP JUMPDEST SWAP1 SLOAD PUSH1 0x40 MLOAD SWAP2 PUSH1 0x3 SHL SHR DUP2 MSTORE RETURN JUMPDEST CALLVALUE PUSH2 0x225 JUMPI PUSH1 0x0 CALLDATASIZE PUSH1 0x3 NOT ADD SLT PUSH2 0x225 JUMPI PUSH1 0x20 PUSH1 0x40 MLOAD PUSH2 0x2710 DUP2 MSTORE RETURN JUMPDEST CALLVALUE PUSH2 0x225 JUMPI PUSH1 0x0 CALLDATASIZE PUSH1 0x3 NOT ADD SLT PUSH2 0x225 JUMPI PUSH1 0x20 PUSH1 0xA SLOAD PUSH1 0x40 MLOAD SWAP1 DUP2 MSTORE RETURN JUMPDEST CALLVALUE PUSH2 0x225 JUMPI PUSH1 0x20 PUSH2 0x66E PUSH2 0x659 CALLDATASIZE PUSH2 0x1AEC JUMP JUMPDEST SWAP3 SWAP1 DUP2 PUSH1 0x40 MLOAD SWAP4 DUP3 DUP6 DUP1 SWAP5 MLOAD SWAP4 DUP5 SWAP3 ADD PUSH2 0x1A44 JUMP JUMPDEST DUP2 ADD PUSH1 0x8 DUP2 MSTORE SUB ADD SWAP1 KECCAK256 DUP1 SLOAD DUP3 LT ISZERO PUSH2 0x225 JUMPI PUSH1 0x20 SWAP2 PUSH2 0x68D SWAP2 PUSH2 0x1A2C JUMP JUMPDEST SWAP1 SLOAD PUSH1 0x40 MLOAD PUSH1 0x3 SWAP3 SWAP1 SWAP3 SHL SHR PUSH1 0x1 PUSH1 0x1 PUSH1 0xA0 SHL SUB AND DUP2 MSTORE RETURN JUMPDEST CALLVALUE PUSH2 0x225 JUMPI PUSH1 0x20 CALLDATASIZE PUSH1 0x3 NOT ADD SLT PUSH2 0x225 JUMPI PUSH1 0x1 PUSH1 0x1 PUSH1 0xA0 SHL SUB PUSH2 0x6C7 PUSH2 0x19DF JUMP JUMPDEST AND PUSH1 0x0 MSTORE PUSH1 0x2 PUSH1 0x20 MSTORE PUSH1 0xE0 PUSH1 0x40 PUSH1 0x0 KECCAK256 DUP1 SLOAD SWAP1 PUSH1 0x6 DUP2 ADD SLOAD SWAP1 PUSH1 0x7 DUP2 ADD SLOAD PUSH1 0x8 DUP3 ADD SLOAD PUSH1 0x3 DUP4 ADD SLOAD SWAP2 PUSH1 0xA PUSH1 0xFF PUSH1 0x9 DUP7 ADD SLOAD AND SWAP5 ADD SLOAD SWAP5 PUSH1 0x40 MLOAD SWAP7 DUP8 MSTORE PUSH1 0x20 DUP8 ADD MSTORE PUSH1 0x40 DUP7 ADD MSTORE PUSH1 0x60 DUP6 ADD MSTORE PUSH1 0x80 DUP5 ADD MSTORE ISZERO ISZERO PUSH1 0xA0 DUP4 ADD MSTORE PUSH1 0xC0 DUP3 ADD MSTORE RETURN JUMPDEST CALLVALUE PUSH2 0x225 JUMPI PUSH1 0x20 DUP1 PUSH1 0x3 NOT CALLDATASIZE ADD SLT PUSH2 0x225 JUMPI PUSH1 0x1 PUSH1 0x1 PUSH1 0xA0 SHL SUB DUP1 PUSH2 0x749 PUSH2 0x19DF JUMP JUMPDEST AND PUSH1 0x0 MSTORE PUSH1 0x7 DUP3 MSTORE PUSH1 0x40 PUSH1 0x0 KECCAK256 SWAP2 PUSH1 0x40 MLOAD DUP1 SWAP3 DUP3 DUP6 SLOAD SWAP3 DUP4 DUP2 MSTORE ADD SWAP5 PUSH1 0x0 MSTORE DUP3 PUSH1 0x0 KECCAK256 SWAP3 PUSH1 0x0 SWAP2 JUMPDEST DUP4 DUP4 LT PUSH2 0x798 JUMPI PUSH2 0x794 DUP7 PUSH2 0x788 DUP2 DUP11 SUB DUP3 PUSH2 0x1922 JUMP JUMPDEST PUSH1 0x40 MLOAD SWAP2 DUP3 SWAP2 DUP3 PUSH2 0x199B JUMP JUMPDEST SUB SWAP1 RETURN JUMPDEST DUP5 SLOAD DUP2 AND DUP8 MSTORE SWAP6 DUP2 ADD SWAP6 PUSH1 0x1 SWAP5 DUP6 ADD SWAP5 SWAP1 SWAP3 ADD SWAP2 PUSH2 0x771 JUMP JUMPDEST CALLVALUE PUSH2 0x225 JUMPI PUSH1 0x0 CALLDATASIZE PUSH1 0x3 NOT ADD SLT PUSH2 0x225 JUMPI PUSH1 0x20 PUSH1 0x9 SLOAD PUSH1 0x40 MLOAD SWAP1 DUP2 MSTORE RETURN JUMPDEST CALLVALUE PUSH2 0x225 JUMPI PUSH1 0x0 CALLDATASIZE PUSH1 0x3 NOT ADD SLT PUSH2 0x225 JUMPI PUSH1 0x20 PUSH1 0x40 MLOAD PUSH1 0xC8 DUP2 MSTORE RETURN JUMPDEST CALLVALUE PUSH2 0x225 JUMPI PUSH1 0x20 PUSH2 0x81B PUSH2 0x7FE CALLDATASIZE PUSH2 0x1AEC JUMP JUMPDEST SWAP3 SWAP1 PUSH2 0x808 PUSH2 0x1B1E JUMP JUMPDEST DUP2 PUSH1 0x40 MLOAD SWAP4 DUP3 DUP6 DUP1 SWAP5 MLOAD SWAP4 DUP5 SWAP3 ADD PUSH2 0x1A44 JUMP JUMPDEST DUP2 ADD PUSH1 0x4 DUP2 MSTORE SUB ADD SWAP1 KECCAK256 SSTORE PUSH1 0x0 DUP1 RETURN JUMPDEST CALLVALUE PUSH2 0x225 JUMPI PUSH1 0x20 DUP1 PUSH1 0x3 NOT CALLDATASIZE ADD SLT PUSH2 0x225 JUMPI PUSH1 0x4 CALLDATALOAD PUSH1 0x0 MSTORE PUSH1 0x3 DUP2 MSTORE PUSH1 0x40 PUSH1 0x0 KECCAK256 PUSH1 0x1 DUP1 PUSH1 0xA0 SHL SUB DUP2 SLOAD AND SWAP1 PUSH1 0x1 DUP4 DUP2 DUP4 ADD PUSH1 0x40 MLOAD SWAP3 DUP4 SWAP2 PUSH1 0x0 SWAP2 DUP2 SLOAD SWAP2 PUSH2 0x872 DUP4 PUSH2 0x1A8D JUMP JUMPDEST DUP1 DUP7 MSTORE SWAP3 DUP3 DUP2 AND SWAP1 DUP2 ISZERO PUSH2 0x930 JUMPI POP PUSH1 0x1 EQ PUSH2 0x8F1 JUMPI JUMPDEST POP POP POP PUSH2 0x898 SWAP3 POP SUB DUP3 PUSH2 0x1922 JUMP JUMPDEST PUSH1 0x2 DUP3 ADD SLOAD SWAP2 PUSH1 0x3 DUP2 ADD SLOAD PUSH1 0x4 DUP3 ADD SLOAD SWAP1 PUSH2 0x8D1 PUSH1 0x6 PUSH1 0xFF PUSH1 0x5 DUP7 ADD SLOAD AND SWAP5 ADD SLOAD SWAP5 PUSH1 0xE0 PUSH1 0x40 MLOAD SWAP10 DUP11 SWAP10 DUP11 MSTORE DUP10 ADD MSTORE PUSH1 0xE0 DUP9 ADD SWAP1 PUSH2 0x1AC7 JUMP JUMPDEST SWAP5 PUSH1 0x40 DUP8 ADD MSTORE PUSH1 0x60 DUP7 ADD MSTORE PUSH1 0x80 DUP6 ADD MSTORE ISZERO ISZERO PUSH1 0xA0 DUP5 ADD MSTORE PUSH1 0xC0 DUP4 ADD MSTORE SUB SWAP1 RETURN JUMPDEST PUSH1 0x0 SWAP1 DUP2 MSTORE DUP6 DUP2 KECCAK256 SWAP6 SWAP4 POP SWAP2 SWAP1 JUMPDEST DUP2 DUP4 LT PUSH2 0x918 JUMPI POP DUP9 SWAP5 POP POP DUP3 ADD ADD PUSH2 0x898 DUP9 DUP1 PUSH2 0x889 JUMP JUMPDEST DUP6 SLOAD DUP8 DUP5 ADD DUP6 ADD MSTORE SWAP5 DUP6 ADD SWAP5 DUP7 SWAP5 POP SWAP2 DUP4 ADD SWAP2 PUSH2 0x8FF JUMP JUMPDEST SWAP3 POP POP POP PUSH2 0x898 SWAP5 SWAP3 POP PUSH1 0xFF NOT AND DUP3 DUP5 ADD MSTORE ISZERO ISZERO PUSH1 0x5 SHL DUP3 ADD ADD DUP7 SWAP3 DUP9 DUP1 PUSH2 0x889 JUMP JUMPDEST CALLVALUE PUSH2 0x225 JUMPI PUSH1 0x0 CALLDATASIZE PUSH1 0x3 NOT ADD SLT PUSH2 0x225 JUMPI PUSH1 0x0 SLOAD PUSH1 0x40 MLOAD PUSH1 0x1 PUSH1 0x1 PUSH1 0xA0 SHL SUB SWAP1 SWAP2 AND DUP2 MSTORE PUSH1 0x20 SWAP1 RETURN JUMPDEST CALLVALUE PUSH2 0x225 JUMPI PUSH1 0x20 CALLDATASIZE PUSH1 0x3 NOT ADD SLT PUSH2 0x225 JUMPI PUSH1 0x4 CALLDATALOAD PUSH8 0xFFFFFFFFFFFFFFFF DUP2 GT PUSH2 0x225 JUMPI PUSH2 0x9B3 PUSH1 0x20 PUSH2 0x808 DUP2 SWAP4 CALLDATASIZE SWAP1 PUSH1 0x4 ADD PUSH2 0x1944 JUMP JUMPDEST DUP2 ADD PUSH1 0x4 DUP2 MSTORE SUB ADD SWAP1 KECCAK256 SLOAD PUSH1 0x40 MLOAD SWAP1 DUP2 MSTORE RETURN JUMPDEST CALLVALUE PUSH2 0x225 JUMPI PUSH1 0x20 DUP1 PUSH1 0x3 NOT CALLDATASIZE ADD SLT PUSH2 0x225 JUMPI PUSH1 0x9 SLOAD PUSH1 0x4 CALLDATALOAD DUP2 DUP2 GT ISZERO PUSH2 0xAD7 JUMPI POP DUP1 JUMPDEST PUSH2 0x9F2 DUP2 PUSH2 0x1C98 JUMP JUMPDEST SWAP1 PUSH2 0xA00 PUSH1 0x40 MLOAD SWAP3 DUP4 PUSH2 0x1922 JUMP JUMPDEST DUP1 DUP3 MSTORE PUSH2 0xA0C DUP2 PUSH2 0x1C98 JUMP JUMPDEST DUP3 DUP6 ADD SWAP4 SWAP1 PUSH1 0x1F NOT ADD CALLDATASIZE DUP6 CALLDATACOPY PUSH1 0x0 NOT DUP2 ADD SWAP1 DUP2 GT PUSH1 0x0 JUMPDEST DUP4 DUP2 LT PUSH2 0xA6D JUMPI DUP7 DUP6 DUP8 PUSH1 0x40 MLOAD SWAP3 DUP4 SWAP3 DUP2 DUP5 ADD SWAP1 DUP3 DUP6 MSTORE MLOAD DUP1 SWAP2 MSTORE PUSH1 0x40 DUP5 ADD SWAP3 SWAP2 PUSH1 0x0 JUMPDEST DUP3 DUP2 LT PUSH2 0xA56 JUMPI POP POP POP POP SUB SWAP1 RETURN JUMPDEST DUP4 MLOAD DUP6 MSTORE DUP7 SWAP6 POP SWAP4 DUP2 ADD SWAP4 SWAP3 DUP2 ADD SWAP3 PUSH1 0x1 ADD PUSH2 0xA47 JUMP JUMPDEST DUP2 PUSH2 0xAC1 JUMPI PUSH2 0xA84 PUSH2 0xA7F DUP3 DUP6 PUSH2 0x1BB2 JUMP JUMPDEST PUSH2 0x19F5 JUMP JUMPDEST SWAP2 SWAP1 SLOAD DUP7 MLOAD DUP3 LT ISZERO PUSH2 0xAAB JUMPI PUSH2 0xAA6 SWAP3 PUSH1 0x3 SHL SHR DUP9 DUP3 PUSH1 0x5 SHL DUP9 ADD ADD MSTORE PUSH2 0x1C89 JUMP JUMPDEST PUSH2 0xA23 JUMP JUMPDEST PUSH4 0x4E487B71 PUSH1 0xE0 SHL PUSH1 0x0 MSTORE PUSH1 0x32 PUSH1 0x4 MSTORE PUSH1 0x24 PUSH1 0x0 REVERT JUMPDEST PUSH4 0x4E487B71 PUSH1 0xE0 SHL PUSH1 0x0 MSTORE PUSH1 0x11 PUSH1 0x4 MSTORE PUSH1 0x24 PUSH1 0x0 REVERT JUMPDEST PUSH2 0x9E9 JUMP JUMPDEST CALLVALUE PUSH2 0x225 JUMPI PUSH1 0x0 CALLDATASIZE PUSH1 0x3 NOT ADD SLT PUSH2 0x225 JUMPI PUSH2 0xAF5 PUSH2 0x1B1E JUMP JUMPDEST PUSH1 0x0 DUP1 SLOAD PUSH1 0x1 PUSH1 0x1 PUSH1 0xA0 SHL SUB NOT DUP2 AND DUP3 SSTORE PUSH1 0x1 PUSH1 0x1 PUSH1 0xA0 SHL SUB AND PUSH32 0x8BE0079C531659141344CD1FD0A4F28419497F9722A3DAAFE3B4186F6B6457E0 DUP3 DUP1 LOG3 STOP JUMPDEST CALLVALUE PUSH2 0x225 JUMPI PUSH1 0x60 CALLDATASIZE PUSH1 0x3 NOT ADD SLT PUSH2 0x225 JUMPI PUSH2 0xB4E PUSH2 0x19DF JUMP JUMPDEST PUSH1 0x24 SWAP1 DUP2 CALLDATALOAD PUSH8 0xFFFFFFFFFFFFFFFF DUP2 GT PUSH2 0x225 JUMPI PUSH2 0xB70 SWAP1 CALLDATASIZE SWAP1 PUSH1 0x4 ADD PUSH2 0x1944 JUMP JUMPDEST PUSH1 0x44 CALLDATALOAD CALLER PUSH1 0x0 MSTORE PUSH1 0x20 SWAP1 PUSH1 0x5 DUP3 MSTORE PUSH2 0xB8F PUSH1 0xFF PUSH1 0x40 PUSH1 0x0 KECCAK256 SLOAD AND PUSH2 0x1B4A JUMP JUMPDEST PUSH1 0x64 DUP2 GT PUSH2 0xDB3 JUMPI PUSH1 0x1 DUP1 PUSH1 0xA0 SHL SUB SWAP5 DUP6 DUP6 AND SWAP6 DUP7 PUSH1 0x0 MSTORE PUSH1 0x2 DUP5 MSTORE PUSH1 0x46 PUSH1 0xD PUSH1 0x40 PUSH1 0x0 KECCAK256 ADD DUP5 PUSH2 0xBCB PUSH2 0xBC3 DUP4 DUP11 PUSH2 0x1A67 JUMP JUMPDEST SLOAD SWAP3 DUP10 PUSH2 0x1A67 JUMP JUMPDEST SSTORE LT DUP1 DUP1 PUSH2 0xDA8 JUMPI JUMPDEST ISZERO PUSH2 0xC35 JUMPI POP POP POP SWAP1 PUSH2 0xC2C SWAP3 SWAP2 PUSH2 0xC18 PUSH1 0x0 DUP1 MLOAD PUSH1 0x20 PUSH2 0x1CB1 DUP4 CODECOPY DUP2 MLOAD SWAP2 MSTORE SWAP6 PUSH1 0x40 MLOAD DUP5 DUP2 DUP8 MLOAD PUSH2 0xC09 DUP2 DUP4 DUP6 DUP13 ADD PUSH2 0x1A44 JUMP JUMPDEST DUP2 ADD PUSH1 0x8 DUP2 MSTORE SUB ADD SWAP1 KECCAK256 PUSH2 0x1BCC JUMP JUMPDEST PUSH1 0x40 MLOAD SWAP4 DUP5 SWAP4 PUSH1 0x40 DUP6 MSTORE PUSH1 0x40 DUP6 ADD SWAP1 PUSH2 0x1AC7 JUMP JUMPDEST SWAP2 DUP4 ADD MSTORE SUB SWAP1 LOG2 STOP JUMPDEST SWAP1 SWAP2 SWAP6 POP ISZERO DUP1 PUSH2 0xD9E JUMPI JUMPDEST PUSH2 0xC62 JUMPI JUMPDEST POP PUSH1 0x0 DUP1 MLOAD PUSH1 0x20 PUSH2 0x1CB1 DUP4 CODECOPY DUP2 MLOAD SWAP2 MSTORE SWAP4 POP SWAP1 PUSH2 0xC2C SWAP3 SWAP2 PUSH2 0xC18 JUMP JUMPDEST PUSH1 0x40 MLOAD DUP4 DUP2 DUP7 MLOAD PUSH2 0xC76 DUP2 DUP4 DUP6 DUP12 ADD PUSH2 0x1A44 JUMP JUMPDEST DUP2 ADD PUSH1 0x8 DUP2 MSTORE SUB ADD SWAP1 KECCAK256 PUSH1 0x0 JUMPDEST DUP2 SLOAD DUP1 DUP3 LT ISZERO PUSH2 0xD7E JUMPI DUP4 SWAP1 DUP10 PUSH2 0xC9A DUP5 DUP7 PUSH2 0x1A2C JUMP JUMPDEST SWAP4 SWAP1 SLOAD PUSH1 0x3 SWAP5 DUP6 SHL SHR AND EQ PUSH2 0xCB9 JUMPI POP POP PUSH2 0xCB4 SWAP1 PUSH2 0x1C89 JUMP JUMPDEST PUSH2 0xC83 JUMP JUMPDEST SWAP2 PUSH1 0x0 SWAP9 SWAP2 SWAP6 SWAP7 SWAP8 SWAP9 SWAP5 SWAP4 SWAP5 NOT SWAP3 DUP4 DUP2 ADD SWAP1 DUP2 GT PUSH2 0xD69 JUMPI SWAP1 PUSH2 0xCF1 DUP6 PUSH2 0xCE3 PUSH2 0xD10 SWAP5 DUP10 PUSH2 0x1A2C JUMP JUMPDEST SWAP1 SLOAD SWAP1 DUP11 SHL SHR AND SWAP2 DUP8 PUSH2 0x1A2C JUMP JUMPDEST SWAP1 SWAP2 SWAP1 DUP3 SLOAD SWAP1 PUSH1 0x3 SHL SWAP2 PUSH1 0x1 DUP1 PUSH1 0xA0 SHL SUB DUP1 SWAP2 AND DUP4 SHL SWAP3 SHL NOT AND OR SWAP1 SSTORE JUMP JUMPDEST DUP4 SLOAD SWAP1 DUP2 ISZERO PUSH2 0xD55 JUMPI POP SWAP2 PUSH1 0x0 DUP1 MLOAD PUSH1 0x20 PUSH2 0x1CB1 DUP4 CODECOPY DUP2 MLOAD SWAP2 MSTORE SWAP8 SWAP6 SWAP4 SWAP2 PUSH2 0xC2C SWAP8 SWAP6 SWAP4 ADD SWAP3 PUSH2 0xD40 DUP5 DUP5 PUSH2 0x1A2C JUMP JUMPDEST DUP2 SWAP4 SWAP2 SLOAD SWAP3 SHL SHL NOT AND SWAP1 SSTORE SSTORE JUMPDEST SWAP1 SWAP2 SWAP3 PUSH2 0xC45 JUMP JUMPDEST PUSH4 0x4E487B71 PUSH1 0xE0 SHL PUSH1 0x0 SWAP1 DUP2 MSTORE PUSH1 0x31 PUSH1 0x4 MSTORE REVERT JUMPDEST DUP3 PUSH4 0x4E487B71 PUSH1 0xE0 SHL PUSH1 0x0 MSTORE PUSH1 0x11 PUSH1 0x4 MSTORE PUSH1 0x0 REVERT JUMPDEST POP POP POP POP PUSH1 0x0 DUP1 MLOAD PUSH1 0x20 PUSH2 0x1CB1 DUP4 CODECOPY DUP2 MLOAD SWAP2 MSTORE SWAP4 POP SWAP1 PUSH2 0xC2C SWAP3 SWAP2 PUSH2 0xD4D JUMP JUMPDEST POP PUSH1 0x46 DUP3 LT PUSH2 0xC40 JUMP JUMPDEST POP PUSH1 0x46 DUP5 LT ISZERO PUSH2 0xBD4 JUMP JUMPDEST PUSH1 0x40 MLOAD PUSH3 0x461BCD PUSH1 0xE5 SHL DUP2 MSTORE PUSH1 0x4 DUP2 ADD DUP4 SWAP1 MSTORE PUSH1 0x17 DUP2 DUP8 ADD MSTORE PUSH32 0x496E76616C6964206578706572746973652073636F7265000000000000000000 PUSH1 0x44 DUP3 ADD MSTORE PUSH1 0x64 SWAP1 REVERT JUMPDEST CALLVALUE PUSH2 0x225 JUMPI PUSH1 0xA0 CALLDATASIZE PUSH1 0x3 NOT ADD SLT PUSH2 0x225 JUMPI PUSH2 0xE10 PUSH2 0x19DF JUMP JUMPDEST PUSH1 0x24 CALLDATALOAD PUSH8 0xFFFFFFFFFFFFFFFF DUP2 GT PUSH2 0x225 JUMPI PUSH2 0xE30 SWAP1 CALLDATASIZE SWAP1 PUSH1 0x4 ADD PUSH2 0x1944 JUMP JUMPDEST SWAP1 PUSH1 0x84 CALLDATALOAD ISZERO ISZERO PUSH1 0x84 CALLDATALOAD SUB PUSH2 0x225 JUMPI CALLER PUSH1 0x0 MSTORE PUSH1 0x5 PUSH1 0x20 MSTORE PUSH2 0xE58 PUSH1 0xFF PUSH1 0x40 PUSH1 0x0 KECCAK256 SLOAD AND PUSH2 0x1B4A JUMP JUMPDEST PUSH1 0x2 PUSH1 0x1 SLOAD EQ PUSH2 0x14AE JUMPI PUSH1 0x2 PUSH1 0x1 SSTORE PUSH1 0x1 PUSH1 0x1 PUSH1 0xA0 SHL SUB DUP2 AND ISZERO PUSH2 0x1472 JUMPI PUSH1 0x1 PUSH1 0x1 PUSH1 0xA0 SHL SUB DUP2 AND PUSH1 0x0 SWAP1 DUP2 MSTORE PUSH1 0x2 PUSH1 0x20 MSTORE PUSH1 0x40 SWAP1 KECCAK256 PUSH2 0xE97 DUP3 PUSH2 0x1BF1 JUMP JUMPDEST PUSH1 0x40 MLOAD PUSH1 0x20 DUP2 DUP6 MLOAD PUSH2 0xEAC DUP2 DUP4 DUP6 DUP11 ADD PUSH2 0x1A44 JUMP JUMPDEST DUP2 ADD PUSH1 0x4 DUP2 MSTORE SUB ADD SWAP1 KECCAK256 SLOAD DUP1 ISZERO PUSH2 0x1437 JUMPI PUSH1 0x84 CALLDATALOAD ISZERO PUSH2 0x1419 JUMPI PUSH2 0xED4 PUSH1 0x64 SWAP2 PUSH1 0x44 CALLDATALOAD SWAP1 PUSH2 0x1B8E JUMP JUMPDEST DIV SWAP3 JUMPDEST PUSH1 0x0 DUP5 SGT ISZERO PUSH2 0x13E9 JUMPI PUSH2 0xEEB DUP5 DUP4 SLOAD PUSH2 0x1BBF JUMP JUMPDEST DUP1 DUP4 SSTORE PUSH2 0x2710 DUP1 SWAP2 GT PUSH2 0x13E1 JUMPI JUMPDEST POP JUMPDEST PUSH1 0x1 DUP1 PUSH1 0xA0 SHL SUB DUP4 AND PUSH1 0x0 MSTORE PUSH1 0x2 PUSH1 0x20 MSTORE PUSH1 0x40 PUSH1 0x0 KECCAK256 PUSH1 0x40 MLOAD PUSH1 0x20 DUP2 ADD SWAP1 PUSH2 0xF3B PUSH1 0x20 DUP3 DUP7 MLOAD PUSH2 0xF2E DUP2 DUP8 DUP6 DUP12 ADD PUSH2 0x1A44 JUMP JUMPDEST DUP2 ADD SUB DUP1 DUP5 MSTORE ADD DUP3 PUSH2 0x1922 JUMP JUMPDEST MLOAD SWAP1 KECCAK256 PUSH1 0x40 MLOAD PUSH1 0x20 DUP2 ADD SWAP1 PUSH13 0x61636375726174655F766F7465 PUSH1 0x98 SHL DUP3 MSTORE PUSH1 0xD DUP2 MSTORE PUSH2 0xF66 DUP2 PUSH2 0x1906 JUMP JUMPDEST MLOAD SWAP1 KECCAK256 DUP2 EQ DUP1 PUSH2 0x13D8 JUMPI JUMPDEST ISZERO PUSH2 0x12F4 JUMPI POP PUSH1 0x6 ADD PUSH2 0xF87 PUSH1 0x44 CALLDATALOAD DUP3 SLOAD PUSH2 0x1BBF JUMP JUMPDEST SWAP1 SSTORE JUMPDEST PUSH1 0x1 DUP1 PUSH1 0xA0 SHL SUB DUP4 AND PUSH1 0x0 MSTORE PUSH1 0x2 PUSH1 0x20 MSTORE PUSH1 0x40 PUSH1 0x0 KECCAK256 PUSH1 0x9 DUP2 ADD PUSH2 0x1388 PUSH1 0xFF DUP3 SLOAD AND SWAP3 SLOAD LT ISZERO DUP1 SWAP3 ISZERO ISZERO SUB PUSH2 0x12A7 JUMPI JUMPDEST POP POP PUSH1 0x40 MLOAD PUSH1 0x20 DUP2 ADD SWAP1 PUSH1 0x1 PUSH1 0x1 PUSH1 0x60 SHL SUB NOT DUP6 PUSH1 0x60 SHL AND DUP3 MSTORE PUSH2 0x100B PUSH1 0x74 DUP3 DUP6 MLOAD PUSH2 0xFED DUP2 PUSH1 0x34 DUP5 ADD PUSH1 0x20 DUP11 ADD PUSH2 0x1A44 JUMP JUMPDEST DUP2 ADD TIMESTAMP PUSH1 0x34 DUP3 ADD MSTORE PUSH1 0x64 CALLDATALOAD PUSH1 0x54 DUP3 ADD MSTORE SUB PUSH1 0x54 DUP2 ADD DUP5 MSTORE ADD DUP3 PUSH2 0x1922 JUMP JUMPDEST MLOAD SWAP1 KECCAK256 SWAP3 PUSH1 0x40 MLOAD DUP1 PUSH1 0xE0 DUP2 ADD LT PUSH8 0xFFFFFFFFFFFFFFFF PUSH1 0xE0 DUP4 ADD GT OR PUSH2 0x11CA JUMPI PUSH1 0xE0 DUP2 ADD PUSH1 0x40 MSTORE PUSH1 0x1 DUP1 PUSH1 0xA0 SHL SUB DUP3 AND DUP2 MSTORE PUSH1 0x20 DUP2 ADD SWAP1 DUP4 DUP3 MSTORE DUP7 PUSH1 0x40 DUP3 ADD MSTORE TIMESTAMP PUSH1 0x60 DUP3 ADD MSTORE PUSH1 0x64 CALLDATALOAD PUSH1 0x80 DUP3 ADD MSTORE PUSH1 0x0 PUSH1 0xA0 DUP3 ADD MSTORE PUSH1 0x0 PUSH1 0xC0 DUP3 ADD MSTORE DUP6 PUSH1 0x0 MSTORE PUSH1 0x3 PUSH1 0x20 MSTORE PUSH1 0x40 PUSH1 0x0 KECCAK256 SWAP2 PUSH1 0x1 DUP1 PUSH1 0xA0 SHL SUB DUP3 MLOAD AND PUSH1 0x1 PUSH1 0x1 PUSH1 0x60 SHL SUB PUSH1 0xA0 SHL DUP5 SLOAD AND OR DUP4 SSTORE MLOAD DUP1 MLOAD SWAP1 PUSH8 0xFFFFFFFFFFFFFFFF DUP3 GT PUSH2 0x11CA JUMPI PUSH2 0x10B1 PUSH1 0x1 DUP6 ADD SLOAD PUSH2 0x1A8D JUMP JUMPDEST PUSH1 0x1F DUP2 GT PUSH2 0x1260 JUMPI JUMPDEST POP PUSH1 0x20 SWAP1 PUSH1 0x1F DUP4 GT PUSH1 0x1 EQ PUSH2 0x11EB JUMPI SWAP2 DUP1 PUSH1 0x6 SWAP5 SWAP3 PUSH1 0xC0 SWAP5 PUSH1 0x0 SWAP3 PUSH2 0x11E0 JUMPI JUMPDEST POP POP DUP2 PUSH1 0x1 SHL SWAP2 PUSH1 0x0 NOT SWAP1 PUSH1 0x3 SHL SHR NOT AND OR PUSH1 0x1 DUP6 ADD SSTORE JUMPDEST PUSH1 0x40 DUP2 ADD MLOAD PUSH1 0x2 DUP6 ADD SSTORE PUSH1 0x60 DUP2 ADD MLOAD PUSH1 0x3 DUP6 ADD SSTORE PUSH1 0x80 DUP2 ADD MLOAD PUSH1 0x4 DUP6 ADD SSTORE PUSH2 0x112F PUSH1 0xA0 DUP3 ADD MLOAD ISZERO ISZERO PUSH1 0x5 DUP7 ADD SWAP1 PUSH1 0xFF DUP1 NOT DUP4 SLOAD AND SWAP2 ISZERO ISZERO AND OR SWAP1 SSTORE JUMP JUMPDEST ADD MLOAD SWAP2 ADD SSTORE PUSH1 0x9 SLOAD SWAP3 PUSH1 0x1 PUSH1 0x40 SHL DUP5 LT ISZERO PUSH2 0x11CA JUMPI PUSH32 0xCB23CE6ABA98960F823DE6A75E35C3EA92C2B9A8D545D3F1E0555EFA752639DC SWAP5 PUSH2 0x1179 DUP6 PUSH1 0x1 PUSH2 0x11AA SWAP8 ADD PUSH1 0x9 SSTORE PUSH2 0x19F5 JUMP JUMPDEST DUP2 SWAP3 SWAP2 SLOAD SWAP1 PUSH1 0x3 SHL SWAP2 DUP3 SHL SWAP2 PUSH1 0x0 NOT SWAP1 SHL NOT AND OR SWAP1 SSTORE TIMESTAMP PUSH1 0xC DUP3 ADD SSTORE SLOAD PUSH1 0x40 MLOAD SWAP4 DUP5 SWAP4 PUSH1 0x60 DUP6 MSTORE PUSH1 0x60 DUP6 ADD SWAP1 PUSH2 0x1AC7 JUMP JUMPDEST PUSH1 0x20 DUP5 ADD SWAP7 SWAP1 SWAP7 MSTORE PUSH1 0x40 DUP4 ADD MSTORE PUSH1 0x1 PUSH1 0x1 PUSH1 0xA0 SHL SUB AND SWAP4 SUB SWAP1 LOG2 PUSH1 0x1 DUP1 SSTORE STOP JUMPDEST PUSH4 0x4E487B71 PUSH1 0xE0 SHL PUSH1 0x0 MSTORE PUSH1 0x41 PUSH1 0x4 MSTORE PUSH1 0x24 PUSH1 0x0 REVERT JUMPDEST ADD MLOAD SWAP1 POP DUP12 DUP1 PUSH2 0x10DA JUMP JUMPDEST SWAP1 PUSH1 0x1 DUP6 ADD PUSH1 0x0 MSTORE PUSH1 0x20 PUSH1 0x0 KECCAK256 SWAP2 PUSH1 0x0 JUMPDEST PUSH1 0x1F NOT DUP6 AND DUP2 LT PUSH2 0x1248 JUMPI POP SWAP3 PUSH1 0x6 SWAP5 SWAP3 PUSH1 0x1 SWAP3 PUSH1 0xC0 SWAP6 DUP4 PUSH1 0x1F NOT DUP2 AND LT PUSH2 0x122F JUMPI JUMPDEST POP POP POP DUP2 SHL ADD PUSH1 0x1 DUP6 ADD SSTORE PUSH2 0x10F2 JUMP JUMPDEST ADD MLOAD PUSH1 0x0 NOT PUSH1 0xF8 DUP5 PUSH1 0x3 SHL AND SHR NOT AND SWAP1 SSTORE DUP12 DUP1 DUP1 PUSH2 0x121F JUMP JUMPDEST SWAP2 SWAP3 PUSH1 0x20 PUSH1 0x1 DUP2 SWAP3 DUP7 DUP6 ADD MLOAD DUP2 SSTORE ADD SWAP5 ADD SWAP3 ADD PUSH2 0x11FC JUMP JUMPDEST PUSH1 0x1 DUP6 ADD PUSH1 0x0 MSTORE PUSH1 0x20 PUSH1 0x0 KECCAK256 PUSH1 0x1F DUP5 ADD PUSH1 0x5 SHR DUP2 ADD PUSH1 0x20 DUP6 LT PUSH2 0x12A0 JUMPI JUMPDEST PUSH1 0x1F DUP4 ADD PUSH1 0x5 SHR DUP3 ADD DUP2 LT PUSH2 0x1294 JUMPI POP POP PUSH2 0x10BA JUMP JUMPDEST PUSH1 0x0 DUP2 SSTORE PUSH1 0x1 ADD PUSH2 0x127E JUMP JUMPDEST POP DUP1 PUSH2 0x127E JUMP JUMPDEST DUP1 SLOAD PUSH1 0xFF NOT AND PUSH1 0xFF DUP4 ISZERO ISZERO AND OR SWAP1 SSTORE PUSH1 0x40 MLOAD SWAP1 DUP2 MSTORE PUSH1 0x1 PUSH1 0x1 PUSH1 0xA0 SHL SUB DUP5 AND SWAP1 PUSH32 0x68F766B57006C62F30F0E35E805E1DC399F813D1C65625051267961513B978C2 SWAP1 PUSH1 0x20 SWAP1 LOG2 DUP5 DUP1 PUSH2 0xFBA JUMP JUMPDEST PUSH1 0x40 MLOAD PUSH1 0x20 DUP2 ADD SWAP1 PUSH15 0x696E61636375726174655F766F7465 PUSH1 0x88 SHL DUP3 MSTORE PUSH1 0xF DUP2 MSTORE PUSH2 0x131E DUP2 PUSH2 0x1906 JUMP JUMPDEST MLOAD SWAP1 KECCAK256 DUP2 EQ DUP1 PUSH2 0x13CE JUMPI JUMPDEST ISZERO PUSH2 0x136D JUMPI POP PUSH1 0x6 ADD DUP1 SLOAD PUSH1 0x44 CALLDATALOAD SWAP1 PUSH2 0x1341 DUP3 PUSH2 0x1BA1 JUMP JUMPDEST LT ISZERO PUSH2 0x1363 JUMPI PUSH2 0x135C SWAP1 PUSH2 0x1356 DUP4 SLOAD SWAP2 PUSH2 0x1BA1 JUMP JUMPDEST SWAP1 PUSH2 0x1BB2 JUMP JUMPDEST SWAP1 SSTORE PUSH2 0xF8A JUMP JUMPDEST POP PUSH1 0x0 SWAP1 SSTORE PUSH2 0xF8A JUMP JUMPDEST PUSH1 0x40 MLOAD PUSH1 0x20 DUP2 ADD SWAP1 PUSH16 0x31B7B73A32B73A2FB1B932B0BA34B7B7 PUSH1 0x81 SHL DUP3 MSTORE PUSH1 0x10 DUP2 MSTORE PUSH2 0x1398 DUP2 PUSH2 0x1906 JUMP JUMPDEST MLOAD SWAP1 KECCAK256 EQ DUP1 PUSH2 0x13C5 JUMPI JUMPDEST PUSH2 0x13AD JUMPI JUMPDEST POP PUSH2 0xF8A JUMP JUMPDEST PUSH1 0x8 ADD PUSH2 0x13BD PUSH1 0x44 CALLDATALOAD DUP3 SLOAD PUSH2 0x1BBF JUMP JUMPDEST SWAP1 SSTORE DUP5 PUSH2 0x13A7 JUMP JUMPDEST POP PUSH1 0x84 CALLDATALOAD PUSH2 0x13A2 JUMP JUMPDEST POP PUSH1 0x84 CALLDATALOAD ISZERO PUSH2 0x1329 JUMP JUMPDEST POP PUSH1 0x84 CALLDATALOAD PUSH2 0xF71 JUMP JUMPDEST DUP3 SSTORE DUP5 PUSH2 0xEF9 JUMP JUMPDEST PUSH2 0x13F2 DUP5 PUSH2 0x1BA1 JUMP JUMPDEST DUP1 DUP4 SLOAD GT PUSH1 0x0 EQ PUSH2 0x140F JUMPI PUSH2 0x1408 SWAP1 DUP4 SLOAD PUSH2 0x1BB2 JUMP JUMPDEST DUP3 SSTORE PUSH2 0xEFB JUMP JUMPDEST POP PUSH1 0x0 DUP3 SSTORE PUSH2 0xEFB JUMP JUMPDEST PUSH1 0x64 PUSH2 0x142B PUSH2 0x1431 SWAP3 PUSH1 0x44 CALLDATALOAD SWAP1 PUSH2 0x1B8E JUMP JUMPDEST DIV PUSH2 0x1BA1 JUMP JUMPDEST SWAP3 PUSH2 0xED7 JUMP JUMPDEST PUSH1 0x40 MLOAD PUSH3 0x461BCD PUSH1 0xE5 SHL DUP2 MSTORE PUSH1 0x20 PUSH1 0x4 DUP3 ADD MSTORE PUSH1 0x13 PUSH1 0x24 DUP3 ADD MSTORE PUSH19 0x496E76616C696420616374696F6E2074797065 PUSH1 0x68 SHL PUSH1 0x44 DUP3 ADD MSTORE PUSH1 0x64 SWAP1 REVERT JUMPDEST PUSH1 0x40 MLOAD PUSH3 0x461BCD PUSH1 0xE5 SHL DUP2 MSTORE PUSH1 0x20 PUSH1 0x4 DUP3 ADD MSTORE PUSH1 0x14 PUSH1 0x24 DUP3 ADD MSTORE PUSH20 0x496E76616C696420757365722061646472657373 PUSH1 0x60 SHL PUSH1 0x44 DUP3 ADD MSTORE PUSH1 0x64 SWAP1 REVERT JUMPDEST PUSH1 0x40 MLOAD PUSH4 0x3EE5AEB5 PUSH1 0xE0 SHL DUP2 MSTORE PUSH1 0x4 SWAP1 REVERT JUMPDEST CALLVALUE PUSH2 0x225 JUMPI PUSH1 0x0 CALLDATASIZE PUSH1 0x3 NOT ADD SLT PUSH2 0x225 JUMPI PUSH1 0x20 PUSH1 0x40 MLOAD PUSH2 0x1388 DUP2 MSTORE RETURN JUMPDEST CALLVALUE PUSH2 0x225 JUMPI PUSH1 0x20 CALLDATASIZE PUSH1 0x3 NOT ADD SLT PUSH2 0x225 JUMPI PUSH1 0x1 PUSH1 0x1 PUSH1 0xA0 SHL SUB PUSH2 0x14FE PUSH2 0x19DF JUMP JUMPDEST AND PUSH1 0x0 MSTORE PUSH1 0x5 PUSH1 0x20 MSTORE PUSH1 0x20 PUSH1 0xFF PUSH1 0x40 PUSH1 0x0 KECCAK256 SLOAD AND PUSH1 0x40 MLOAD SWAP1 ISZERO ISZERO DUP2 MSTORE RETURN JUMPDEST CALLVALUE PUSH2 0x225 JUMPI PUSH1 0x20 CALLDATASIZE PUSH1 0x3 NOT ADD SLT PUSH2 0x225 JUMPI PUSH2 0x1535 PUSH2 0x19DF JUMP JUMPDEST PUSH2 0x153D PUSH2 0x1B1E JUMP JUMPDEST PUSH1 0x1 DUP1 PUSH1 0xA0 SHL SUB AND PUSH1 0x0 MSTORE PUSH1 0x2 PUSH1 0x20 MSTORE PUSH1 0x9 PUSH1 0x40 PUSH1 0x0 KECCAK256 PUSH1 0x0 DUP2 SSTORE PUSH1 0x0 PUSH1 0x6 DUP3 ADD SSTORE PUSH1 0x0 PUSH1 0x7 DUP3 ADD SSTORE PUSH1 0x0 PUSH1 0x8 DUP3 ADD SSTORE PUSH1 0x0 PUSH1 0x3 DUP3 ADD SSTORE ADD PUSH1 0xFF NOT DUP2 SLOAD AND SWAP1 SSTORE PUSH1 0x0 DUP1 RETURN JUMPDEST CALLVALUE PUSH2 0x225 JUMPI PUSH1 0x20 DUP1 PUSH1 0x3 NOT CALLDATASIZE ADD SLT PUSH2 0x225 JUMPI PUSH1 0x1 PUSH1 0x1 PUSH1 0xA0 SHL SUB PUSH2 0x15A4 PUSH2 0x19DF JUMP JUMPDEST AND SWAP1 CALLER DUP3 EQ PUSH2 0x170D JUMPI CALLER PUSH1 0x0 MSTORE PUSH1 0x2 DUP2 MSTORE PUSH2 0x3E8 PUSH1 0x40 PUSH1 0x0 KECCAK256 SLOAD LT PUSH2 0x16BE JUMPI CALLER PUSH1 0x0 MSTORE PUSH1 0x6 DUP2 MSTORE PUSH1 0x40 PUSH1 0x0 KECCAK256 DUP3 PUSH1 0x0 MSTORE DUP2 MSTORE PUSH1 0x40 PUSH1 0x0 KECCAK256 SLOAD PUSH2 0x1687 JUMPI CALLER PUSH1 0x0 MSTORE PUSH1 0x2 DUP2 MSTORE PUSH1 0x2 PUSH1 0x64 PUSH1 0x40 PUSH1 0x0 KECCAK256 SLOAD DIV SWAP2 PUSH1 0x6 DUP2 MSTORE PUSH1 0x40 PUSH1 0x0 KECCAK256 DUP5 PUSH1 0x0 MSTORE DUP2 MSTORE DUP3 PUSH1 0x40 PUSH1 0x0 KECCAK256 SSTORE PUSH1 0x7 DUP2 MSTORE PUSH2 0x161C CALLER PUSH1 0x40 PUSH1 0x0 KECCAK256 PUSH2 0x1BCC JUMP JUMPDEST DUP4 PUSH1 0x0 MSTORE MSTORE PUSH2 0x1647 PUSH1 0x40 PUSH1 0x0 KECCAK256 SWAP2 PUSH1 0x8 DUP4 ADD PUSH2 0x1639 DUP3 DUP3 SLOAD PUSH2 0x1BBF JUMP JUMPDEST SWAP1 SSTORE DUP3 SLOAD SWAP1 PUSH1 0x1 SHR SWAP1 PUSH2 0x1BBF JUMP JUMPDEST SWAP1 DUP2 DUP2 SSTORE PUSH2 0x2710 DUP1 SWAP3 GT PUSH2 0x167F JUMPI JUMPDEST DUP3 CALLER PUSH32 0x98E9D32FE2D0D678817F18B4F079D2699A01440F871FEE0DA664FFFBB0FA3BE6 PUSH1 0x0 DUP1 LOG3 STOP JUMPDEST SSTORE DUP2 DUP1 PUSH2 0x1656 JUMP JUMPDEST PUSH1 0x64 SWAP1 PUSH1 0x40 MLOAD SWAP1 PUSH3 0x461BCD PUSH1 0xE5 SHL DUP3 MSTORE PUSH1 0x4 DUP3 ADD MSTORE PUSH1 0x10 PUSH1 0x24 DUP3 ADD MSTORE PUSH16 0x105B1C9958591E48195B991BDC9CD959 PUSH1 0x82 SHL PUSH1 0x44 DUP3 ADD MSTORE REVERT JUMPDEST PUSH1 0x84 SWAP1 PUSH1 0x40 MLOAD SWAP1 PUSH3 0x461BCD PUSH1 0xE5 SHL DUP3 MSTORE PUSH1 0x4 DUP3 ADD MSTORE PUSH1 0x22 PUSH1 0x24 DUP3 ADD MSTORE PUSH32 0x496E73756666696369656E742072657075746174696F6E20746F20656E646F72 PUSH1 0x44 DUP3 ADD MSTORE PUSH2 0x7365 PUSH1 0xF0 SHL PUSH1 0x64 DUP3 ADD MSTORE REVERT JUMPDEST PUSH1 0x64 SWAP1 PUSH1 0x40 MLOAD SWAP1 PUSH3 0x461BCD PUSH1 0xE5 SHL DUP3 MSTORE PUSH1 0x4 DUP3 ADD MSTORE PUSH1 0x17 PUSH1 0x24 DUP3 ADD MSTORE PUSH32 0x43616E6E6F7420656E646F72736520796F757273656C66000000000000000000 PUSH1 0x44 DUP3 ADD MSTORE REVERT JUMPDEST CALLVALUE PUSH2 0x225 JUMPI PUSH1 0x40 CALLDATASIZE PUSH1 0x3 NOT ADD SLT PUSH2 0x225 JUMPI PUSH2 0x176A PUSH2 0x19DF JUMP JUMPDEST PUSH1 0x24 CALLDATALOAD PUSH8 0xFFFFFFFFFFFFFFFF DUP2 GT PUSH2 0x225 JUMPI PUSH1 0x20 SWAP2 PUSH2 0x1790 PUSH2 0x17B1 SWAP3 CALLDATASIZE SWAP1 PUSH1 0x4 ADD PUSH2 0x1944 JUMP JUMPDEST PUSH1 0x1 PUSH1 0x1 PUSH1 0xA0 SHL SUB SWAP1 SWAP2 AND PUSH1 0x0 SWAP1 DUP2 MSTORE PUSH1 0x2 DUP5 MSTORE PUSH1 0x40 SWAP1 KECCAK256 PUSH1 0xD ADD SWAP1 PUSH2 0x1A67 JUMP JUMPDEST SLOAD PUSH1 0x40 MLOAD SWAP1 DUP2 MSTORE RETURN JUMPDEST CALLVALUE PUSH2 0x225 JUMPI PUSH1 0x40 CALLDATASIZE PUSH1 0x3 NOT ADD SLT PUSH2 0x225 JUMPI PUSH2 0x17D3 PUSH2 0x19DF JUMP JUMPDEST PUSH1 0x24 CALLDATALOAD SWAP1 PUSH1 0x1 DUP1 PUSH1 0xA0 SHL SUB DUP1 SWAP2 AND PUSH1 0x0 MSTORE PUSH1 0x7 PUSH1 0x20 MSTORE PUSH1 0x40 PUSH1 0x0 KECCAK256 DUP1 SLOAD DUP4 LT ISZERO PUSH2 0x225 JUMPI PUSH1 0x20 SWAP3 PUSH2 0x1803 SWAP2 PUSH2 0x1A2C JUMP JUMPDEST SWAP2 SWAP1 SLOAD PUSH1 0x40 MLOAD SWAP3 PUSH1 0x3 SHL SHR AND DUP2 MSTORE RETURN JUMPDEST CALLVALUE PUSH2 0x225 JUMPI PUSH1 0x0 CALLDATASIZE PUSH1 0x3 NOT ADD SLT PUSH2 0x225 JUMPI PUSH1 0x20 PUSH1 0x40 MLOAD PUSH1 0x5 DUP2 MSTORE RETURN JUMPDEST CALLVALUE PUSH2 0x225 JUMPI PUSH1 0x20 CALLDATASIZE PUSH1 0x3 NOT ADD SLT PUSH2 0x225 JUMPI PUSH2 0x1848 PUSH2 0x19DF JUMP JUMPDEST PUSH2 0x1850 PUSH2 0x1B1E JUMP JUMPDEST PUSH1 0x1 PUSH1 0x1 PUSH1 0xA0 SHL SUB AND PUSH1 0x0 SWAP1 DUP2 MSTORE PUSH1 0x5 PUSH1 0x20 MSTORE PUSH1 0x40 SWAP1 KECCAK256 DUP1 SLOAD PUSH1 0xFF NOT AND PUSH1 0x1 OR SWAP1 SSTORE STOP JUMPDEST CALLVALUE PUSH2 0x225 JUMPI PUSH1 0x20 DUP1 PUSH1 0x3 NOT CALLDATASIZE ADD SLT PUSH2 0x225 JUMPI PUSH1 0x4 CALLDATALOAD PUSH8 0xFFFFFFFFFFFFFFFF DUP2 GT PUSH2 0x225 JUMPI DUP2 PUSH2 0x808 PUSH2 0x18AA SWAP3 CALLDATASIZE SWAP1 PUSH1 0x4 ADD PUSH2 0x1944 JUMP JUMPDEST DUP2 ADD PUSH1 0x8 DUP2 MSTORE SUB ADD SWAP1 KECCAK256 SWAP1 PUSH1 0x40 MLOAD SWAP1 DUP2 DUP2 DUP5 SLOAD SWAP2 DUP3 DUP2 MSTORE ADD SWAP4 PUSH1 0x0 MSTORE DUP2 PUSH1 0x0 KECCAK256 SWAP2 PUSH1 0x0 SWAP1 JUMPDEST DUP3 DUP3 LT PUSH2 0x18E6 JUMPI PUSH2 0x794 DUP6 PUSH2 0x788 DUP2 DUP10 SUB DUP3 PUSH2 0x1922 JUMP JUMPDEST DUP4 SLOAD PUSH1 0x1 PUSH1 0x1 PUSH1 0xA0 SHL SUB AND DUP7 MSTORE SWAP5 DUP6 ADD SWAP5 PUSH1 0x1 SWAP4 DUP5 ADD SWAP4 SWAP1 SWAP2 ADD SWAP1 PUSH2 0x18CF JUMP JUMPDEST PUSH1 0x40 DUP2 ADD SWAP1 DUP2 LT PUSH8 0xFFFFFFFFFFFFFFFF DUP3 GT OR PUSH2 0x11CA JUMPI PUSH1 0x40 MSTORE JUMP JUMPDEST SWAP1 PUSH1 0x1F DUP1 NOT SWAP2 ADD AND DUP2 ADD SWAP1 DUP2 LT PUSH8 0xFFFFFFFFFFFFFFFF DUP3 GT OR PUSH2 0x11CA JUMPI PUSH1 0x40 MSTORE JUMP JUMPDEST DUP2 PUSH1 0x1F DUP3 ADD SLT ISZERO PUSH2 0x225 JUMPI DUP1 CALLDATALOAD SWAP1 PUSH8 0xFFFFFFFFFFFFFFFF DUP3 GT PUSH2 0x11CA JUMPI PUSH1 0x40 MLOAD SWAP3 PUSH2 0x1979 PUSH1 0x1F DUP5 ADD PUSH1 0x1F NOT AND PUSH1 0x20 ADD DUP6 PUSH2 0x1922 JUMP JUMPDEST DUP3 DUP5 MSTORE PUSH1 0x20 DUP4 DUP4 ADD ADD GT PUSH2 0x225 JUMPI DUP2 PUSH1 0x0 SWAP3 PUSH1 0x20 DUP1 SWAP4 ADD DUP4 DUP7 ADD CALLDATACOPY DUP4 ADD ADD MSTORE SWAP1 JUMP JUMPDEST PUSH1 0x20 SWAP1 DUP2 PUSH1 0x40 DUP2 DUP4 ADD SWAP3 DUP3 DUP2 MSTORE DUP6 MLOAD DUP1 SWAP5 MSTORE ADD SWAP4 ADD SWAP2 PUSH1 0x0 JUMPDEST DUP3 DUP2 LT PUSH2 0x19C2 JUMPI POP POP POP POP SWAP1 JUMP JUMPDEST DUP4 MLOAD PUSH1 0x1 PUSH1 0x1 PUSH1 0xA0 SHL SUB AND DUP6 MSTORE SWAP4 DUP2 ADD SWAP4 SWAP3 DUP2 ADD SWAP3 PUSH1 0x1 ADD PUSH2 0x19B4 JUMP JUMPDEST PUSH1 0x4 CALLDATALOAD SWAP1 PUSH1 0x1 PUSH1 0x1 PUSH1 0xA0 SHL SUB DUP3 AND DUP3 SUB PUSH2 0x225 JUMPI JUMP JUMPDEST PUSH1 0x9 SLOAD DUP2 LT ISZERO PUSH2 0xAAB JUMPI PUSH1 0x9 PUSH1 0x0 MSTORE PUSH32 0x6E1540171B6C0C960B71A7020D9F60077F6AF931A8BBF590DA0223DACF75C7AF ADD SWAP1 PUSH1 0x0 SWAP1 JUMP JUMPDEST DUP1 SLOAD DUP3 LT ISZERO PUSH2 0xAAB JUMPI PUSH1 0x0 MSTORE PUSH1 0x20 PUSH1 0x0 KECCAK256 ADD SWAP1 PUSH1 0x0 SWAP1 JUMP JUMPDEST PUSH1 0x0 JUMPDEST DUP4 DUP2 LT PUSH2 0x1A57 JUMPI POP POP PUSH1 0x0 SWAP2 ADD MSTORE JUMP JUMPDEST DUP2 DUP2 ADD MLOAD DUP4 DUP3 ADD MSTORE PUSH1 0x20 ADD PUSH2 0x1A47 JUMP JUMPDEST PUSH1 0x20 SWAP1 PUSH2 0x1A81 SWAP3 DUP3 PUSH1 0x40 MLOAD SWAP5 DUP4 DUP7 DUP1 SWAP6 MLOAD SWAP4 DUP5 SWAP3 ADD PUSH2 0x1A44 JUMP JUMPDEST DUP3 ADD SWAP1 DUP2 MSTORE SUB ADD SWAP1 KECCAK256 SWAP1 JUMP JUMPDEST SWAP1 PUSH1 0x1 DUP3 DUP2 SHR SWAP3 AND DUP1 ISZERO PUSH2 0x1ABD JUMPI JUMPDEST PUSH1 0x20 DUP4 LT EQ PUSH2 0x1AA7 JUMPI JUMP JUMPDEST PUSH4 0x4E487B71 PUSH1 0xE0 SHL PUSH1 0x0 MSTORE PUSH1 0x22 PUSH1 0x4 MSTORE PUSH1 0x24 PUSH1 0x0 REVERT JUMPDEST SWAP2 PUSH1 0x7F AND SWAP2 PUSH2 0x1A9C JUMP JUMPDEST SWAP1 PUSH1 0x20 SWAP2 PUSH2 0x1AE0 DUP2 MLOAD DUP1 SWAP3 DUP2 DUP6 MSTORE DUP6 DUP1 DUP7 ADD SWAP2 ADD PUSH2 0x1A44 JUMP JUMPDEST PUSH1 0x1F ADD PUSH1 0x1F NOT AND ADD ADD SWAP1 JUMP JUMPDEST PUSH1 0x40 PUSH1 0x3 NOT DUP3 ADD SLT PUSH2 0x225 JUMPI PUSH1 0x4 CALLDATALOAD SWAP1 PUSH8 0xFFFFFFFFFFFFFFFF DUP3 GT PUSH2 0x225 JUMPI PUSH2 0x1B17 SWAP2 PUSH1 0x4 ADD PUSH2 0x1944 JUMP JUMPDEST SWAP1 PUSH1 0x24 CALLDATALOAD SWAP1 JUMP JUMPDEST PUSH1 0x0 SLOAD PUSH1 0x1 PUSH1 0x1 PUSH1 0xA0 SHL SUB AND CALLER SUB PUSH2 0x1B32 JUMPI JUMP JUMPDEST PUSH1 0x40 MLOAD PUSH4 0x118CDAA7 PUSH1 0xE0 SHL DUP2 MSTORE CALLER PUSH1 0x4 DUP3 ADD MSTORE PUSH1 0x24 SWAP1 REVERT JUMPDEST ISZERO PUSH2 0x1B51 JUMPI JUMP JUMPDEST PUSH1 0x40 MLOAD PUSH3 0x461BCD PUSH1 0xE5 SHL DUP2 MSTORE PUSH1 0x20 PUSH1 0x4 DUP3 ADD MSTORE PUSH1 0x15 PUSH1 0x24 DUP3 ADD MSTORE PUSH21 0x4E6F7420617574686F72697A6564206F7261636C65 PUSH1 0x58 SHL PUSH1 0x44 DUP3 ADD MSTORE PUSH1 0x64 SWAP1 REVERT JUMPDEST DUP2 DUP2 MUL SWAP3 SWAP2 DUP2 ISZERO SWAP2 DUP5 DIV EQ OR ISZERO PUSH2 0xAC1 JUMPI JUMP JUMPDEST PUSH1 0x1 PUSH1 0xFF SHL DUP2 EQ PUSH2 0xAC1 JUMPI PUSH1 0x0 SUB SWAP1 JUMP JUMPDEST SWAP2 SWAP1 DUP3 SUB SWAP2 DUP3 GT PUSH2 0xAC1 JUMPI JUMP JUMPDEST SWAP2 SWAP1 DUP3 ADD DUP1 SWAP3 GT PUSH2 0xAC1 JUMPI JUMP JUMPDEST SWAP1 DUP2 SLOAD SWAP2 PUSH1 0x1 PUSH1 0x40 SHL DUP4 LT ISZERO PUSH2 0x11CA JUMPI DUP3 PUSH2 0xCF1 SWAP2 PUSH1 0x1 PUSH2 0x1BEF SWAP6 ADD DUP2 SSTORE PUSH2 0x1A2C JUMP JUMPDEST JUMP JUMPDEST PUSH1 0x1 PUSH1 0x1 PUSH1 0xA0 SHL SUB AND PUSH1 0x0 SWAP1 DUP2 MSTORE PUSH1 0x2 PUSH1 0x20 MSTORE PUSH1 0x40 SWAP1 KECCAK256 PUSH1 0xC DUP2 ADD DUP1 SLOAD ISZERO PUSH2 0x1C83 JUMPI PUSH2 0x1C22 PUSH3 0x278D00 SWAP2 SLOAD TIMESTAMP PUSH2 0x1BB2 JUMP JUMPDEST DIV DUP1 PUSH2 0x1C2C JUMPI POP POP JUMP JUMPDEST DUP2 SLOAD SWAP2 PUSH1 0x5 DUP4 MUL SWAP1 DUP4 DUP3 DIV PUSH1 0x5 EQ DUP5 ISZERO OR ISZERO PUSH2 0xAC1 JUMPI PUSH2 0x3E8 PUSH2 0x1C54 PUSH2 0x1C76 SWAP5 PUSH1 0xB SWAP5 PUSH2 0x1B8E JUMP JUMPDEST DIV DUP1 SWAP5 GT PUSH1 0x0 EQ PUSH2 0x1C7A JUMPI PUSH2 0x1C6A DUP5 DUP3 SLOAD PUSH2 0x1BB2 JUMP JUMPDEST DUP2 SSTORE JUMPDEST ADD SWAP2 DUP3 SLOAD PUSH2 0x1BBF JUMP JUMPDEST SWAP1 SSTORE JUMP JUMPDEST PUSH1 0x0 DUP2 SSTORE PUSH2 0x1C6D JUMP JUMPDEST TIMESTAMP SWAP1 SSTORE POP JUMP JUMPDEST PUSH1 0x0 NOT DUP2 EQ PUSH2 0xAC1 JUMPI PUSH1 0x1 ADD SWAP1 JUMP JUMPDEST PUSH8 0xFFFFFFFFFFFFFFFF DUP2 GT PUSH2 0x11CA JUMPI PUSH1 0x5 SHL PUSH1 0x20 ADD SWAP1 JUMP INVALID NOT CODECOPY 0xD2 0xDF 0xB0 0x5D SWAP11 0xF8 DUP11 CREATE 0xD7 SWAP3 OR 0xCC REVERT 0xC4 0xE3 LOG4 PUSH9 0xFB1BA8510DBCA433E6 PUSH13 0x62F704A2646970667358221220 0xB9 DUP13 SWAP2 0xC9 DUP10 GASPRICE PUSH4 0x57B5B707 GAS PUSH17 0x7BC754AC29E080B38469D5A2BE8A766CCF 0xBF 0xE4 PUSH5 0x736F6C6343 STOP ADDMOD EQ STOP CALLER "},"methodIdentifiers":{"AI_VALIDATION_WEIGHT()":"b4032c12","DECAY_RATE()":"1de40e49","INFLUENCER_THRESHOLD()":"607bb11a","MAX_REPUTATION()":"d213c0f2","actionTypeWeights(string)":"8788f9b7","allTransactions(uint256)":"d7ff0714","authorizeOracle(address)":"0f13b763","authorizedValidators(address)":"58714163","emergencyResetUser(address)":"4f893f54","endorseUser(address)":"39a811ee","endorsedBy(address,uint256)":"2b6033a4","endorsements(address,address)":"e3bf0aff","expertsByArea(string,uint256)":"bc1a2fdf","getEndorsements(address)":"b666ca9d","getExpertsByArea(string)":"0a75bbb8","getRecentTransactions(uint256)":"79cecf46","getTotalTransactions()":"b5c604ff","getUserExpertise(address,string)":"2d1f523a","getUserReputation(address)":"baccbfdb","owner()":"8da5cb5b","renounceOwnership()":"715018a6","reputationHistory(bytes32)":"9abd6eb4","submitAIValidation(bytes32,uint256,bool)":"e1c5c2e4","totalUsers()":"bff1f9e1","transferOwnership(address)":"f2fde38b","updateActionTypeWeight(string,uint256)":"b0ac4226","updateExpertiseArea(address,string,uint256)":"6f44180d","updateReputation(address,string,int256,bytes32,bool)":"676a4bd5","userReputations(address)":"f8b11691"}},"storageLayout":{"storage":[{"astId":388,"contract":"contracts/ReputationSystem.sol:ReputationSystem","label":"_owner","offset":0,"slot":"0","type":"t_address"},{"astId":1512,"contract":"contracts/ReputationSystem.sol:ReputationSystem","label":"_status","offset":0,"slot":"1","type":"t_uint256"},{"astId":3928,"contract":"contracts/ReputationSystem.sol:ReputationSystem","label":"userReputations","offset":0,"slot":"2","type":"t_mapping(t_address,t_struct(UserReputation)3908_storage)"},{"astId":3933,"contract":"contracts/ReputationSystem.sol:ReputationSystem","label":"reputationHistory","offset":0,"slot":"3","type":"t_mapping(t_bytes32,t_struct(ReputationTransaction)3923_storage)"},{"astId":3937,"contract":"contracts/ReputationSystem.sol:ReputationSystem","label":"actionTypeWeights","offset":0,"slot":"4","type":"t_mapping(t_string_memory_ptr,t_uint256)"},{"astId":3941,"contract":"contracts/ReputationSystem.sol:ReputationSystem","label":"authorizedValidators","offset":0,"slot":"5","type":"t_mapping(t_address,t_bool)"},{"astId":3947,"contract":"contracts/ReputationSystem.sol:ReputationSystem","label":"endorsements","offset":0,"slot":"6","type":"t_mapping(t_address,t_mapping(t_address,t_uint256))"},{"astId":3952,"contract":"contracts/ReputationSystem.sol:ReputationSystem","label":"endorsedBy","offset":0,"slot":"7","type":"t_mapping(t_address,t_array(t_address)dyn_storage)"},{"astId":3957,"contract":"contracts/ReputationSystem.sol:ReputationSystem","label":"expertsByArea","offset":0,"slot":"8","type":"t_mapping(t_string_memory_ptr,t_array(t_address)dyn_storage)"},{"astId":3972,"contract":"contracts/ReputationSystem.sol:ReputationSystem","label":"allTransactions","offset":0,"slot":"9","type":"t_array(t_bytes32)dyn_storage"},{"astId":3974,"contract":"contracts/ReputationSystem.sol:ReputationSystem","label":"totalUsers","offset":0,"slot":"10","type":"t_uint256"}],"types":{"t_address":{"encoding":"inplace","label":"address","numberOfBytes":"20"},"t_array(t_address)dyn_storage":{"base":"t_address","encoding":"dynamic_array","label":"address[]","numberOfBytes":"32"},"t_array(t_bytes32)dyn_storage":{"base":"t_bytes32","encoding":"dynamic_array","label":"bytes32[]","numberOfBytes":"32"},"t_bool":{"encoding":"inplace","label":"bool","numberOfBytes":"1"},"t_bytes32":{"encoding":"inplace","label":"bytes32","numberOfBytes":"32"},"t_int256":{"encoding":"inplace","label":"int256","numberOfBytes":"32"},"t_mapping(t_address,t_array(t_address)dyn_storage)":{"encoding":"mapping","key":"t_address","label":"mapping(address => address[])","numberOfBytes":"32","value":"t_array(t_address)dyn_storage"},"t_mapping(t_address,t_bool)":{"encoding":"mapping","key":"t_address","label":"mapping(address => bool)","numberOfBytes":"32","value":"t_bool"},"t_mapping(t_address,t_mapping(t_address,t_uint256))":{"encoding":"mapping","key":"t_address","label":"mapping(address => mapping(address => uint256))","numberOfBytes":"32","value":"t_mapping(t_address,t_uint256)"},"t_mapping(t_address,t_struct(UserReputation)3908_storage)":{"encoding":"mapping","key":"t_address","label":"mapping(address => struct ReputationSystem.UserReputation)","numberOfBytes":"32","value":"t_struct(UserReputation)3908_storage"},"t_mapping(t_address,t_uint256)":{"encoding":"mapping","key":"t_address","label":"mapping(address => uint256)","numberOfBytes":"32","value":"t_uint256"},"t_mapping(t_bytes32,t_struct(ReputationTransaction)3923_storage)":{"encoding":"mapping","key":"t_bytes32","label":"mapping(bytes32 => struct ReputationSystem.ReputationTransaction)","numberOfBytes":"32","value":"t_struct(ReputationTransaction)3923_storage"},"t_mapping(t_string_memory_ptr,t_array(t_address)dyn_storage)":{"encoding":"mapping","key":"t_string_memory_ptr","label":"mapping(string => address[])","numberOfBytes":"32","value":"t_array(t_address)dyn_storage"},"t_mapping(t_string_memory_ptr,t_uint256)":{"encoding":"mapping","key":"t_string_memory_ptr","label":"mapping(string => uint256)","numberOfBytes":"32","value":"t_uint256"},"t_string_memory_ptr":{"encoding":"bytes","label":"string","numberOfBytes":"32"},"t_string_storage":{"encoding":"bytes","label":"string","numberOfBytes":"32"},"t_struct(ReputationTransaction)3923_storage":{"encoding":"inplace","label":"struct ReputationSystem.ReputationTransaction","members":[{"astId":3910,"contract":"contracts/ReputationSystem.sol:ReputationSystem","label":"user","offset":0,"slot":"0","type":"t_address"},{"astId":3912,"contract":"contracts/ReputationSystem.sol:ReputationSystem","label":"actionType","offset":0,"slot":"1","type":"t_string_storage"},{"astId":3914,"contract":"contracts/ReputationSystem.sol:ReputationSystem","label":"scoreChange","offset":0,"slot":"2","type":"t_int256"},{"astId":3916,"contract":"contracts/ReputationSystem.sol:ReputationSystem","label":"timestamp","offset":0,"slot":"3","type":"t_uint256"},{"astId":3918,"contract":"contracts/ReputationSystem.sol:ReputationSystem","label":"evidenceHash","offset":0,"slot":"4","type":"t_bytes32"},{"astId":3920,"contract":"contracts/ReputationSystem.sol:ReputationSystem","label":"aiValidated","offset":0,"slot":"5","type":"t_bool"},{"astId":3922,"contract":"contracts/ReputationSystem.sol:ReputationSystem","label":"confidenceScore","offset":0,"slot":"6","type":"t_uint256"}],"numberOfBytes":"224"},"t_struct(UserReputation)3908_storage":{"encoding":"inplace","label":"struct ReputationSystem.UserReputation","members":[{"astId":3879,"contract":"contracts/ReputationSystem.sol:ReputationSystem","label":"totalScore","offset":0,"slot":"0","type":"t_uint256"},{"astId":3881,"contract":"contracts/ReputationSystem.sol:ReputationSystem","label":"contentScore","offset":0,"slot":"1","type":"t_uint256"},{"astId":3883,"contract":"contracts/ReputationSystem.sol:ReputationSystem","label":"communityScore","offset":0,"slot":"2","type":"t_uint256"},{"astId":3885,"contract":"contracts/ReputationSystem.sol:ReputationSystem","label":"aiValidationScore","offset":0,"slot":"3","type":"t_uint256"},{"astId":3887,"contract":"contracts/ReputationSystem.sol:ReputationSystem","label":"lastUpdateTime","offset":0,"slot":"4","type":"t_uint256"},{"astId":3889,"contract":"contracts/ReputationSystem.sol:ReputationSystem","label":"isActive","offset":0,"slot":"5","type":"t_bool"},{"astId":3891,"contract":"contracts/ReputationSystem.sol:ReputationSystem","label":"votingAccuracy","offset":0,"slot":"6","type":"t_uint256"},{"astId":3893,"contract":"contracts/ReputationSystem.sol:ReputationSystem","label":"stakingHistory","offset":0,"slot":"7","type":"t_uint256"},{"astId":3895,"contract":"contracts/ReputationSystem.sol:ReputationSystem","label":"communityContribution","offset":0,"slot":"8","type":"t_uint256"},{"astId":3897,"contract":"contracts/ReputationSystem.sol:ReputationSystem","label":"isInfluencer","offset":0,"slot":"9","type":"t_bool"},{"astId":3899,"contract":"contracts/ReputationSystem.sol:ReputationSystem","label":"followerCount","offset":0,"slot":"10","type":"t_uint256"},{"astId":3901,"contract":"contracts/ReputationSystem.sol:ReputationSystem","label":"timeBasedDecay","offset":0,"slot":"11","type":"t_uint256"},{"astId":3903,"contract":"contracts/ReputationSystem.sol:ReputationSystem","label":"lastUpdateTimestamp","offset":0,"slot":"12","type":"t_uint256"},{"astId":3907,"contract":"contracts/ReputationSystem.sol:ReputationSystem","label":"expertiseAreas","offset":0,"slot":"13","type":"t_mapping(t_string_memory_ptr,t_uint256)"}],"numberOfBytes":"448"},"t_uint256":{"encoding":"inplace","label":"uint256","numberOfBytes":"32"}}}}}}